{
	"data": {
		"bytecode": {
			"linkReferences": {},
			"object": "608060405261539b806100136000396000f3fe6080604052600436106104055760003560e01c806375b238fc11610213578063bece753211610123578063e2ee29c3116100ab578063ef78d4fd1161007a578063ef78d4fd14610dd2578063f09a401614610de7578063f4f06eed14610e22578063f58c7acf14610e52578063f5f593a714610e6757610405565b8063e2ee29c314610d54578063e77349e714610d69578063e84abef114610d7e578063ece7ddbf14610da857610405565b8063d1e3175a116100f2578063d1e3175a14610cc7578063d26d1fe614610cdc578063d3a057c814610cf1578063d547741f14610d06578063e286bca514610d3f57610405565b8063bece753214610c34578063c086381e14610c49578063c311d04914610c73578063ca15c87314610c9d57610405565b806391d14854116101a6578063a217fddf11610175578063a217fddf14610b8a578063a3053e2a14610b9f578063b1eb816f14610bc9578063bc50040914610bf5578063bcffe5f414610c0a57610405565b806391d1485414610ae85780639358928b14610b21578063947b938314610b365780639e3202c914610b6057610405565b806384433221116101e25780638443322114610a10578063896e9ce014610a3a5780638eb6ac7a14610a4f5780639010d07c14610a9c57610405565b806375b238fc1461098957806375c303c91461099e5780637b4e610a146109b357806381e7e20e146109dd57610405565b80632b6fb51d11610319578063439370b1116102a15780634f8c4a45116102705780634f8c4a45146108ce578063519baf94146108e35780635f07cbc2146108f857806361d21875146109225780636260f55b1461097457610405565b8063439370b11461084457806343f48fbd1461084c57806346debf311461087a5780634d7de20c146108b957610405565b8063363ecbc0116102e8578063363ecbc01461079357806336568abe146107cc578063376fe05b1461080557806339c6d4cb1461081a5780633fb7a0ab1461082f57610405565b80632b6fb51d1461069c5780632cdf21f3146106fd5780632f2ff15d146107275780632f81b5df1461076057610405565b8063191fd57d1161039c5780632014e5d11161036b5780632014e5d1146105d7578063248a9ca314610600578063284fef4b1461062a5780632949f19e1461063f5780632b0eec971461067257610405565b8063191fd57d146105355780631b4d76771461054a5780631b7c7ea71461055f5780631d8f8f4b1461058957610405565b8063164cded6116103d8578063164cded6146104b157806316f30a7b146104db578063181783581461050b5780631911e5221461052057610405565b8063076299de1461040a57806307e2cea5146104365780630cc6e0191461045d5780630ef8e55014610487575b600080fd5b34801561041657600080fd5b506104346004803603602081101561042d57600080fd5b5035610e95565b005b34801561044257600080fd5b5061044b611012565b60408051918252519081900360200190f35b34801561046957600080fd5b506104346004803603602081101561048057600080fd5b5035611035565b34801561049357600080fd5b5061044b600480360360208110156104aa57600080fd5b5035611193565b3480156104bd57600080fd5b50610434600480360360208110156104d457600080fd5b50356111b3565b3480156104e757600080fd5b5061044b600480360360408110156104fe57600080fd5b5080359060200135611334565b34801561051757600080fd5b5061043461149f565b34801561052c57600080fd5b5061044b6114f8565b34801561054157600080fd5b5061044b61150a565b34801561055657600080fd5b5061044b61152e565b34801561056b57600080fd5b506104346004803603602081101561058257600080fd5b5035611534565b34801561059557600080fd5b506105b9600480360360408110156105ac57600080fd5b5080359060200135611670565b60408051938452602084019290925282820152519081900360600190f35b3480156105e357600080fd5b506105ec611693565b604080519115158252519081900360200190f35b34801561060c57600080fd5b5061044b6004803603602081101561062357600080fd5b50356116c8565b34801561063657600080fd5b5061044b6116dd565b34801561064b57600080fd5b506104346004803603602081101561066257600080fd5b50356001600160a01b03166116f8565b34801561067e57600080fd5b5061044b6004803603602081101561069557600080fd5b50356117c2565b3480156106a857600080fd5b506106d5600480360360408110156106bf57600080fd5b506001600160a01b0381351690602001356117db565b6040805194855260208501939093528383019190915215156060830152519081900360800190f35b34801561070957600080fd5b5061044b6004803603602081101561072057600080fd5b5035611802565b34801561073357600080fd5b506104346004803603604081101561074a57600080fd5b50803590602001356001600160a01b0316611819565b34801561076c57600080fd5b506104346004803603602081101561078357600080fd5b50356001600160a01b0316611885565b34801561079f57600080fd5b5061044b600480360360408110156107b657600080fd5b50803590602001356001600160a01b0316611a8a565b3480156107d857600080fd5b50610434600480360360408110156107ef57600080fd5b50803590602001356001600160a01b0316611aa5565b34801561081157600080fd5b5061044b611b06565b34801561082657600080fd5b5061044b611b7b565b34801561083b57600080fd5b5061044b611ba1565b610434611ba7565b34801561085857600080fd5b50610861611c93565b6040805192835260208301919091528051918290030190f35b34801561088657600080fd5b506105b96004803603606081101561089d57600080fd5b508035906001600160a01b036020820135169060400135611d60565b3480156108c557600080fd5b5061044b611d87565b3480156108da57600080fd5b5061044b611d93565b3480156108ef57600080fd5b5061044b611daf565b34801561090457600080fd5b506104346004803603602081101561091b57600080fd5b5035611dbb565b34801561092e57600080fd5b5061094c6004803603602081101561094557600080fd5b5035611f2a565b604080516001600160a01b039094168452602084019290925282820152519081900360600190f35b34801561098057600080fd5b5061044b611f55565b34801561099557600080fd5b5061044b611f5b565b3480156109aa57600080fd5b5061044b611f7d565b3480156109bf57600080fd5b50610434600480360360208110156109d657600080fd5b5035611fad565b3480156109e957600080fd5b506105b960048036036020811015610a0057600080fd5b50356001600160a01b0316612066565b348015610a1c57600080fd5b5061086160048036036020811015610a3357600080fd5b50356120fd565b348015610a4657600080fd5b506105ec61212b565b348015610a5b57600080fd5b50610a7960048036036020811015610a7257600080fd5b503561214b565b604080516001600160a01b03909316835260208301919091528051918290030190f35b348015610aa857600080fd5b50610acc60048036036040811015610abf57600080fd5b5080359060200135612170565b604080516001600160a01b039092168252519081900360200190f35b348015610af457600080fd5b506105ec60048036036040811015610b0b57600080fd5b50803590602001356001600160a01b031661218e565b348015610b2d57600080fd5b5061044b6121ac565b348015610b4257600080fd5b5061044b60048036036020811015610b5957600080fd5b50356121fa565b348015610b6c57600080fd5b5061044b60048036036020811015610b8357600080fd5b5035612224565b348015610b9657600080fd5b5061044b61224e565b348015610bab57600080fd5b5061044b60048036036020811015610bc257600080fd5b5035612253565b61043460048036036040811015610bdf57600080fd5b506001600160a01b038135169060200135612281565b348015610c0157600080fd5b5061044b6123d2565b348015610c1657600080fd5b5061086160048036036020811015610c2d57600080fd5b50356123de565b348015610c4057600080fd5b50610acc612403565b348015610c5557600080fd5b5061044b60048036036020811015610c6c57600080fd5b5035612412565b348015610c7f57600080fd5b5061043460048036036020811015610c9657600080fd5b5035612435565b348015610ca957600080fd5b5061044b60048036036020811015610cc057600080fd5b50356124e0565b348015610cd357600080fd5b5061044b6124f7565b348015610ce857600080fd5b5061044b612503565b348015610cfd57600080fd5b506105ec612509565b348015610d1257600080fd5b5061043460048036036040811015610d2957600080fd5b50803590602001356001600160a01b031661251a565b348015610d4b57600080fd5b50610acc612571565b348015610d6057600080fd5b5061044b612580565b348015610d7557600080fd5b5061044b6125f4565b348015610d8a57600080fd5b5061043460048036036020811015610da157600080fd5b50356125fa565b348015610db457600080fd5b5061043460048036036020811015610dcb57600080fd5b5035612673565b348015610dde57600080fd5b5061044b61272a565b348015610df357600080fd5b5061043460048036036040811015610e0a57600080fd5b506001600160a01b0381358116916020013516612736565b348015610e2e57600080fd5b5061044b60048036036040811015610e4557600080fd5b50803590602001356129f7565b348015610e5e57600080fd5b5061044b612b5a565b348015610e7357600080fd5b50610e7c612b66565b6040805192835290151560208301528051918290030190f35b610e9d611693565b610edc576040805162461bcd60e51b8152602060048201526017602482015260008051602061524c833981519152604482015290519081900360640190fd5b60035460408051631a59529f60e21b81523360048201526024810184905290516000926001600160a01b0316916369654a7c91604480830192602092919082900301818787803b158015610f2f57600080fd5b505af1158015610f43573d6000803e3d6000fd5b505050506040513d6020811015610f5957600080fd5b50516040805184815260208101839052815192935033927fbd267c282682c91617691bf34eae6225f9241bf30f0bcc0f7bcfb98ff03ce31d929181900390910190a260408051631213d11360e21b81529051908190036004019020610fca90600c903384600063ffffffff612bf516565b60408051631213d11360e21b8152905190819003600401902060035461100491600c916001600160a01b031684600063ffffffff612e0616565b5061100d612fd6565b505050565b604080516a4f7261636c6520526f6c6560a81b8152905190819003600b01902081565b61103d611693565b61107c576040805162461bcd60e51b8152602060048201526017602482015260008051602061524c833981519152604482015290519081900360640190fd5b604080516b5265736572766520526f6c6560a01b8152905190819003600c0190206110a7903361218e565b6110ef576040805162461bcd60e51b81526020600482015260146024820152732437b2362232bc101a1819903932b9b2b93b329760611b604482015290519081900360640190fd5b604080513381526020810183905281517f8b476ddf0ff11f47272c435b662b2534d5469ed9f10fb084c37f17b028cb459d929181900390910190a160408051631213d11360e21b8152905190819003600401902060035461116491600c916001600160a01b031684600063ffffffff612bf516565b60408051631213d11360e21b8152905190819003600401902061119090600c908363ffffffff61306316565b50565b60008061119f83612412565b90506111aa816121fa565b9150505b919050565b6111bb611693565b6111fa576040805162461bcd60e51b8152602060048201526017602482015260008051602061524c833981519152604482015290519081900360640190fd5b6040516000908190839033907fdcb012e920167d8bdd0acebd98c41971b08b206986f2c59f3458fbe83c8e1d14908490a350600082815260116020526040902080546001600160a01b031690338214611291576040805162461bcd60e51b81526020600482015260146024820152732437b2362232bc16103737ba1039b2b63632b91760611b604482015290519081900360640190fd5b600181015460408051631213d11360e21b815290519081900360040190209093506112c890600c903386600063ffffffff612e0616565b6112d960138563ffffffff61315516565b60408051631213d11360e21b8152905190819003600401902061130890600c908460008763ffffffff612bf516565b505050600090815260116020526040812080546001600160a01b03191681556001810182905560020155565b600061133e611693565b61137d576040805162461bcd60e51b8152602060048201526017602482015260008051602061524c833981519152604482015290519081900360640190fd5b6040805184815260208101849052815133927f9245568088742ccfdfc1dc58f9ad4f31812911170582b5cce5c4f48c86667711928290030190a260006113c284612224565b905060006113ce611f7d565b90506802b5e3af16b1880000821015611423576040805162461bcd60e51b8152602060048201526012602482015271121bd91b11195e0b080f081b5a5b881554d160721b604482015290519081900360640190fd5b8082111580611430575080155b611476576040805162461bcd60e51b8152602060048201526012602482015271121bd91b11195e0b080f881b585e081554d160721b604482015290519081900360640190fd5b6114808585613283565b945061148b856135bb565b92505050611497612fd6565b505092915050565b6114a7611693565b6114e6576040805162461bcd60e51b8152602060048201526017602482015260008051602061524c833981519152604482015290519081900360640190fd5b6114ee612fd6565b50506111906136e4565b600061150460136137f6565b90505b90565b604080516b5265736572766520526f6c6560a01b8152905190819003600c01902081565b600a5481565b61153c611693565b61157b576040805162461bcd60e51b8152602060048201526017602482015260008051602061524c833981519152604482015290519081900360640190fd5b60008181526012602052604080822090519091839133917fbfd8eba8b6bbf7710760c1e5784271756899dfda53eccf56257e64e40c7f6fc191a380546001600160a01b03163314611609576040805162461bcd60e51b81526020600482015260136024820152722437b2362232bc16103737ba10313abcb2b91760691b604482015290519081900360640190fd5b604080516208ae8d60eb1b81529051908190036003019020600182015461163c91600c913390600063ffffffff612e0616565b61164d60188363ffffffff61315516565b50600090815260126020526040812080546001600160a01b031916815560010155565b60008080611686600c868663ffffffff6137fd16565b9250925092509250925092565b604080516d4d6967726174696f6e20526f6c6560901b8152905190819003600e0190206000906116c2906124e0565b15905090565b60009081526001602052604090206002015490565b604080516208ae8d60eb1b8152905190819003600301902081565b604080516941646d696e20526f6c6560b01b8152905190819003600a019020611721903361218e565b611766576040805162461bcd60e51b81526020600482015260116024820152702437b2362232bc101a18199030b236b4b760791b604482015290519081900360640190fd5b600280546001600160a01b0319166001600160a01b03831690811790915560408051338152602081019290925280517fc1d3048301c0d23629a2532c8defa6d68f8e1a0e4157918769e9fb1b2eeb888e9281900390910190a150565b60006117d5600c8363ffffffff61388316565b92915050565b60008080806117f2600c868863ffffffff61389816565b9299919850965090945092505050565b60008061180e83612224565b90506111aa81612253565b60008281526001602052604090206002015461183c906118376139b4565b61218e565b6118775760405162461bcd60e51b815260040180806020018281038252602f8152602001806151f3602f913960400191505060405180910390fd5b61188182826139b8565b5050565b604080516d4d6967726174696f6e20526f6c6560901b8152905190819003600e0190206118b2903361218e565b6118fb576040805162461bcd60e51b81526020600482015260156024820152742437b2362232bc101a18199036b4b3b930ba34b7b760591b604482015290519081900360640190fd5b6040805133815290516001600160a01b038316917f4255b5dbb103b3831869724bf926f5cc492b23b18ae956dacbe85ab455977a31919081900360200190a260408051631213d11360e21b8082528251918290036004908101832091835292519182900390920190206119909190309061197e90600c908663ffffffff613a2716565b600c929190600063ffffffff612e0616565b60408051631213d11360e21b8082528251918290036004908101832091835292519182900390920190206119e6919083906119d490600c908363ffffffff613a2716565b600c929190600063ffffffff612bf516565b604080516208ae8d60eb1b808252825191829003600390810183209183529251918290039092019020611a29919083906119d490600c908363ffffffff613a2716565b604080516208ae8d60eb1b81529051908190036003019020600090611a5790600c908463ffffffff613a2716565b111561119057604080516208ae8d60eb1b81529051908190036003019020339061100d90600c908463ffffffff613a2716565b6000611a9e600c848463ffffffff613a9b16565b9392505050565b611aad6139b4565b6001600160a01b0316816001600160a01b031614611afc5760405162461bcd60e51b815260040180806020018281038252602f815260200180615337602f913960400191505060405180910390fd5b6118818282613aca565b6000611b10611693565b611b4f576040805162461bcd60e51b8152602060048201526017602482015260008051602061524c833981519152604482015290519081900360640190fd5b60408051631213d11360e21b8152905190819003600401902061150490600c903363ffffffff613b3916565b604080516d4d6967726174696f6e20526f6c6560901b8152905190819003600e01902081565b60085481565b611baf611693565b611bee576040805162461bcd60e51b8152602060048201526017602482015260008051602061524c833981519152604482015290519081900360640190fd5b60003411611c2d5760405162461bcd60e51b815260040180806020018281038252602281526020018061529c6022913960400191505060405180910390fd5b60408051348152905133917f67b91a3e1f20688667199fd4acb8590a39e93b3f50cb3253c74003c6d98de78b919081900360200190a2604080516208ae8d60eb1b81529051908190036003019020611c9190600c903334600063ffffffff612e0616565b565b6006546007546000611cb2635f1f7dad62278d0063ffffffff613cda16565b905080421115611d5b57600062015180611cd2428463ffffffff613d3416565b81611cd957fe5b0490506000611cf360055483613d3490919063ffffffff16565b90508015611d5857611d2a670de0b6b3a7640000611d1e600754600654613d7690919063ffffffff16565b9063ffffffff613dcf16565b9450611d55670de0b6b3a7640000611d1e670de0b68e11c8d5e0600754613d7690919063ffffffff16565b93505b50505b509091565b60008080611d77600c87878763ffffffff613e1116565b9250925092505b93509350939050565b60006115046018613e7c565b60408051631213d11360e21b8152905190819003600401902081565b60006115046013613e7c565b611dc3611693565b611e02576040805162461bcd60e51b8152602060048201526017602482015260008051602061524c833981519152604482015290519081900360640190fd5b6003546040805163aa94810160e01b81523360048201526024810184905290516000926001600160a01b03169163aa94810191604480830192602092919082900301818787803b158015611e5557600080fd5b505af1158015611e69573d6000803e3d6000fd5b505050506040513d6020811015611e7f57600080fd5b50516040805184815260208101839052815192935033927fc757c794593897ec78643a3b1ae1d2ab4eb6840e9a01b6fd2f64c7c500fe88c7929181900390910190a260408051631213d11360e21b81529051908190036004019020611ef090600c903384600063ffffffff612e0616565b60408051631213d11360e21b8152905190819003600401902060035461100491600c916001600160a01b031684600063ffffffff612bf516565b6011602052600090815260409020805460018201546002909201546001600160a01b03909116919083565b600b5481565b604080516941646d696e20526f6c6560b01b8152905190819003600a01902081565b600080611f88611c93565b509050678ac7230489e800008111611fa4578061138802611fa7565b60005b91505090565b604080516d4d6967726174696f6e20526f6c6560901b8152905190819003600e019020611fda903361218e565b612023576040805162461bcd60e51b81526020600482015260156024820152742437b2362232bc101a18199036b4b3b930ba34b7b760591b604482015290519081900360640190fd5b6007819055604080513381526020810183905281517fd9c7ef198bbeb680fb4c70a0f01e1d6d1826dbc6cdc426fd1ab3aa1d059c71cd929181900390910190a150565b604080516208ae8d60eb1b815290519081900360030190206000908190819061209890600c908663ffffffff613a2716565b60408051631213d11360e21b815290519081900360040190206120c490600c908763ffffffff613a2716565b60408051631213d11360e21b815290519081900360040190206120f090600c908863ffffffff613e8016565b9250925092509193909250565b60008061211160138463ffffffff613ef516565b61212260138563ffffffff613f6516565b91509150915091565b6000612144635f1f7dad62278d0063ffffffff613cda16565b4211905090565b601260205260009081526040902080546001909101546001600160a01b039091169082565b6000828152600160205260408120611a9e908363ffffffff613fd216565b6000828152600160205260408120611a9e908363ffffffff613fde16565b60408051631213d11360e21b8152905190819003600401902060009081906121dd90600c903063ffffffff613a2716565b9050611fa76a108b2a2c280290940000008263ffffffff613d3416565b600080612205611c93565b5090506111aa81611d1e85670de0b6b3a764000063ffffffff613d7616565b60008061222f611c93565b5090506111aa670de0b6b3a7640000611d1e858463ffffffff613d7616565b600081565b60006117d5612269670de0b6b3a7640000612412565b611d1e84670de0b6b3a764000063ffffffff613d7616565b604080516d4d6967726174696f6e20526f6c6560901b8152905190819003600e0190206122ae903361218e565b6122f7576040805162461bcd60e51b81526020600482015260156024820152742437b2362232bc101a18199036b4b3b930ba34b7b760591b604482015290519081900360640190fd5b604080516208ae8d60eb1b8152905190819003600301902061232590600c908434600063ffffffff612e0616565b60408051631213d11360e21b8152905190819003600401902061235490600c908484600063ffffffff612e0616565b60408051631213d11360e21b8152905190819003600401902061238390600c903084600063ffffffff612bf516565b6040805133815260208101839052348183015290516001600160a01b038416917f3115c5c0a6de7cd7ce400fd4027f87c0d355dfef893e17cc1cc2db2782a0f9f7919081900360600190a25050565b600061150460186137f6565b6000806123f260188463ffffffff613ef516565b61212260188563ffffffff613f6516565b6002546001600160a01b031690565b60006117d5670de0b6b3a7640000611d1e600b5485613d7690919063ffffffff16565b61243d611693565b61247c576040805162461bcd60e51b8152602060048201526017602482015260008051602061524c833981519152604482015290519081900360640190fd5b60408051828152905133917f654c7a7e59538b4e27a577ef2208b1f7cdcaf35938c4bb6288c945261702a56f919081900360200190a2604080516208ae8d60eb1b8152905190819003600301902061119090600c903384600063ffffffff612bf516565b60008181526001602052604081206117d590613ff3565b60006115046018613ffe565b60055481565b6002546001600160a01b0316151590565b6000600b5411612567576040805162461bcd60e51b8152602060048201526013602482015272121bd91b11195e0b0814d95d08115d1a155cd9606a1b604482015290519081900360640190fd5b611881828261400c565b6003546001600160a01b031690565b600061258a611693565b6125c9576040805162461bcd60e51b8152602060048201526017602482015260008051602061524c833981519152604482015290519081900360640190fd5b604080516208ae8d60eb1b8152905190819003600301902061150490600c903363ffffffff613b3916565b60095481565b604080516a4f7261636c6520526f6c6560a81b8152905190819003600b019020612624903361218e565b61266a576040805162461bcd60e51b8152602060048201526012602482015271486f646c44657820343033206f7261636c6560701b604482015290519081900360640190fd5b61119081614065565b604080516a4f7261636c6520526f6c6560a81b8152905190819003600b01902061269d903361218e565b6126e3576040805162461bcd60e51b8152602060048201526012602482015271486f646c44657820343033206f7261636c6560701b604482015290519081900360640190fd5b600b81905543600955604080513381526020810183905281517f0a4debdfc51da746dcb19f892eac110ce7d5d1c86475813bc7940be5c100eab4929181900390910190a150565b6000611504600c6140e4565b600054610100900460ff168061274f575061274f61412e565b8061275d575060005460ff16155b6127985760405162461bcd60e51b815260040180806020018281038252602e8152602001806152be602e913960400191505060405180910390fd5b600054610100900460ff161580156127c3576000805460ff1961ff0019909116610100171660011790555b601f6005556711b4f2dd6db3b0b7600655670de772f195e3a78660075560408051631213d11360e21b8082528251918290036004908101832081546001818101845560008481527f8a35acfbc15ff81a39ae7d344fd709f28e8600b4aa8c65c6b64bfe7fe36bd19b928301939093556208ae8d60eb1b86528651958690036003018620845491820185559284905201559082529151908190038201902061287891600c914262278d003063ffffffff61413416565b60408051631213d11360e21b815290519081900360040190206128b290600c90306a108b2a2c28029094000000600063ffffffff612e0616565b600280546001600160a01b038085166001600160a01b03199283161790925560038054928616929091169190911790556128ed600033611877565b604080516941646d696e20526f6c6560b01b8152905190819003600a0190206129169033611877565b604080516a4f7261636c6520526f6c6560a81b8152905190819003600b0190206129409033611877565b604080516d4d6967726174696f6e20526f6c6560901b8152905190819003600e01902061296d9033611877565b604080516b5265736572766520526f6c6560a01b8152905190819003600c0190206129989084611877565b604080513381526001600160a01b03808616602083015284168183015290517fc437298f2d0663a10608d6add1ccfa44ae2a4bd3efcdc2fd427f7afb360d22e59181900360600190a1801561100d576000805461ff0019169055505050565b6000612a01611693565b612a40576040805162461bcd60e51b8152602060048201526017602482015260008051602061524c833981519152604482015290519081900360640190fd5b6040805184815260208101849052815133927fee9b02d9722b4950f646ec7e40d75e44f68d2f342d0257ca5c933476f81b5df8928290030190a26000612a84611f7d565b90506000612a9185612412565b90506802b5e3af16b1880000811015612ae7576040805162461bcd60e51b815260206004820152601360248201527202437b2362232bc16101e1036b4b7102aa9a21606d1b604482015290519081900360640190fd5b8181111580612af4575081155b612b3a576040805162461bcd60e51b8152602060048201526012602482015271121bd91b11195e0b080f881b585e081554d160721b604482015290519081900360640190fd5b612b448585614206565b9450612b4f85614595565b945061148b85614740565b60006115046013613ffe565b600080600260009054906101000a90046001600160a01b03166001600160a01b03166357de26a46040518163ffffffff1660e01b815260040160206040518083038186803b158015612bb757600080fd5b505afa925050508015612bdc57506040513d6020811015612bd757600080fd5b505160015b612bea57600b549150612bf1565b9150600190505b9091565b600084815260048601602090815260408083206001600160a01b0387168452600181019092528220805491929091908080612c318b8b8b61481a565b9250925092506000612c428c6140e4565b9050612c798960405180604001604052806008815260200167283937b8102729a360c11b815250866148ab9092919063ffffffff16565b9350612cb08860405180604001604052806008815260200167283937b8103739b360c11b815250846148ab9092919063ffffffff16565b9150612cba6151af565b506040805160608082018352868252602080830186905282840185905283518581526001600160a01b038f16918101919091528084018d90529081018b9052915190918d9133917fd8a7c80caa92de15995fb550a02b0921d0ec2c173b71ff94eaac5111eec710db919081900360800190a3600086118015612d4957508c600301548c141580612d4957508184145b15612d9d5780876000016001880381548110612d6157fe5b90600052602060002090600302016000820151816000015560208201518160010155604082015181600201559050505050505050505050612dff565b60008c815260048e01602052604090205460018801541415612dc157865460028801555b865460018181018955600098895260209889902083516003909302019182559782015197810197909755604001516002909601959095555050505050505b5050505050565b600084815260048601602090815260408083206001600160a01b038716845260018101909252822090918080612e3d8a8a8a61481a565b865492955090935091506000612e528c6140e4565b9050612e64858a63ffffffff613cda16565b9450612e76838963ffffffff613cda16565b9250612e806151af565b506040805160608082018352878252602080830187905282840185905283518581526001600160a01b038f16918101919091528084018d90529081018b9052915190918d9133917f34b2d1e14dd08f15cd0495453a3181c6aaffd6d2dc171dbf7c52b3d18cf35b75919081900360800190a3600083118015612f0f57508c600301548c141580612f0f57508185145b15612f275780876000016001850381548110612d6157fe5b82612d9d576001612f388e8e613883565b0360018801819055885483918a918110612f4e57fe5b9060005260206000209060030201600201541015612d9d57600187810180549091019081905560008d815260048f0160205260409020541415612dc15786546002880155865460018181018955600098895260209889902083516003909302019182559782015197810197909755604001516002909601959095555050505050505050505050565b600080612fe1611c93565b600654919350915082141580612ff957506007548114155b15612bf1576006829055600781905560055461301c90600163ffffffff613cda16565b600555604080513381526020810184905280820183905290517fde6ecf3d8c720475e24f2d3ae66b2470fb69b76910e2ff22300ca03c14ca76f59181900360600190a19091565b6000828152600484016020526040812080549091908290600019810190811061308857fe5b906000526020600020906003020190506130a1856140e4565b816002015410156130d9576130b68585614942565b8154829060001981019081106130c857fe5b906000526020600020906003020190505b8215612dff5760018101546130f4908463ffffffff613cda16565b6001820155837f96709d4288825181c14df06e5002029d4207c82a70441a8338901b54c05a833233613125886140e4565b604080516001600160a01b0390931683526020830191909152818101879052519081900360600190a25050505050565b61315f8282614a3e565b6131a9576040805162461bcd60e51b815260206004820152601660248201527511925193d4d95d0e881ad95e481b9bdd08199bdd5b9960521b604482015290519081900360640190fd5b600081815260028301602052604081206001810154815491929091906131ce86613e7c565b905060006131db876137f6565b60008581526002890160205260408082208683529120919250906131fe89613ffe565b60011415613215576000808a5560018a015561324f565b8388141561322c576000600182015584895561324f565b8288141561324457600082556001890186905561324f565b848255600181018690555b61326260038a018963ffffffff614a5316565b50505060009485525050506002909201602052604081208181556001015550565b6000806000806000806000805b600061329c6018613ffe565b1180156132a9575060008a115b156135a457885a1015613312577f26a72b1025f7454a60c5a168febefd96fe828d125284a2aa8de1d2d0942b577d335a604080516001600160a01b0390931683526020830191909152818101849052519081900360600190a160009750505050505050506117d5565b61331c6018613e7c565b6000818152601260205260409020805460018201549299506001600160a01b0316975090945061334b85614b4e565b9550856133f45784156133be57604080516208ae8d60eb1b8152905190819003600301902061338690600c908988600063ffffffff612e0616565b604080518681529051899133917ff82d0d34c08930bc9f8e987fd50bea3840aeaae5cd4b5291ad47e3a9c00f2cd19181900360200190a35b600088815260126020526040812080546001600160a01b0319168155600101556133ef60188963ffffffff61315516565b61359e565b6133fd8b614b5a565b93508a925083851015613411578493508592505b604080518581526020810185905281516001600160a01b038a16928b9233927f776137802df19e3b87a42166c59a2f6adaa28d46b8e1f0cc370e78b49516d622929181900390910190a460408051631213d11360e21b8152905190819003600401902061348a90600c903386600063ffffffff612bf516565b60408051631213d11360e21b815290519081900360040190206134b990600c908986600063ffffffff612e0616565b604080516208ae8d60eb1b815290519081900360030190206134e790600c903387600063ffffffff612e0616565b8385141561352557600088815260126020526040812080546001600160a01b03191681556001015561352060188963ffffffff61315516565b613597565b60408051808201909152600b81526a0486f646c446578203530360ac1b602082015261355a908690869063ffffffff6148ab16565b600182015560408051808201909152600b81526a486f646c4465782035303160a81b6020820152613594908c90859063ffffffff6148ab16565b9a505b6001909101905b50613290565b6135ad81614065565b509798975050505050505050565b60006802b5e3af16b18800006135d083612224565b1180156135e457506135e26018613ffe565b155b156111ae576135f1614b71565b905060006135fd611c93565b50600083815260116020526040902090915061362060138463ffffffff614bbb16565b60408051858152602081018490528151339286927f859b9b1aca54f86cfca352a982e638c932e7fd450a59878afb01597257d13c9c929081900390910190a360408051631213d11360e21b8152905190819003600401902061368e90600c903360008863ffffffff612e0616565b80546001600160a01b031916339081178255600182018590556002820183905560408051631213d11360e21b815290519081900360040190206136dd91600c919087600063ffffffff612bf516565b5050919050565b60004360095414156136f95750600b54611507565b6000613703612b66565b600b8290554360095590925090508061376257600a805460010190819055604080513381526020810192909252818101849052517f1b6826f6886b75b3eaec36667372cfd16e72a81e148c098ededb06c10616e85d9181900360600190a15b604080513381526020810184905281517f0a4debdfc51da746dcb19f892eac110ce7d5d1c86475813bc7940be5c100eab4929181900390910190a1604080516208ae8d60eb1b815290519081900360030190206137c790600c9063ffffffff614cb316565b60408051631213d11360e21b815290519081900360040190206137f290600c9063ffffffff614cb316565b5090565b6001015490565b6000828152600484016020526040812080548291829181908690811061381f57fe5b90600052602060002090600302016000015481600001868154811061384057fe5b90600052602060002090600302016001015482600001878154811061386157fe5b9060005260206000209060030201600201549350935093505093509350939050565b60009081526004909101602052604090205490565b60008281526004840160209081526040808320600387015484528184206001600160a01b0386168552600180820190945291842060028101548185015483549195909487949390929091860111156138fa5750600095508592506139ab915050565b600083600001868154811061390b57fe5b6000918252602090912060039091020180548354811515975091925090600189011180613936575085155b1561394a5750600097506139ab9350505050565b600083600001898154811061395b57fe5b60009182526020822060039190910201600181810154825491870154929450019184670de0b6b3a764000083028161398f57fe5b049050670de0b6b3a7640000838202049c505050505050505050505b93509350935093565b3390565b60008281526001602052604090206139d6908263ffffffff614cbf16565b15611881576139e36139b4565b6001600160a01b0316816001600160a01b0316837f2f8788117e7eff1d82e926ec794901d17c78024a50270940304540a733656f0d60405160405180910390a45050565b6000828152600484016020526040812081613a43868686613a9b565b905080613a5557600092505050611a9e565b6001600160a01b0384166000908152600183016020526040812080546000198401908110613a7f57fe5b6000918252602090912060039091020154979650505050505050565b600082815260048401602090815260408083206001600160a01b03851684526001019091529020549392505050565b6000828152600160205260409020613ae8908263ffffffff614cd416565b1561188157613af56139b4565b6001600160a01b0316816001600160a01b0316837ff6391f5c32d9c69d2a47ea670b442974b53935d1edc7fd64eb21e047a839171b60405160405180910390a45050565b60008281526004840160209081526040808320600387015484528184206001600160a01b038616855260018083018552838620908201909452918420909290613b828888614cb3565b6000806000613b928b8b8b613898565b929a509094509250905080613bb1576000975050505050505050611a9e565b6000876000018381548110613bc257fe5b906000526020600020906003020190508a336001600160a01b03167f703e744cb3ae9492e7b192242cd2a9916b267e8be750ff02a0961442d87ac60983600201548c88886040518085815260200184815260200183815260200182815260200194505050505060405180910390a3613c3e8c8c8c8c6000612e06565b6000613c4a8686614ce9565b90506000613c588e86614d33565b9050613c668e8e8e88614d92565b895460018901541415613c9057505093546000190160029095019490945550611a9e945050505050565b808211613cc957613ca38e8e8e89614de6565b613cae8e8e8e613898565b929d5090975095509350613cc28787614ce9565b9150613c90565b505050505050505050509392505050565b600082820183811015611a9e576040805162461bcd60e51b815260206004820152601b60248201527f536166654d6174683a206164646974696f6e206f766572666c6f770000000000604482015290519081900360640190fd5b6000611a9e83836040518060400160405280601e81526020017f536166654d6174683a207375627472616374696f6e206f766572666c6f7700008152506148ab565b600082613d85575060006117d5565b82820282848281613d9257fe5b0414611a9e5760405162461bcd60e51b81526004018080602001828103825260218152602001806152ec6021913960400191505060405180910390fd5b6000611a9e83836040518060400160405280601a81526020017f536166654d6174683a206469766973696f6e206279207a65726f000000000000815250614e52565b600083815260048501602090815260408083206001600160a01b0386168452600181019092528220805483928392909183919087908110613e4e57fe5b6000918252602090912060039091020180546001820154600290920154909b919a5098509650505050505050565b5490565b6000828152600484016020526040812081613e9c868686613a9b565b905080613eae57600092505050611a9e565b6001600160a01b0384166000908152600183016020526040902080546000198301908110613ed857fe5b906000526020600020906003020160010154925050509392505050565b6000613f018383614a3e565b613f4b576040805162461bcd60e51b815260206004820152601660248201527511925193d4d95d0e881ad95e481b9bdd08199bdd5b9960521b604482015290519081900360640190fd5b506000908152600291909101602052604090206001015490565b6000613f718383614a3e565b613fbb576040805162461bcd60e51b815260206004820152601660248201527511925193d4d95d0e881ad95e481b9bdd08199bdd5b9960521b604482015290519081900360640190fd5b506000908152600291909101602052604090205490565b6000611a9e8383614eb7565b6000611a9e836001600160a01b038416614f1b565b60006117d582613e7c565b60006117d5826003016137f6565b60008281526001602052604090206002015461402a906118376139b4565b611afc5760405162461bcd60e51b815260040180806020018281038252603081526020018061526c6030913960400191505060405180910390fd5b8015611190576006546000614096614089655af3107a40008563ffffffff613d7616565b839063ffffffff613cda16565b6006819055604080513381526020810186905280820183905290519192507f9c333ae1cc367c5edbb5f945c128b377930f21862f1679bd163c93cef65e1a68919081900360600190a1505050565b8054604080518082019091526004815263281a981960e11b6020820152600091829161411791429163ffffffff6148ab16565b90508260010154818161412657fe5b049392505050565b303b1590565b61413c6151af565b506040805160608101825260008082526020820181905291810182905260038801869055848855600188018490556002880180546001600160a01b0319166001600160a01b038516179055905b86548110156141fc5760008860040160008984815481106141a657fe5b600091825260208083209091015483528281019390935260409182018120805460018181018355918352918490208751600390930201918255928601518184015590850151600290910155919091019050614189565b5050505050505050565b6000806000806000806000805b600061421f6013613ffe565b11801561422c575060008a115b156135a457885a1015614295577f26a72b1025f7454a60c5a168febefd96fe828d125284a2aa8de1d2d0942b577d335a604080516001600160a01b0390931683526020830191909152818101849052519081900360600190a160009750505050505050506117d5565b61429f6013613e7c565b6000818152601160205260409020805460018201549299506001600160a01b031697509094506142ce85614b5a565b9550856143ad57841561437057604080518681529051899133917f766e265970a9d07808a7d69d71eed292addad9a58d5bd5739279d312ac6f1d469181900360200190a360408051631213d11360e21b8152905190819003600401902061434190600c908988600063ffffffff612e0616565b60408051631213d11360e21b8152905190819003600401902061437090600c908960008963ffffffff612bf516565b600088815260116020526040812080546001600160a01b031916815560018101829055600201556143a860138963ffffffff61315516565b61458f565b8a93506143b984614b4e565b9250838610156143ca578593508492505b604080518581526020810185905281516001600160a01b038a16928b9233927f1bba592cf2bf9b4f8f3adc25fb5285b07027e631563a4ac6fc49ff651801f9f2929181900390910190a4604080516208ae8d60eb1b8152905190819003600301902061444290600c903387600063ffffffff612bf516565b604080516208ae8d60eb1b8152905190819003600301902061447090600c908987600063ffffffff612e0616565b60408051631213d11360e21b8152905190819003600401902061449f90600c903386600063ffffffff612e0616565b60408051631213d11360e21b815290519081900360040190206144ce90600c908960008963ffffffff612bf516565b60408051808201909152600b81526a486f646c4465782035303360a81b6020820152614503908c90869063ffffffff6148ab16565b9a508285141561454a57600088815260116020526040812080546001600160a01b0319168155600181018290556002015561454560138963ffffffff61315516565b614588565b60408051808201909152600b81526a121bd91b11195e080d4c0d60aa1b6020820152600182015461458291859063ffffffff6148ab16565b60018201555b6001909101905b50614213565b600080808084156147375760006145ab86614b4e565b60408051631213d11360e21b815290519081900360040190209091506145da90600c903063ffffffff613a2716565b9150818111156145ea57816145ec565b805b93508315614735576145fd84614b5a565b6040805182815260208101879052815192955033927fc7a2c2400cc73e0579846bf1a4a815fea06f2b8e66c83d8f3de8364d3d2ec289929181900390910190a260408051631213d11360e21b8152905190819003600401902061466c90600c903087600063ffffffff612bf516565b60408051631213d11360e21b8152905190819003600401902061469b90600c903387600063ffffffff612e0616565b604080516208ae8d60eb1b815290519081900360030190206146c990600c903386600063ffffffff612bf516565b604080516208ae8d60eb1b815290519081900360030190206146f490600c908563ffffffff61306316565b60408051808201909152600b81526a486f646c4465782035303560a81b6020820152614729908790859063ffffffff6148ab16565b95506147356001614065565b505b50929392505050565b60006802b5e3af16b188000061475583612412565b11801561476957506147676013613ffe565b155b156111ae57614776614b71565b604080518481529051919250339183917fadae744503607b1ac6c8feb1a54fb687ecba33f5d4cc59fdde26dd19de99f0b5919081900360200190a360008181526012602052604090206147d060188363ffffffff614bbb16565b604080516208ae8d60eb1b815290519081900360030190206147fe90600c903386600063ffffffff612bf516565b6001810183905580546001600160a01b03191633179055919050565b60008281526004840160205260408120819081908161483a888888613a9b565b905080614853575060009350839250829150611d7e9050565b6001600160a01b038616600090815260018301602052604081208054600019840190811061487d57fe5b6000918252602090912060039091020180546002820154600190920154909b919a5098509650505050505050565b6000818484111561493a5760405162461bcd60e51b81526004018080602001828103825283818151815260200191508051906020019080838360005b838110156148ff5781810151838201526020016148e7565b50505050905090810190601f16801561492c5780820380516001836020036101000a031916815260200191505b509250505060405180910390fd5b505050900390565b6000818152600483016020526040812080549091908290600019810190811061496757fe5b906000526020600020906003020190506000614982856140e4565b905061498d85614f33565b82556149976151af565b50604080516060808201835260008083526020808401828152848601878152895460018181018c558b865294849020875160039092020190815591518285015551600291820155918701548754928801548651338152928301919091528186019290925291820152608081018490529151909186917f0d4b8133b244cfec82d848130189d3c9787263ecbcf6d4432f2d167642547d909181900360a00190a2505050505050565b6000611a9e600384018363ffffffff614fac16565b614a5d8282614fac565b614a985760405162461bcd60e51b815260040180806020018281038252602a815260200180615222602a913960400191505060405180910390fd5b60006001614aa5846137f6565b6000848152602086905260409020549190039150808214614b16576000846001018381548110614ad157fe5b90600052602060002001549050818560000160008381526020019081526020016000208190555080856001018381548110614b0857fe5b600091825260209091200155505b60008381526020859052604081205560018401805480614b3257fe5b6001900381819060005260206000200160009055905550505050565b60008061119f83614ff4565b600080614b6683612224565b90506111aa8161501a565b60088054600101908190556040805130606090811b6020808401919091523390911b6034830152604880830194909452825180830390940184526068909101909152815191012090565b80614c0d576040805162461bcd60e51b815260206004820152601b60248201527f4649464f5365743a206b65792063616e6e6f74206265207a65726f0000000000604482015290519081900360640190fd5b614c178282614a3e565b15614c62576040805162461bcd60e51b81526020600482015260166024820152754649464f5365743a206475706c6963617465206b657960501b604482015290519081900360640190fd5b60018201546000828152600284016020526040808220838352912082614c8a57838555614c8e565b8381555b60018201839055614ca8600386018563ffffffff61503016565b505050600190910155565b61188182826000613063565b6000611a9e836001600160a01b03841661509f565b6000611a9e836001600160a01b0384166150e9565b8154600090600183011015614d2357826000018260010181548110614d0a57fe5b90600052602060002090600302016002015490506117d5565b50670de0b6b3a764000092915050565b6003820154600090815260048301602052604081208054600184011015614d7f57806000018360010181548110614d6657fe5b9060005260206000209060030201600201549150614d8b565b670de0b6b3a763ffff91505b5092915050565b60038401546000908152600485016020526040902054811015614de057600083815260048501602090815260408083206001600160a01b038616845260019081019092529091208183019101555b50505050565b6003840154600090815260048501602090815260408083206001600160a01b0386168452600101909152902054811015614de0576000928352600493909301602090815260408084206001600160a01b0393909316845260019283019091529091209101600290910155565b60008183614ea15760405162461bcd60e51b81526020600482018181528351602484015283519092839260449091019190850190808383600083156148ff5781810151838201526020016148e7565b506000838581614ead57fe5b0495945050505050565b81546000908210614ef95760405162461bcd60e51b81526004018080602001828103825260228152602001806151d16022913960400191505060405180910390fd5b826000018281548110614f0857fe5b9060005260206000200154905092915050565b60009081526001919091016020526040902054151590565b600281015460408051639358928b60e01b815290516000926001600160a01b031691639358928b916004808301926020929190829003018186803b158015614f7a57600080fd5b505afa158015614f8e573d6000803e3d6000fd5b505050506040513d6020811015614fa457600080fd5b505192915050565b6001820154600090614fc0575060006117d5565b6000828152602084905260409020546001840180548492908110614fe057fe5b906000526020600020015414905092915050565b60006117d5670de0b6b3a7640000611d1e61500d6136e4565b859063ffffffff613d7616565b60006117d5612269670de0b6b3a7640000614ff4565b61503a8282614fac565b156150765760405162461bcd60e51b815260040180806020018281038252602a81526020018061530d602a913960400191505060405180910390fd5b600180830180546000848152602095865260408120829055928101825590825292902090910155565b60006150ab8383614f1b565b6150e1575081546001818101845560008481526020808220909301849055845484825282860190935260409020919091556117d5565b5060006117d5565b600081815260018301602052604081205480156151a5578354600019808301919081019060009087908390811061511c57fe5b906000526020600020015490508087600001848154811061513957fe5b60009182526020808320909101929092558281526001898101909252604090209084019055865487908061516957fe5b600190038181906000526020600020016000905590558660010160008781526020019081526020016000206000905560019450505050506117d5565b60009150506117d5565b6040518060600160405280600081526020016000815260200160008152509056fe456e756d657261626c655365743a20696e646578206f7574206f6620626f756e6473416363657373436f6e74726f6c3a2073656e646572206d75737420626520616e2061646d696e20746f206772616e74427974657333325365743a206b657920646f6573206e6f7420657869737420696e20746865207365742e486f646c6544657820756e696e697469616c697a65642e000000000000000000416363657373436f6e74726f6c3a2073656e646572206d75737420626520616e2061646d696e20746f207265766f6b65596f75206d7573742073656e642045746820746f20746869732066756e6374696f6e496e697469616c697a61626c653a20636f6e747261637420697320616c726561647920696e697469616c697a6564536166654d6174683a206d756c7469706c69636174696f6e206f766572666c6f77427974657333325365743a206b657920616c72656164792065786973747320696e20746865207365742e416363657373436f6e74726f6c3a2063616e206f6e6c792072656e6f756e636520726f6c657320666f722073656c66a2646970667358221220b996c722925abafa72bf3ff7075b8718c8df39c07cab8e46c5d43cc55e04388764736f6c63430006060033",
			"opcodes": "PUSH1 0x80 PUSH1 0x40 MSTORE PUSH2 0x539B DUP1 PUSH2 0x13 PUSH1 0x0 CODECOPY PUSH1 0x0 RETURN INVALID PUSH1 0x80 PUSH1 0x40 MSTORE PUSH1 0x4 CALLDATASIZE LT PUSH2 0x405 JUMPI PUSH1 0x0 CALLDATALOAD PUSH1 0xE0 SHR DUP1 PUSH4 0x75B238FC GT PUSH2 0x213 JUMPI DUP1 PUSH4 0xBECE7532 GT PUSH2 0x123 JUMPI DUP1 PUSH4 0xE2EE29C3 GT PUSH2 0xAB JUMPI DUP1 PUSH4 0xEF78D4FD GT PUSH2 0x7A JUMPI DUP1 PUSH4 0xEF78D4FD EQ PUSH2 0xDD2 JUMPI DUP1 PUSH4 0xF09A4016 EQ PUSH2 0xDE7 JUMPI DUP1 PUSH4 0xF4F06EED EQ PUSH2 0xE22 JUMPI DUP1 PUSH4 0xF58C7ACF EQ PUSH2 0xE52 JUMPI DUP1 PUSH4 0xF5F593A7 EQ PUSH2 0xE67 JUMPI PUSH2 0x405 JUMP JUMPDEST DUP1 PUSH4 0xE2EE29C3 EQ PUSH2 0xD54 JUMPI DUP1 PUSH4 0xE77349E7 EQ PUSH2 0xD69 JUMPI DUP1 PUSH4 0xE84ABEF1 EQ PUSH2 0xD7E JUMPI DUP1 PUSH4 0xECE7DDBF EQ PUSH2 0xDA8 JUMPI PUSH2 0x405 JUMP JUMPDEST DUP1 PUSH4 0xD1E3175A GT PUSH2 0xF2 JUMPI DUP1 PUSH4 0xD1E3175A EQ PUSH2 0xCC7 JUMPI DUP1 PUSH4 0xD26D1FE6 EQ PUSH2 0xCDC JUMPI DUP1 PUSH4 0xD3A057C8 EQ PUSH2 0xCF1 JUMPI DUP1 PUSH4 0xD547741F EQ PUSH2 0xD06 JUMPI DUP1 PUSH4 0xE286BCA5 EQ PUSH2 0xD3F JUMPI PUSH2 0x405 JUMP JUMPDEST DUP1 PUSH4 0xBECE7532 EQ PUSH2 0xC34 JUMPI DUP1 PUSH4 0xC086381E EQ PUSH2 0xC49 JUMPI DUP1 PUSH4 0xC311D049 EQ PUSH2 0xC73 JUMPI DUP1 PUSH4 0xCA15C873 EQ PUSH2 0xC9D JUMPI PUSH2 0x405 JUMP JUMPDEST DUP1 PUSH4 0x91D14854 GT PUSH2 0x1A6 JUMPI DUP1 PUSH4 0xA217FDDF GT PUSH2 0x175 JUMPI DUP1 PUSH4 0xA217FDDF EQ PUSH2 0xB8A JUMPI DUP1 PUSH4 0xA3053E2A EQ PUSH2 0xB9F JUMPI DUP1 PUSH4 0xB1EB816F EQ PUSH2 0xBC9 JUMPI DUP1 PUSH4 0xBC500409 EQ PUSH2 0xBF5 JUMPI DUP1 PUSH4 0xBCFFE5F4 EQ PUSH2 0xC0A JUMPI PUSH2 0x405 JUMP JUMPDEST DUP1 PUSH4 0x91D14854 EQ PUSH2 0xAE8 JUMPI DUP1 PUSH4 0x9358928B EQ PUSH2 0xB21 JUMPI DUP1 PUSH4 0x947B9383 EQ PUSH2 0xB36 JUMPI DUP1 PUSH4 0x9E3202C9 EQ PUSH2 0xB60 JUMPI PUSH2 0x405 JUMP JUMPDEST DUP1 PUSH4 0x84433221 GT PUSH2 0x1E2 JUMPI DUP1 PUSH4 0x84433221 EQ PUSH2 0xA10 JUMPI DUP1 PUSH4 0x896E9CE0 EQ PUSH2 0xA3A JUMPI DUP1 PUSH4 0x8EB6AC7A EQ PUSH2 0xA4F JUMPI DUP1 PUSH4 0x9010D07C EQ PUSH2 0xA9C JUMPI PUSH2 0x405 JUMP JUMPDEST DUP1 PUSH4 0x75B238FC EQ PUSH2 0x989 JUMPI DUP1 PUSH4 0x75C303C9 EQ PUSH2 0x99E JUMPI DUP1 PUSH4 0x7B4E610A EQ PUSH2 0x9B3 JUMPI DUP1 PUSH4 0x81E7E20E EQ PUSH2 0x9DD JUMPI PUSH2 0x405 JUMP JUMPDEST DUP1 PUSH4 0x2B6FB51D GT PUSH2 0x319 JUMPI DUP1 PUSH4 0x439370B1 GT PUSH2 0x2A1 JUMPI DUP1 PUSH4 0x4F8C4A45 GT PUSH2 0x270 JUMPI DUP1 PUSH4 0x4F8C4A45 EQ PUSH2 0x8CE JUMPI DUP1 PUSH4 0x519BAF94 EQ PUSH2 0x8E3 JUMPI DUP1 PUSH4 0x5F07CBC2 EQ PUSH2 0x8F8 JUMPI DUP1 PUSH4 0x61D21875 EQ PUSH2 0x922 JUMPI DUP1 PUSH4 0x6260F55B EQ PUSH2 0x974 JUMPI PUSH2 0x405 JUMP JUMPDEST DUP1 PUSH4 0x439370B1 EQ PUSH2 0x844 JUMPI DUP1 PUSH4 0x43F48FBD EQ PUSH2 0x84C JUMPI DUP1 PUSH4 0x46DEBF31 EQ PUSH2 0x87A JUMPI DUP1 PUSH4 0x4D7DE20C EQ PUSH2 0x8B9 JUMPI PUSH2 0x405 JUMP JUMPDEST DUP1 PUSH4 0x363ECBC0 GT PUSH2 0x2E8 JUMPI DUP1 PUSH4 0x363ECBC0 EQ PUSH2 0x793 JUMPI DUP1 PUSH4 0x36568ABE EQ PUSH2 0x7CC JUMPI DUP1 PUSH4 0x376FE05B EQ PUSH2 0x805 JUMPI DUP1 PUSH4 0x39C6D4CB EQ PUSH2 0x81A JUMPI DUP1 PUSH4 0x3FB7A0AB EQ PUSH2 0x82F JUMPI PUSH2 0x405 JUMP JUMPDEST DUP1 PUSH4 0x2B6FB51D EQ PUSH2 0x69C JUMPI DUP1 PUSH4 0x2CDF21F3 EQ PUSH2 0x6FD JUMPI DUP1 PUSH4 0x2F2FF15D EQ PUSH2 0x727 JUMPI DUP1 PUSH4 0x2F81B5DF EQ PUSH2 0x760 JUMPI PUSH2 0x405 JUMP JUMPDEST DUP1 PUSH4 0x191FD57D GT PUSH2 0x39C JUMPI DUP1 PUSH4 0x2014E5D1 GT PUSH2 0x36B JUMPI DUP1 PUSH4 0x2014E5D1 EQ PUSH2 0x5D7 JUMPI DUP1 PUSH4 0x248A9CA3 EQ PUSH2 0x600 JUMPI DUP1 PUSH4 0x284FEF4B EQ PUSH2 0x62A JUMPI DUP1 PUSH4 0x2949F19E EQ PUSH2 0x63F JUMPI DUP1 PUSH4 0x2B0EEC97 EQ PUSH2 0x672 JUMPI PUSH2 0x405 JUMP JUMPDEST DUP1 PUSH4 0x191FD57D EQ PUSH2 0x535 JUMPI DUP1 PUSH4 0x1B4D7677 EQ PUSH2 0x54A JUMPI DUP1 PUSH4 0x1B7C7EA7 EQ PUSH2 0x55F JUMPI DUP1 PUSH4 0x1D8F8F4B EQ PUSH2 0x589 JUMPI PUSH2 0x405 JUMP JUMPDEST DUP1 PUSH4 0x164CDED6 GT PUSH2 0x3D8 JUMPI DUP1 PUSH4 0x164CDED6 EQ PUSH2 0x4B1 JUMPI DUP1 PUSH4 0x16F30A7B EQ PUSH2 0x4DB JUMPI DUP1 PUSH4 0x18178358 EQ PUSH2 0x50B JUMPI DUP1 PUSH4 0x1911E522 EQ PUSH2 0x520 JUMPI PUSH2 0x405 JUMP JUMPDEST DUP1 PUSH4 0x76299DE EQ PUSH2 0x40A JUMPI DUP1 PUSH4 0x7E2CEA5 EQ PUSH2 0x436 JUMPI DUP1 PUSH4 0xCC6E019 EQ PUSH2 0x45D JUMPI DUP1 PUSH4 0xEF8E550 EQ PUSH2 0x487 JUMPI JUMPDEST PUSH1 0x0 DUP1 REVERT JUMPDEST CALLVALUE DUP1 ISZERO PUSH2 0x416 JUMPI PUSH1 0x0 DUP1 REVERT JUMPDEST POP PUSH2 0x434 PUSH1 0x4 DUP1 CALLDATASIZE SUB PUSH1 0x20 DUP2 LT ISZERO PUSH2 0x42D JUMPI PUSH1 0x0 DUP1 REVERT JUMPDEST POP CALLDATALOAD PUSH2 0xE95 JUMP JUMPDEST STOP JUMPDEST CALLVALUE DUP1 ISZERO PUSH2 0x442 JUMPI PUSH1 0x0 DUP1 REVERT JUMPDEST POP PUSH2 0x44B PUSH2 0x1012 JUMP JUMPDEST PUSH1 0x40 DUP1 MLOAD SWAP2 DUP3 MSTORE MLOAD SWAP1 DUP2 SWAP1 SUB PUSH1 0x20 ADD SWAP1 RETURN JUMPDEST CALLVALUE DUP1 ISZERO PUSH2 0x469 JUMPI PUSH1 0x0 DUP1 REVERT JUMPDEST POP PUSH2 0x434 PUSH1 0x4 DUP1 CALLDATASIZE SUB PUSH1 0x20 DUP2 LT ISZERO PUSH2 0x480 JUMPI PUSH1 0x0 DUP1 REVERT JUMPDEST POP CALLDATALOAD PUSH2 0x1035 JUMP JUMPDEST CALLVALUE DUP1 ISZERO PUSH2 0x493 JUMPI PUSH1 0x0 DUP1 REVERT JUMPDEST POP PUSH2 0x44B PUSH1 0x4 DUP1 CALLDATASIZE SUB PUSH1 0x20 DUP2 LT ISZERO PUSH2 0x4AA JUMPI PUSH1 0x0 DUP1 REVERT JUMPDEST POP CALLDATALOAD PUSH2 0x1193 JUMP JUMPDEST CALLVALUE DUP1 ISZERO PUSH2 0x4BD JUMPI PUSH1 0x0 DUP1 REVERT JUMPDEST POP PUSH2 0x434 PUSH1 0x4 DUP1 CALLDATASIZE SUB PUSH1 0x20 DUP2 LT ISZERO PUSH2 0x4D4 JUMPI PUSH1 0x0 DUP1 REVERT JUMPDEST POP CALLDATALOAD PUSH2 0x11B3 JUMP JUMPDEST CALLVALUE DUP1 ISZERO PUSH2 0x4E7 JUMPI PUSH1 0x0 DUP1 REVERT JUMPDEST POP PUSH2 0x44B PUSH1 0x4 DUP1 CALLDATASIZE SUB PUSH1 0x40 DUP2 LT ISZERO PUSH2 0x4FE JUMPI PUSH1 0x0 DUP1 REVERT JUMPDEST POP DUP1 CALLDATALOAD SWAP1 PUSH1 0x20 ADD CALLDATALOAD PUSH2 0x1334 JUMP JUMPDEST CALLVALUE DUP1 ISZERO PUSH2 0x517 JUMPI PUSH1 0x0 DUP1 REVERT JUMPDEST POP PUSH2 0x434 PUSH2 0x149F JUMP JUMPDEST CALLVALUE DUP1 ISZERO PUSH2 0x52C JUMPI PUSH1 0x0 DUP1 REVERT JUMPDEST POP PUSH2 0x44B PUSH2 0x14F8 JUMP JUMPDEST CALLVALUE DUP1 ISZERO PUSH2 0x541 JUMPI PUSH1 0x0 DUP1 REVERT JUMPDEST POP PUSH2 0x44B PUSH2 0x150A JUMP JUMPDEST CALLVALUE DUP1 ISZERO PUSH2 0x556 JUMPI PUSH1 0x0 DUP1 REVERT JUMPDEST POP PUSH2 0x44B PUSH2 0x152E JUMP JUMPDEST CALLVALUE DUP1 ISZERO PUSH2 0x56B JUMPI PUSH1 0x0 DUP1 REVERT JUMPDEST POP PUSH2 0x434 PUSH1 0x4 DUP1 CALLDATASIZE SUB PUSH1 0x20 DUP2 LT ISZERO PUSH2 0x582 JUMPI PUSH1 0x0 DUP1 REVERT JUMPDEST POP CALLDATALOAD PUSH2 0x1534 JUMP JUMPDEST CALLVALUE DUP1 ISZERO PUSH2 0x595 JUMPI PUSH1 0x0 DUP1 REVERT JUMPDEST POP PUSH2 0x5B9 PUSH1 0x4 DUP1 CALLDATASIZE SUB PUSH1 0x40 DUP2 LT ISZERO PUSH2 0x5AC JUMPI PUSH1 0x0 DUP1 REVERT JUMPDEST POP DUP1 CALLDATALOAD SWAP1 PUSH1 0x20 ADD CALLDATALOAD PUSH2 0x1670 JUMP JUMPDEST PUSH1 0x40 DUP1 MLOAD SWAP4 DUP5 MSTORE PUSH1 0x20 DUP5 ADD SWAP3 SWAP1 SWAP3 MSTORE DUP3 DUP3 ADD MSTORE MLOAD SWAP1 DUP2 SWAP1 SUB PUSH1 0x60 ADD SWAP1 RETURN JUMPDEST CALLVALUE DUP1 ISZERO PUSH2 0x5E3 JUMPI PUSH1 0x0 DUP1 REVERT JUMPDEST POP PUSH2 0x5EC PUSH2 0x1693 JUMP JUMPDEST PUSH1 0x40 DUP1 MLOAD SWAP2 ISZERO ISZERO DUP3 MSTORE MLOAD SWAP1 DUP2 SWAP1 SUB PUSH1 0x20 ADD SWAP1 RETURN JUMPDEST CALLVALUE DUP1 ISZERO PUSH2 0x60C JUMPI PUSH1 0x0 DUP1 REVERT JUMPDEST POP PUSH2 0x44B PUSH1 0x4 DUP1 CALLDATASIZE SUB PUSH1 0x20 DUP2 LT ISZERO PUSH2 0x623 JUMPI PUSH1 0x0 DUP1 REVERT JUMPDEST POP CALLDATALOAD PUSH2 0x16C8 JUMP JUMPDEST CALLVALUE DUP1 ISZERO PUSH2 0x636 JUMPI PUSH1 0x0 DUP1 REVERT JUMPDEST POP PUSH2 0x44B PUSH2 0x16DD JUMP JUMPDEST CALLVALUE DUP1 ISZERO PUSH2 0x64B JUMPI PUSH1 0x0 DUP1 REVERT JUMPDEST POP PUSH2 0x434 PUSH1 0x4 DUP1 CALLDATASIZE SUB PUSH1 0x20 DUP2 LT ISZERO PUSH2 0x662 JUMPI PUSH1 0x0 DUP1 REVERT JUMPDEST POP CALLDATALOAD PUSH1 0x1 PUSH1 0x1 PUSH1 0xA0 SHL SUB AND PUSH2 0x16F8 JUMP JUMPDEST CALLVALUE DUP1 ISZERO PUSH2 0x67E JUMPI PUSH1 0x0 DUP1 REVERT JUMPDEST POP PUSH2 0x44B PUSH1 0x4 DUP1 CALLDATASIZE SUB PUSH1 0x20 DUP2 LT ISZERO PUSH2 0x695 JUMPI PUSH1 0x0 DUP1 REVERT JUMPDEST POP CALLDATALOAD PUSH2 0x17C2 JUMP JUMPDEST CALLVALUE DUP1 ISZERO PUSH2 0x6A8 JUMPI PUSH1 0x0 DUP1 REVERT JUMPDEST POP PUSH2 0x6D5 PUSH1 0x4 DUP1 CALLDATASIZE SUB PUSH1 0x40 DUP2 LT ISZERO PUSH2 0x6BF JUMPI PUSH1 0x0 DUP1 REVERT JUMPDEST POP PUSH1 0x1 PUSH1 0x1 PUSH1 0xA0 SHL SUB DUP2 CALLDATALOAD AND SWAP1 PUSH1 0x20 ADD CALLDATALOAD PUSH2 0x17DB JUMP JUMPDEST PUSH1 0x40 DUP1 MLOAD SWAP5 DUP6 MSTORE PUSH1 0x20 DUP6 ADD SWAP4 SWAP1 SWAP4 MSTORE DUP4 DUP4 ADD SWAP2 SWAP1 SWAP2 MSTORE ISZERO ISZERO PUSH1 0x60 DUP4 ADD MSTORE MLOAD SWAP1 DUP2 SWAP1 SUB PUSH1 0x80 ADD SWAP1 RETURN JUMPDEST CALLVALUE DUP1 ISZERO PUSH2 0x709 JUMPI PUSH1 0x0 DUP1 REVERT JUMPDEST POP PUSH2 0x44B PUSH1 0x4 DUP1 CALLDATASIZE SUB PUSH1 0x20 DUP2 LT ISZERO PUSH2 0x720 JUMPI PUSH1 0x0 DUP1 REVERT JUMPDEST POP CALLDATALOAD PUSH2 0x1802 JUMP JUMPDEST CALLVALUE DUP1 ISZERO PUSH2 0x733 JUMPI PUSH1 0x0 DUP1 REVERT JUMPDEST POP PUSH2 0x434 PUSH1 0x4 DUP1 CALLDATASIZE SUB PUSH1 0x40 DUP2 LT ISZERO PUSH2 0x74A JUMPI PUSH1 0x0 DUP1 REVERT JUMPDEST POP DUP1 CALLDATALOAD SWAP1 PUSH1 0x20 ADD CALLDATALOAD PUSH1 0x1 PUSH1 0x1 PUSH1 0xA0 SHL SUB AND PUSH2 0x1819 JUMP JUMPDEST CALLVALUE DUP1 ISZERO PUSH2 0x76C JUMPI PUSH1 0x0 DUP1 REVERT JUMPDEST POP PUSH2 0x434 PUSH1 0x4 DUP1 CALLDATASIZE SUB PUSH1 0x20 DUP2 LT ISZERO PUSH2 0x783 JUMPI PUSH1 0x0 DUP1 REVERT JUMPDEST POP CALLDATALOAD PUSH1 0x1 PUSH1 0x1 PUSH1 0xA0 SHL SUB AND PUSH2 0x1885 JUMP JUMPDEST CALLVALUE DUP1 ISZERO PUSH2 0x79F JUMPI PUSH1 0x0 DUP1 REVERT JUMPDEST POP PUSH2 0x44B PUSH1 0x4 DUP1 CALLDATASIZE SUB PUSH1 0x40 DUP2 LT ISZERO PUSH2 0x7B6 JUMPI PUSH1 0x0 DUP1 REVERT JUMPDEST POP DUP1 CALLDATALOAD SWAP1 PUSH1 0x20 ADD CALLDATALOAD PUSH1 0x1 PUSH1 0x1 PUSH1 0xA0 SHL SUB AND PUSH2 0x1A8A JUMP JUMPDEST CALLVALUE DUP1 ISZERO PUSH2 0x7D8 JUMPI PUSH1 0x0 DUP1 REVERT JUMPDEST POP PUSH2 0x434 PUSH1 0x4 DUP1 CALLDATASIZE SUB PUSH1 0x40 DUP2 LT ISZERO PUSH2 0x7EF JUMPI PUSH1 0x0 DUP1 REVERT JUMPDEST POP DUP1 CALLDATALOAD SWAP1 PUSH1 0x20 ADD CALLDATALOAD PUSH1 0x1 PUSH1 0x1 PUSH1 0xA0 SHL SUB AND PUSH2 0x1AA5 JUMP JUMPDEST CALLVALUE DUP1 ISZERO PUSH2 0x811 JUMPI PUSH1 0x0 DUP1 REVERT JUMPDEST POP PUSH2 0x44B PUSH2 0x1B06 JUMP JUMPDEST CALLVALUE DUP1 ISZERO PUSH2 0x826 JUMPI PUSH1 0x0 DUP1 REVERT JUMPDEST POP PUSH2 0x44B PUSH2 0x1B7B JUMP JUMPDEST CALLVALUE DUP1 ISZERO PUSH2 0x83B JUMPI PUSH1 0x0 DUP1 REVERT JUMPDEST POP PUSH2 0x44B PUSH2 0x1BA1 JUMP JUMPDEST PUSH2 0x434 PUSH2 0x1BA7 JUMP JUMPDEST CALLVALUE DUP1 ISZERO PUSH2 0x858 JUMPI PUSH1 0x0 DUP1 REVERT JUMPDEST POP PUSH2 0x861 PUSH2 0x1C93 JUMP JUMPDEST PUSH1 0x40 DUP1 MLOAD SWAP3 DUP4 MSTORE PUSH1 0x20 DUP4 ADD SWAP2 SWAP1 SWAP2 MSTORE DUP1 MLOAD SWAP2 DUP3 SWAP1 SUB ADD SWAP1 RETURN JUMPDEST CALLVALUE DUP1 ISZERO PUSH2 0x886 JUMPI PUSH1 0x0 DUP1 REVERT JUMPDEST POP PUSH2 0x5B9 PUSH1 0x4 DUP1 CALLDATASIZE SUB PUSH1 0x60 DUP2 LT ISZERO PUSH2 0x89D JUMPI PUSH1 0x0 DUP1 REVERT JUMPDEST POP DUP1 CALLDATALOAD SWAP1 PUSH1 0x1 PUSH1 0x1 PUSH1 0xA0 SHL SUB PUSH1 0x20 DUP3 ADD CALLDATALOAD AND SWAP1 PUSH1 0x40 ADD CALLDATALOAD PUSH2 0x1D60 JUMP JUMPDEST CALLVALUE DUP1 ISZERO PUSH2 0x8C5 JUMPI PUSH1 0x0 DUP1 REVERT JUMPDEST POP PUSH2 0x44B PUSH2 0x1D87 JUMP JUMPDEST CALLVALUE DUP1 ISZERO PUSH2 0x8DA JUMPI PUSH1 0x0 DUP1 REVERT JUMPDEST POP PUSH2 0x44B PUSH2 0x1D93 JUMP JUMPDEST CALLVALUE DUP1 ISZERO PUSH2 0x8EF JUMPI PUSH1 0x0 DUP1 REVERT JUMPDEST POP PUSH2 0x44B PUSH2 0x1DAF JUMP JUMPDEST CALLVALUE DUP1 ISZERO PUSH2 0x904 JUMPI PUSH1 0x0 DUP1 REVERT JUMPDEST POP PUSH2 0x434 PUSH1 0x4 DUP1 CALLDATASIZE SUB PUSH1 0x20 DUP2 LT ISZERO PUSH2 0x91B JUMPI PUSH1 0x0 DUP1 REVERT JUMPDEST POP CALLDATALOAD PUSH2 0x1DBB JUMP JUMPDEST CALLVALUE DUP1 ISZERO PUSH2 0x92E JUMPI PUSH1 0x0 DUP1 REVERT JUMPDEST POP PUSH2 0x94C PUSH1 0x4 DUP1 CALLDATASIZE SUB PUSH1 0x20 DUP2 LT ISZERO PUSH2 0x945 JUMPI PUSH1 0x0 DUP1 REVERT JUMPDEST POP CALLDATALOAD PUSH2 0x1F2A JUMP JUMPDEST PUSH1 0x40 DUP1 MLOAD PUSH1 0x1 PUSH1 0x1 PUSH1 0xA0 SHL SUB SWAP1 SWAP5 AND DUP5 MSTORE PUSH1 0x20 DUP5 ADD SWAP3 SWAP1 SWAP3 MSTORE DUP3 DUP3 ADD MSTORE MLOAD SWAP1 DUP2 SWAP1 SUB PUSH1 0x60 ADD SWAP1 RETURN JUMPDEST CALLVALUE DUP1 ISZERO PUSH2 0x980 JUMPI PUSH1 0x0 DUP1 REVERT JUMPDEST POP PUSH2 0x44B PUSH2 0x1F55 JUMP JUMPDEST CALLVALUE DUP1 ISZERO PUSH2 0x995 JUMPI PUSH1 0x0 DUP1 REVERT JUMPDEST POP PUSH2 0x44B PUSH2 0x1F5B JUMP JUMPDEST CALLVALUE DUP1 ISZERO PUSH2 0x9AA JUMPI PUSH1 0x0 DUP1 REVERT JUMPDEST POP PUSH2 0x44B PUSH2 0x1F7D JUMP JUMPDEST CALLVALUE DUP1 ISZERO PUSH2 0x9BF JUMPI PUSH1 0x0 DUP1 REVERT JUMPDEST POP PUSH2 0x434 PUSH1 0x4 DUP1 CALLDATASIZE SUB PUSH1 0x20 DUP2 LT ISZERO PUSH2 0x9D6 JUMPI PUSH1 0x0 DUP1 REVERT JUMPDEST POP CALLDATALOAD PUSH2 0x1FAD JUMP JUMPDEST CALLVALUE DUP1 ISZERO PUSH2 0x9E9 JUMPI PUSH1 0x0 DUP1 REVERT JUMPDEST POP PUSH2 0x5B9 PUSH1 0x4 DUP1 CALLDATASIZE SUB PUSH1 0x20 DUP2 LT ISZERO PUSH2 0xA00 JUMPI PUSH1 0x0 DUP1 REVERT JUMPDEST POP CALLDATALOAD PUSH1 0x1 PUSH1 0x1 PUSH1 0xA0 SHL SUB AND PUSH2 0x2066 JUMP JUMPDEST CALLVALUE DUP1 ISZERO PUSH2 0xA1C JUMPI PUSH1 0x0 DUP1 REVERT JUMPDEST POP PUSH2 0x861 PUSH1 0x4 DUP1 CALLDATASIZE SUB PUSH1 0x20 DUP2 LT ISZERO PUSH2 0xA33 JUMPI PUSH1 0x0 DUP1 REVERT JUMPDEST POP CALLDATALOAD PUSH2 0x20FD JUMP JUMPDEST CALLVALUE DUP1 ISZERO PUSH2 0xA46 JUMPI PUSH1 0x0 DUP1 REVERT JUMPDEST POP PUSH2 0x5EC PUSH2 0x212B JUMP JUMPDEST CALLVALUE DUP1 ISZERO PUSH2 0xA5B JUMPI PUSH1 0x0 DUP1 REVERT JUMPDEST POP PUSH2 0xA79 PUSH1 0x4 DUP1 CALLDATASIZE SUB PUSH1 0x20 DUP2 LT ISZERO PUSH2 0xA72 JUMPI PUSH1 0x0 DUP1 REVERT JUMPDEST POP CALLDATALOAD PUSH2 0x214B JUMP JUMPDEST PUSH1 0x40 DUP1 MLOAD PUSH1 0x1 PUSH1 0x1 PUSH1 0xA0 SHL SUB SWAP1 SWAP4 AND DUP4 MSTORE PUSH1 0x20 DUP4 ADD SWAP2 SWAP1 SWAP2 MSTORE DUP1 MLOAD SWAP2 DUP3 SWAP1 SUB ADD SWAP1 RETURN JUMPDEST CALLVALUE DUP1 ISZERO PUSH2 0xAA8 JUMPI PUSH1 0x0 DUP1 REVERT JUMPDEST POP PUSH2 0xACC PUSH1 0x4 DUP1 CALLDATASIZE SUB PUSH1 0x40 DUP2 LT ISZERO PUSH2 0xABF JUMPI PUSH1 0x0 DUP1 REVERT JUMPDEST POP DUP1 CALLDATALOAD SWAP1 PUSH1 0x20 ADD CALLDATALOAD PUSH2 0x2170 JUMP JUMPDEST PUSH1 0x40 DUP1 MLOAD PUSH1 0x1 PUSH1 0x1 PUSH1 0xA0 SHL SUB SWAP1 SWAP3 AND DUP3 MSTORE MLOAD SWAP1 DUP2 SWAP1 SUB PUSH1 0x20 ADD SWAP1 RETURN JUMPDEST CALLVALUE DUP1 ISZERO PUSH2 0xAF4 JUMPI PUSH1 0x0 DUP1 REVERT JUMPDEST POP PUSH2 0x5EC PUSH1 0x4 DUP1 CALLDATASIZE SUB PUSH1 0x40 DUP2 LT ISZERO PUSH2 0xB0B JUMPI PUSH1 0x0 DUP1 REVERT JUMPDEST POP DUP1 CALLDATALOAD SWAP1 PUSH1 0x20 ADD CALLDATALOAD PUSH1 0x1 PUSH1 0x1 PUSH1 0xA0 SHL SUB AND PUSH2 0x218E JUMP JUMPDEST CALLVALUE DUP1 ISZERO PUSH2 0xB2D JUMPI PUSH1 0x0 DUP1 REVERT JUMPDEST POP PUSH2 0x44B PUSH2 0x21AC JUMP JUMPDEST CALLVALUE DUP1 ISZERO PUSH2 0xB42 JUMPI PUSH1 0x0 DUP1 REVERT JUMPDEST POP PUSH2 0x44B PUSH1 0x4 DUP1 CALLDATASIZE SUB PUSH1 0x20 DUP2 LT ISZERO PUSH2 0xB59 JUMPI PUSH1 0x0 DUP1 REVERT JUMPDEST POP CALLDATALOAD PUSH2 0x21FA JUMP JUMPDEST CALLVALUE DUP1 ISZERO PUSH2 0xB6C JUMPI PUSH1 0x0 DUP1 REVERT JUMPDEST POP PUSH2 0x44B PUSH1 0x4 DUP1 CALLDATASIZE SUB PUSH1 0x20 DUP2 LT ISZERO PUSH2 0xB83 JUMPI PUSH1 0x0 DUP1 REVERT JUMPDEST POP CALLDATALOAD PUSH2 0x2224 JUMP JUMPDEST CALLVALUE DUP1 ISZERO PUSH2 0xB96 JUMPI PUSH1 0x0 DUP1 REVERT JUMPDEST POP PUSH2 0x44B PUSH2 0x224E JUMP JUMPDEST CALLVALUE DUP1 ISZERO PUSH2 0xBAB JUMPI PUSH1 0x0 DUP1 REVERT JUMPDEST POP PUSH2 0x44B PUSH1 0x4 DUP1 CALLDATASIZE SUB PUSH1 0x20 DUP2 LT ISZERO PUSH2 0xBC2 JUMPI PUSH1 0x0 DUP1 REVERT JUMPDEST POP CALLDATALOAD PUSH2 0x2253 JUMP JUMPDEST PUSH2 0x434 PUSH1 0x4 DUP1 CALLDATASIZE SUB PUSH1 0x40 DUP2 LT ISZERO PUSH2 0xBDF JUMPI PUSH1 0x0 DUP1 REVERT JUMPDEST POP PUSH1 0x1 PUSH1 0x1 PUSH1 0xA0 SHL SUB DUP2 CALLDATALOAD AND SWAP1 PUSH1 0x20 ADD CALLDATALOAD PUSH2 0x2281 JUMP JUMPDEST CALLVALUE DUP1 ISZERO PUSH2 0xC01 JUMPI PUSH1 0x0 DUP1 REVERT JUMPDEST POP PUSH2 0x44B PUSH2 0x23D2 JUMP JUMPDEST CALLVALUE DUP1 ISZERO PUSH2 0xC16 JUMPI PUSH1 0x0 DUP1 REVERT JUMPDEST POP PUSH2 0x861 PUSH1 0x4 DUP1 CALLDATASIZE SUB PUSH1 0x20 DUP2 LT ISZERO PUSH2 0xC2D JUMPI PUSH1 0x0 DUP1 REVERT JUMPDEST POP CALLDATALOAD PUSH2 0x23DE JUMP JUMPDEST CALLVALUE DUP1 ISZERO PUSH2 0xC40 JUMPI PUSH1 0x0 DUP1 REVERT JUMPDEST POP PUSH2 0xACC PUSH2 0x2403 JUMP JUMPDEST CALLVALUE DUP1 ISZERO PUSH2 0xC55 JUMPI PUSH1 0x0 DUP1 REVERT JUMPDEST POP PUSH2 0x44B PUSH1 0x4 DUP1 CALLDATASIZE SUB PUSH1 0x20 DUP2 LT ISZERO PUSH2 0xC6C JUMPI PUSH1 0x0 DUP1 REVERT JUMPDEST POP CALLDATALOAD PUSH2 0x2412 JUMP JUMPDEST CALLVALUE DUP1 ISZERO PUSH2 0xC7F JUMPI PUSH1 0x0 DUP1 REVERT JUMPDEST POP PUSH2 0x434 PUSH1 0x4 DUP1 CALLDATASIZE SUB PUSH1 0x20 DUP2 LT ISZERO PUSH2 0xC96 JUMPI PUSH1 0x0 DUP1 REVERT JUMPDEST POP CALLDATALOAD PUSH2 0x2435 JUMP JUMPDEST CALLVALUE DUP1 ISZERO PUSH2 0xCA9 JUMPI PUSH1 0x0 DUP1 REVERT JUMPDEST POP PUSH2 0x44B PUSH1 0x4 DUP1 CALLDATASIZE SUB PUSH1 0x20 DUP2 LT ISZERO PUSH2 0xCC0 JUMPI PUSH1 0x0 DUP1 REVERT JUMPDEST POP CALLDATALOAD PUSH2 0x24E0 JUMP JUMPDEST CALLVALUE DUP1 ISZERO PUSH2 0xCD3 JUMPI PUSH1 0x0 DUP1 REVERT JUMPDEST POP PUSH2 0x44B PUSH2 0x24F7 JUMP JUMPDEST CALLVALUE DUP1 ISZERO PUSH2 0xCE8 JUMPI PUSH1 0x0 DUP1 REVERT JUMPDEST POP PUSH2 0x44B PUSH2 0x2503 JUMP JUMPDEST CALLVALUE DUP1 ISZERO PUSH2 0xCFD JUMPI PUSH1 0x0 DUP1 REVERT JUMPDEST POP PUSH2 0x5EC PUSH2 0x2509 JUMP JUMPDEST CALLVALUE DUP1 ISZERO PUSH2 0xD12 JUMPI PUSH1 0x0 DUP1 REVERT JUMPDEST POP PUSH2 0x434 PUSH1 0x4 DUP1 CALLDATASIZE SUB PUSH1 0x40 DUP2 LT ISZERO PUSH2 0xD29 JUMPI PUSH1 0x0 DUP1 REVERT JUMPDEST POP DUP1 CALLDATALOAD SWAP1 PUSH1 0x20 ADD CALLDATALOAD PUSH1 0x1 PUSH1 0x1 PUSH1 0xA0 SHL SUB AND PUSH2 0x251A JUMP JUMPDEST CALLVALUE DUP1 ISZERO PUSH2 0xD4B JUMPI PUSH1 0x0 DUP1 REVERT JUMPDEST POP PUSH2 0xACC PUSH2 0x2571 JUMP JUMPDEST CALLVALUE DUP1 ISZERO PUSH2 0xD60 JUMPI PUSH1 0x0 DUP1 REVERT JUMPDEST POP PUSH2 0x44B PUSH2 0x2580 JUMP JUMPDEST CALLVALUE DUP1 ISZERO PUSH2 0xD75 JUMPI PUSH1 0x0 DUP1 REVERT JUMPDEST POP PUSH2 0x44B PUSH2 0x25F4 JUMP JUMPDEST CALLVALUE DUP1 ISZERO PUSH2 0xD8A JUMPI PUSH1 0x0 DUP1 REVERT JUMPDEST POP PUSH2 0x434 PUSH1 0x4 DUP1 CALLDATASIZE SUB PUSH1 0x20 DUP2 LT ISZERO PUSH2 0xDA1 JUMPI PUSH1 0x0 DUP1 REVERT JUMPDEST POP CALLDATALOAD PUSH2 0x25FA JUMP JUMPDEST CALLVALUE DUP1 ISZERO PUSH2 0xDB4 JUMPI PUSH1 0x0 DUP1 REVERT JUMPDEST POP PUSH2 0x434 PUSH1 0x4 DUP1 CALLDATASIZE SUB PUSH1 0x20 DUP2 LT ISZERO PUSH2 0xDCB JUMPI PUSH1 0x0 DUP1 REVERT JUMPDEST POP CALLDATALOAD PUSH2 0x2673 JUMP JUMPDEST CALLVALUE DUP1 ISZERO PUSH2 0xDDE JUMPI PUSH1 0x0 DUP1 REVERT JUMPDEST POP PUSH2 0x44B PUSH2 0x272A JUMP JUMPDEST CALLVALUE DUP1 ISZERO PUSH2 0xDF3 JUMPI PUSH1 0x0 DUP1 REVERT JUMPDEST POP PUSH2 0x434 PUSH1 0x4 DUP1 CALLDATASIZE SUB PUSH1 0x40 DUP2 LT ISZERO PUSH2 0xE0A JUMPI PUSH1 0x0 DUP1 REVERT JUMPDEST POP PUSH1 0x1 PUSH1 0x1 PUSH1 0xA0 SHL SUB DUP2 CALLDATALOAD DUP2 AND SWAP2 PUSH1 0x20 ADD CALLDATALOAD AND PUSH2 0x2736 JUMP JUMPDEST CALLVALUE DUP1 ISZERO PUSH2 0xE2E JUMPI PUSH1 0x0 DUP1 REVERT JUMPDEST POP PUSH2 0x44B PUSH1 0x4 DUP1 CALLDATASIZE SUB PUSH1 0x40 DUP2 LT ISZERO PUSH2 0xE45 JUMPI PUSH1 0x0 DUP1 REVERT JUMPDEST POP DUP1 CALLDATALOAD SWAP1 PUSH1 0x20 ADD CALLDATALOAD PUSH2 0x29F7 JUMP JUMPDEST CALLVALUE DUP1 ISZERO PUSH2 0xE5E JUMPI PUSH1 0x0 DUP1 REVERT JUMPDEST POP PUSH2 0x44B PUSH2 0x2B5A JUMP JUMPDEST CALLVALUE DUP1 ISZERO PUSH2 0xE73 JUMPI PUSH1 0x0 DUP1 REVERT JUMPDEST POP PUSH2 0xE7C PUSH2 0x2B66 JUMP JUMPDEST PUSH1 0x40 DUP1 MLOAD SWAP3 DUP4 MSTORE SWAP1 ISZERO ISZERO PUSH1 0x20 DUP4 ADD MSTORE DUP1 MLOAD SWAP2 DUP3 SWAP1 SUB ADD SWAP1 RETURN JUMPDEST PUSH2 0xE9D PUSH2 0x1693 JUMP JUMPDEST PUSH2 0xEDC JUMPI PUSH1 0x40 DUP1 MLOAD PUSH3 0x461BCD PUSH1 0xE5 SHL DUP2 MSTORE PUSH1 0x20 PUSH1 0x4 DUP3 ADD MSTORE PUSH1 0x17 PUSH1 0x24 DUP3 ADD MSTORE PUSH1 0x0 DUP1 MLOAD PUSH1 0x20 PUSH2 0x524C DUP4 CODECOPY DUP2 MLOAD SWAP2 MSTORE PUSH1 0x44 DUP3 ADD MSTORE SWAP1 MLOAD SWAP1 DUP2 SWAP1 SUB PUSH1 0x64 ADD SWAP1 REVERT JUMPDEST PUSH1 0x3 SLOAD PUSH1 0x40 DUP1 MLOAD PUSH4 0x1A59529F PUSH1 0xE2 SHL DUP2 MSTORE CALLER PUSH1 0x4 DUP3 ADD MSTORE PUSH1 0x24 DUP2 ADD DUP5 SWAP1 MSTORE SWAP1 MLOAD PUSH1 0x0 SWAP3 PUSH1 0x1 PUSH1 0x1 PUSH1 0xA0 SHL SUB AND SWAP2 PUSH4 0x69654A7C SWAP2 PUSH1 0x44 DUP1 DUP4 ADD SWAP3 PUSH1 0x20 SWAP3 SWAP2 SWAP1 DUP3 SWAP1 SUB ADD DUP2 DUP8 DUP8 DUP1 EXTCODESIZE ISZERO DUP1 ISZERO PUSH2 0xF2F JUMPI PUSH1 0x0 DUP1 REVERT JUMPDEST POP GAS CALL ISZERO DUP1 ISZERO PUSH2 0xF43 JUMPI RETURNDATASIZE PUSH1 0x0 DUP1 RETURNDATACOPY RETURNDATASIZE PUSH1 0x0 REVERT JUMPDEST POP POP POP POP PUSH1 0x40 MLOAD RETURNDATASIZE PUSH1 0x20 DUP2 LT ISZERO PUSH2 0xF59 JUMPI PUSH1 0x0 DUP1 REVERT JUMPDEST POP MLOAD PUSH1 0x40 DUP1 MLOAD DUP5 DUP2 MSTORE PUSH1 0x20 DUP2 ADD DUP4 SWAP1 MSTORE DUP2 MLOAD SWAP3 SWAP4 POP CALLER SWAP3 PUSH32 0xBD267C282682C91617691BF34EAE6225F9241BF30F0BCC0F7BCFB98FF03CE31D SWAP3 SWAP2 DUP2 SWAP1 SUB SWAP1 SWAP2 ADD SWAP1 LOG2 PUSH1 0x40 DUP1 MLOAD PUSH4 0x1213D113 PUSH1 0xE2 SHL DUP2 MSTORE SWAP1 MLOAD SWAP1 DUP2 SWAP1 SUB PUSH1 0x4 ADD SWAP1 KECCAK256 PUSH2 0xFCA SWAP1 PUSH1 0xC SWAP1 CALLER DUP5 PUSH1 0x0 PUSH4 0xFFFFFFFF PUSH2 0x2BF5 AND JUMP JUMPDEST PUSH1 0x40 DUP1 MLOAD PUSH4 0x1213D113 PUSH1 0xE2 SHL DUP2 MSTORE SWAP1 MLOAD SWAP1 DUP2 SWAP1 SUB PUSH1 0x4 ADD SWAP1 KECCAK256 PUSH1 0x3 SLOAD PUSH2 0x1004 SWAP2 PUSH1 0xC SWAP2 PUSH1 0x1 PUSH1 0x1 PUSH1 0xA0 SHL SUB AND DUP5 PUSH1 0x0 PUSH4 0xFFFFFFFF PUSH2 0x2E06 AND JUMP JUMPDEST POP PUSH2 0x100D PUSH2 0x2FD6 JUMP JUMPDEST POP POP POP JUMP JUMPDEST PUSH1 0x40 DUP1 MLOAD PUSH11 0x4F7261636C6520526F6C65 PUSH1 0xA8 SHL DUP2 MSTORE SWAP1 MLOAD SWAP1 DUP2 SWAP1 SUB PUSH1 0xB ADD SWAP1 KECCAK256 DUP2 JUMP JUMPDEST PUSH2 0x103D PUSH2 0x1693 JUMP JUMPDEST PUSH2 0x107C JUMPI PUSH1 0x40 DUP1 MLOAD PUSH3 0x461BCD PUSH1 0xE5 SHL DUP2 MSTORE PUSH1 0x20 PUSH1 0x4 DUP3 ADD MSTORE PUSH1 0x17 PUSH1 0x24 DUP3 ADD MSTORE PUSH1 0x0 DUP1 MLOAD PUSH1 0x20 PUSH2 0x524C DUP4 CODECOPY DUP2 MLOAD SWAP2 MSTORE PUSH1 0x44 DUP3 ADD MSTORE SWAP1 MLOAD SWAP1 DUP2 SWAP1 SUB PUSH1 0x64 ADD SWAP1 REVERT JUMPDEST PUSH1 0x40 DUP1 MLOAD PUSH12 0x5265736572766520526F6C65 PUSH1 0xA0 SHL DUP2 MSTORE SWAP1 MLOAD SWAP1 DUP2 SWAP1 SUB PUSH1 0xC ADD SWAP1 KECCAK256 PUSH2 0x10A7 SWAP1 CALLER PUSH2 0x218E JUMP JUMPDEST PUSH2 0x10EF JUMPI PUSH1 0x40 DUP1 MLOAD PUSH3 0x461BCD PUSH1 0xE5 SHL DUP2 MSTORE PUSH1 0x20 PUSH1 0x4 DUP3 ADD MSTORE PUSH1 0x14 PUSH1 0x24 DUP3 ADD MSTORE PUSH20 0x2437B2362232BC101A1819903932B9B2B93B3297 PUSH1 0x61 SHL PUSH1 0x44 DUP3 ADD MSTORE SWAP1 MLOAD SWAP1 DUP2 SWAP1 SUB PUSH1 0x64 ADD SWAP1 REVERT JUMPDEST PUSH1 0x40 DUP1 MLOAD CALLER DUP2 MSTORE PUSH1 0x20 DUP2 ADD DUP4 SWAP1 MSTORE DUP2 MLOAD PUSH32 0x8B476DDF0FF11F47272C435B662B2534D5469ED9F10FB084C37F17B028CB459D SWAP3 SWAP2 DUP2 SWAP1 SUB SWAP1 SWAP2 ADD SWAP1 LOG1 PUSH1 0x40 DUP1 MLOAD PUSH4 0x1213D113 PUSH1 0xE2 SHL DUP2 MSTORE SWAP1 MLOAD SWAP1 DUP2 SWAP1 SUB PUSH1 0x4 ADD SWAP1 KECCAK256 PUSH1 0x3 SLOAD PUSH2 0x1164 SWAP2 PUSH1 0xC SWAP2 PUSH1 0x1 PUSH1 0x1 PUSH1 0xA0 SHL SUB AND DUP5 PUSH1 0x0 PUSH4 0xFFFFFFFF PUSH2 0x2BF5 AND JUMP JUMPDEST PUSH1 0x40 DUP1 MLOAD PUSH4 0x1213D113 PUSH1 0xE2 SHL DUP2 MSTORE SWAP1 MLOAD SWAP1 DUP2 SWAP1 SUB PUSH1 0x4 ADD SWAP1 KECCAK256 PUSH2 0x1190 SWAP1 PUSH1 0xC SWAP1 DUP4 PUSH4 0xFFFFFFFF PUSH2 0x3063 AND JUMP JUMPDEST POP JUMP JUMPDEST PUSH1 0x0 DUP1 PUSH2 0x119F DUP4 PUSH2 0x2412 JUMP JUMPDEST SWAP1 POP PUSH2 0x11AA DUP2 PUSH2 0x21FA JUMP JUMPDEST SWAP2 POP POP JUMPDEST SWAP2 SWAP1 POP JUMP JUMPDEST PUSH2 0x11BB PUSH2 0x1693 JUMP JUMPDEST PUSH2 0x11FA JUMPI PUSH1 0x40 DUP1 MLOAD PUSH3 0x461BCD PUSH1 0xE5 SHL DUP2 MSTORE PUSH1 0x20 PUSH1 0x4 DUP3 ADD MSTORE PUSH1 0x17 PUSH1 0x24 DUP3 ADD MSTORE PUSH1 0x0 DUP1 MLOAD PUSH1 0x20 PUSH2 0x524C DUP4 CODECOPY DUP2 MLOAD SWAP2 MSTORE PUSH1 0x44 DUP3 ADD MSTORE SWAP1 MLOAD SWAP1 DUP2 SWAP1 SUB PUSH1 0x64 ADD SWAP1 REVERT JUMPDEST PUSH1 0x40 MLOAD PUSH1 0x0 SWAP1 DUP2 SWAP1 DUP4 SWAP1 CALLER SWAP1 PUSH32 0xDCB012E920167D8BDD0ACEBD98C41971B08B206986F2C59F3458FBE83C8E1D14 SWAP1 DUP5 SWAP1 LOG3 POP PUSH1 0x0 DUP3 DUP2 MSTORE PUSH1 0x11 PUSH1 0x20 MSTORE PUSH1 0x40 SWAP1 KECCAK256 DUP1 SLOAD PUSH1 0x1 PUSH1 0x1 PUSH1 0xA0 SHL SUB AND SWAP1 CALLER DUP3 EQ PUSH2 0x1291 JUMPI PUSH1 0x40 DUP1 MLOAD PUSH3 0x461BCD PUSH1 0xE5 SHL DUP2 MSTORE PUSH1 0x20 PUSH1 0x4 DUP3 ADD MSTORE PUSH1 0x14 PUSH1 0x24 DUP3 ADD MSTORE PUSH20 0x2437B2362232BC16103737BA1039B2B63632B917 PUSH1 0x61 SHL PUSH1 0x44 DUP3 ADD MSTORE SWAP1 MLOAD SWAP1 DUP2 SWAP1 SUB PUSH1 0x64 ADD SWAP1 REVERT JUMPDEST PUSH1 0x1 DUP2 ADD SLOAD PUSH1 0x40 DUP1 MLOAD PUSH4 0x1213D113 PUSH1 0xE2 SHL DUP2 MSTORE SWAP1 MLOAD SWAP1 DUP2 SWAP1 SUB PUSH1 0x4 ADD SWAP1 KECCAK256 SWAP1 SWAP4 POP PUSH2 0x12C8 SWAP1 PUSH1 0xC SWAP1 CALLER DUP7 PUSH1 0x0 PUSH4 0xFFFFFFFF PUSH2 0x2E06 AND JUMP JUMPDEST PUSH2 0x12D9 PUSH1 0x13 DUP6 PUSH4 0xFFFFFFFF PUSH2 0x3155 AND JUMP JUMPDEST PUSH1 0x40 DUP1 MLOAD PUSH4 0x1213D113 PUSH1 0xE2 SHL DUP2 MSTORE SWAP1 MLOAD SWAP1 DUP2 SWAP1 SUB PUSH1 0x4 ADD SWAP1 KECCAK256 PUSH2 0x1308 SWAP1 PUSH1 0xC SWAP1 DUP5 PUSH1 0x0 DUP8 PUSH4 0xFFFFFFFF PUSH2 0x2BF5 AND JUMP JUMPDEST POP POP POP PUSH1 0x0 SWAP1 DUP2 MSTORE PUSH1 0x11 PUSH1 0x20 MSTORE PUSH1 0x40 DUP2 KECCAK256 DUP1 SLOAD PUSH1 0x1 PUSH1 0x1 PUSH1 0xA0 SHL SUB NOT AND DUP2 SSTORE PUSH1 0x1 DUP2 ADD DUP3 SWAP1 SSTORE PUSH1 0x2 ADD SSTORE JUMP JUMPDEST PUSH1 0x0 PUSH2 0x133E PUSH2 0x1693 JUMP JUMPDEST PUSH2 0x137D JUMPI PUSH1 0x40 DUP1 MLOAD PUSH3 0x461BCD PUSH1 0xE5 SHL DUP2 MSTORE PUSH1 0x20 PUSH1 0x4 DUP3 ADD MSTORE PUSH1 0x17 PUSH1 0x24 DUP3 ADD MSTORE PUSH1 0x0 DUP1 MLOAD PUSH1 0x20 PUSH2 0x524C DUP4 CODECOPY DUP2 MLOAD SWAP2 MSTORE PUSH1 0x44 DUP3 ADD MSTORE SWAP1 MLOAD SWAP1 DUP2 SWAP1 SUB PUSH1 0x64 ADD SWAP1 REVERT JUMPDEST PUSH1 0x40 DUP1 MLOAD DUP5 DUP2 MSTORE PUSH1 0x20 DUP2 ADD DUP5 SWAP1 MSTORE DUP2 MLOAD CALLER SWAP3 PUSH32 0x9245568088742CCFDFC1DC58F9AD4F31812911170582B5CCE5C4F48C86667711 SWAP3 DUP3 SWAP1 SUB ADD SWAP1 LOG2 PUSH1 0x0 PUSH2 0x13C2 DUP5 PUSH2 0x2224 JUMP JUMPDEST SWAP1 POP PUSH1 0x0 PUSH2 0x13CE PUSH2 0x1F7D JUMP JUMPDEST SWAP1 POP PUSH9 0x2B5E3AF16B1880000 DUP3 LT ISZERO PUSH2 0x1423 JUMPI PUSH1 0x40 DUP1 MLOAD PUSH3 0x461BCD PUSH1 0xE5 SHL DUP2 MSTORE PUSH1 0x20 PUSH1 0x4 DUP3 ADD MSTORE PUSH1 0x12 PUSH1 0x24 DUP3 ADD MSTORE PUSH18 0x121BD91B11195E0B080F081B5A5B881554D1 PUSH1 0x72 SHL PUSH1 0x44 DUP3 ADD MSTORE SWAP1 MLOAD SWAP1 DUP2 SWAP1 SUB PUSH1 0x64 ADD SWAP1 REVERT JUMPDEST DUP1 DUP3 GT ISZERO DUP1 PUSH2 0x1430 JUMPI POP DUP1 ISZERO JUMPDEST PUSH2 0x1476 JUMPI PUSH1 0x40 DUP1 MLOAD PUSH3 0x461BCD PUSH1 0xE5 SHL DUP2 MSTORE PUSH1 0x20 PUSH1 0x4 DUP3 ADD MSTORE PUSH1 0x12 PUSH1 0x24 DUP3 ADD MSTORE PUSH18 0x121BD91B11195E0B080F881B585E081554D1 PUSH1 0x72 SHL PUSH1 0x44 DUP3 ADD MSTORE SWAP1 MLOAD SWAP1 DUP2 SWAP1 SUB PUSH1 0x64 ADD SWAP1 REVERT JUMPDEST PUSH2 0x1480 DUP6 DUP6 PUSH2 0x3283 JUMP JUMPDEST SWAP5 POP PUSH2 0x148B DUP6 PUSH2 0x35BB JUMP JUMPDEST SWAP3 POP POP POP PUSH2 0x1497 PUSH2 0x2FD6 JUMP JUMPDEST POP POP SWAP3 SWAP2 POP POP JUMP JUMPDEST PUSH2 0x14A7 PUSH2 0x1693 JUMP JUMPDEST PUSH2 0x14E6 JUMPI PUSH1 0x40 DUP1 MLOAD PUSH3 0x461BCD PUSH1 0xE5 SHL DUP2 MSTORE PUSH1 0x20 PUSH1 0x4 DUP3 ADD MSTORE PUSH1 0x17 PUSH1 0x24 DUP3 ADD MSTORE PUSH1 0x0 DUP1 MLOAD PUSH1 0x20 PUSH2 0x524C DUP4 CODECOPY DUP2 MLOAD SWAP2 MSTORE PUSH1 0x44 DUP3 ADD MSTORE SWAP1 MLOAD SWAP1 DUP2 SWAP1 SUB PUSH1 0x64 ADD SWAP1 REVERT JUMPDEST PUSH2 0x14EE PUSH2 0x2FD6 JUMP JUMPDEST POP POP PUSH2 0x1190 PUSH2 0x36E4 JUMP JUMPDEST PUSH1 0x0 PUSH2 0x1504 PUSH1 0x13 PUSH2 0x37F6 JUMP JUMPDEST SWAP1 POP JUMPDEST SWAP1 JUMP JUMPDEST PUSH1 0x40 DUP1 MLOAD PUSH12 0x5265736572766520526F6C65 PUSH1 0xA0 SHL DUP2 MSTORE SWAP1 MLOAD SWAP1 DUP2 SWAP1 SUB PUSH1 0xC ADD SWAP1 KECCAK256 DUP2 JUMP JUMPDEST PUSH1 0xA SLOAD DUP2 JUMP JUMPDEST PUSH2 0x153C PUSH2 0x1693 JUMP JUMPDEST PUSH2 0x157B JUMPI PUSH1 0x40 DUP1 MLOAD PUSH3 0x461BCD PUSH1 0xE5 SHL DUP2 MSTORE PUSH1 0x20 PUSH1 0x4 DUP3 ADD MSTORE PUSH1 0x17 PUSH1 0x24 DUP3 ADD MSTORE PUSH1 0x0 DUP1 MLOAD PUSH1 0x20 PUSH2 0x524C DUP4 CODECOPY DUP2 MLOAD SWAP2 MSTORE PUSH1 0x44 DUP3 ADD MSTORE SWAP1 MLOAD SWAP1 DUP2 SWAP1 SUB PUSH1 0x64 ADD SWAP1 REVERT JUMPDEST PUSH1 0x0 DUP2 DUP2 MSTORE PUSH1 0x12 PUSH1 0x20 MSTORE PUSH1 0x40 DUP1 DUP3 KECCAK256 SWAP1 MLOAD SWAP1 SWAP2 DUP4 SWAP2 CALLER SWAP2 PUSH32 0xBFD8EBA8B6BBF7710760C1E5784271756899DFDA53ECCF56257E64E40C7F6FC1 SWAP2 LOG3 DUP1 SLOAD PUSH1 0x1 PUSH1 0x1 PUSH1 0xA0 SHL SUB AND CALLER EQ PUSH2 0x1609 JUMPI PUSH1 0x40 DUP1 MLOAD PUSH3 0x461BCD PUSH1 0xE5 SHL DUP2 MSTORE PUSH1 0x20 PUSH1 0x4 DUP3 ADD MSTORE PUSH1 0x13 PUSH1 0x24 DUP3 ADD MSTORE PUSH19 0x2437B2362232BC16103737BA10313ABCB2B917 PUSH1 0x69 SHL PUSH1 0x44 DUP3 ADD MSTORE SWAP1 MLOAD SWAP1 DUP2 SWAP1 SUB PUSH1 0x64 ADD SWAP1 REVERT JUMPDEST PUSH1 0x40 DUP1 MLOAD PUSH3 0x8AE8D PUSH1 0xEB SHL DUP2 MSTORE SWAP1 MLOAD SWAP1 DUP2 SWAP1 SUB PUSH1 0x3 ADD SWAP1 KECCAK256 PUSH1 0x1 DUP3 ADD SLOAD PUSH2 0x163C SWAP2 PUSH1 0xC SWAP2 CALLER SWAP1 PUSH1 0x0 PUSH4 0xFFFFFFFF PUSH2 0x2E06 AND JUMP JUMPDEST PUSH2 0x164D PUSH1 0x18 DUP4 PUSH4 0xFFFFFFFF PUSH2 0x3155 AND JUMP JUMPDEST POP PUSH1 0x0 SWAP1 DUP2 MSTORE PUSH1 0x12 PUSH1 0x20 MSTORE PUSH1 0x40 DUP2 KECCAK256 DUP1 SLOAD PUSH1 0x1 PUSH1 0x1 PUSH1 0xA0 SHL SUB NOT AND DUP2 SSTORE PUSH1 0x1 ADD SSTORE JUMP JUMPDEST PUSH1 0x0 DUP1 DUP1 PUSH2 0x1686 PUSH1 0xC DUP7 DUP7 PUSH4 0xFFFFFFFF PUSH2 0x37FD AND JUMP JUMPDEST SWAP3 POP SWAP3 POP SWAP3 POP SWAP3 POP SWAP3 POP SWAP3 JUMP JUMPDEST PUSH1 0x40 DUP1 MLOAD PUSH14 0x4D6967726174696F6E20526F6C65 PUSH1 0x90 SHL DUP2 MSTORE SWAP1 MLOAD SWAP1 DUP2 SWAP1 SUB PUSH1 0xE ADD SWAP1 KECCAK256 PUSH1 0x0 SWAP1 PUSH2 0x16C2 SWAP1 PUSH2 0x24E0 JUMP JUMPDEST ISZERO SWAP1 POP SWAP1 JUMP JUMPDEST PUSH1 0x0 SWAP1 DUP2 MSTORE PUSH1 0x1 PUSH1 0x20 MSTORE PUSH1 0x40 SWAP1 KECCAK256 PUSH1 0x2 ADD SLOAD SWAP1 JUMP JUMPDEST PUSH1 0x40 DUP1 MLOAD PUSH3 0x8AE8D PUSH1 0xEB SHL DUP2 MSTORE SWAP1 MLOAD SWAP1 DUP2 SWAP1 SUB PUSH1 0x3 ADD SWAP1 KECCAK256 DUP2 JUMP JUMPDEST PUSH1 0x40 DUP1 MLOAD PUSH10 0x41646D696E20526F6C65 PUSH1 0xB0 SHL DUP2 MSTORE SWAP1 MLOAD SWAP1 DUP2 SWAP1 SUB PUSH1 0xA ADD SWAP1 KECCAK256 PUSH2 0x1721 SWAP1 CALLER PUSH2 0x218E JUMP JUMPDEST PUSH2 0x1766 JUMPI PUSH1 0x40 DUP1 MLOAD PUSH3 0x461BCD PUSH1 0xE5 SHL DUP2 MSTORE PUSH1 0x20 PUSH1 0x4 DUP3 ADD MSTORE PUSH1 0x11 PUSH1 0x24 DUP3 ADD MSTORE PUSH17 0x2437B2362232BC101A18199030B236B4B7 PUSH1 0x79 SHL PUSH1 0x44 DUP3 ADD MSTORE SWAP1 MLOAD SWAP1 DUP2 SWAP1 SUB PUSH1 0x64 ADD SWAP1 REVERT JUMPDEST PUSH1 0x2 DUP1 SLOAD PUSH1 0x1 PUSH1 0x1 PUSH1 0xA0 SHL SUB NOT AND PUSH1 0x1 PUSH1 0x1 PUSH1 0xA0 SHL SUB DUP4 AND SWAP1 DUP2 OR SWAP1 SWAP2 SSTORE PUSH1 0x40 DUP1 MLOAD CALLER DUP2 MSTORE PUSH1 0x20 DUP2 ADD SWAP3 SWAP1 SWAP3 MSTORE DUP1 MLOAD PUSH32 0xC1D3048301C0D23629A2532C8DEFA6D68F8E1A0E4157918769E9FB1B2EEB888E SWAP3 DUP2 SWAP1 SUB SWAP1 SWAP2 ADD SWAP1 LOG1 POP JUMP JUMPDEST PUSH1 0x0 PUSH2 0x17D5 PUSH1 0xC DUP4 PUSH4 0xFFFFFFFF PUSH2 0x3883 AND JUMP JUMPDEST SWAP3 SWAP2 POP POP JUMP JUMPDEST PUSH1 0x0 DUP1 DUP1 DUP1 PUSH2 0x17F2 PUSH1 0xC DUP7 DUP9 PUSH4 0xFFFFFFFF PUSH2 0x3898 AND JUMP JUMPDEST SWAP3 SWAP10 SWAP2 SWAP9 POP SWAP7 POP SWAP1 SWAP5 POP SWAP3 POP POP POP JUMP JUMPDEST PUSH1 0x0 DUP1 PUSH2 0x180E DUP4 PUSH2 0x2224 JUMP JUMPDEST SWAP1 POP PUSH2 0x11AA DUP2 PUSH2 0x2253 JUMP JUMPDEST PUSH1 0x0 DUP3 DUP2 MSTORE PUSH1 0x1 PUSH1 0x20 MSTORE PUSH1 0x40 SWAP1 KECCAK256 PUSH1 0x2 ADD SLOAD PUSH2 0x183C SWAP1 PUSH2 0x1837 PUSH2 0x39B4 JUMP JUMPDEST PUSH2 0x218E JUMP JUMPDEST PUSH2 0x1877 JUMPI PUSH1 0x40 MLOAD PUSH3 0x461BCD PUSH1 0xE5 SHL DUP2 MSTORE PUSH1 0x4 ADD DUP1 DUP1 PUSH1 0x20 ADD DUP3 DUP2 SUB DUP3 MSTORE PUSH1 0x2F DUP2 MSTORE PUSH1 0x20 ADD DUP1 PUSH2 0x51F3 PUSH1 0x2F SWAP2 CODECOPY PUSH1 0x40 ADD SWAP2 POP POP PUSH1 0x40 MLOAD DUP1 SWAP2 SUB SWAP1 REVERT JUMPDEST PUSH2 0x1881 DUP3 DUP3 PUSH2 0x39B8 JUMP JUMPDEST POP POP JUMP JUMPDEST PUSH1 0x40 DUP1 MLOAD PUSH14 0x4D6967726174696F6E20526F6C65 PUSH1 0x90 SHL DUP2 MSTORE SWAP1 MLOAD SWAP1 DUP2 SWAP1 SUB PUSH1 0xE ADD SWAP1 KECCAK256 PUSH2 0x18B2 SWAP1 CALLER PUSH2 0x218E JUMP JUMPDEST PUSH2 0x18FB JUMPI PUSH1 0x40 DUP1 MLOAD PUSH3 0x461BCD PUSH1 0xE5 SHL DUP2 MSTORE PUSH1 0x20 PUSH1 0x4 DUP3 ADD MSTORE PUSH1 0x15 PUSH1 0x24 DUP3 ADD MSTORE PUSH21 0x2437B2362232BC101A18199036B4B3B930BA34B7B7 PUSH1 0x59 SHL PUSH1 0x44 DUP3 ADD MSTORE SWAP1 MLOAD SWAP1 DUP2 SWAP1 SUB PUSH1 0x64 ADD SWAP1 REVERT JUMPDEST PUSH1 0x40 DUP1 MLOAD CALLER DUP2 MSTORE SWAP1 MLOAD PUSH1 0x1 PUSH1 0x1 PUSH1 0xA0 SHL SUB DUP4 AND SWAP2 PUSH32 0x4255B5DBB103B3831869724BF926F5CC492B23B18AE956DACBE85AB455977A31 SWAP2 SWAP1 DUP2 SWAP1 SUB PUSH1 0x20 ADD SWAP1 LOG2 PUSH1 0x40 DUP1 MLOAD PUSH4 0x1213D113 PUSH1 0xE2 SHL DUP1 DUP3 MSTORE DUP3 MLOAD SWAP2 DUP3 SWAP1 SUB PUSH1 0x4 SWAP1 DUP2 ADD DUP4 KECCAK256 SWAP2 DUP4 MSTORE SWAP3 MLOAD SWAP2 DUP3 SWAP1 SUB SWAP1 SWAP3 ADD SWAP1 KECCAK256 PUSH2 0x1990 SWAP2 SWAP1 ADDRESS SWAP1 PUSH2 0x197E SWAP1 PUSH1 0xC SWAP1 DUP7 PUSH4 0xFFFFFFFF PUSH2 0x3A27 AND JUMP JUMPDEST PUSH1 0xC SWAP3 SWAP2 SWAP1 PUSH1 0x0 PUSH4 0xFFFFFFFF PUSH2 0x2E06 AND JUMP JUMPDEST PUSH1 0x40 DUP1 MLOAD PUSH4 0x1213D113 PUSH1 0xE2 SHL DUP1 DUP3 MSTORE DUP3 MLOAD SWAP2 DUP3 SWAP1 SUB PUSH1 0x4 SWAP1 DUP2 ADD DUP4 KECCAK256 SWAP2 DUP4 MSTORE SWAP3 MLOAD SWAP2 DUP3 SWAP1 SUB SWAP1 SWAP3 ADD SWAP1 KECCAK256 PUSH2 0x19E6 SWAP2 SWAP1 DUP4 SWAP1 PUSH2 0x19D4 SWAP1 PUSH1 0xC SWAP1 DUP4 PUSH4 0xFFFFFFFF PUSH2 0x3A27 AND JUMP JUMPDEST PUSH1 0xC SWAP3 SWAP2 SWAP1 PUSH1 0x0 PUSH4 0xFFFFFFFF PUSH2 0x2BF5 AND JUMP JUMPDEST PUSH1 0x40 DUP1 MLOAD PUSH3 0x8AE8D PUSH1 0xEB SHL DUP1 DUP3 MSTORE DUP3 MLOAD SWAP2 DUP3 SWAP1 SUB PUSH1 0x3 SWAP1 DUP2 ADD DUP4 KECCAK256 SWAP2 DUP4 MSTORE SWAP3 MLOAD SWAP2 DUP3 SWAP1 SUB SWAP1 SWAP3 ADD SWAP1 KECCAK256 PUSH2 0x1A29 SWAP2 SWAP1 DUP4 SWAP1 PUSH2 0x19D4 SWAP1 PUSH1 0xC SWAP1 DUP4 PUSH4 0xFFFFFFFF PUSH2 0x3A27 AND JUMP JUMPDEST PUSH1 0x40 DUP1 MLOAD PUSH3 0x8AE8D PUSH1 0xEB SHL DUP2 MSTORE SWAP1 MLOAD SWAP1 DUP2 SWAP1 SUB PUSH1 0x3 ADD SWAP1 KECCAK256 PUSH1 0x0 SWAP1 PUSH2 0x1A57 SWAP1 PUSH1 0xC SWAP1 DUP5 PUSH4 0xFFFFFFFF PUSH2 0x3A27 AND JUMP JUMPDEST GT ISZERO PUSH2 0x1190 JUMPI PUSH1 0x40 DUP1 MLOAD PUSH3 0x8AE8D PUSH1 0xEB SHL DUP2 MSTORE SWAP1 MLOAD SWAP1 DUP2 SWAP1 SUB PUSH1 0x3 ADD SWAP1 KECCAK256 CALLER SWAP1 PUSH2 0x100D SWAP1 PUSH1 0xC SWAP1 DUP5 PUSH4 0xFFFFFFFF PUSH2 0x3A27 AND JUMP JUMPDEST PUSH1 0x0 PUSH2 0x1A9E PUSH1 0xC DUP5 DUP5 PUSH4 0xFFFFFFFF PUSH2 0x3A9B AND JUMP JUMPDEST SWAP4 SWAP3 POP POP POP JUMP JUMPDEST PUSH2 0x1AAD PUSH2 0x39B4 JUMP JUMPDEST PUSH1 0x1 PUSH1 0x1 PUSH1 0xA0 SHL SUB AND DUP2 PUSH1 0x1 PUSH1 0x1 PUSH1 0xA0 SHL SUB AND EQ PUSH2 0x1AFC JUMPI PUSH1 0x40 MLOAD PUSH3 0x461BCD PUSH1 0xE5 SHL DUP2 MSTORE PUSH1 0x4 ADD DUP1 DUP1 PUSH1 0x20 ADD DUP3 DUP2 SUB DUP3 MSTORE PUSH1 0x2F DUP2 MSTORE PUSH1 0x20 ADD DUP1 PUSH2 0x5337 PUSH1 0x2F SWAP2 CODECOPY PUSH1 0x40 ADD SWAP2 POP POP PUSH1 0x40 MLOAD DUP1 SWAP2 SUB SWAP1 REVERT JUMPDEST PUSH2 0x1881 DUP3 DUP3 PUSH2 0x3ACA JUMP JUMPDEST PUSH1 0x0 PUSH2 0x1B10 PUSH2 0x1693 JUMP JUMPDEST PUSH2 0x1B4F JUMPI PUSH1 0x40 DUP1 MLOAD PUSH3 0x461BCD PUSH1 0xE5 SHL DUP2 MSTORE PUSH1 0x20 PUSH1 0x4 DUP3 ADD MSTORE PUSH1 0x17 PUSH1 0x24 DUP3 ADD MSTORE PUSH1 0x0 DUP1 MLOAD PUSH1 0x20 PUSH2 0x524C DUP4 CODECOPY DUP2 MLOAD SWAP2 MSTORE PUSH1 0x44 DUP3 ADD MSTORE SWAP1 MLOAD SWAP1 DUP2 SWAP1 SUB PUSH1 0x64 ADD SWAP1 REVERT JUMPDEST PUSH1 0x40 DUP1 MLOAD PUSH4 0x1213D113 PUSH1 0xE2 SHL DUP2 MSTORE SWAP1 MLOAD SWAP1 DUP2 SWAP1 SUB PUSH1 0x4 ADD SWAP1 KECCAK256 PUSH2 0x1504 SWAP1 PUSH1 0xC SWAP1 CALLER PUSH4 0xFFFFFFFF PUSH2 0x3B39 AND JUMP JUMPDEST PUSH1 0x40 DUP1 MLOAD PUSH14 0x4D6967726174696F6E20526F6C65 PUSH1 0x90 SHL DUP2 MSTORE SWAP1 MLOAD SWAP1 DUP2 SWAP1 SUB PUSH1 0xE ADD SWAP1 KECCAK256 DUP2 JUMP JUMPDEST PUSH1 0x8 SLOAD DUP2 JUMP JUMPDEST PUSH2 0x1BAF PUSH2 0x1693 JUMP JUMPDEST PUSH2 0x1BEE JUMPI PUSH1 0x40 DUP1 MLOAD PUSH3 0x461BCD PUSH1 0xE5 SHL DUP2 MSTORE PUSH1 0x20 PUSH1 0x4 DUP3 ADD MSTORE PUSH1 0x17 PUSH1 0x24 DUP3 ADD MSTORE PUSH1 0x0 DUP1 MLOAD PUSH1 0x20 PUSH2 0x524C DUP4 CODECOPY DUP2 MLOAD SWAP2 MSTORE PUSH1 0x44 DUP3 ADD MSTORE SWAP1 MLOAD SWAP1 DUP2 SWAP1 SUB PUSH1 0x64 ADD SWAP1 REVERT JUMPDEST PUSH1 0x0 CALLVALUE GT PUSH2 0x1C2D JUMPI PUSH1 0x40 MLOAD PUSH3 0x461BCD PUSH1 0xE5 SHL DUP2 MSTORE PUSH1 0x4 ADD DUP1 DUP1 PUSH1 0x20 ADD DUP3 DUP2 SUB DUP3 MSTORE PUSH1 0x22 DUP2 MSTORE PUSH1 0x20 ADD DUP1 PUSH2 0x529C PUSH1 0x22 SWAP2 CODECOPY PUSH1 0x40 ADD SWAP2 POP POP PUSH1 0x40 MLOAD DUP1 SWAP2 SUB SWAP1 REVERT JUMPDEST PUSH1 0x40 DUP1 MLOAD CALLVALUE DUP2 MSTORE SWAP1 MLOAD CALLER SWAP2 PUSH32 0x67B91A3E1F20688667199FD4ACB8590A39E93B3F50CB3253C74003C6D98DE78B SWAP2 SWAP1 DUP2 SWAP1 SUB PUSH1 0x20 ADD SWAP1 LOG2 PUSH1 0x40 DUP1 MLOAD PUSH3 0x8AE8D PUSH1 0xEB SHL DUP2 MSTORE SWAP1 MLOAD SWAP1 DUP2 SWAP1 SUB PUSH1 0x3 ADD SWAP1 KECCAK256 PUSH2 0x1C91 SWAP1 PUSH1 0xC SWAP1 CALLER CALLVALUE PUSH1 0x0 PUSH4 0xFFFFFFFF PUSH2 0x2E06 AND JUMP JUMPDEST JUMP JUMPDEST PUSH1 0x6 SLOAD PUSH1 0x7 SLOAD PUSH1 0x0 PUSH2 0x1CB2 PUSH4 0x5F1F7DAD PUSH3 0x278D00 PUSH4 0xFFFFFFFF PUSH2 0x3CDA AND JUMP JUMPDEST SWAP1 POP DUP1 TIMESTAMP GT ISZERO PUSH2 0x1D5B JUMPI PUSH1 0x0 PUSH3 0x15180 PUSH2 0x1CD2 TIMESTAMP DUP5 PUSH4 0xFFFFFFFF PUSH2 0x3D34 AND JUMP JUMPDEST DUP2 PUSH2 0x1CD9 JUMPI INVALID JUMPDEST DIV SWAP1 POP PUSH1 0x0 PUSH2 0x1CF3 PUSH1 0x5 SLOAD DUP4 PUSH2 0x3D34 SWAP1 SWAP2 SWAP1 PUSH4 0xFFFFFFFF AND JUMP JUMPDEST SWAP1 POP DUP1 ISZERO PUSH2 0x1D58 JUMPI PUSH2 0x1D2A PUSH8 0xDE0B6B3A7640000 PUSH2 0x1D1E PUSH1 0x7 SLOAD PUSH1 0x6 SLOAD PUSH2 0x3D76 SWAP1 SWAP2 SWAP1 PUSH4 0xFFFFFFFF AND JUMP JUMPDEST SWAP1 PUSH4 0xFFFFFFFF PUSH2 0x3DCF AND JUMP JUMPDEST SWAP5 POP PUSH2 0x1D55 PUSH8 0xDE0B6B3A7640000 PUSH2 0x1D1E PUSH8 0xDE0B68E11C8D5E0 PUSH1 0x7 SLOAD PUSH2 0x3D76 SWAP1 SWAP2 SWAP1 PUSH4 0xFFFFFFFF AND JUMP JUMPDEST SWAP4 POP JUMPDEST POP POP JUMPDEST POP SWAP1 SWAP2 JUMP JUMPDEST PUSH1 0x0 DUP1 DUP1 PUSH2 0x1D77 PUSH1 0xC DUP8 DUP8 DUP8 PUSH4 0xFFFFFFFF PUSH2 0x3E11 AND JUMP JUMPDEST SWAP3 POP SWAP3 POP SWAP3 POP JUMPDEST SWAP4 POP SWAP4 POP SWAP4 SWAP1 POP JUMP JUMPDEST PUSH1 0x0 PUSH2 0x1504 PUSH1 0x18 PUSH2 0x3E7C JUMP JUMPDEST PUSH1 0x40 DUP1 MLOAD PUSH4 0x1213D113 PUSH1 0xE2 SHL DUP2 MSTORE SWAP1 MLOAD SWAP1 DUP2 SWAP1 SUB PUSH1 0x4 ADD SWAP1 KECCAK256 DUP2 JUMP JUMPDEST PUSH1 0x0 PUSH2 0x1504 PUSH1 0x13 PUSH2 0x3E7C JUMP JUMPDEST PUSH2 0x1DC3 PUSH2 0x1693 JUMP JUMPDEST PUSH2 0x1E02 JUMPI PUSH1 0x40 DUP1 MLOAD PUSH3 0x461BCD PUSH1 0xE5 SHL DUP2 MSTORE PUSH1 0x20 PUSH1 0x4 DUP3 ADD MSTORE PUSH1 0x17 PUSH1 0x24 DUP3 ADD MSTORE PUSH1 0x0 DUP1 MLOAD PUSH1 0x20 PUSH2 0x524C DUP4 CODECOPY DUP2 MLOAD SWAP2 MSTORE PUSH1 0x44 DUP3 ADD MSTORE SWAP1 MLOAD SWAP1 DUP2 SWAP1 SUB PUSH1 0x64 ADD SWAP1 REVERT JUMPDEST PUSH1 0x3 SLOAD PUSH1 0x40 DUP1 MLOAD PUSH4 0xAA948101 PUSH1 0xE0 SHL DUP2 MSTORE CALLER PUSH1 0x4 DUP3 ADD MSTORE PUSH1 0x24 DUP2 ADD DUP5 SWAP1 MSTORE SWAP1 MLOAD PUSH1 0x0 SWAP3 PUSH1 0x1 PUSH1 0x1 PUSH1 0xA0 SHL SUB AND SWAP2 PUSH4 0xAA948101 SWAP2 PUSH1 0x44 DUP1 DUP4 ADD SWAP3 PUSH1 0x20 SWAP3 SWAP2 SWAP1 DUP3 SWAP1 SUB ADD DUP2 DUP8 DUP8 DUP1 EXTCODESIZE ISZERO DUP1 ISZERO PUSH2 0x1E55 JUMPI PUSH1 0x0 DUP1 REVERT JUMPDEST POP GAS CALL ISZERO DUP1 ISZERO PUSH2 0x1E69 JUMPI RETURNDATASIZE PUSH1 0x0 DUP1 RETURNDATACOPY RETURNDATASIZE PUSH1 0x0 REVERT JUMPDEST POP POP POP POP PUSH1 0x40 MLOAD RETURNDATASIZE PUSH1 0x20 DUP2 LT ISZERO PUSH2 0x1E7F JUMPI PUSH1 0x0 DUP1 REVERT JUMPDEST POP MLOAD PUSH1 0x40 DUP1 MLOAD DUP5 DUP2 MSTORE PUSH1 0x20 DUP2 ADD DUP4 SWAP1 MSTORE DUP2 MLOAD SWAP3 SWAP4 POP CALLER SWAP3 PUSH32 0xC757C794593897EC78643A3B1AE1D2AB4EB6840E9A01B6FD2F64C7C500FE88C7 SWAP3 SWAP2 DUP2 SWAP1 SUB SWAP1 SWAP2 ADD SWAP1 LOG2 PUSH1 0x40 DUP1 MLOAD PUSH4 0x1213D113 PUSH1 0xE2 SHL DUP2 MSTORE SWAP1 MLOAD SWAP1 DUP2 SWAP1 SUB PUSH1 0x4 ADD SWAP1 KECCAK256 PUSH2 0x1EF0 SWAP1 PUSH1 0xC SWAP1 CALLER DUP5 PUSH1 0x0 PUSH4 0xFFFFFFFF PUSH2 0x2E06 AND JUMP JUMPDEST PUSH1 0x40 DUP1 MLOAD PUSH4 0x1213D113 PUSH1 0xE2 SHL DUP2 MSTORE SWAP1 MLOAD SWAP1 DUP2 SWAP1 SUB PUSH1 0x4 ADD SWAP1 KECCAK256 PUSH1 0x3 SLOAD PUSH2 0x1004 SWAP2 PUSH1 0xC SWAP2 PUSH1 0x1 PUSH1 0x1 PUSH1 0xA0 SHL SUB AND DUP5 PUSH1 0x0 PUSH4 0xFFFFFFFF PUSH2 0x2BF5 AND JUMP JUMPDEST PUSH1 0x11 PUSH1 0x20 MSTORE PUSH1 0x0 SWAP1 DUP2 MSTORE PUSH1 0x40 SWAP1 KECCAK256 DUP1 SLOAD PUSH1 0x1 DUP3 ADD SLOAD PUSH1 0x2 SWAP1 SWAP3 ADD SLOAD PUSH1 0x1 PUSH1 0x1 PUSH1 0xA0 SHL SUB SWAP1 SWAP2 AND SWAP2 SWAP1 DUP4 JUMP JUMPDEST PUSH1 0xB SLOAD DUP2 JUMP JUMPDEST PUSH1 0x40 DUP1 MLOAD PUSH10 0x41646D696E20526F6C65 PUSH1 0xB0 SHL DUP2 MSTORE SWAP1 MLOAD SWAP1 DUP2 SWAP1 SUB PUSH1 0xA ADD SWAP1 KECCAK256 DUP2 JUMP JUMPDEST PUSH1 0x0 DUP1 PUSH2 0x1F88 PUSH2 0x1C93 JUMP JUMPDEST POP SWAP1 POP PUSH8 0x8AC7230489E80000 DUP2 GT PUSH2 0x1FA4 JUMPI DUP1 PUSH2 0x1388 MUL PUSH2 0x1FA7 JUMP JUMPDEST PUSH1 0x0 JUMPDEST SWAP2 POP POP SWAP1 JUMP JUMPDEST PUSH1 0x40 DUP1 MLOAD PUSH14 0x4D6967726174696F6E20526F6C65 PUSH1 0x90 SHL DUP2 MSTORE SWAP1 MLOAD SWAP1 DUP2 SWAP1 SUB PUSH1 0xE ADD SWAP1 KECCAK256 PUSH2 0x1FDA SWAP1 CALLER PUSH2 0x218E JUMP JUMPDEST PUSH2 0x2023 JUMPI PUSH1 0x40 DUP1 MLOAD PUSH3 0x461BCD PUSH1 0xE5 SHL DUP2 MSTORE PUSH1 0x20 PUSH1 0x4 DUP3 ADD MSTORE PUSH1 0x15 PUSH1 0x24 DUP3 ADD MSTORE PUSH21 0x2437B2362232BC101A18199036B4B3B930BA34B7B7 PUSH1 0x59 SHL PUSH1 0x44 DUP3 ADD MSTORE SWAP1 MLOAD SWAP1 DUP2 SWAP1 SUB PUSH1 0x64 ADD SWAP1 REVERT JUMPDEST PUSH1 0x7 DUP2 SWAP1 SSTORE PUSH1 0x40 DUP1 MLOAD CALLER DUP2 MSTORE PUSH1 0x20 DUP2 ADD DUP4 SWAP1 MSTORE DUP2 MLOAD PUSH32 0xD9C7EF198BBEB680FB4C70A0F01E1D6D1826DBC6CDC426FD1AB3AA1D059C71CD SWAP3 SWAP2 DUP2 SWAP1 SUB SWAP1 SWAP2 ADD SWAP1 LOG1 POP JUMP JUMPDEST PUSH1 0x40 DUP1 MLOAD PUSH3 0x8AE8D PUSH1 0xEB SHL DUP2 MSTORE SWAP1 MLOAD SWAP1 DUP2 SWAP1 SUB PUSH1 0x3 ADD SWAP1 KECCAK256 PUSH1 0x0 SWAP1 DUP2 SWAP1 DUP2 SWAP1 PUSH2 0x2098 SWAP1 PUSH1 0xC SWAP1 DUP7 PUSH4 0xFFFFFFFF PUSH2 0x3A27 AND JUMP JUMPDEST PUSH1 0x40 DUP1 MLOAD PUSH4 0x1213D113 PUSH1 0xE2 SHL DUP2 MSTORE SWAP1 MLOAD SWAP1 DUP2 SWAP1 SUB PUSH1 0x4 ADD SWAP1 KECCAK256 PUSH2 0x20C4 SWAP1 PUSH1 0xC SWAP1 DUP8 PUSH4 0xFFFFFFFF PUSH2 0x3A27 AND JUMP JUMPDEST PUSH1 0x40 DUP1 MLOAD PUSH4 0x1213D113 PUSH1 0xE2 SHL DUP2 MSTORE SWAP1 MLOAD SWAP1 DUP2 SWAP1 SUB PUSH1 0x4 ADD SWAP1 KECCAK256 PUSH2 0x20F0 SWAP1 PUSH1 0xC SWAP1 DUP9 PUSH4 0xFFFFFFFF PUSH2 0x3E80 AND JUMP JUMPDEST SWAP3 POP SWAP3 POP SWAP3 POP SWAP2 SWAP4 SWAP1 SWAP3 POP JUMP JUMPDEST PUSH1 0x0 DUP1 PUSH2 0x2111 PUSH1 0x13 DUP5 PUSH4 0xFFFFFFFF PUSH2 0x3EF5 AND JUMP JUMPDEST PUSH2 0x2122 PUSH1 0x13 DUP6 PUSH4 0xFFFFFFFF PUSH2 0x3F65 AND JUMP JUMPDEST SWAP2 POP SWAP2 POP SWAP2 POP SWAP2 JUMP JUMPDEST PUSH1 0x0 PUSH2 0x2144 PUSH4 0x5F1F7DAD PUSH3 0x278D00 PUSH4 0xFFFFFFFF PUSH2 0x3CDA AND JUMP JUMPDEST TIMESTAMP GT SWAP1 POP SWAP1 JUMP JUMPDEST PUSH1 0x12 PUSH1 0x20 MSTORE PUSH1 0x0 SWAP1 DUP2 MSTORE PUSH1 0x40 SWAP1 KECCAK256 DUP1 SLOAD PUSH1 0x1 SWAP1 SWAP2 ADD SLOAD PUSH1 0x1 PUSH1 0x1 PUSH1 0xA0 SHL SUB SWAP1 SWAP2 AND SWAP1 DUP3 JUMP JUMPDEST PUSH1 0x0 DUP3 DUP2 MSTORE PUSH1 0x1 PUSH1 0x20 MSTORE PUSH1 0x40 DUP2 KECCAK256 PUSH2 0x1A9E SWAP1 DUP4 PUSH4 0xFFFFFFFF PUSH2 0x3FD2 AND JUMP JUMPDEST PUSH1 0x0 DUP3 DUP2 MSTORE PUSH1 0x1 PUSH1 0x20 MSTORE PUSH1 0x40 DUP2 KECCAK256 PUSH2 0x1A9E SWAP1 DUP4 PUSH4 0xFFFFFFFF PUSH2 0x3FDE AND JUMP JUMPDEST PUSH1 0x40 DUP1 MLOAD PUSH4 0x1213D113 PUSH1 0xE2 SHL DUP2 MSTORE SWAP1 MLOAD SWAP1 DUP2 SWAP1 SUB PUSH1 0x4 ADD SWAP1 KECCAK256 PUSH1 0x0 SWAP1 DUP2 SWAP1 PUSH2 0x21DD SWAP1 PUSH1 0xC SWAP1 ADDRESS PUSH4 0xFFFFFFFF PUSH2 0x3A27 AND JUMP JUMPDEST SWAP1 POP PUSH2 0x1FA7 PUSH11 0x108B2A2C28029094000000 DUP3 PUSH4 0xFFFFFFFF PUSH2 0x3D34 AND JUMP JUMPDEST PUSH1 0x0 DUP1 PUSH2 0x2205 PUSH2 0x1C93 JUMP JUMPDEST POP SWAP1 POP PUSH2 0x11AA DUP2 PUSH2 0x1D1E DUP6 PUSH8 0xDE0B6B3A7640000 PUSH4 0xFFFFFFFF PUSH2 0x3D76 AND JUMP JUMPDEST PUSH1 0x0 DUP1 PUSH2 0x222F PUSH2 0x1C93 JUMP JUMPDEST POP SWAP1 POP PUSH2 0x11AA PUSH8 0xDE0B6B3A7640000 PUSH2 0x1D1E DUP6 DUP5 PUSH4 0xFFFFFFFF PUSH2 0x3D76 AND JUMP JUMPDEST PUSH1 0x0 DUP2 JUMP JUMPDEST PUSH1 0x0 PUSH2 0x17D5 PUSH2 0x2269 PUSH8 0xDE0B6B3A7640000 PUSH2 0x2412 JUMP JUMPDEST PUSH2 0x1D1E DUP5 PUSH8 0xDE0B6B3A7640000 PUSH4 0xFFFFFFFF PUSH2 0x3D76 AND JUMP JUMPDEST PUSH1 0x40 DUP1 MLOAD PUSH14 0x4D6967726174696F6E20526F6C65 PUSH1 0x90 SHL DUP2 MSTORE SWAP1 MLOAD SWAP1 DUP2 SWAP1 SUB PUSH1 0xE ADD SWAP1 KECCAK256 PUSH2 0x22AE SWAP1 CALLER PUSH2 0x218E JUMP JUMPDEST PUSH2 0x22F7 JUMPI PUSH1 0x40 DUP1 MLOAD PUSH3 0x461BCD PUSH1 0xE5 SHL DUP2 MSTORE PUSH1 0x20 PUSH1 0x4 DUP3 ADD MSTORE PUSH1 0x15 PUSH1 0x24 DUP3 ADD MSTORE PUSH21 0x2437B2362232BC101A18199036B4B3B930BA34B7B7 PUSH1 0x59 SHL PUSH1 0x44 DUP3 ADD MSTORE SWAP1 MLOAD SWAP1 DUP2 SWAP1 SUB PUSH1 0x64 ADD SWAP1 REVERT JUMPDEST PUSH1 0x40 DUP1 MLOAD PUSH3 0x8AE8D PUSH1 0xEB SHL DUP2 MSTORE SWAP1 MLOAD SWAP1 DUP2 SWAP1 SUB PUSH1 0x3 ADD SWAP1 KECCAK256 PUSH2 0x2325 SWAP1 PUSH1 0xC SWAP1 DUP5 CALLVALUE PUSH1 0x0 PUSH4 0xFFFFFFFF PUSH2 0x2E06 AND JUMP JUMPDEST PUSH1 0x40 DUP1 MLOAD PUSH4 0x1213D113 PUSH1 0xE2 SHL DUP2 MSTORE SWAP1 MLOAD SWAP1 DUP2 SWAP1 SUB PUSH1 0x4 ADD SWAP1 KECCAK256 PUSH2 0x2354 SWAP1 PUSH1 0xC SWAP1 DUP5 DUP5 PUSH1 0x0 PUSH4 0xFFFFFFFF PUSH2 0x2E06 AND JUMP JUMPDEST PUSH1 0x40 DUP1 MLOAD PUSH4 0x1213D113 PUSH1 0xE2 SHL DUP2 MSTORE SWAP1 MLOAD SWAP1 DUP2 SWAP1 SUB PUSH1 0x4 ADD SWAP1 KECCAK256 PUSH2 0x2383 SWAP1 PUSH1 0xC SWAP1 ADDRESS DUP5 PUSH1 0x0 PUSH4 0xFFFFFFFF PUSH2 0x2BF5 AND JUMP JUMPDEST PUSH1 0x40 DUP1 MLOAD CALLER DUP2 MSTORE PUSH1 0x20 DUP2 ADD DUP4 SWAP1 MSTORE CALLVALUE DUP2 DUP4 ADD MSTORE SWAP1 MLOAD PUSH1 0x1 PUSH1 0x1 PUSH1 0xA0 SHL SUB DUP5 AND SWAP2 PUSH32 0x3115C5C0A6DE7CD7CE400FD4027F87C0D355DFEF893E17CC1CC2DB2782A0F9F7 SWAP2 SWAP1 DUP2 SWAP1 SUB PUSH1 0x60 ADD SWAP1 LOG2 POP POP JUMP JUMPDEST PUSH1 0x0 PUSH2 0x1504 PUSH1 0x18 PUSH2 0x37F6 JUMP JUMPDEST PUSH1 0x0 DUP1 PUSH2 0x23F2 PUSH1 0x18 DUP5 PUSH4 0xFFFFFFFF PUSH2 0x3EF5 AND JUMP JUMPDEST PUSH2 0x2122 PUSH1 0x18 DUP6 PUSH4 0xFFFFFFFF PUSH2 0x3F65 AND JUMP JUMPDEST PUSH1 0x2 SLOAD PUSH1 0x1 PUSH1 0x1 PUSH1 0xA0 SHL SUB AND SWAP1 JUMP JUMPDEST PUSH1 0x0 PUSH2 0x17D5 PUSH8 0xDE0B6B3A7640000 PUSH2 0x1D1E PUSH1 0xB SLOAD DUP6 PUSH2 0x3D76 SWAP1 SWAP2 SWAP1 PUSH4 0xFFFFFFFF AND JUMP JUMPDEST PUSH2 0x243D PUSH2 0x1693 JUMP JUMPDEST PUSH2 0x247C JUMPI PUSH1 0x40 DUP1 MLOAD PUSH3 0x461BCD PUSH1 0xE5 SHL DUP2 MSTORE PUSH1 0x20 PUSH1 0x4 DUP3 ADD MSTORE PUSH1 0x17 PUSH1 0x24 DUP3 ADD MSTORE PUSH1 0x0 DUP1 MLOAD PUSH1 0x20 PUSH2 0x524C DUP4 CODECOPY DUP2 MLOAD SWAP2 MSTORE PUSH1 0x44 DUP3 ADD MSTORE SWAP1 MLOAD SWAP1 DUP2 SWAP1 SUB PUSH1 0x64 ADD SWAP1 REVERT JUMPDEST PUSH1 0x40 DUP1 MLOAD DUP3 DUP2 MSTORE SWAP1 MLOAD CALLER SWAP2 PUSH32 0x654C7A7E59538B4E27A577EF2208B1F7CDCAF35938C4BB6288C945261702A56F SWAP2 SWAP1 DUP2 SWAP1 SUB PUSH1 0x20 ADD SWAP1 LOG2 PUSH1 0x40 DUP1 MLOAD PUSH3 0x8AE8D PUSH1 0xEB SHL DUP2 MSTORE SWAP1 MLOAD SWAP1 DUP2 SWAP1 SUB PUSH1 0x3 ADD SWAP1 KECCAK256 PUSH2 0x1190 SWAP1 PUSH1 0xC SWAP1 CALLER DUP5 PUSH1 0x0 PUSH4 0xFFFFFFFF PUSH2 0x2BF5 AND JUMP JUMPDEST PUSH1 0x0 DUP2 DUP2 MSTORE PUSH1 0x1 PUSH1 0x20 MSTORE PUSH1 0x40 DUP2 KECCAK256 PUSH2 0x17D5 SWAP1 PUSH2 0x3FF3 JUMP JUMPDEST PUSH1 0x0 PUSH2 0x1504 PUSH1 0x18 PUSH2 0x3FFE JUMP JUMPDEST PUSH1 0x5 SLOAD DUP2 JUMP JUMPDEST PUSH1 0x2 SLOAD PUSH1 0x1 PUSH1 0x1 PUSH1 0xA0 SHL SUB AND ISZERO ISZERO SWAP1 JUMP JUMPDEST PUSH1 0x0 PUSH1 0xB SLOAD GT PUSH2 0x2567 JUMPI PUSH1 0x40 DUP1 MLOAD PUSH3 0x461BCD PUSH1 0xE5 SHL DUP2 MSTORE PUSH1 0x20 PUSH1 0x4 DUP3 ADD MSTORE PUSH1 0x13 PUSH1 0x24 DUP3 ADD MSTORE PUSH19 0x121BD91B11195E0B0814D95D08115D1A155CD9 PUSH1 0x6A SHL PUSH1 0x44 DUP3 ADD MSTORE SWAP1 MLOAD SWAP1 DUP2 SWAP1 SUB PUSH1 0x64 ADD SWAP1 REVERT JUMPDEST PUSH2 0x1881 DUP3 DUP3 PUSH2 0x400C JUMP JUMPDEST PUSH1 0x3 SLOAD PUSH1 0x1 PUSH1 0x1 PUSH1 0xA0 SHL SUB AND SWAP1 JUMP JUMPDEST PUSH1 0x0 PUSH2 0x258A PUSH2 0x1693 JUMP JUMPDEST PUSH2 0x25C9 JUMPI PUSH1 0x40 DUP1 MLOAD PUSH3 0x461BCD PUSH1 0xE5 SHL DUP2 MSTORE PUSH1 0x20 PUSH1 0x4 DUP3 ADD MSTORE PUSH1 0x17 PUSH1 0x24 DUP3 ADD MSTORE PUSH1 0x0 DUP1 MLOAD PUSH1 0x20 PUSH2 0x524C DUP4 CODECOPY DUP2 MLOAD SWAP2 MSTORE PUSH1 0x44 DUP3 ADD MSTORE SWAP1 MLOAD SWAP1 DUP2 SWAP1 SUB PUSH1 0x64 ADD SWAP1 REVERT JUMPDEST PUSH1 0x40 DUP1 MLOAD PUSH3 0x8AE8D PUSH1 0xEB SHL DUP2 MSTORE SWAP1 MLOAD SWAP1 DUP2 SWAP1 SUB PUSH1 0x3 ADD SWAP1 KECCAK256 PUSH2 0x1504 SWAP1 PUSH1 0xC SWAP1 CALLER PUSH4 0xFFFFFFFF PUSH2 0x3B39 AND JUMP JUMPDEST PUSH1 0x9 SLOAD DUP2 JUMP JUMPDEST PUSH1 0x40 DUP1 MLOAD PUSH11 0x4F7261636C6520526F6C65 PUSH1 0xA8 SHL DUP2 MSTORE SWAP1 MLOAD SWAP1 DUP2 SWAP1 SUB PUSH1 0xB ADD SWAP1 KECCAK256 PUSH2 0x2624 SWAP1 CALLER PUSH2 0x218E JUMP JUMPDEST PUSH2 0x266A JUMPI PUSH1 0x40 DUP1 MLOAD PUSH3 0x461BCD PUSH1 0xE5 SHL DUP2 MSTORE PUSH1 0x20 PUSH1 0x4 DUP3 ADD MSTORE PUSH1 0x12 PUSH1 0x24 DUP3 ADD MSTORE PUSH18 0x486F646C44657820343033206F7261636C65 PUSH1 0x70 SHL PUSH1 0x44 DUP3 ADD MSTORE SWAP1 MLOAD SWAP1 DUP2 SWAP1 SUB PUSH1 0x64 ADD SWAP1 REVERT JUMPDEST PUSH2 0x1190 DUP2 PUSH2 0x4065 JUMP JUMPDEST PUSH1 0x40 DUP1 MLOAD PUSH11 0x4F7261636C6520526F6C65 PUSH1 0xA8 SHL DUP2 MSTORE SWAP1 MLOAD SWAP1 DUP2 SWAP1 SUB PUSH1 0xB ADD SWAP1 KECCAK256 PUSH2 0x269D SWAP1 CALLER PUSH2 0x218E JUMP JUMPDEST PUSH2 0x26E3 JUMPI PUSH1 0x40 DUP1 MLOAD PUSH3 0x461BCD PUSH1 0xE5 SHL DUP2 MSTORE PUSH1 0x20 PUSH1 0x4 DUP3 ADD MSTORE PUSH1 0x12 PUSH1 0x24 DUP3 ADD MSTORE PUSH18 0x486F646C44657820343033206F7261636C65 PUSH1 0x70 SHL PUSH1 0x44 DUP3 ADD MSTORE SWAP1 MLOAD SWAP1 DUP2 SWAP1 SUB PUSH1 0x64 ADD SWAP1 REVERT JUMPDEST PUSH1 0xB DUP2 SWAP1 SSTORE NUMBER PUSH1 0x9 SSTORE PUSH1 0x40 DUP1 MLOAD CALLER DUP2 MSTORE PUSH1 0x20 DUP2 ADD DUP4 SWAP1 MSTORE DUP2 MLOAD PUSH32 0xA4DEBDFC51DA746DCB19F892EAC110CE7D5D1C86475813BC7940BE5C100EAB4 SWAP3 SWAP2 DUP2 SWAP1 SUB SWAP1 SWAP2 ADD SWAP1 LOG1 POP JUMP JUMPDEST PUSH1 0x0 PUSH2 0x1504 PUSH1 0xC PUSH2 0x40E4 JUMP JUMPDEST PUSH1 0x0 SLOAD PUSH2 0x100 SWAP1 DIV PUSH1 0xFF AND DUP1 PUSH2 0x274F JUMPI POP PUSH2 0x274F PUSH2 0x412E JUMP JUMPDEST DUP1 PUSH2 0x275D JUMPI POP PUSH1 0x0 SLOAD PUSH1 0xFF AND ISZERO JUMPDEST PUSH2 0x2798 JUMPI PUSH1 0x40 MLOAD PUSH3 0x461BCD PUSH1 0xE5 SHL DUP2 MSTORE PUSH1 0x4 ADD DUP1 DUP1 PUSH1 0x20 ADD DUP3 DUP2 SUB DUP3 MSTORE PUSH1 0x2E DUP2 MSTORE PUSH1 0x20 ADD DUP1 PUSH2 0x52BE PUSH1 0x2E SWAP2 CODECOPY PUSH1 0x40 ADD SWAP2 POP POP PUSH1 0x40 MLOAD DUP1 SWAP2 SUB SWAP1 REVERT JUMPDEST PUSH1 0x0 SLOAD PUSH2 0x100 SWAP1 DIV PUSH1 0xFF AND ISZERO DUP1 ISZERO PUSH2 0x27C3 JUMPI PUSH1 0x0 DUP1 SLOAD PUSH1 0xFF NOT PUSH2 0xFF00 NOT SWAP1 SWAP2 AND PUSH2 0x100 OR AND PUSH1 0x1 OR SWAP1 SSTORE JUMPDEST PUSH1 0x1F PUSH1 0x5 SSTORE PUSH8 0x11B4F2DD6DB3B0B7 PUSH1 0x6 SSTORE PUSH8 0xDE772F195E3A786 PUSH1 0x7 SSTORE PUSH1 0x40 DUP1 MLOAD PUSH4 0x1213D113 PUSH1 0xE2 SHL DUP1 DUP3 MSTORE DUP3 MLOAD SWAP2 DUP3 SWAP1 SUB PUSH1 0x4 SWAP1 DUP2 ADD DUP4 KECCAK256 DUP2 SLOAD PUSH1 0x1 DUP2 DUP2 ADD DUP5 SSTORE PUSH1 0x0 DUP5 DUP2 MSTORE PUSH32 0x8A35ACFBC15FF81A39AE7D344FD709F28E8600B4AA8C65C6B64BFE7FE36BD19B SWAP3 DUP4 ADD SWAP4 SWAP1 SWAP4 SSTORE PUSH3 0x8AE8D PUSH1 0xEB SHL DUP7 MSTORE DUP7 MLOAD SWAP6 DUP7 SWAP1 SUB PUSH1 0x3 ADD DUP7 KECCAK256 DUP5 SLOAD SWAP2 DUP3 ADD DUP6 SSTORE SWAP3 DUP5 SWAP1 MSTORE ADD SSTORE SWAP1 DUP3 MSTORE SWAP2 MLOAD SWAP1 DUP2 SWAP1 SUB DUP3 ADD SWAP1 KECCAK256 PUSH2 0x2878 SWAP2 PUSH1 0xC SWAP2 TIMESTAMP PUSH3 0x278D00 ADDRESS PUSH4 0xFFFFFFFF PUSH2 0x4134 AND JUMP JUMPDEST PUSH1 0x40 DUP1 MLOAD PUSH4 0x1213D113 PUSH1 0xE2 SHL DUP2 MSTORE SWAP1 MLOAD SWAP1 DUP2 SWAP1 SUB PUSH1 0x4 ADD SWAP1 KECCAK256 PUSH2 0x28B2 SWAP1 PUSH1 0xC SWAP1 ADDRESS PUSH11 0x108B2A2C28029094000000 PUSH1 0x0 PUSH4 0xFFFFFFFF PUSH2 0x2E06 AND JUMP JUMPDEST PUSH1 0x2 DUP1 SLOAD PUSH1 0x1 PUSH1 0x1 PUSH1 0xA0 SHL SUB DUP1 DUP6 AND PUSH1 0x1 PUSH1 0x1 PUSH1 0xA0 SHL SUB NOT SWAP3 DUP4 AND OR SWAP1 SWAP3 SSTORE PUSH1 0x3 DUP1 SLOAD SWAP3 DUP7 AND SWAP3 SWAP1 SWAP2 AND SWAP2 SWAP1 SWAP2 OR SWAP1 SSTORE PUSH2 0x28ED PUSH1 0x0 CALLER PUSH2 0x1877 JUMP JUMPDEST PUSH1 0x40 DUP1 MLOAD PUSH10 0x41646D696E20526F6C65 PUSH1 0xB0 SHL DUP2 MSTORE SWAP1 MLOAD SWAP1 DUP2 SWAP1 SUB PUSH1 0xA ADD SWAP1 KECCAK256 PUSH2 0x2916 SWAP1 CALLER PUSH2 0x1877 JUMP JUMPDEST PUSH1 0x40 DUP1 MLOAD PUSH11 0x4F7261636C6520526F6C65 PUSH1 0xA8 SHL DUP2 MSTORE SWAP1 MLOAD SWAP1 DUP2 SWAP1 SUB PUSH1 0xB ADD SWAP1 KECCAK256 PUSH2 0x2940 SWAP1 CALLER PUSH2 0x1877 JUMP JUMPDEST PUSH1 0x40 DUP1 MLOAD PUSH14 0x4D6967726174696F6E20526F6C65 PUSH1 0x90 SHL DUP2 MSTORE SWAP1 MLOAD SWAP1 DUP2 SWAP1 SUB PUSH1 0xE ADD SWAP1 KECCAK256 PUSH2 0x296D SWAP1 CALLER PUSH2 0x1877 JUMP JUMPDEST PUSH1 0x40 DUP1 MLOAD PUSH12 0x5265736572766520526F6C65 PUSH1 0xA0 SHL DUP2 MSTORE SWAP1 MLOAD SWAP1 DUP2 SWAP1 SUB PUSH1 0xC ADD SWAP1 KECCAK256 PUSH2 0x2998 SWAP1 DUP5 PUSH2 0x1877 JUMP JUMPDEST PUSH1 0x40 DUP1 MLOAD CALLER DUP2 MSTORE PUSH1 0x1 PUSH1 0x1 PUSH1 0xA0 SHL SUB DUP1 DUP7 AND PUSH1 0x20 DUP4 ADD MSTORE DUP5 AND DUP2 DUP4 ADD MSTORE SWAP1 MLOAD PUSH32 0xC437298F2D0663A10608D6ADD1CCFA44AE2A4BD3EFCDC2FD427F7AFB360D22E5 SWAP2 DUP2 SWAP1 SUB PUSH1 0x60 ADD SWAP1 LOG1 DUP1 ISZERO PUSH2 0x100D JUMPI PUSH1 0x0 DUP1 SLOAD PUSH2 0xFF00 NOT AND SWAP1 SSTORE POP POP POP JUMP JUMPDEST PUSH1 0x0 PUSH2 0x2A01 PUSH2 0x1693 JUMP JUMPDEST PUSH2 0x2A40 JUMPI PUSH1 0x40 DUP1 MLOAD PUSH3 0x461BCD PUSH1 0xE5 SHL DUP2 MSTORE PUSH1 0x20 PUSH1 0x4 DUP3 ADD MSTORE PUSH1 0x17 PUSH1 0x24 DUP3 ADD MSTORE PUSH1 0x0 DUP1 MLOAD PUSH1 0x20 PUSH2 0x524C DUP4 CODECOPY DUP2 MLOAD SWAP2 MSTORE PUSH1 0x44 DUP3 ADD MSTORE SWAP1 MLOAD SWAP1 DUP2 SWAP1 SUB PUSH1 0x64 ADD SWAP1 REVERT JUMPDEST PUSH1 0x40 DUP1 MLOAD DUP5 DUP2 MSTORE PUSH1 0x20 DUP2 ADD DUP5 SWAP1 MSTORE DUP2 MLOAD CALLER SWAP3 PUSH32 0xEE9B02D9722B4950F646EC7E40D75E44F68D2F342D0257CA5C933476F81B5DF8 SWAP3 DUP3 SWAP1 SUB ADD SWAP1 LOG2 PUSH1 0x0 PUSH2 0x2A84 PUSH2 0x1F7D JUMP JUMPDEST SWAP1 POP PUSH1 0x0 PUSH2 0x2A91 DUP6 PUSH2 0x2412 JUMP JUMPDEST SWAP1 POP PUSH9 0x2B5E3AF16B1880000 DUP2 LT ISZERO PUSH2 0x2AE7 JUMPI PUSH1 0x40 DUP1 MLOAD PUSH3 0x461BCD PUSH1 0xE5 SHL DUP2 MSTORE PUSH1 0x20 PUSH1 0x4 DUP3 ADD MSTORE PUSH1 0x13 PUSH1 0x24 DUP3 ADD MSTORE PUSH19 0x2437B2362232BC16101E1036B4B7102AA9A21 PUSH1 0x6D SHL PUSH1 0x44 DUP3 ADD MSTORE SWAP1 MLOAD SWAP1 DUP2 SWAP1 SUB PUSH1 0x64 ADD SWAP1 REVERT JUMPDEST DUP2 DUP2 GT ISZERO DUP1 PUSH2 0x2AF4 JUMPI POP DUP2 ISZERO JUMPDEST PUSH2 0x2B3A JUMPI PUSH1 0x40 DUP1 MLOAD PUSH3 0x461BCD PUSH1 0xE5 SHL DUP2 MSTORE PUSH1 0x20 PUSH1 0x4 DUP3 ADD MSTORE PUSH1 0x12 PUSH1 0x24 DUP3 ADD MSTORE PUSH18 0x121BD91B11195E0B080F881B585E081554D1 PUSH1 0x72 SHL PUSH1 0x44 DUP3 ADD MSTORE SWAP1 MLOAD SWAP1 DUP2 SWAP1 SUB PUSH1 0x64 ADD SWAP1 REVERT JUMPDEST PUSH2 0x2B44 DUP6 DUP6 PUSH2 0x4206 JUMP JUMPDEST SWAP5 POP PUSH2 0x2B4F DUP6 PUSH2 0x4595 JUMP JUMPDEST SWAP5 POP PUSH2 0x148B DUP6 PUSH2 0x4740 JUMP JUMPDEST PUSH1 0x0 PUSH2 0x1504 PUSH1 0x13 PUSH2 0x3FFE JUMP JUMPDEST PUSH1 0x0 DUP1 PUSH1 0x2 PUSH1 0x0 SWAP1 SLOAD SWAP1 PUSH2 0x100 EXP SWAP1 DIV PUSH1 0x1 PUSH1 0x1 PUSH1 0xA0 SHL SUB AND PUSH1 0x1 PUSH1 0x1 PUSH1 0xA0 SHL SUB AND PUSH4 0x57DE26A4 PUSH1 0x40 MLOAD DUP2 PUSH4 0xFFFFFFFF AND PUSH1 0xE0 SHL DUP2 MSTORE PUSH1 0x4 ADD PUSH1 0x20 PUSH1 0x40 MLOAD DUP1 DUP4 SUB DUP2 DUP7 DUP1 EXTCODESIZE ISZERO DUP1 ISZERO PUSH2 0x2BB7 JUMPI PUSH1 0x0 DUP1 REVERT JUMPDEST POP GAS STATICCALL SWAP3 POP POP POP DUP1 ISZERO PUSH2 0x2BDC JUMPI POP PUSH1 0x40 MLOAD RETURNDATASIZE PUSH1 0x20 DUP2 LT ISZERO PUSH2 0x2BD7 JUMPI PUSH1 0x0 DUP1 REVERT JUMPDEST POP MLOAD PUSH1 0x1 JUMPDEST PUSH2 0x2BEA JUMPI PUSH1 0xB SLOAD SWAP2 POP PUSH2 0x2BF1 JUMP JUMPDEST SWAP2 POP PUSH1 0x1 SWAP1 POP JUMPDEST SWAP1 SWAP2 JUMP JUMPDEST PUSH1 0x0 DUP5 DUP2 MSTORE PUSH1 0x4 DUP7 ADD PUSH1 0x20 SWAP1 DUP2 MSTORE PUSH1 0x40 DUP1 DUP4 KECCAK256 PUSH1 0x1 PUSH1 0x1 PUSH1 0xA0 SHL SUB DUP8 AND DUP5 MSTORE PUSH1 0x1 DUP2 ADD SWAP1 SWAP3 MSTORE DUP3 KECCAK256 DUP1 SLOAD SWAP2 SWAP3 SWAP1 SWAP2 SWAP1 DUP1 DUP1 PUSH2 0x2C31 DUP12 DUP12 DUP12 PUSH2 0x481A JUMP JUMPDEST SWAP3 POP SWAP3 POP SWAP3 POP PUSH1 0x0 PUSH2 0x2C42 DUP13 PUSH2 0x40E4 JUMP JUMPDEST SWAP1 POP PUSH2 0x2C79 DUP10 PUSH1 0x40 MLOAD DUP1 PUSH1 0x40 ADD PUSH1 0x40 MSTORE DUP1 PUSH1 0x8 DUP2 MSTORE PUSH1 0x20 ADD PUSH8 0x283937B8102729A3 PUSH1 0xC1 SHL DUP2 MSTORE POP DUP7 PUSH2 0x48AB SWAP1 SWAP3 SWAP2 SWAP1 PUSH4 0xFFFFFFFF AND JUMP JUMPDEST SWAP4 POP PUSH2 0x2CB0 DUP9 PUSH1 0x40 MLOAD DUP1 PUSH1 0x40 ADD PUSH1 0x40 MSTORE DUP1 PUSH1 0x8 DUP2 MSTORE PUSH1 0x20 ADD PUSH8 0x283937B8103739B3 PUSH1 0xC1 SHL DUP2 MSTORE POP DUP5 PUSH2 0x48AB SWAP1 SWAP3 SWAP2 SWAP1 PUSH4 0xFFFFFFFF AND JUMP JUMPDEST SWAP2 POP PUSH2 0x2CBA PUSH2 0x51AF JUMP JUMPDEST POP PUSH1 0x40 DUP1 MLOAD PUSH1 0x60 DUP1 DUP3 ADD DUP4 MSTORE DUP7 DUP3 MSTORE PUSH1 0x20 DUP1 DUP4 ADD DUP7 SWAP1 MSTORE DUP3 DUP5 ADD DUP6 SWAP1 MSTORE DUP4 MLOAD DUP6 DUP2 MSTORE PUSH1 0x1 PUSH1 0x1 PUSH1 0xA0 SHL SUB DUP16 AND SWAP2 DUP2 ADD SWAP2 SWAP1 SWAP2 MSTORE DUP1 DUP5 ADD DUP14 SWAP1 MSTORE SWAP1 DUP2 ADD DUP12 SWAP1 MSTORE SWAP2 MLOAD SWAP1 SWAP2 DUP14 SWAP2 CALLER SWAP2 PUSH32 0xD8A7C80CAA92DE15995FB550A02B0921D0EC2C173B71FF94EAAC5111EEC710DB SWAP2 SWAP1 DUP2 SWAP1 SUB PUSH1 0x80 ADD SWAP1 LOG3 PUSH1 0x0 DUP7 GT DUP1 ISZERO PUSH2 0x2D49 JUMPI POP DUP13 PUSH1 0x3 ADD SLOAD DUP13 EQ ISZERO DUP1 PUSH2 0x2D49 JUMPI POP DUP2 DUP5 EQ JUMPDEST ISZERO PUSH2 0x2D9D JUMPI DUP1 DUP8 PUSH1 0x0 ADD PUSH1 0x1 DUP9 SUB DUP2 SLOAD DUP2 LT PUSH2 0x2D61 JUMPI INVALID JUMPDEST SWAP1 PUSH1 0x0 MSTORE PUSH1 0x20 PUSH1 0x0 KECCAK256 SWAP1 PUSH1 0x3 MUL ADD PUSH1 0x0 DUP3 ADD MLOAD DUP2 PUSH1 0x0 ADD SSTORE PUSH1 0x20 DUP3 ADD MLOAD DUP2 PUSH1 0x1 ADD SSTORE PUSH1 0x40 DUP3 ADD MLOAD DUP2 PUSH1 0x2 ADD SSTORE SWAP1 POP POP POP POP POP POP POP POP POP POP PUSH2 0x2DFF JUMP JUMPDEST PUSH1 0x0 DUP13 DUP2 MSTORE PUSH1 0x4 DUP15 ADD PUSH1 0x20 MSTORE PUSH1 0x40 SWAP1 KECCAK256 SLOAD PUSH1 0x1 DUP9 ADD SLOAD EQ ISZERO PUSH2 0x2DC1 JUMPI DUP7 SLOAD PUSH1 0x2 DUP9 ADD SSTORE JUMPDEST DUP7 SLOAD PUSH1 0x1 DUP2 DUP2 ADD DUP10 SSTORE PUSH1 0x0 SWAP9 DUP10 MSTORE PUSH1 0x20 SWAP9 DUP10 SWAP1 KECCAK256 DUP4 MLOAD PUSH1 0x3 SWAP1 SWAP4 MUL ADD SWAP2 DUP3 SSTORE SWAP8 DUP3 ADD MLOAD SWAP8 DUP2 ADD SWAP8 SWAP1 SWAP8 SSTORE PUSH1 0x40 ADD MLOAD PUSH1 0x2 SWAP1 SWAP7 ADD SWAP6 SWAP1 SWAP6 SSTORE POP POP POP POP POP POP JUMPDEST POP POP POP POP POP JUMP JUMPDEST PUSH1 0x0 DUP5 DUP2 MSTORE PUSH1 0x4 DUP7 ADD PUSH1 0x20 SWAP1 DUP2 MSTORE PUSH1 0x40 DUP1 DUP4 KECCAK256 PUSH1 0x1 PUSH1 0x1 PUSH1 0xA0 SHL SUB DUP8 AND DUP5 MSTORE PUSH1 0x1 DUP2 ADD SWAP1 SWAP3 MSTORE DUP3 KECCAK256 SWAP1 SWAP2 DUP1 DUP1 PUSH2 0x2E3D DUP11 DUP11 DUP11 PUSH2 0x481A JUMP JUMPDEST DUP7 SLOAD SWAP3 SWAP6 POP SWAP1 SWAP4 POP SWAP2 POP PUSH1 0x0 PUSH2 0x2E52 DUP13 PUSH2 0x40E4 JUMP JUMPDEST SWAP1 POP PUSH2 0x2E64 DUP6 DUP11 PUSH4 0xFFFFFFFF PUSH2 0x3CDA AND JUMP JUMPDEST SWAP5 POP PUSH2 0x2E76 DUP4 DUP10 PUSH4 0xFFFFFFFF PUSH2 0x3CDA AND JUMP JUMPDEST SWAP3 POP PUSH2 0x2E80 PUSH2 0x51AF JUMP JUMPDEST POP PUSH1 0x40 DUP1 MLOAD PUSH1 0x60 DUP1 DUP3 ADD DUP4 MSTORE DUP8 DUP3 MSTORE PUSH1 0x20 DUP1 DUP4 ADD DUP8 SWAP1 MSTORE DUP3 DUP5 ADD DUP6 SWAP1 MSTORE DUP4 MLOAD DUP6 DUP2 MSTORE PUSH1 0x1 PUSH1 0x1 PUSH1 0xA0 SHL SUB DUP16 AND SWAP2 DUP2 ADD SWAP2 SWAP1 SWAP2 MSTORE DUP1 DUP5 ADD DUP14 SWAP1 MSTORE SWAP1 DUP2 ADD DUP12 SWAP1 MSTORE SWAP2 MLOAD SWAP1 SWAP2 DUP14 SWAP2 CALLER SWAP2 PUSH32 0x34B2D1E14DD08F15CD0495453A3181C6AAFFD6D2DC171DBF7C52B3D18CF35B75 SWAP2 SWAP1 DUP2 SWAP1 SUB PUSH1 0x80 ADD SWAP1 LOG3 PUSH1 0x0 DUP4 GT DUP1 ISZERO PUSH2 0x2F0F JUMPI POP DUP13 PUSH1 0x3 ADD SLOAD DUP13 EQ ISZERO DUP1 PUSH2 0x2F0F JUMPI POP DUP2 DUP6 EQ JUMPDEST ISZERO PUSH2 0x2F27 JUMPI DUP1 DUP8 PUSH1 0x0 ADD PUSH1 0x1 DUP6 SUB DUP2 SLOAD DUP2 LT PUSH2 0x2D61 JUMPI INVALID JUMPDEST DUP3 PUSH2 0x2D9D JUMPI PUSH1 0x1 PUSH2 0x2F38 DUP15 DUP15 PUSH2 0x3883 JUMP JUMPDEST SUB PUSH1 0x1 DUP9 ADD DUP2 SWAP1 SSTORE DUP9 SLOAD DUP4 SWAP2 DUP11 SWAP2 DUP2 LT PUSH2 0x2F4E JUMPI INVALID JUMPDEST SWAP1 PUSH1 0x0 MSTORE PUSH1 0x20 PUSH1 0x0 KECCAK256 SWAP1 PUSH1 0x3 MUL ADD PUSH1 0x2 ADD SLOAD LT ISZERO PUSH2 0x2D9D JUMPI PUSH1 0x1 DUP8 DUP2 ADD DUP1 SLOAD SWAP1 SWAP2 ADD SWAP1 DUP2 SWAP1 SSTORE PUSH1 0x0 DUP14 DUP2 MSTORE PUSH1 0x4 DUP16 ADD PUSH1 0x20 MSTORE PUSH1 0x40 SWAP1 KECCAK256 SLOAD EQ ISZERO PUSH2 0x2DC1 JUMPI DUP7 SLOAD PUSH1 0x2 DUP9 ADD SSTORE DUP7 SLOAD PUSH1 0x1 DUP2 DUP2 ADD DUP10 SSTORE PUSH1 0x0 SWAP9 DUP10 MSTORE PUSH1 0x20 SWAP9 DUP10 SWAP1 KECCAK256 DUP4 MLOAD PUSH1 0x3 SWAP1 SWAP4 MUL ADD SWAP2 DUP3 SSTORE SWAP8 DUP3 ADD MLOAD SWAP8 DUP2 ADD SWAP8 SWAP1 SWAP8 SSTORE PUSH1 0x40 ADD MLOAD PUSH1 0x2 SWAP1 SWAP7 ADD SWAP6 SWAP1 SWAP6 SSTORE POP POP POP POP POP POP POP POP POP POP POP JUMP JUMPDEST PUSH1 0x0 DUP1 PUSH2 0x2FE1 PUSH2 0x1C93 JUMP JUMPDEST PUSH1 0x6 SLOAD SWAP2 SWAP4 POP SWAP2 POP DUP3 EQ ISZERO DUP1 PUSH2 0x2FF9 JUMPI POP PUSH1 0x7 SLOAD DUP2 EQ ISZERO JUMPDEST ISZERO PUSH2 0x2BF1 JUMPI PUSH1 0x6 DUP3 SWAP1 SSTORE PUSH1 0x7 DUP2 SWAP1 SSTORE PUSH1 0x5 SLOAD PUSH2 0x301C SWAP1 PUSH1 0x1 PUSH4 0xFFFFFFFF PUSH2 0x3CDA AND JUMP JUMPDEST PUSH1 0x5 SSTORE PUSH1 0x40 DUP1 MLOAD CALLER DUP2 MSTORE PUSH1 0x20 DUP2 ADD DUP5 SWAP1 MSTORE DUP1 DUP3 ADD DUP4 SWAP1 MSTORE SWAP1 MLOAD PUSH32 0xDE6ECF3D8C720475E24F2D3AE66B2470FB69B76910E2FF22300CA03C14CA76F5 SWAP2 DUP2 SWAP1 SUB PUSH1 0x60 ADD SWAP1 LOG1 SWAP1 SWAP2 JUMP JUMPDEST PUSH1 0x0 DUP3 DUP2 MSTORE PUSH1 0x4 DUP5 ADD PUSH1 0x20 MSTORE PUSH1 0x40 DUP2 KECCAK256 DUP1 SLOAD SWAP1 SWAP2 SWAP1 DUP3 SWAP1 PUSH1 0x0 NOT DUP2 ADD SWAP1 DUP2 LT PUSH2 0x3088 JUMPI INVALID JUMPDEST SWAP1 PUSH1 0x0 MSTORE PUSH1 0x20 PUSH1 0x0 KECCAK256 SWAP1 PUSH1 0x3 MUL ADD SWAP1 POP PUSH2 0x30A1 DUP6 PUSH2 0x40E4 JUMP JUMPDEST DUP2 PUSH1 0x2 ADD SLOAD LT ISZERO PUSH2 0x30D9 JUMPI PUSH2 0x30B6 DUP6 DUP6 PUSH2 0x4942 JUMP JUMPDEST DUP2 SLOAD DUP3 SWAP1 PUSH1 0x0 NOT DUP2 ADD SWAP1 DUP2 LT PUSH2 0x30C8 JUMPI INVALID JUMPDEST SWAP1 PUSH1 0x0 MSTORE PUSH1 0x20 PUSH1 0x0 KECCAK256 SWAP1 PUSH1 0x3 MUL ADD SWAP1 POP JUMPDEST DUP3 ISZERO PUSH2 0x2DFF JUMPI PUSH1 0x1 DUP2 ADD SLOAD PUSH2 0x30F4 SWAP1 DUP5 PUSH4 0xFFFFFFFF PUSH2 0x3CDA AND JUMP JUMPDEST PUSH1 0x1 DUP3 ADD SSTORE DUP4 PUSH32 0x96709D4288825181C14DF06E5002029D4207C82A70441A8338901B54C05A8332 CALLER PUSH2 0x3125 DUP9 PUSH2 0x40E4 JUMP JUMPDEST PUSH1 0x40 DUP1 MLOAD PUSH1 0x1 PUSH1 0x1 PUSH1 0xA0 SHL SUB SWAP1 SWAP4 AND DUP4 MSTORE PUSH1 0x20 DUP4 ADD SWAP2 SWAP1 SWAP2 MSTORE DUP2 DUP2 ADD DUP8 SWAP1 MSTORE MLOAD SWAP1 DUP2 SWAP1 SUB PUSH1 0x60 ADD SWAP1 LOG2 POP POP POP POP POP JUMP JUMPDEST PUSH2 0x315F DUP3 DUP3 PUSH2 0x4A3E JUMP JUMPDEST PUSH2 0x31A9 JUMPI PUSH1 0x40 DUP1 MLOAD PUSH3 0x461BCD PUSH1 0xE5 SHL DUP2 MSTORE PUSH1 0x20 PUSH1 0x4 DUP3 ADD MSTORE PUSH1 0x16 PUSH1 0x24 DUP3 ADD MSTORE PUSH22 0x11925193D4D95D0E881AD95E481B9BDD08199BDD5B99 PUSH1 0x52 SHL PUSH1 0x44 DUP3 ADD MSTORE SWAP1 MLOAD SWAP1 DUP2 SWAP1 SUB PUSH1 0x64 ADD SWAP1 REVERT JUMPDEST PUSH1 0x0 DUP2 DUP2 MSTORE PUSH1 0x2 DUP4 ADD PUSH1 0x20 MSTORE PUSH1 0x40 DUP2 KECCAK256 PUSH1 0x1 DUP2 ADD SLOAD DUP2 SLOAD SWAP2 SWAP3 SWAP1 SWAP2 SWAP1 PUSH2 0x31CE DUP7 PUSH2 0x3E7C JUMP JUMPDEST SWAP1 POP PUSH1 0x0 PUSH2 0x31DB DUP8 PUSH2 0x37F6 JUMP JUMPDEST PUSH1 0x0 DUP6 DUP2 MSTORE PUSH1 0x2 DUP10 ADD PUSH1 0x20 MSTORE PUSH1 0x40 DUP1 DUP3 KECCAK256 DUP7 DUP4 MSTORE SWAP2 KECCAK256 SWAP2 SWAP3 POP SWAP1 PUSH2 0x31FE DUP10 PUSH2 0x3FFE JUMP JUMPDEST PUSH1 0x1 EQ ISZERO PUSH2 0x3215 JUMPI PUSH1 0x0 DUP1 DUP11 SSTORE PUSH1 0x1 DUP11 ADD SSTORE PUSH2 0x324F JUMP JUMPDEST DUP4 DUP9 EQ ISZERO PUSH2 0x322C JUMPI PUSH1 0x0 PUSH1 0x1 DUP3 ADD SSTORE DUP5 DUP10 SSTORE PUSH2 0x324F JUMP JUMPDEST DUP3 DUP9 EQ ISZERO PUSH2 0x3244 JUMPI PUSH1 0x0 DUP3 SSTORE PUSH1 0x1 DUP10 ADD DUP7 SWAP1 SSTORE PUSH2 0x324F JUMP JUMPDEST DUP5 DUP3 SSTORE PUSH1 0x1 DUP2 ADD DUP7 SWAP1 SSTORE JUMPDEST PUSH2 0x3262 PUSH1 0x3 DUP11 ADD DUP10 PUSH4 0xFFFFFFFF PUSH2 0x4A53 AND JUMP JUMPDEST POP POP POP PUSH1 0x0 SWAP5 DUP6 MSTORE POP POP POP PUSH1 0x2 SWAP1 SWAP3 ADD PUSH1 0x20 MSTORE PUSH1 0x40 DUP2 KECCAK256 DUP2 DUP2 SSTORE PUSH1 0x1 ADD SSTORE POP JUMP JUMPDEST PUSH1 0x0 DUP1 PUSH1 0x0 DUP1 PUSH1 0x0 DUP1 PUSH1 0x0 DUP1 JUMPDEST PUSH1 0x0 PUSH2 0x329C PUSH1 0x18 PUSH2 0x3FFE JUMP JUMPDEST GT DUP1 ISZERO PUSH2 0x32A9 JUMPI POP PUSH1 0x0 DUP11 GT JUMPDEST ISZERO PUSH2 0x35A4 JUMPI DUP9 GAS LT ISZERO PUSH2 0x3312 JUMPI PUSH32 0x26A72B1025F7454A60C5A168FEBEFD96FE828D125284A2AA8DE1D2D0942B577D CALLER GAS PUSH1 0x40 DUP1 MLOAD PUSH1 0x1 PUSH1 0x1 PUSH1 0xA0 SHL SUB SWAP1 SWAP4 AND DUP4 MSTORE PUSH1 0x20 DUP4 ADD SWAP2 SWAP1 SWAP2 MSTORE DUP2 DUP2 ADD DUP5 SWAP1 MSTORE MLOAD SWAP1 DUP2 SWAP1 SUB PUSH1 0x60 ADD SWAP1 LOG1 PUSH1 0x0 SWAP8 POP POP POP POP POP POP POP POP PUSH2 0x17D5 JUMP JUMPDEST PUSH2 0x331C PUSH1 0x18 PUSH2 0x3E7C JUMP JUMPDEST PUSH1 0x0 DUP2 DUP2 MSTORE PUSH1 0x12 PUSH1 0x20 MSTORE PUSH1 0x40 SWAP1 KECCAK256 DUP1 SLOAD PUSH1 0x1 DUP3 ADD SLOAD SWAP3 SWAP10 POP PUSH1 0x1 PUSH1 0x1 PUSH1 0xA0 SHL SUB AND SWAP8 POP SWAP1 SWAP5 POP PUSH2 0x334B DUP6 PUSH2 0x4B4E JUMP JUMPDEST SWAP6 POP DUP6 PUSH2 0x33F4 JUMPI DUP5 ISZERO PUSH2 0x33BE JUMPI PUSH1 0x40 DUP1 MLOAD PUSH3 0x8AE8D PUSH1 0xEB SHL DUP2 MSTORE SWAP1 MLOAD SWAP1 DUP2 SWAP1 SUB PUSH1 0x3 ADD SWAP1 KECCAK256 PUSH2 0x3386 SWAP1 PUSH1 0xC SWAP1 DUP10 DUP9 PUSH1 0x0 PUSH4 0xFFFFFFFF PUSH2 0x2E06 AND JUMP JUMPDEST PUSH1 0x40 DUP1 MLOAD DUP7 DUP2 MSTORE SWAP1 MLOAD DUP10 SWAP2 CALLER SWAP2 PUSH32 0xF82D0D34C08930BC9F8E987FD50BEA3840AEAAE5CD4B5291AD47E3A9C00F2CD1 SWAP2 DUP2 SWAP1 SUB PUSH1 0x20 ADD SWAP1 LOG3 JUMPDEST PUSH1 0x0 DUP9 DUP2 MSTORE PUSH1 0x12 PUSH1 0x20 MSTORE PUSH1 0x40 DUP2 KECCAK256 DUP1 SLOAD PUSH1 0x1 PUSH1 0x1 PUSH1 0xA0 SHL SUB NOT AND DUP2 SSTORE PUSH1 0x1 ADD SSTORE PUSH2 0x33EF PUSH1 0x18 DUP10 PUSH4 0xFFFFFFFF PUSH2 0x3155 AND JUMP JUMPDEST PUSH2 0x359E JUMP JUMPDEST PUSH2 0x33FD DUP12 PUSH2 0x4B5A JUMP JUMPDEST SWAP4 POP DUP11 SWAP3 POP DUP4 DUP6 LT ISZERO PUSH2 0x3411 JUMPI DUP5 SWAP4 POP DUP6 SWAP3 POP JUMPDEST PUSH1 0x40 DUP1 MLOAD DUP6 DUP2 MSTORE PUSH1 0x20 DUP2 ADD DUP6 SWAP1 MSTORE DUP2 MLOAD PUSH1 0x1 PUSH1 0x1 PUSH1 0xA0 SHL SUB DUP11 AND SWAP3 DUP12 SWAP3 CALLER SWAP3 PUSH32 0x776137802DF19E3B87A42166C59A2F6ADAA28D46B8E1F0CC370E78B49516D622 SWAP3 SWAP2 DUP2 SWAP1 SUB SWAP1 SWAP2 ADD SWAP1 LOG4 PUSH1 0x40 DUP1 MLOAD PUSH4 0x1213D113 PUSH1 0xE2 SHL DUP2 MSTORE SWAP1 MLOAD SWAP1 DUP2 SWAP1 SUB PUSH1 0x4 ADD SWAP1 KECCAK256 PUSH2 0x348A SWAP1 PUSH1 0xC SWAP1 CALLER DUP7 PUSH1 0x0 PUSH4 0xFFFFFFFF PUSH2 0x2BF5 AND JUMP JUMPDEST PUSH1 0x40 DUP1 MLOAD PUSH4 0x1213D113 PUSH1 0xE2 SHL DUP2 MSTORE SWAP1 MLOAD SWAP1 DUP2 SWAP1 SUB PUSH1 0x4 ADD SWAP1 KECCAK256 PUSH2 0x34B9 SWAP1 PUSH1 0xC SWAP1 DUP10 DUP7 PUSH1 0x0 PUSH4 0xFFFFFFFF PUSH2 0x2E06 AND JUMP JUMPDEST PUSH1 0x40 DUP1 MLOAD PUSH3 0x8AE8D PUSH1 0xEB SHL DUP2 MSTORE SWAP1 MLOAD SWAP1 DUP2 SWAP1 SUB PUSH1 0x3 ADD SWAP1 KECCAK256 PUSH2 0x34E7 SWAP1 PUSH1 0xC SWAP1 CALLER DUP8 PUSH1 0x0 PUSH4 0xFFFFFFFF PUSH2 0x2E06 AND JUMP JUMPDEST DUP4 DUP6 EQ ISZERO PUSH2 0x3525 JUMPI PUSH1 0x0 DUP9 DUP2 MSTORE PUSH1 0x12 PUSH1 0x20 MSTORE PUSH1 0x40 DUP2 KECCAK256 DUP1 SLOAD PUSH1 0x1 PUSH1 0x1 PUSH1 0xA0 SHL SUB NOT AND DUP2 SSTORE PUSH1 0x1 ADD SSTORE PUSH2 0x3520 PUSH1 0x18 DUP10 PUSH4 0xFFFFFFFF PUSH2 0x3155 AND JUMP JUMPDEST PUSH2 0x3597 JUMP JUMPDEST PUSH1 0x40 DUP1 MLOAD DUP1 DUP3 ADD SWAP1 SWAP2 MSTORE PUSH1 0xB DUP2 MSTORE PUSH11 0x486F646C4465782035303 PUSH1 0xAC SHL PUSH1 0x20 DUP3 ADD MSTORE PUSH2 0x355A SWAP1 DUP7 SWAP1 DUP7 SWAP1 PUSH4 0xFFFFFFFF PUSH2 0x48AB AND JUMP JUMPDEST PUSH1 0x1 DUP3 ADD SSTORE PUSH1 0x40 DUP1 MLOAD DUP1 DUP3 ADD SWAP1 SWAP2 MSTORE PUSH1 0xB DUP2 MSTORE PUSH11 0x486F646C44657820353031 PUSH1 0xA8 SHL PUSH1 0x20 DUP3 ADD MSTORE PUSH2 0x3594 SWAP1 DUP13 SWAP1 DUP6 SWAP1 PUSH4 0xFFFFFFFF PUSH2 0x48AB AND JUMP JUMPDEST SWAP11 POP JUMPDEST PUSH1 0x1 SWAP1 SWAP2 ADD SWAP1 JUMPDEST POP PUSH2 0x3290 JUMP JUMPDEST PUSH2 0x35AD DUP2 PUSH2 0x4065 JUMP JUMPDEST POP SWAP8 SWAP9 SWAP8 POP POP POP POP POP POP POP POP JUMP JUMPDEST PUSH1 0x0 PUSH9 0x2B5E3AF16B1880000 PUSH2 0x35D0 DUP4 PUSH2 0x2224 JUMP JUMPDEST GT DUP1 ISZERO PUSH2 0x35E4 JUMPI POP PUSH2 0x35E2 PUSH1 0x18 PUSH2 0x3FFE JUMP JUMPDEST ISZERO JUMPDEST ISZERO PUSH2 0x11AE JUMPI PUSH2 0x35F1 PUSH2 0x4B71 JUMP JUMPDEST SWAP1 POP PUSH1 0x0 PUSH2 0x35FD PUSH2 0x1C93 JUMP JUMPDEST POP PUSH1 0x0 DUP4 DUP2 MSTORE PUSH1 0x11 PUSH1 0x20 MSTORE PUSH1 0x40 SWAP1 KECCAK256 SWAP1 SWAP2 POP PUSH2 0x3620 PUSH1 0x13 DUP5 PUSH4 0xFFFFFFFF PUSH2 0x4BBB AND JUMP JUMPDEST PUSH1 0x40 DUP1 MLOAD DUP6 DUP2 MSTORE PUSH1 0x20 DUP2 ADD DUP5 SWAP1 MSTORE DUP2 MLOAD CALLER SWAP3 DUP7 SWAP3 PUSH32 0x859B9B1ACA54F86CFCA352A982E638C932E7FD450A59878AFB01597257D13C9C SWAP3 SWAP1 DUP2 SWAP1 SUB SWAP1 SWAP2 ADD SWAP1 LOG3 PUSH1 0x40 DUP1 MLOAD PUSH4 0x1213D113 PUSH1 0xE2 SHL DUP2 MSTORE SWAP1 MLOAD SWAP1 DUP2 SWAP1 SUB PUSH1 0x4 ADD SWAP1 KECCAK256 PUSH2 0x368E SWAP1 PUSH1 0xC SWAP1 CALLER PUSH1 0x0 DUP9 PUSH4 0xFFFFFFFF PUSH2 0x2E06 AND JUMP JUMPDEST DUP1 SLOAD PUSH1 0x1 PUSH1 0x1 PUSH1 0xA0 SHL SUB NOT AND CALLER SWAP1 DUP2 OR DUP3 SSTORE PUSH1 0x1 DUP3 ADD DUP6 SWAP1 SSTORE PUSH1 0x2 DUP3 ADD DUP4 SWAP1 SSTORE PUSH1 0x40 DUP1 MLOAD PUSH4 0x1213D113 PUSH1 0xE2 SHL DUP2 MSTORE SWAP1 MLOAD SWAP1 DUP2 SWAP1 SUB PUSH1 0x4 ADD SWAP1 KECCAK256 PUSH2 0x36DD SWAP2 PUSH1 0xC SWAP2 SWAP1 DUP8 PUSH1 0x0 PUSH4 0xFFFFFFFF PUSH2 0x2BF5 AND JUMP JUMPDEST POP POP SWAP2 SWAP1 POP JUMP JUMPDEST PUSH1 0x0 NUMBER PUSH1 0x9 SLOAD EQ ISZERO PUSH2 0x36F9 JUMPI POP PUSH1 0xB SLOAD PUSH2 0x1507 JUMP JUMPDEST PUSH1 0x0 PUSH2 0x3703 PUSH2 0x2B66 JUMP JUMPDEST PUSH1 0xB DUP3 SWAP1 SSTORE NUMBER PUSH1 0x9 SSTORE SWAP1 SWAP3 POP SWAP1 POP DUP1 PUSH2 0x3762 JUMPI PUSH1 0xA DUP1 SLOAD PUSH1 0x1 ADD SWAP1 DUP2 SWAP1 SSTORE PUSH1 0x40 DUP1 MLOAD CALLER DUP2 MSTORE PUSH1 0x20 DUP2 ADD SWAP3 SWAP1 SWAP3 MSTORE DUP2 DUP2 ADD DUP5 SWAP1 MSTORE MLOAD PUSH32 0x1B6826F6886B75B3EAEC36667372CFD16E72A81E148C098EDEDB06C10616E85D SWAP2 DUP2 SWAP1 SUB PUSH1 0x60 ADD SWAP1 LOG1 JUMPDEST PUSH1 0x40 DUP1 MLOAD CALLER DUP2 MSTORE PUSH1 0x20 DUP2 ADD DUP5 SWAP1 MSTORE DUP2 MLOAD PUSH32 0xA4DEBDFC51DA746DCB19F892EAC110CE7D5D1C86475813BC7940BE5C100EAB4 SWAP3 SWAP2 DUP2 SWAP1 SUB SWAP1 SWAP2 ADD SWAP1 LOG1 PUSH1 0x40 DUP1 MLOAD PUSH3 0x8AE8D PUSH1 0xEB SHL DUP2 MSTORE SWAP1 MLOAD SWAP1 DUP2 SWAP1 SUB PUSH1 0x3 ADD SWAP1 KECCAK256 PUSH2 0x37C7 SWAP1 PUSH1 0xC SWAP1 PUSH4 0xFFFFFFFF PUSH2 0x4CB3 AND JUMP JUMPDEST PUSH1 0x40 DUP1 MLOAD PUSH4 0x1213D113 PUSH1 0xE2 SHL DUP2 MSTORE SWAP1 MLOAD SWAP1 DUP2 SWAP1 SUB PUSH1 0x4 ADD SWAP1 KECCAK256 PUSH2 0x37F2 SWAP1 PUSH1 0xC SWAP1 PUSH4 0xFFFFFFFF PUSH2 0x4CB3 AND JUMP JUMPDEST POP SWAP1 JUMP JUMPDEST PUSH1 0x1 ADD SLOAD SWAP1 JUMP JUMPDEST PUSH1 0x0 DUP3 DUP2 MSTORE PUSH1 0x4 DUP5 ADD PUSH1 0x20 MSTORE PUSH1 0x40 DUP2 KECCAK256 DUP1 SLOAD DUP3 SWAP2 DUP3 SWAP2 DUP2 SWAP1 DUP7 SWAP1 DUP2 LT PUSH2 0x381F JUMPI INVALID JUMPDEST SWAP1 PUSH1 0x0 MSTORE PUSH1 0x20 PUSH1 0x0 KECCAK256 SWAP1 PUSH1 0x3 MUL ADD PUSH1 0x0 ADD SLOAD DUP2 PUSH1 0x0 ADD DUP7 DUP2 SLOAD DUP2 LT PUSH2 0x3840 JUMPI INVALID JUMPDEST SWAP1 PUSH1 0x0 MSTORE PUSH1 0x20 PUSH1 0x0 KECCAK256 SWAP1 PUSH1 0x3 MUL ADD PUSH1 0x1 ADD SLOAD DUP3 PUSH1 0x0 ADD DUP8 DUP2 SLOAD DUP2 LT PUSH2 0x3861 JUMPI INVALID JUMPDEST SWAP1 PUSH1 0x0 MSTORE PUSH1 0x20 PUSH1 0x0 KECCAK256 SWAP1 PUSH1 0x3 MUL ADD PUSH1 0x2 ADD SLOAD SWAP4 POP SWAP4 POP SWAP4 POP POP SWAP4 POP SWAP4 POP SWAP4 SWAP1 POP JUMP JUMPDEST PUSH1 0x0 SWAP1 DUP2 MSTORE PUSH1 0x4 SWAP1 SWAP2 ADD PUSH1 0x20 MSTORE PUSH1 0x40 SWAP1 KECCAK256 SLOAD SWAP1 JUMP JUMPDEST PUSH1 0x0 DUP3 DUP2 MSTORE PUSH1 0x4 DUP5 ADD PUSH1 0x20 SWAP1 DUP2 MSTORE PUSH1 0x40 DUP1 DUP4 KECCAK256 PUSH1 0x3 DUP8 ADD SLOAD DUP5 MSTORE DUP2 DUP5 KECCAK256 PUSH1 0x1 PUSH1 0x1 PUSH1 0xA0 SHL SUB DUP7 AND DUP6 MSTORE PUSH1 0x1 DUP1 DUP3 ADD SWAP1 SWAP5 MSTORE SWAP2 DUP5 KECCAK256 PUSH1 0x2 DUP2 ADD SLOAD DUP2 DUP6 ADD SLOAD DUP4 SLOAD SWAP2 SWAP6 SWAP1 SWAP5 DUP8 SWAP5 SWAP4 SWAP1 SWAP3 SWAP1 SWAP2 DUP7 ADD GT ISZERO PUSH2 0x38FA JUMPI POP PUSH1 0x0 SWAP6 POP DUP6 SWAP3 POP PUSH2 0x39AB SWAP2 POP POP JUMP JUMPDEST PUSH1 0x0 DUP4 PUSH1 0x0 ADD DUP7 DUP2 SLOAD DUP2 LT PUSH2 0x390B JUMPI INVALID JUMPDEST PUSH1 0x0 SWAP2 DUP3 MSTORE PUSH1 0x20 SWAP1 SWAP2 KECCAK256 PUSH1 0x3 SWAP1 SWAP2 MUL ADD DUP1 SLOAD DUP4 SLOAD DUP2 ISZERO ISZERO SWAP8 POP SWAP2 SWAP3 POP SWAP1 PUSH1 0x1 DUP10 ADD GT DUP1 PUSH2 0x3936 JUMPI POP DUP6 ISZERO JUMPDEST ISZERO PUSH2 0x394A JUMPI POP PUSH1 0x0 SWAP8 POP PUSH2 0x39AB SWAP4 POP POP POP POP JUMP JUMPDEST PUSH1 0x0 DUP4 PUSH1 0x0 ADD DUP10 DUP2 SLOAD DUP2 LT PUSH2 0x395B JUMPI INVALID JUMPDEST PUSH1 0x0 SWAP2 DUP3 MSTORE PUSH1 0x20 DUP3 KECCAK256 PUSH1 0x3 SWAP2 SWAP1 SWAP2 MUL ADD PUSH1 0x1 DUP2 DUP2 ADD SLOAD DUP3 SLOAD SWAP2 DUP8 ADD SLOAD SWAP3 SWAP5 POP ADD SWAP2 DUP5 PUSH8 0xDE0B6B3A7640000 DUP4 MUL DUP2 PUSH2 0x398F JUMPI INVALID JUMPDEST DIV SWAP1 POP PUSH8 0xDE0B6B3A7640000 DUP4 DUP3 MUL DIV SWAP13 POP POP POP POP POP POP POP POP POP POP JUMPDEST SWAP4 POP SWAP4 POP SWAP4 POP SWAP4 JUMP JUMPDEST CALLER SWAP1 JUMP JUMPDEST PUSH1 0x0 DUP3 DUP2 MSTORE PUSH1 0x1 PUSH1 0x20 MSTORE PUSH1 0x40 SWAP1 KECCAK256 PUSH2 0x39D6 SWAP1 DUP3 PUSH4 0xFFFFFFFF PUSH2 0x4CBF AND JUMP JUMPDEST ISZERO PUSH2 0x1881 JUMPI PUSH2 0x39E3 PUSH2 0x39B4 JUMP JUMPDEST PUSH1 0x1 PUSH1 0x1 PUSH1 0xA0 SHL SUB AND DUP2 PUSH1 0x1 PUSH1 0x1 PUSH1 0xA0 SHL SUB AND DUP4 PUSH32 0x2F8788117E7EFF1D82E926EC794901D17C78024A50270940304540A733656F0D PUSH1 0x40 MLOAD PUSH1 0x40 MLOAD DUP1 SWAP2 SUB SWAP1 LOG4 POP POP JUMP JUMPDEST PUSH1 0x0 DUP3 DUP2 MSTORE PUSH1 0x4 DUP5 ADD PUSH1 0x20 MSTORE PUSH1 0x40 DUP2 KECCAK256 DUP2 PUSH2 0x3A43 DUP7 DUP7 DUP7 PUSH2 0x3A9B JUMP JUMPDEST SWAP1 POP DUP1 PUSH2 0x3A55 JUMPI PUSH1 0x0 SWAP3 POP POP POP PUSH2 0x1A9E JUMP JUMPDEST PUSH1 0x1 PUSH1 0x1 PUSH1 0xA0 SHL SUB DUP5 AND PUSH1 0x0 SWAP1 DUP2 MSTORE PUSH1 0x1 DUP4 ADD PUSH1 0x20 MSTORE PUSH1 0x40 DUP2 KECCAK256 DUP1 SLOAD PUSH1 0x0 NOT DUP5 ADD SWAP1 DUP2 LT PUSH2 0x3A7F JUMPI INVALID JUMPDEST PUSH1 0x0 SWAP2 DUP3 MSTORE PUSH1 0x20 SWAP1 SWAP2 KECCAK256 PUSH1 0x3 SWAP1 SWAP2 MUL ADD SLOAD SWAP8 SWAP7 POP POP POP POP POP POP POP JUMP JUMPDEST PUSH1 0x0 DUP3 DUP2 MSTORE PUSH1 0x4 DUP5 ADD PUSH1 0x20 SWAP1 DUP2 MSTORE PUSH1 0x40 DUP1 DUP4 KECCAK256 PUSH1 0x1 PUSH1 0x1 PUSH1 0xA0 SHL SUB DUP6 AND DUP5 MSTORE PUSH1 0x1 ADD SWAP1 SWAP2 MSTORE SWAP1 KECCAK256 SLOAD SWAP4 SWAP3 POP POP POP JUMP JUMPDEST PUSH1 0x0 DUP3 DUP2 MSTORE PUSH1 0x1 PUSH1 0x20 MSTORE PUSH1 0x40 SWAP1 KECCAK256 PUSH2 0x3AE8 SWAP1 DUP3 PUSH4 0xFFFFFFFF PUSH2 0x4CD4 AND JUMP JUMPDEST ISZERO PUSH2 0x1881 JUMPI PUSH2 0x3AF5 PUSH2 0x39B4 JUMP JUMPDEST PUSH1 0x1 PUSH1 0x1 PUSH1 0xA0 SHL SUB AND DUP2 PUSH1 0x1 PUSH1 0x1 PUSH1 0xA0 SHL SUB AND DUP4 PUSH32 0xF6391F5C32D9C69D2A47EA670B442974B53935D1EDC7FD64EB21E047A839171B PUSH1 0x40 MLOAD PUSH1 0x40 MLOAD DUP1 SWAP2 SUB SWAP1 LOG4 POP POP JUMP JUMPDEST PUSH1 0x0 DUP3 DUP2 MSTORE PUSH1 0x4 DUP5 ADD PUSH1 0x20 SWAP1 DUP2 MSTORE PUSH1 0x40 DUP1 DUP4 KECCAK256 PUSH1 0x3 DUP8 ADD SLOAD DUP5 MSTORE DUP2 DUP5 KECCAK256 PUSH1 0x1 PUSH1 0x1 PUSH1 0xA0 SHL SUB DUP7 AND DUP6 MSTORE PUSH1 0x1 DUP1 DUP4 ADD DUP6 MSTORE DUP4 DUP7 KECCAK256 SWAP1 DUP3 ADD SWAP1 SWAP5 MSTORE SWAP2 DUP5 KECCAK256 SWAP1 SWAP3 SWAP1 PUSH2 0x3B82 DUP9 DUP9 PUSH2 0x4CB3 JUMP JUMPDEST PUSH1 0x0 DUP1 PUSH1 0x0 PUSH2 0x3B92 DUP12 DUP12 DUP12 PUSH2 0x3898 JUMP JUMPDEST SWAP3 SWAP11 POP SWAP1 SWAP5 POP SWAP3 POP SWAP1 POP DUP1 PUSH2 0x3BB1 JUMPI PUSH1 0x0 SWAP8 POP POP POP POP POP POP POP POP PUSH2 0x1A9E JUMP JUMPDEST PUSH1 0x0 DUP8 PUSH1 0x0 ADD DUP4 DUP2 SLOAD DUP2 LT PUSH2 0x3BC2 JUMPI INVALID JUMPDEST SWAP1 PUSH1 0x0 MSTORE PUSH1 0x20 PUSH1 0x0 KECCAK256 SWAP1 PUSH1 0x3 MUL ADD SWAP1 POP DUP11 CALLER PUSH1 0x1 PUSH1 0x1 PUSH1 0xA0 SHL SUB AND PUSH32 0x703E744CB3AE9492E7B192242CD2A9916B267E8BE750FF02A0961442D87AC609 DUP4 PUSH1 0x2 ADD SLOAD DUP13 DUP9 DUP9 PUSH1 0x40 MLOAD DUP1 DUP6 DUP2 MSTORE PUSH1 0x20 ADD DUP5 DUP2 MSTORE PUSH1 0x20 ADD DUP4 DUP2 MSTORE PUSH1 0x20 ADD DUP3 DUP2 MSTORE PUSH1 0x20 ADD SWAP5 POP POP POP POP POP PUSH1 0x40 MLOAD DUP1 SWAP2 SUB SWAP1 LOG3 PUSH2 0x3C3E DUP13 DUP13 DUP13 DUP13 PUSH1 0x0 PUSH2 0x2E06 JUMP JUMPDEST PUSH1 0x0 PUSH2 0x3C4A DUP7 DUP7 PUSH2 0x4CE9 JUMP JUMPDEST SWAP1 POP PUSH1 0x0 PUSH2 0x3C58 DUP15 DUP7 PUSH2 0x4D33 JUMP JUMPDEST SWAP1 POP PUSH2 0x3C66 DUP15 DUP15 DUP15 DUP9 PUSH2 0x4D92 JUMP JUMPDEST DUP10 SLOAD PUSH1 0x1 DUP10 ADD SLOAD EQ ISZERO PUSH2 0x3C90 JUMPI POP POP SWAP4 SLOAD PUSH1 0x0 NOT ADD PUSH1 0x2 SWAP1 SWAP6 ADD SWAP5 SWAP1 SWAP5 SSTORE POP PUSH2 0x1A9E SWAP5 POP POP POP POP POP JUMP JUMPDEST DUP1 DUP3 GT PUSH2 0x3CC9 JUMPI PUSH2 0x3CA3 DUP15 DUP15 DUP15 DUP10 PUSH2 0x4DE6 JUMP JUMPDEST PUSH2 0x3CAE DUP15 DUP15 DUP15 PUSH2 0x3898 JUMP JUMPDEST SWAP3 SWAP14 POP SWAP1 SWAP8 POP SWAP6 POP SWAP4 POP PUSH2 0x3CC2 DUP8 DUP8 PUSH2 0x4CE9 JUMP JUMPDEST SWAP2 POP PUSH2 0x3C90 JUMP JUMPDEST POP POP POP POP POP POP POP POP POP POP SWAP4 SWAP3 POP POP POP JUMP JUMPDEST PUSH1 0x0 DUP3 DUP3 ADD DUP4 DUP2 LT ISZERO PUSH2 0x1A9E JUMPI PUSH1 0x40 DUP1 MLOAD PUSH3 0x461BCD PUSH1 0xE5 SHL DUP2 MSTORE PUSH1 0x20 PUSH1 0x4 DUP3 ADD MSTORE PUSH1 0x1B PUSH1 0x24 DUP3 ADD MSTORE PUSH32 0x536166654D6174683A206164646974696F6E206F766572666C6F770000000000 PUSH1 0x44 DUP3 ADD MSTORE SWAP1 MLOAD SWAP1 DUP2 SWAP1 SUB PUSH1 0x64 ADD SWAP1 REVERT JUMPDEST PUSH1 0x0 PUSH2 0x1A9E DUP4 DUP4 PUSH1 0x40 MLOAD DUP1 PUSH1 0x40 ADD PUSH1 0x40 MSTORE DUP1 PUSH1 0x1E DUP2 MSTORE PUSH1 0x20 ADD PUSH32 0x536166654D6174683A207375627472616374696F6E206F766572666C6F770000 DUP2 MSTORE POP PUSH2 0x48AB JUMP JUMPDEST PUSH1 0x0 DUP3 PUSH2 0x3D85 JUMPI POP PUSH1 0x0 PUSH2 0x17D5 JUMP JUMPDEST DUP3 DUP3 MUL DUP3 DUP5 DUP3 DUP2 PUSH2 0x3D92 JUMPI INVALID JUMPDEST DIV EQ PUSH2 0x1A9E JUMPI PUSH1 0x40 MLOAD PUSH3 0x461BCD PUSH1 0xE5 SHL DUP2 MSTORE PUSH1 0x4 ADD DUP1 DUP1 PUSH1 0x20 ADD DUP3 DUP2 SUB DUP3 MSTORE PUSH1 0x21 DUP2 MSTORE PUSH1 0x20 ADD DUP1 PUSH2 0x52EC PUSH1 0x21 SWAP2 CODECOPY PUSH1 0x40 ADD SWAP2 POP POP PUSH1 0x40 MLOAD DUP1 SWAP2 SUB SWAP1 REVERT JUMPDEST PUSH1 0x0 PUSH2 0x1A9E DUP4 DUP4 PUSH1 0x40 MLOAD DUP1 PUSH1 0x40 ADD PUSH1 0x40 MSTORE DUP1 PUSH1 0x1A DUP2 MSTORE PUSH1 0x20 ADD PUSH32 0x536166654D6174683A206469766973696F6E206279207A65726F000000000000 DUP2 MSTORE POP PUSH2 0x4E52 JUMP JUMPDEST PUSH1 0x0 DUP4 DUP2 MSTORE PUSH1 0x4 DUP6 ADD PUSH1 0x20 SWAP1 DUP2 MSTORE PUSH1 0x40 DUP1 DUP4 KECCAK256 PUSH1 0x1 PUSH1 0x1 PUSH1 0xA0 SHL SUB DUP7 AND DUP5 MSTORE PUSH1 0x1 DUP2 ADD SWAP1 SWAP3 MSTORE DUP3 KECCAK256 DUP1 SLOAD DUP4 SWAP3 DUP4 SWAP3 SWAP1 SWAP2 DUP4 SWAP2 SWAP1 DUP8 SWAP1 DUP2 LT PUSH2 0x3E4E JUMPI INVALID JUMPDEST PUSH1 0x0 SWAP2 DUP3 MSTORE PUSH1 0x20 SWAP1 SWAP2 KECCAK256 PUSH1 0x3 SWAP1 SWAP2 MUL ADD DUP1 SLOAD PUSH1 0x1 DUP3 ADD SLOAD PUSH1 0x2 SWAP1 SWAP3 ADD SLOAD SWAP1 SWAP12 SWAP2 SWAP11 POP SWAP9 POP SWAP7 POP POP POP POP POP POP POP JUMP JUMPDEST SLOAD SWAP1 JUMP JUMPDEST PUSH1 0x0 DUP3 DUP2 MSTORE PUSH1 0x4 DUP5 ADD PUSH1 0x20 MSTORE PUSH1 0x40 DUP2 KECCAK256 DUP2 PUSH2 0x3E9C DUP7 DUP7 DUP7 PUSH2 0x3A9B JUMP JUMPDEST SWAP1 POP DUP1 PUSH2 0x3EAE JUMPI PUSH1 0x0 SWAP3 POP POP POP PUSH2 0x1A9E JUMP JUMPDEST PUSH1 0x1 PUSH1 0x1 PUSH1 0xA0 SHL SUB DUP5 AND PUSH1 0x0 SWAP1 DUP2 MSTORE PUSH1 0x1 DUP4 ADD PUSH1 0x20 MSTORE PUSH1 0x40 SWAP1 KECCAK256 DUP1 SLOAD PUSH1 0x0 NOT DUP4 ADD SWAP1 DUP2 LT PUSH2 0x3ED8 JUMPI INVALID JUMPDEST SWAP1 PUSH1 0x0 MSTORE PUSH1 0x20 PUSH1 0x0 KECCAK256 SWAP1 PUSH1 0x3 MUL ADD PUSH1 0x1 ADD SLOAD SWAP3 POP POP POP SWAP4 SWAP3 POP POP POP JUMP JUMPDEST PUSH1 0x0 PUSH2 0x3F01 DUP4 DUP4 PUSH2 0x4A3E JUMP JUMPDEST PUSH2 0x3F4B JUMPI PUSH1 0x40 DUP1 MLOAD PUSH3 0x461BCD PUSH1 0xE5 SHL DUP2 MSTORE PUSH1 0x20 PUSH1 0x4 DUP3 ADD MSTORE PUSH1 0x16 PUSH1 0x24 DUP3 ADD MSTORE PUSH22 0x11925193D4D95D0E881AD95E481B9BDD08199BDD5B99 PUSH1 0x52 SHL PUSH1 0x44 DUP3 ADD MSTORE SWAP1 MLOAD SWAP1 DUP2 SWAP1 SUB PUSH1 0x64 ADD SWAP1 REVERT JUMPDEST POP PUSH1 0x0 SWAP1 DUP2 MSTORE PUSH1 0x2 SWAP2 SWAP1 SWAP2 ADD PUSH1 0x20 MSTORE PUSH1 0x40 SWAP1 KECCAK256 PUSH1 0x1 ADD SLOAD SWAP1 JUMP JUMPDEST PUSH1 0x0 PUSH2 0x3F71 DUP4 DUP4 PUSH2 0x4A3E JUMP JUMPDEST PUSH2 0x3FBB JUMPI PUSH1 0x40 DUP1 MLOAD PUSH3 0x461BCD PUSH1 0xE5 SHL DUP2 MSTORE PUSH1 0x20 PUSH1 0x4 DUP3 ADD MSTORE PUSH1 0x16 PUSH1 0x24 DUP3 ADD MSTORE PUSH22 0x11925193D4D95D0E881AD95E481B9BDD08199BDD5B99 PUSH1 0x52 SHL PUSH1 0x44 DUP3 ADD MSTORE SWAP1 MLOAD SWAP1 DUP2 SWAP1 SUB PUSH1 0x64 ADD SWAP1 REVERT JUMPDEST POP PUSH1 0x0 SWAP1 DUP2 MSTORE PUSH1 0x2 SWAP2 SWAP1 SWAP2 ADD PUSH1 0x20 MSTORE PUSH1 0x40 SWAP1 KECCAK256 SLOAD SWAP1 JUMP JUMPDEST PUSH1 0x0 PUSH2 0x1A9E DUP4 DUP4 PUSH2 0x4EB7 JUMP JUMPDEST PUSH1 0x0 PUSH2 0x1A9E DUP4 PUSH1 0x1 PUSH1 0x1 PUSH1 0xA0 SHL SUB DUP5 AND PUSH2 0x4F1B JUMP JUMPDEST PUSH1 0x0 PUSH2 0x17D5 DUP3 PUSH2 0x3E7C JUMP JUMPDEST PUSH1 0x0 PUSH2 0x17D5 DUP3 PUSH1 0x3 ADD PUSH2 0x37F6 JUMP JUMPDEST PUSH1 0x0 DUP3 DUP2 MSTORE PUSH1 0x1 PUSH1 0x20 MSTORE PUSH1 0x40 SWAP1 KECCAK256 PUSH1 0x2 ADD SLOAD PUSH2 0x402A SWAP1 PUSH2 0x1837 PUSH2 0x39B4 JUMP JUMPDEST PUSH2 0x1AFC JUMPI PUSH1 0x40 MLOAD PUSH3 0x461BCD PUSH1 0xE5 SHL DUP2 MSTORE PUSH1 0x4 ADD DUP1 DUP1 PUSH1 0x20 ADD DUP3 DUP2 SUB DUP3 MSTORE PUSH1 0x30 DUP2 MSTORE PUSH1 0x20 ADD DUP1 PUSH2 0x526C PUSH1 0x30 SWAP2 CODECOPY PUSH1 0x40 ADD SWAP2 POP POP PUSH1 0x40 MLOAD DUP1 SWAP2 SUB SWAP1 REVERT JUMPDEST DUP1 ISZERO PUSH2 0x1190 JUMPI PUSH1 0x6 SLOAD PUSH1 0x0 PUSH2 0x4096 PUSH2 0x4089 PUSH6 0x5AF3107A4000 DUP6 PUSH4 0xFFFFFFFF PUSH2 0x3D76 AND JUMP JUMPDEST DUP4 SWAP1 PUSH4 0xFFFFFFFF PUSH2 0x3CDA AND JUMP JUMPDEST PUSH1 0x6 DUP2 SWAP1 SSTORE PUSH1 0x40 DUP1 MLOAD CALLER DUP2 MSTORE PUSH1 0x20 DUP2 ADD DUP7 SWAP1 MSTORE DUP1 DUP3 ADD DUP4 SWAP1 MSTORE SWAP1 MLOAD SWAP2 SWAP3 POP PUSH32 0x9C333AE1CC367C5EDBB5F945C128B377930F21862F1679BD163C93CEF65E1A68 SWAP2 SWAP1 DUP2 SWAP1 SUB PUSH1 0x60 ADD SWAP1 LOG1 POP POP POP JUMP JUMPDEST DUP1 SLOAD PUSH1 0x40 DUP1 MLOAD DUP1 DUP3 ADD SWAP1 SWAP2 MSTORE PUSH1 0x4 DUP2 MSTORE PUSH4 0x281A9819 PUSH1 0xE1 SHL PUSH1 0x20 DUP3 ADD MSTORE PUSH1 0x0 SWAP2 DUP3 SWAP2 PUSH2 0x4117 SWAP2 TIMESTAMP SWAP2 PUSH4 0xFFFFFFFF PUSH2 0x48AB AND JUMP JUMPDEST SWAP1 POP DUP3 PUSH1 0x1 ADD SLOAD DUP2 DUP2 PUSH2 0x4126 JUMPI INVALID JUMPDEST DIV SWAP4 SWAP3 POP POP POP JUMP JUMPDEST ADDRESS EXTCODESIZE ISZERO SWAP1 JUMP JUMPDEST PUSH2 0x413C PUSH2 0x51AF JUMP JUMPDEST POP PUSH1 0x40 DUP1 MLOAD PUSH1 0x60 DUP2 ADD DUP3 MSTORE PUSH1 0x0 DUP1 DUP3 MSTORE PUSH1 0x20 DUP3 ADD DUP2 SWAP1 MSTORE SWAP2 DUP2 ADD DUP3 SWAP1 MSTORE PUSH1 0x3 DUP9 ADD DUP7 SWAP1 SSTORE DUP5 DUP9 SSTORE PUSH1 0x1 DUP9 ADD DUP5 SWAP1 SSTORE PUSH1 0x2 DUP9 ADD DUP1 SLOAD PUSH1 0x1 PUSH1 0x1 PUSH1 0xA0 SHL SUB NOT AND PUSH1 0x1 PUSH1 0x1 PUSH1 0xA0 SHL SUB DUP6 AND OR SWAP1 SSTORE SWAP1 JUMPDEST DUP7 SLOAD DUP2 LT ISZERO PUSH2 0x41FC JUMPI PUSH1 0x0 DUP9 PUSH1 0x4 ADD PUSH1 0x0 DUP10 DUP5 DUP2 SLOAD DUP2 LT PUSH2 0x41A6 JUMPI INVALID JUMPDEST PUSH1 0x0 SWAP2 DUP3 MSTORE PUSH1 0x20 DUP1 DUP4 KECCAK256 SWAP1 SWAP2 ADD SLOAD DUP4 MSTORE DUP3 DUP2 ADD SWAP4 SWAP1 SWAP4 MSTORE PUSH1 0x40 SWAP2 DUP3 ADD DUP2 KECCAK256 DUP1 SLOAD PUSH1 0x1 DUP2 DUP2 ADD DUP4 SSTORE SWAP2 DUP4 MSTORE SWAP2 DUP5 SWAP1 KECCAK256 DUP8 MLOAD PUSH1 0x3 SWAP1 SWAP4 MUL ADD SWAP2 DUP3 SSTORE SWAP3 DUP7 ADD MLOAD DUP2 DUP5 ADD SSTORE SWAP1 DUP6 ADD MLOAD PUSH1 0x2 SWAP1 SWAP2 ADD SSTORE SWAP2 SWAP1 SWAP2 ADD SWAP1 POP PUSH2 0x4189 JUMP JUMPDEST POP POP POP POP POP POP POP POP JUMP JUMPDEST PUSH1 0x0 DUP1 PUSH1 0x0 DUP1 PUSH1 0x0 DUP1 PUSH1 0x0 DUP1 JUMPDEST PUSH1 0x0 PUSH2 0x421F PUSH1 0x13 PUSH2 0x3FFE JUMP JUMPDEST GT DUP1 ISZERO PUSH2 0x422C JUMPI POP PUSH1 0x0 DUP11 GT JUMPDEST ISZERO PUSH2 0x35A4 JUMPI DUP9 GAS LT ISZERO PUSH2 0x4295 JUMPI PUSH32 0x26A72B1025F7454A60C5A168FEBEFD96FE828D125284A2AA8DE1D2D0942B577D CALLER GAS PUSH1 0x40 DUP1 MLOAD PUSH1 0x1 PUSH1 0x1 PUSH1 0xA0 SHL SUB SWAP1 SWAP4 AND DUP4 MSTORE PUSH1 0x20 DUP4 ADD SWAP2 SWAP1 SWAP2 MSTORE DUP2 DUP2 ADD DUP5 SWAP1 MSTORE MLOAD SWAP1 DUP2 SWAP1 SUB PUSH1 0x60 ADD SWAP1 LOG1 PUSH1 0x0 SWAP8 POP POP POP POP POP POP POP POP PUSH2 0x17D5 JUMP JUMPDEST PUSH2 0x429F PUSH1 0x13 PUSH2 0x3E7C JUMP JUMPDEST PUSH1 0x0 DUP2 DUP2 MSTORE PUSH1 0x11 PUSH1 0x20 MSTORE PUSH1 0x40 SWAP1 KECCAK256 DUP1 SLOAD PUSH1 0x1 DUP3 ADD SLOAD SWAP3 SWAP10 POP PUSH1 0x1 PUSH1 0x1 PUSH1 0xA0 SHL SUB AND SWAP8 POP SWAP1 SWAP5 POP PUSH2 0x42CE DUP6 PUSH2 0x4B5A JUMP JUMPDEST SWAP6 POP DUP6 PUSH2 0x43AD JUMPI DUP5 ISZERO PUSH2 0x4370 JUMPI PUSH1 0x40 DUP1 MLOAD DUP7 DUP2 MSTORE SWAP1 MLOAD DUP10 SWAP2 CALLER SWAP2 PUSH32 0x766E265970A9D07808A7D69D71EED292ADDAD9A58D5BD5739279D312AC6F1D46 SWAP2 DUP2 SWAP1 SUB PUSH1 0x20 ADD SWAP1 LOG3 PUSH1 0x40 DUP1 MLOAD PUSH4 0x1213D113 PUSH1 0xE2 SHL DUP2 MSTORE SWAP1 MLOAD SWAP1 DUP2 SWAP1 SUB PUSH1 0x4 ADD SWAP1 KECCAK256 PUSH2 0x4341 SWAP1 PUSH1 0xC SWAP1 DUP10 DUP9 PUSH1 0x0 PUSH4 0xFFFFFFFF PUSH2 0x2E06 AND JUMP JUMPDEST PUSH1 0x40 DUP1 MLOAD PUSH4 0x1213D113 PUSH1 0xE2 SHL DUP2 MSTORE SWAP1 MLOAD SWAP1 DUP2 SWAP1 SUB PUSH1 0x4 ADD SWAP1 KECCAK256 PUSH2 0x4370 SWAP1 PUSH1 0xC SWAP1 DUP10 PUSH1 0x0 DUP10 PUSH4 0xFFFFFFFF PUSH2 0x2BF5 AND JUMP JUMPDEST PUSH1 0x0 DUP9 DUP2 MSTORE PUSH1 0x11 PUSH1 0x20 MSTORE PUSH1 0x40 DUP2 KECCAK256 DUP1 SLOAD PUSH1 0x1 PUSH1 0x1 PUSH1 0xA0 SHL SUB NOT AND DUP2 SSTORE PUSH1 0x1 DUP2 ADD DUP3 SWAP1 SSTORE PUSH1 0x2 ADD SSTORE PUSH2 0x43A8 PUSH1 0x13 DUP10 PUSH4 0xFFFFFFFF PUSH2 0x3155 AND JUMP JUMPDEST PUSH2 0x458F JUMP JUMPDEST DUP11 SWAP4 POP PUSH2 0x43B9 DUP5 PUSH2 0x4B4E JUMP JUMPDEST SWAP3 POP DUP4 DUP7 LT ISZERO PUSH2 0x43CA JUMPI DUP6 SWAP4 POP DUP5 SWAP3 POP JUMPDEST PUSH1 0x40 DUP1 MLOAD DUP6 DUP2 MSTORE PUSH1 0x20 DUP2 ADD DUP6 SWAP1 MSTORE DUP2 MLOAD PUSH1 0x1 PUSH1 0x1 PUSH1 0xA0 SHL SUB DUP11 AND SWAP3 DUP12 SWAP3 CALLER SWAP3 PUSH32 0x1BBA592CF2BF9B4F8F3ADC25FB5285B07027E631563A4AC6FC49FF651801F9F2 SWAP3 SWAP2 DUP2 SWAP1 SUB SWAP1 SWAP2 ADD SWAP1 LOG4 PUSH1 0x40 DUP1 MLOAD PUSH3 0x8AE8D PUSH1 0xEB SHL DUP2 MSTORE SWAP1 MLOAD SWAP1 DUP2 SWAP1 SUB PUSH1 0x3 ADD SWAP1 KECCAK256 PUSH2 0x4442 SWAP1 PUSH1 0xC SWAP1 CALLER DUP8 PUSH1 0x0 PUSH4 0xFFFFFFFF PUSH2 0x2BF5 AND JUMP JUMPDEST PUSH1 0x40 DUP1 MLOAD PUSH3 0x8AE8D PUSH1 0xEB SHL DUP2 MSTORE SWAP1 MLOAD SWAP1 DUP2 SWAP1 SUB PUSH1 0x3 ADD SWAP1 KECCAK256 PUSH2 0x4470 SWAP1 PUSH1 0xC SWAP1 DUP10 DUP8 PUSH1 0x0 PUSH4 0xFFFFFFFF PUSH2 0x2E06 AND JUMP JUMPDEST PUSH1 0x40 DUP1 MLOAD PUSH4 0x1213D113 PUSH1 0xE2 SHL DUP2 MSTORE SWAP1 MLOAD SWAP1 DUP2 SWAP1 SUB PUSH1 0x4 ADD SWAP1 KECCAK256 PUSH2 0x449F SWAP1 PUSH1 0xC SWAP1 CALLER DUP7 PUSH1 0x0 PUSH4 0xFFFFFFFF PUSH2 0x2E06 AND JUMP JUMPDEST PUSH1 0x40 DUP1 MLOAD PUSH4 0x1213D113 PUSH1 0xE2 SHL DUP2 MSTORE SWAP1 MLOAD SWAP1 DUP2 SWAP1 SUB PUSH1 0x4 ADD SWAP1 KECCAK256 PUSH2 0x44CE SWAP1 PUSH1 0xC SWAP1 DUP10 PUSH1 0x0 DUP10 PUSH4 0xFFFFFFFF PUSH2 0x2BF5 AND JUMP JUMPDEST PUSH1 0x40 DUP1 MLOAD DUP1 DUP3 ADD SWAP1 SWAP2 MSTORE PUSH1 0xB DUP2 MSTORE PUSH11 0x486F646C44657820353033 PUSH1 0xA8 SHL PUSH1 0x20 DUP3 ADD MSTORE PUSH2 0x4503 SWAP1 DUP13 SWAP1 DUP7 SWAP1 PUSH4 0xFFFFFFFF PUSH2 0x48AB AND JUMP JUMPDEST SWAP11 POP DUP3 DUP6 EQ ISZERO PUSH2 0x454A JUMPI PUSH1 0x0 DUP9 DUP2 MSTORE PUSH1 0x11 PUSH1 0x20 MSTORE PUSH1 0x40 DUP2 KECCAK256 DUP1 SLOAD PUSH1 0x1 PUSH1 0x1 PUSH1 0xA0 SHL SUB NOT AND DUP2 SSTORE PUSH1 0x1 DUP2 ADD DUP3 SWAP1 SSTORE PUSH1 0x2 ADD SSTORE PUSH2 0x4545 PUSH1 0x13 DUP10 PUSH4 0xFFFFFFFF PUSH2 0x3155 AND JUMP JUMPDEST PUSH2 0x4588 JUMP JUMPDEST PUSH1 0x40 DUP1 MLOAD DUP1 DUP3 ADD SWAP1 SWAP2 MSTORE PUSH1 0xB DUP2 MSTORE PUSH11 0x121BD91B11195E080D4C0D PUSH1 0xAA SHL PUSH1 0x20 DUP3 ADD MSTORE PUSH1 0x1 DUP3 ADD SLOAD PUSH2 0x4582 SWAP2 DUP6 SWAP1 PUSH4 0xFFFFFFFF PUSH2 0x48AB AND JUMP JUMPDEST PUSH1 0x1 DUP3 ADD SSTORE JUMPDEST PUSH1 0x1 SWAP1 SWAP2 ADD SWAP1 JUMPDEST POP PUSH2 0x4213 JUMP JUMPDEST PUSH1 0x0 DUP1 DUP1 DUP1 DUP5 ISZERO PUSH2 0x4737 JUMPI PUSH1 0x0 PUSH2 0x45AB DUP7 PUSH2 0x4B4E JUMP JUMPDEST PUSH1 0x40 DUP1 MLOAD PUSH4 0x1213D113 PUSH1 0xE2 SHL DUP2 MSTORE SWAP1 MLOAD SWAP1 DUP2 SWAP1 SUB PUSH1 0x4 ADD SWAP1 KECCAK256 SWAP1 SWAP2 POP PUSH2 0x45DA SWAP1 PUSH1 0xC SWAP1 ADDRESS PUSH4 0xFFFFFFFF PUSH2 0x3A27 AND JUMP JUMPDEST SWAP2 POP DUP2 DUP2 GT ISZERO PUSH2 0x45EA JUMPI DUP2 PUSH2 0x45EC JUMP JUMPDEST DUP1 JUMPDEST SWAP4 POP DUP4 ISZERO PUSH2 0x4735 JUMPI PUSH2 0x45FD DUP5 PUSH2 0x4B5A JUMP JUMPDEST PUSH1 0x40 DUP1 MLOAD DUP3 DUP2 MSTORE PUSH1 0x20 DUP2 ADD DUP8 SWAP1 MSTORE DUP2 MLOAD SWAP3 SWAP6 POP CALLER SWAP3 PUSH32 0xC7A2C2400CC73E0579846BF1A4A815FEA06F2B8E66C83D8F3DE8364D3D2EC289 SWAP3 SWAP2 DUP2 SWAP1 SUB SWAP1 SWAP2 ADD SWAP1 LOG2 PUSH1 0x40 DUP1 MLOAD PUSH4 0x1213D113 PUSH1 0xE2 SHL DUP2 MSTORE SWAP1 MLOAD SWAP1 DUP2 SWAP1 SUB PUSH1 0x4 ADD SWAP1 KECCAK256 PUSH2 0x466C SWAP1 PUSH1 0xC SWAP1 ADDRESS DUP8 PUSH1 0x0 PUSH4 0xFFFFFFFF PUSH2 0x2BF5 AND JUMP JUMPDEST PUSH1 0x40 DUP1 MLOAD PUSH4 0x1213D113 PUSH1 0xE2 SHL DUP2 MSTORE SWAP1 MLOAD SWAP1 DUP2 SWAP1 SUB PUSH1 0x4 ADD SWAP1 KECCAK256 PUSH2 0x469B SWAP1 PUSH1 0xC SWAP1 CALLER DUP8 PUSH1 0x0 PUSH4 0xFFFFFFFF PUSH2 0x2E06 AND JUMP JUMPDEST PUSH1 0x40 DUP1 MLOAD PUSH3 0x8AE8D PUSH1 0xEB SHL DUP2 MSTORE SWAP1 MLOAD SWAP1 DUP2 SWAP1 SUB PUSH1 0x3 ADD SWAP1 KECCAK256 PUSH2 0x46C9 SWAP1 PUSH1 0xC SWAP1 CALLER DUP7 PUSH1 0x0 PUSH4 0xFFFFFFFF PUSH2 0x2BF5 AND JUMP JUMPDEST PUSH1 0x40 DUP1 MLOAD PUSH3 0x8AE8D PUSH1 0xEB SHL DUP2 MSTORE SWAP1 MLOAD SWAP1 DUP2 SWAP1 SUB PUSH1 0x3 ADD SWAP1 KECCAK256 PUSH2 0x46F4 SWAP1 PUSH1 0xC SWAP1 DUP6 PUSH4 0xFFFFFFFF PUSH2 0x3063 AND JUMP JUMPDEST PUSH1 0x40 DUP1 MLOAD DUP1 DUP3 ADD SWAP1 SWAP2 MSTORE PUSH1 0xB DUP2 MSTORE PUSH11 0x486F646C44657820353035 PUSH1 0xA8 SHL PUSH1 0x20 DUP3 ADD MSTORE PUSH2 0x4729 SWAP1 DUP8 SWAP1 DUP6 SWAP1 PUSH4 0xFFFFFFFF PUSH2 0x48AB AND JUMP JUMPDEST SWAP6 POP PUSH2 0x4735 PUSH1 0x1 PUSH2 0x4065 JUMP JUMPDEST POP JUMPDEST POP SWAP3 SWAP4 SWAP3 POP POP POP JUMP JUMPDEST PUSH1 0x0 PUSH9 0x2B5E3AF16B1880000 PUSH2 0x4755 DUP4 PUSH2 0x2412 JUMP JUMPDEST GT DUP1 ISZERO PUSH2 0x4769 JUMPI POP PUSH2 0x4767 PUSH1 0x13 PUSH2 0x3FFE JUMP JUMPDEST ISZERO JUMPDEST ISZERO PUSH2 0x11AE JUMPI PUSH2 0x4776 PUSH2 0x4B71 JUMP JUMPDEST PUSH1 0x40 DUP1 MLOAD DUP5 DUP2 MSTORE SWAP1 MLOAD SWAP2 SWAP3 POP CALLER SWAP2 DUP4 SWAP2 PUSH32 0xADAE744503607B1AC6C8FEB1A54FB687ECBA33F5D4CC59FDDE26DD19DE99F0B5 SWAP2 SWAP1 DUP2 SWAP1 SUB PUSH1 0x20 ADD SWAP1 LOG3 PUSH1 0x0 DUP2 DUP2 MSTORE PUSH1 0x12 PUSH1 0x20 MSTORE PUSH1 0x40 SWAP1 KECCAK256 PUSH2 0x47D0 PUSH1 0x18 DUP4 PUSH4 0xFFFFFFFF PUSH2 0x4BBB AND JUMP JUMPDEST PUSH1 0x40 DUP1 MLOAD PUSH3 0x8AE8D PUSH1 0xEB SHL DUP2 MSTORE SWAP1 MLOAD SWAP1 DUP2 SWAP1 SUB PUSH1 0x3 ADD SWAP1 KECCAK256 PUSH2 0x47FE SWAP1 PUSH1 0xC SWAP1 CALLER DUP7 PUSH1 0x0 PUSH4 0xFFFFFFFF PUSH2 0x2BF5 AND JUMP JUMPDEST PUSH1 0x1 DUP2 ADD DUP4 SWAP1 SSTORE DUP1 SLOAD PUSH1 0x1 PUSH1 0x1 PUSH1 0xA0 SHL SUB NOT AND CALLER OR SWAP1 SSTORE SWAP2 SWAP1 POP JUMP JUMPDEST PUSH1 0x0 DUP3 DUP2 MSTORE PUSH1 0x4 DUP5 ADD PUSH1 0x20 MSTORE PUSH1 0x40 DUP2 KECCAK256 DUP2 SWAP1 DUP2 SWAP1 DUP2 PUSH2 0x483A DUP9 DUP9 DUP9 PUSH2 0x3A9B JUMP JUMPDEST SWAP1 POP DUP1 PUSH2 0x4853 JUMPI POP PUSH1 0x0 SWAP4 POP DUP4 SWAP3 POP DUP3 SWAP2 POP PUSH2 0x1D7E SWAP1 POP JUMP JUMPDEST PUSH1 0x1 PUSH1 0x1 PUSH1 0xA0 SHL SUB DUP7 AND PUSH1 0x0 SWAP1 DUP2 MSTORE PUSH1 0x1 DUP4 ADD PUSH1 0x20 MSTORE PUSH1 0x40 DUP2 KECCAK256 DUP1 SLOAD PUSH1 0x0 NOT DUP5 ADD SWAP1 DUP2 LT PUSH2 0x487D JUMPI INVALID JUMPDEST PUSH1 0x0 SWAP2 DUP3 MSTORE PUSH1 0x20 SWAP1 SWAP2 KECCAK256 PUSH1 0x3 SWAP1 SWAP2 MUL ADD DUP1 SLOAD PUSH1 0x2 DUP3 ADD SLOAD PUSH1 0x1 SWAP1 SWAP3 ADD SLOAD SWAP1 SWAP12 SWAP2 SWAP11 POP SWAP9 POP SWAP7 POP POP POP POP POP POP POP JUMP JUMPDEST PUSH1 0x0 DUP2 DUP5 DUP5 GT ISZERO PUSH2 0x493A JUMPI PUSH1 0x40 MLOAD PUSH3 0x461BCD PUSH1 0xE5 SHL DUP2 MSTORE PUSH1 0x4 ADD DUP1 DUP1 PUSH1 0x20 ADD DUP3 DUP2 SUB DUP3 MSTORE DUP4 DUP2 DUP2 MLOAD DUP2 MSTORE PUSH1 0x20 ADD SWAP2 POP DUP1 MLOAD SWAP1 PUSH1 0x20 ADD SWAP1 DUP1 DUP4 DUP4 PUSH1 0x0 JUMPDEST DUP4 DUP2 LT ISZERO PUSH2 0x48FF JUMPI DUP2 DUP2 ADD MLOAD DUP4 DUP3 ADD MSTORE PUSH1 0x20 ADD PUSH2 0x48E7 JUMP JUMPDEST POP POP POP POP SWAP1 POP SWAP1 DUP2 ADD SWAP1 PUSH1 0x1F AND DUP1 ISZERO PUSH2 0x492C JUMPI DUP1 DUP3 SUB DUP1 MLOAD PUSH1 0x1 DUP4 PUSH1 0x20 SUB PUSH2 0x100 EXP SUB NOT AND DUP2 MSTORE PUSH1 0x20 ADD SWAP2 POP JUMPDEST POP SWAP3 POP POP POP PUSH1 0x40 MLOAD DUP1 SWAP2 SUB SWAP1 REVERT JUMPDEST POP POP POP SWAP1 SUB SWAP1 JUMP JUMPDEST PUSH1 0x0 DUP2 DUP2 MSTORE PUSH1 0x4 DUP4 ADD PUSH1 0x20 MSTORE PUSH1 0x40 DUP2 KECCAK256 DUP1 SLOAD SWAP1 SWAP2 SWAP1 DUP3 SWAP1 PUSH1 0x0 NOT DUP2 ADD SWAP1 DUP2 LT PUSH2 0x4967 JUMPI INVALID JUMPDEST SWAP1 PUSH1 0x0 MSTORE PUSH1 0x20 PUSH1 0x0 KECCAK256 SWAP1 PUSH1 0x3 MUL ADD SWAP1 POP PUSH1 0x0 PUSH2 0x4982 DUP6 PUSH2 0x40E4 JUMP JUMPDEST SWAP1 POP PUSH2 0x498D DUP6 PUSH2 0x4F33 JUMP JUMPDEST DUP3 SSTORE PUSH2 0x4997 PUSH2 0x51AF JUMP JUMPDEST POP PUSH1 0x40 DUP1 MLOAD PUSH1 0x60 DUP1 DUP3 ADD DUP4 MSTORE PUSH1 0x0 DUP1 DUP4 MSTORE PUSH1 0x20 DUP1 DUP5 ADD DUP3 DUP2 MSTORE DUP5 DUP7 ADD DUP8 DUP2 MSTORE DUP10 SLOAD PUSH1 0x1 DUP2 DUP2 ADD DUP13 SSTORE DUP12 DUP7 MSTORE SWAP5 DUP5 SWAP1 KECCAK256 DUP8 MLOAD PUSH1 0x3 SWAP1 SWAP3 MUL ADD SWAP1 DUP2 SSTORE SWAP2 MLOAD DUP3 DUP6 ADD SSTORE MLOAD PUSH1 0x2 SWAP2 DUP3 ADD SSTORE SWAP2 DUP8 ADD SLOAD DUP8 SLOAD SWAP3 DUP9 ADD SLOAD DUP7 MLOAD CALLER DUP2 MSTORE SWAP3 DUP4 ADD SWAP2 SWAP1 SWAP2 MSTORE DUP2 DUP7 ADD SWAP3 SWAP1 SWAP3 MSTORE SWAP2 DUP3 ADD MSTORE PUSH1 0x80 DUP2 ADD DUP5 SWAP1 MSTORE SWAP2 MLOAD SWAP1 SWAP2 DUP7 SWAP2 PUSH32 0xD4B8133B244CFEC82D848130189D3C9787263ECBCF6D4432F2D167642547D90 SWAP2 DUP2 SWAP1 SUB PUSH1 0xA0 ADD SWAP1 LOG2 POP POP POP POP POP POP JUMP JUMPDEST PUSH1 0x0 PUSH2 0x1A9E PUSH1 0x3 DUP5 ADD DUP4 PUSH4 0xFFFFFFFF PUSH2 0x4FAC AND JUMP JUMPDEST PUSH2 0x4A5D DUP3 DUP3 PUSH2 0x4FAC JUMP JUMPDEST PUSH2 0x4A98 JUMPI PUSH1 0x40 MLOAD PUSH3 0x461BCD PUSH1 0xE5 SHL DUP2 MSTORE PUSH1 0x4 ADD DUP1 DUP1 PUSH1 0x20 ADD DUP3 DUP2 SUB DUP3 MSTORE PUSH1 0x2A DUP2 MSTORE PUSH1 0x20 ADD DUP1 PUSH2 0x5222 PUSH1 0x2A SWAP2 CODECOPY PUSH1 0x40 ADD SWAP2 POP POP PUSH1 0x40 MLOAD DUP1 SWAP2 SUB SWAP1 REVERT JUMPDEST PUSH1 0x0 PUSH1 0x1 PUSH2 0x4AA5 DUP5 PUSH2 0x37F6 JUMP JUMPDEST PUSH1 0x0 DUP5 DUP2 MSTORE PUSH1 0x20 DUP7 SWAP1 MSTORE PUSH1 0x40 SWAP1 KECCAK256 SLOAD SWAP2 SWAP1 SUB SWAP2 POP DUP1 DUP3 EQ PUSH2 0x4B16 JUMPI PUSH1 0x0 DUP5 PUSH1 0x1 ADD DUP4 DUP2 SLOAD DUP2 LT PUSH2 0x4AD1 JUMPI INVALID JUMPDEST SWAP1 PUSH1 0x0 MSTORE PUSH1 0x20 PUSH1 0x0 KECCAK256 ADD SLOAD SWAP1 POP DUP2 DUP6 PUSH1 0x0 ADD PUSH1 0x0 DUP4 DUP2 MSTORE PUSH1 0x20 ADD SWAP1 DUP2 MSTORE PUSH1 0x20 ADD PUSH1 0x0 KECCAK256 DUP2 SWAP1 SSTORE POP DUP1 DUP6 PUSH1 0x1 ADD DUP4 DUP2 SLOAD DUP2 LT PUSH2 0x4B08 JUMPI INVALID JUMPDEST PUSH1 0x0 SWAP2 DUP3 MSTORE PUSH1 0x20 SWAP1 SWAP2 KECCAK256 ADD SSTORE POP JUMPDEST PUSH1 0x0 DUP4 DUP2 MSTORE PUSH1 0x20 DUP6 SWAP1 MSTORE PUSH1 0x40 DUP2 KECCAK256 SSTORE PUSH1 0x1 DUP5 ADD DUP1 SLOAD DUP1 PUSH2 0x4B32 JUMPI INVALID JUMPDEST PUSH1 0x1 SWAP1 SUB DUP2 DUP2 SWAP1 PUSH1 0x0 MSTORE PUSH1 0x20 PUSH1 0x0 KECCAK256 ADD PUSH1 0x0 SWAP1 SSTORE SWAP1 SSTORE POP POP POP POP JUMP JUMPDEST PUSH1 0x0 DUP1 PUSH2 0x119F DUP4 PUSH2 0x4FF4 JUMP JUMPDEST PUSH1 0x0 DUP1 PUSH2 0x4B66 DUP4 PUSH2 0x2224 JUMP JUMPDEST SWAP1 POP PUSH2 0x11AA DUP2 PUSH2 0x501A JUMP JUMPDEST PUSH1 0x8 DUP1 SLOAD PUSH1 0x1 ADD SWAP1 DUP2 SWAP1 SSTORE PUSH1 0x40 DUP1 MLOAD ADDRESS PUSH1 0x60 SWAP1 DUP2 SHL PUSH1 0x20 DUP1 DUP5 ADD SWAP2 SWAP1 SWAP2 MSTORE CALLER SWAP1 SWAP2 SHL PUSH1 0x34 DUP4 ADD MSTORE PUSH1 0x48 DUP1 DUP4 ADD SWAP5 SWAP1 SWAP5 MSTORE DUP3 MLOAD DUP1 DUP4 SUB SWAP1 SWAP5 ADD DUP5 MSTORE PUSH1 0x68 SWAP1 SWAP2 ADD SWAP1 SWAP2 MSTORE DUP2 MLOAD SWAP2 ADD KECCAK256 SWAP1 JUMP JUMPDEST DUP1 PUSH2 0x4C0D JUMPI PUSH1 0x40 DUP1 MLOAD PUSH3 0x461BCD PUSH1 0xE5 SHL DUP2 MSTORE PUSH1 0x20 PUSH1 0x4 DUP3 ADD MSTORE PUSH1 0x1B PUSH1 0x24 DUP3 ADD MSTORE PUSH32 0x4649464F5365743A206B65792063616E6E6F74206265207A65726F0000000000 PUSH1 0x44 DUP3 ADD MSTORE SWAP1 MLOAD SWAP1 DUP2 SWAP1 SUB PUSH1 0x64 ADD SWAP1 REVERT JUMPDEST PUSH2 0x4C17 DUP3 DUP3 PUSH2 0x4A3E JUMP JUMPDEST ISZERO PUSH2 0x4C62 JUMPI PUSH1 0x40 DUP1 MLOAD PUSH3 0x461BCD PUSH1 0xE5 SHL DUP2 MSTORE PUSH1 0x20 PUSH1 0x4 DUP3 ADD MSTORE PUSH1 0x16 PUSH1 0x24 DUP3 ADD MSTORE PUSH22 0x4649464F5365743A206475706C6963617465206B6579 PUSH1 0x50 SHL PUSH1 0x44 DUP3 ADD MSTORE SWAP1 MLOAD SWAP1 DUP2 SWAP1 SUB PUSH1 0x64 ADD SWAP1 REVERT JUMPDEST PUSH1 0x1 DUP3 ADD SLOAD PUSH1 0x0 DUP3 DUP2 MSTORE PUSH1 0x2 DUP5 ADD PUSH1 0x20 MSTORE PUSH1 0x40 DUP1 DUP3 KECCAK256 DUP4 DUP4 MSTORE SWAP2 KECCAK256 DUP3 PUSH2 0x4C8A JUMPI DUP4 DUP6 SSTORE PUSH2 0x4C8E JUMP JUMPDEST DUP4 DUP2 SSTORE JUMPDEST PUSH1 0x1 DUP3 ADD DUP4 SWAP1 SSTORE PUSH2 0x4CA8 PUSH1 0x3 DUP7 ADD DUP6 PUSH4 0xFFFFFFFF PUSH2 0x5030 AND JUMP JUMPDEST POP POP POP PUSH1 0x1 SWAP1 SWAP2 ADD SSTORE JUMP JUMPDEST PUSH2 0x1881 DUP3 DUP3 PUSH1 0x0 PUSH2 0x3063 JUMP JUMPDEST PUSH1 0x0 PUSH2 0x1A9E DUP4 PUSH1 0x1 PUSH1 0x1 PUSH1 0xA0 SHL SUB DUP5 AND PUSH2 0x509F JUMP JUMPDEST PUSH1 0x0 PUSH2 0x1A9E DUP4 PUSH1 0x1 PUSH1 0x1 PUSH1 0xA0 SHL SUB DUP5 AND PUSH2 0x50E9 JUMP JUMPDEST DUP2 SLOAD PUSH1 0x0 SWAP1 PUSH1 0x1 DUP4 ADD LT ISZERO PUSH2 0x4D23 JUMPI DUP3 PUSH1 0x0 ADD DUP3 PUSH1 0x1 ADD DUP2 SLOAD DUP2 LT PUSH2 0x4D0A JUMPI INVALID JUMPDEST SWAP1 PUSH1 0x0 MSTORE PUSH1 0x20 PUSH1 0x0 KECCAK256 SWAP1 PUSH1 0x3 MUL ADD PUSH1 0x2 ADD SLOAD SWAP1 POP PUSH2 0x17D5 JUMP JUMPDEST POP PUSH8 0xDE0B6B3A7640000 SWAP3 SWAP2 POP POP JUMP JUMPDEST PUSH1 0x3 DUP3 ADD SLOAD PUSH1 0x0 SWAP1 DUP2 MSTORE PUSH1 0x4 DUP4 ADD PUSH1 0x20 MSTORE PUSH1 0x40 DUP2 KECCAK256 DUP1 SLOAD PUSH1 0x1 DUP5 ADD LT ISZERO PUSH2 0x4D7F JUMPI DUP1 PUSH1 0x0 ADD DUP4 PUSH1 0x1 ADD DUP2 SLOAD DUP2 LT PUSH2 0x4D66 JUMPI INVALID JUMPDEST SWAP1 PUSH1 0x0 MSTORE PUSH1 0x20 PUSH1 0x0 KECCAK256 SWAP1 PUSH1 0x3 MUL ADD PUSH1 0x2 ADD SLOAD SWAP2 POP PUSH2 0x4D8B JUMP JUMPDEST PUSH8 0xDE0B6B3A763FFFF SWAP2 POP JUMPDEST POP SWAP3 SWAP2 POP POP JUMP JUMPDEST PUSH1 0x3 DUP5 ADD SLOAD PUSH1 0x0 SWAP1 DUP2 MSTORE PUSH1 0x4 DUP6 ADD PUSH1 0x20 MSTORE PUSH1 0x40 SWAP1 KECCAK256 SLOAD DUP2 LT ISZERO PUSH2 0x4DE0 JUMPI PUSH1 0x0 DUP4 DUP2 MSTORE PUSH1 0x4 DUP6 ADD PUSH1 0x20 SWAP1 DUP2 MSTORE PUSH1 0x40 DUP1 DUP4 KECCAK256 PUSH1 0x1 PUSH1 0x1 PUSH1 0xA0 SHL SUB DUP7 AND DUP5 MSTORE PUSH1 0x1 SWAP1 DUP2 ADD SWAP1 SWAP3 MSTORE SWAP1 SWAP2 KECCAK256 DUP2 DUP4 ADD SWAP2 ADD SSTORE JUMPDEST POP POP POP POP JUMP JUMPDEST PUSH1 0x3 DUP5 ADD SLOAD PUSH1 0x0 SWAP1 DUP2 MSTORE PUSH1 0x4 DUP6 ADD PUSH1 0x20 SWAP1 DUP2 MSTORE PUSH1 0x40 DUP1 DUP4 KECCAK256 PUSH1 0x1 PUSH1 0x1 PUSH1 0xA0 SHL SUB DUP7 AND DUP5 MSTORE PUSH1 0x1 ADD SWAP1 SWAP2 MSTORE SWAP1 KECCAK256 SLOAD DUP2 LT ISZERO PUSH2 0x4DE0 JUMPI PUSH1 0x0 SWAP3 DUP4 MSTORE PUSH1 0x4 SWAP4 SWAP1 SWAP4 ADD PUSH1 0x20 SWAP1 DUP2 MSTORE PUSH1 0x40 DUP1 DUP5 KECCAK256 PUSH1 0x1 PUSH1 0x1 PUSH1 0xA0 SHL SUB SWAP4 SWAP1 SWAP4 AND DUP5 MSTORE PUSH1 0x1 SWAP3 DUP4 ADD SWAP1 SWAP2 MSTORE SWAP1 SWAP2 KECCAK256 SWAP2 ADD PUSH1 0x2 SWAP1 SWAP2 ADD SSTORE JUMP JUMPDEST PUSH1 0x0 DUP2 DUP4 PUSH2 0x4EA1 JUMPI PUSH1 0x40 MLOAD PUSH3 0x461BCD PUSH1 0xE5 SHL DUP2 MSTORE PUSH1 0x20 PUSH1 0x4 DUP3 ADD DUP2 DUP2 MSTORE DUP4 MLOAD PUSH1 0x24 DUP5 ADD MSTORE DUP4 MLOAD SWAP1 SWAP3 DUP4 SWAP3 PUSH1 0x44 SWAP1 SWAP2 ADD SWAP2 SWAP1 DUP6 ADD SWAP1 DUP1 DUP4 DUP4 PUSH1 0x0 DUP4 ISZERO PUSH2 0x48FF JUMPI DUP2 DUP2 ADD MLOAD DUP4 DUP3 ADD MSTORE PUSH1 0x20 ADD PUSH2 0x48E7 JUMP JUMPDEST POP PUSH1 0x0 DUP4 DUP6 DUP2 PUSH2 0x4EAD JUMPI INVALID JUMPDEST DIV SWAP6 SWAP5 POP POP POP POP POP JUMP JUMPDEST DUP2 SLOAD PUSH1 0x0 SWAP1 DUP3 LT PUSH2 0x4EF9 JUMPI PUSH1 0x40 MLOAD PUSH3 0x461BCD PUSH1 0xE5 SHL DUP2 MSTORE PUSH1 0x4 ADD DUP1 DUP1 PUSH1 0x20 ADD DUP3 DUP2 SUB DUP3 MSTORE PUSH1 0x22 DUP2 MSTORE PUSH1 0x20 ADD DUP1 PUSH2 0x51D1 PUSH1 0x22 SWAP2 CODECOPY PUSH1 0x40 ADD SWAP2 POP POP PUSH1 0x40 MLOAD DUP1 SWAP2 SUB SWAP1 REVERT JUMPDEST DUP3 PUSH1 0x0 ADD DUP3 DUP2 SLOAD DUP2 LT PUSH2 0x4F08 JUMPI INVALID JUMPDEST SWAP1 PUSH1 0x0 MSTORE PUSH1 0x20 PUSH1 0x0 KECCAK256 ADD SLOAD SWAP1 POP SWAP3 SWAP2 POP POP JUMP JUMPDEST PUSH1 0x0 SWAP1 DUP2 MSTORE PUSH1 0x1 SWAP2 SWAP1 SWAP2 ADD PUSH1 0x20 MSTORE PUSH1 0x40 SWAP1 KECCAK256 SLOAD ISZERO ISZERO SWAP1 JUMP JUMPDEST PUSH1 0x2 DUP2 ADD SLOAD PUSH1 0x40 DUP1 MLOAD PUSH4 0x9358928B PUSH1 0xE0 SHL DUP2 MSTORE SWAP1 MLOAD PUSH1 0x0 SWAP3 PUSH1 0x1 PUSH1 0x1 PUSH1 0xA0 SHL SUB AND SWAP2 PUSH4 0x9358928B SWAP2 PUSH1 0x4 DUP1 DUP4 ADD SWAP3 PUSH1 0x20 SWAP3 SWAP2 SWAP1 DUP3 SWAP1 SUB ADD DUP2 DUP7 DUP1 EXTCODESIZE ISZERO DUP1 ISZERO PUSH2 0x4F7A JUMPI PUSH1 0x0 DUP1 REVERT JUMPDEST POP GAS STATICCALL ISZERO DUP1 ISZERO PUSH2 0x4F8E JUMPI RETURNDATASIZE PUSH1 0x0 DUP1 RETURNDATACOPY RETURNDATASIZE PUSH1 0x0 REVERT JUMPDEST POP POP POP POP PUSH1 0x40 MLOAD RETURNDATASIZE PUSH1 0x20 DUP2 LT ISZERO PUSH2 0x4FA4 JUMPI PUSH1 0x0 DUP1 REVERT JUMPDEST POP MLOAD SWAP3 SWAP2 POP POP JUMP JUMPDEST PUSH1 0x1 DUP3 ADD SLOAD PUSH1 0x0 SWAP1 PUSH2 0x4FC0 JUMPI POP PUSH1 0x0 PUSH2 0x17D5 JUMP JUMPDEST PUSH1 0x0 DUP3 DUP2 MSTORE PUSH1 0x20 DUP5 SWAP1 MSTORE PUSH1 0x40 SWAP1 KECCAK256 SLOAD PUSH1 0x1 DUP5 ADD DUP1 SLOAD DUP5 SWAP3 SWAP1 DUP2 LT PUSH2 0x4FE0 JUMPI INVALID JUMPDEST SWAP1 PUSH1 0x0 MSTORE PUSH1 0x20 PUSH1 0x0 KECCAK256 ADD SLOAD EQ SWAP1 POP SWAP3 SWAP2 POP POP JUMP JUMPDEST PUSH1 0x0 PUSH2 0x17D5 PUSH8 0xDE0B6B3A7640000 PUSH2 0x1D1E PUSH2 0x500D PUSH2 0x36E4 JUMP JUMPDEST DUP6 SWAP1 PUSH4 0xFFFFFFFF PUSH2 0x3D76 AND JUMP JUMPDEST PUSH1 0x0 PUSH2 0x17D5 PUSH2 0x2269 PUSH8 0xDE0B6B3A7640000 PUSH2 0x4FF4 JUMP JUMPDEST PUSH2 0x503A DUP3 DUP3 PUSH2 0x4FAC JUMP JUMPDEST ISZERO PUSH2 0x5076 JUMPI PUSH1 0x40 MLOAD PUSH3 0x461BCD PUSH1 0xE5 SHL DUP2 MSTORE PUSH1 0x4 ADD DUP1 DUP1 PUSH1 0x20 ADD DUP3 DUP2 SUB DUP3 MSTORE PUSH1 0x2A DUP2 MSTORE PUSH1 0x20 ADD DUP1 PUSH2 0x530D PUSH1 0x2A SWAP2 CODECOPY PUSH1 0x40 ADD SWAP2 POP POP PUSH1 0x40 MLOAD DUP1 SWAP2 SUB SWAP1 REVERT JUMPDEST PUSH1 0x1 DUP1 DUP4 ADD DUP1 SLOAD PUSH1 0x0 DUP5 DUP2 MSTORE PUSH1 0x20 SWAP6 DUP7 MSTORE PUSH1 0x40 DUP2 KECCAK256 DUP3 SWAP1 SSTORE SWAP3 DUP2 ADD DUP3 SSTORE SWAP1 DUP3 MSTORE SWAP3 SWAP1 KECCAK256 SWAP1 SWAP2 ADD SSTORE JUMP JUMPDEST PUSH1 0x0 PUSH2 0x50AB DUP4 DUP4 PUSH2 0x4F1B JUMP JUMPDEST PUSH2 0x50E1 JUMPI POP DUP2 SLOAD PUSH1 0x1 DUP2 DUP2 ADD DUP5 SSTORE PUSH1 0x0 DUP5 DUP2 MSTORE PUSH1 0x20 DUP1 DUP3 KECCAK256 SWAP1 SWAP4 ADD DUP5 SWAP1 SSTORE DUP5 SLOAD DUP5 DUP3 MSTORE DUP3 DUP7 ADD SWAP1 SWAP4 MSTORE PUSH1 0x40 SWAP1 KECCAK256 SWAP2 SWAP1 SWAP2 SSTORE PUSH2 0x17D5 JUMP JUMPDEST POP PUSH1 0x0 PUSH2 0x17D5 JUMP JUMPDEST PUSH1 0x0 DUP2 DUP2 MSTORE PUSH1 0x1 DUP4 ADD PUSH1 0x20 MSTORE PUSH1 0x40 DUP2 KECCAK256 SLOAD DUP1 ISZERO PUSH2 0x51A5 JUMPI DUP4 SLOAD PUSH1 0x0 NOT DUP1 DUP4 ADD SWAP2 SWAP1 DUP2 ADD SWAP1 PUSH1 0x0 SWAP1 DUP8 SWAP1 DUP4 SWAP1 DUP2 LT PUSH2 0x511C JUMPI INVALID JUMPDEST SWAP1 PUSH1 0x0 MSTORE PUSH1 0x20 PUSH1 0x0 KECCAK256 ADD SLOAD SWAP1 POP DUP1 DUP8 PUSH1 0x0 ADD DUP5 DUP2 SLOAD DUP2 LT PUSH2 0x5139 JUMPI INVALID JUMPDEST PUSH1 0x0 SWAP2 DUP3 MSTORE PUSH1 0x20 DUP1 DUP4 KECCAK256 SWAP1 SWAP2 ADD SWAP3 SWAP1 SWAP3 SSTORE DUP3 DUP2 MSTORE PUSH1 0x1 DUP10 DUP2 ADD SWAP1 SWAP3 MSTORE PUSH1 0x40 SWAP1 KECCAK256 SWAP1 DUP5 ADD SWAP1 SSTORE DUP7 SLOAD DUP8 SWAP1 DUP1 PUSH2 0x5169 JUMPI INVALID JUMPDEST PUSH1 0x1 SWAP1 SUB DUP2 DUP2 SWAP1 PUSH1 0x0 MSTORE PUSH1 0x20 PUSH1 0x0 KECCAK256 ADD PUSH1 0x0 SWAP1 SSTORE SWAP1 SSTORE DUP7 PUSH1 0x1 ADD PUSH1 0x0 DUP8 DUP2 MSTORE PUSH1 0x20 ADD SWAP1 DUP2 MSTORE PUSH1 0x20 ADD PUSH1 0x0 KECCAK256 PUSH1 0x0 SWAP1 SSTORE PUSH1 0x1 SWAP5 POP POP POP POP POP PUSH2 0x17D5 JUMP JUMPDEST PUSH1 0x0 SWAP2 POP POP PUSH2 0x17D5 JUMP JUMPDEST PUSH1 0x40 MLOAD DUP1 PUSH1 0x60 ADD PUSH1 0x40 MSTORE DUP1 PUSH1 0x0 DUP2 MSTORE PUSH1 0x20 ADD PUSH1 0x0 DUP2 MSTORE PUSH1 0x20 ADD PUSH1 0x0 DUP2 MSTORE POP SWAP1 JUMP INVALID GASLIMIT PUSH15 0x756D657261626C655365743A20696E PUSH5 0x6578206F75 PUSH21 0x206F6620626F756E6473416363657373436F6E7472 PUSH16 0x6C3A2073656E646572206D7573742062 PUSH6 0x20616E206164 PUSH14 0x696E20746F206772616E74427974 PUSH6 0x733332536574 GASPRICE KECCAK256 PUSH12 0x657920646F6573206E6F7420 PUSH6 0x786973742069 PUSH15 0x20746865207365742E486F646C6544 PUSH6 0x7820756E696E PUSH10 0x7469616C697A65642E00 STOP STOP STOP STOP STOP STOP STOP STOP COINBASE PUSH4 0x63657373 NUMBER PUSH16 0x6E74726F6C3A2073656E646572206D75 PUSH20 0x7420626520616E2061646D696E20746F20726576 PUSH16 0x6B65596F75206D7573742073656E6420 GASLIMIT PUSH21 0x6820746F20746869732066756E6374696F6E496E69 PUSH21 0x69616C697A61626C653A20636F6E74726163742069 PUSH20 0x20616C726561647920696E697469616C697A6564 MSTORE8 PUSH2 0x6665 0x4D PUSH2 0x7468 GASPRICE KECCAK256 PUSH14 0x756C7469706C69636174696F6E20 PUSH16 0x766572666C6F77427974657333325365 PUSH21 0x3A206B657920616C72656164792065786973747320 PUSH10 0x6E20746865207365742E COINBASE PUSH4 0x63657373 NUMBER PUSH16 0x6E74726F6C3A2063616E206F6E6C7920 PUSH19 0x656E6F756E636520726F6C657320666F722073 PUSH6 0x6C66A2646970 PUSH7 0x7358221220B996 0xC7 0x22 SWAP3 GAS 0xBA STATICCALL PUSH19 0xBF3FF7075B8718C8DF39C07CAB8E46C5D43CC5 0x5E DIV CODESIZE DUP8 PUSH5 0x736F6C6343 STOP MOD MOD STOP CALLER "
		},
		"gasEstimates": {
			"creation": {
				"codeDepositCost": "4280600",
				"executionCost": "4915",
				"totalCost": "4285515"
			},
			"external": {
				"ADMIN_ROLE()": "351",
				"DEFAULT_ADMIN_ROLE()": "265",
				"ETH_ASSET()": "394",
				"ETH_USD()": "1153",
				"HODL_ASSET()": "349",
				"MIGRATION_ROLE()": "416",
				"ORACLE_ROLE()": "374",
				"RESERVE_ROLE()": "351",
				"accrualDaysProcessed()": "1087",
				"adminSetOracle(address)": "infinite",
				"allocateDistribution(uint256)": "infinite",
				"buyHodlC(uint256,uint256)": "infinite",
				"buyOrder(bytes32)": "2105",
				"buyOrderCount()": "1153",
				"buyOrderFirst()": "1168",
				"buyOrderIterate(bytes32)": "infinite",
				"buyOrderLast()": "1173",
				"cancelBuy(bytes32)": "infinite",
				"cancelSell(bytes32)": "infinite",
				"circulatingSupply()": "infinite",
				"claimEthDistribution()": "infinite",
				"claimHodlDistribution()": "infinite",
				"convertEthToHodl(uint256)": "infinite",
				"convertEthToUsd(uint256)": "infinite",
				"convertHodlToEth(uint256)": "infinite",
				"convertHodlToUsd(uint256)": "infinite",
				"convertUsdToEth(uint256)": "infinite",
				"convertUsdToHodl(uint256)": "infinite",
				"depositEth()": "infinite",
				"distributionAtIndex(bytes32,uint256)": "infinite",
				"distributionCount(bytes32)": "infinite",
				"entropy_counter()": "1154",
				"error_count()": "1089",
				"eth_usd_block()": "1087",
				"getEthToUsd()": "infinite",
				"getRoleAdmin(bytes32)": "1202",
				"getRoleMember(bytes32,uint256)": "infinite",
				"getRoleMemberCount(bytes32)": "infinite",
				"grantRole(bytes32,address)": "infinite",
				"hasRole(bytes32,address)": "infinite",
				"hodlTIssue(uint256)": "infinite",
				"hodlTRedeem(uint256)": "infinite",
				"increaseTransactionCount(uint256)": "infinite",
				"init(address,address)": "infinite",
				"initResetUser(address)": "infinite",
				"initSetDailyAccrualRate(uint256)": "infinite",
				"initUser(address,uint256)": "infinite",
				"isAccruing()": "infinite",
				"isConfigured()": "1139",
				"isRunning()": "infinite",
				"nextUserDistributionDetails(address,bytes32)": "infinite",
				"oracleContract()": "1105",
				"oracleSetEthUsd(uint256)": "infinite",
				"orderLimit()": "infinite",
				"period()": "infinite",
				"poke()": "infinite",
				"rates()": "infinite",
				"renounceRole(bytes32,address)": "infinite",
				"revokeRole(bytes32,address)": "infinite",
				"sellHodlC(uint256,uint256)": "infinite",
				"sellOrder(bytes32)": "2953",
				"sellOrderCount()": "1218",
				"sellOrderFirst()": "1123",
				"sellOrderIterate(bytes32)": "infinite",
				"sellOrderLast()": "1175",
				"tokenReserveContract()": "1192",
				"user(address)": "infinite",
				"userBalanceAtIndex(bytes32,address,uint256)": "infinite",
				"userBalanceCount(bytes32,address)": "infinite",
				"withdrawEth(uint256)": "infinite"
			},
			"internal": {
				"_accrueByTime()": "infinite",
				"_buyFromReserve(uint256)": "infinite",
				"_convertEthToHodl(uint256)": "infinite",
				"_convertEthToUsd(uint256)": "infinite",
				"_convertHodlToEth(uint256)": "infinite",
				"_convertUsdToEth(uint256)": "infinite",
				"_fillBuyOrders(uint256,uint256)": "infinite",
				"_fillSellOrders(uint256,uint256)": "infinite",
				"_increaseTransactionCount(uint256)": "infinite",
				"_openBuyOrder(uint256)": "infinite",
				"_openSellOrder(uint256)": "infinite",
				"_setEthToUsd()": "infinite",
				"keyGen()": "infinite"
			}
		},
		"methodIdentifiers": {
			"ADMIN_ROLE()": "75b238fc",
			"DEFAULT_ADMIN_ROLE()": "a217fddf",
			"ETH_ASSET()": "284fef4b",
			"ETH_USD()": "6260f55b",
			"HODL_ASSET()": "4f8c4a45",
			"MIGRATION_ROLE()": "39c6d4cb",
			"ORACLE_ROLE()": "07e2cea5",
			"RESERVE_ROLE()": "191fd57d",
			"accrualDaysProcessed()": "d26d1fe6",
			"adminSetOracle(address)": "2949f19e",
			"allocateDistribution(uint256)": "0cc6e019",
			"buyHodlC(uint256,uint256)": "f4f06eed",
			"buyOrder(bytes32)": "8eb6ac7a",
			"buyOrderCount()": "d1e3175a",
			"buyOrderFirst()": "4d7de20c",
			"buyOrderIterate(bytes32)": "bcffe5f4",
			"buyOrderLast()": "bc500409",
			"cancelBuy(bytes32)": "1b7c7ea7",
			"cancelSell(bytes32)": "164cded6",
			"circulatingSupply()": "9358928b",
			"claimEthDistribution()": "e2ee29c3",
			"claimHodlDistribution()": "376fe05b",
			"convertEthToHodl(uint256)": "0ef8e550",
			"convertEthToUsd(uint256)": "c086381e",
			"convertHodlToEth(uint256)": "2cdf21f3",
			"convertHodlToUsd(uint256)": "9e3202c9",
			"convertUsdToEth(uint256)": "a3053e2a",
			"convertUsdToHodl(uint256)": "947b9383",
			"depositEth()": "439370b1",
			"distributionAtIndex(bytes32,uint256)": "1d8f8f4b",
			"distributionCount(bytes32)": "2b0eec97",
			"entropy_counter()": "3fb7a0ab",
			"error_count()": "1b4d7677",
			"eth_usd_block()": "e77349e7",
			"getEthToUsd()": "f5f593a7",
			"getRoleAdmin(bytes32)": "248a9ca3",
			"getRoleMember(bytes32,uint256)": "9010d07c",
			"getRoleMemberCount(bytes32)": "ca15c873",
			"grantRole(bytes32,address)": "2f2ff15d",
			"hasRole(bytes32,address)": "91d14854",
			"hodlTIssue(uint256)": "076299de",
			"hodlTRedeem(uint256)": "5f07cbc2",
			"increaseTransactionCount(uint256)": "e84abef1",
			"init(address,address)": "f09a4016",
			"initResetUser(address)": "2f81b5df",
			"initSetDailyAccrualRate(uint256)": "7b4e610a",
			"initUser(address,uint256)": "b1eb816f",
			"isAccruing()": "896e9ce0",
			"isConfigured()": "d3a057c8",
			"isRunning()": "2014e5d1",
			"nextUserDistributionDetails(address,bytes32)": "2b6fb51d",
			"oracleContract()": "bece7532",
			"oracleSetEthUsd(uint256)": "ece7ddbf",
			"orderLimit()": "75c303c9",
			"period()": "ef78d4fd",
			"poke()": "18178358",
			"rates()": "43f48fbd",
			"renounceRole(bytes32,address)": "36568abe",
			"revokeRole(bytes32,address)": "d547741f",
			"sellHodlC(uint256,uint256)": "16f30a7b",
			"sellOrder(bytes32)": "61d21875",
			"sellOrderCount()": "f58c7acf",
			"sellOrderFirst()": "519baf94",
			"sellOrderIterate(bytes32)": "84433221",
			"sellOrderLast()": "1911e522",
			"tokenReserveContract()": "e286bca5",
			"user(address)": "81e7e20e",
			"userBalanceAtIndex(bytes32,address,uint256)": "46debf31",
			"userBalanceCount(bytes32,address)": "363ecbc0",
			"withdrawEth(uint256)": "c311d049"
		}
	},
	"abi": [
		{
			"anonymous": false,
			"inputs": [
				{
					"indexed": false,
					"internalType": "address",
					"name": "sender",
					"type": "address"
				},
				{
					"indexed": false,
					"internalType": "uint256",
					"name": "hodlUsdNow",
					"type": "uint256"
				},
				{
					"indexed": false,
					"internalType": "uint256",
					"name": "dailyAccrualRateNow",
					"type": "uint256"
				}
			],
			"name": "AccrueByTime",
			"type": "event"
		},
		{
			"anonymous": false,
			"inputs": [
				{
					"indexed": true,
					"internalType": "address",
					"name": "buyer",
					"type": "address"
				},
				{
					"indexed": false,
					"internalType": "uint256",
					"name": "txnEth",
					"type": "uint256"
				},
				{
					"indexed": false,
					"internalType": "uint256",
					"name": "txnHodl",
					"type": "uint256"
				}
			],
			"name": "BuyFromReserve",
			"type": "event"
		},
		{
			"anonymous": false,
			"inputs": [
				{
					"indexed": true,
					"internalType": "address",
					"name": "buyer",
					"type": "address"
				},
				{
					"indexed": false,
					"internalType": "uint256",
					"name": "amountEth",
					"type": "uint256"
				},
				{
					"indexed": false,
					"internalType": "uint256",
					"name": "lowGas",
					"type": "uint256"
				}
			],
			"name": "BuyHodlCRequested",
			"type": "event"
		},
		{
			"anonymous": false,
			"inputs": [
				{
					"indexed": true,
					"internalType": "address",
					"name": "userAddr",
					"type": "address"
				},
				{
					"indexed": true,
					"internalType": "bytes32",
					"name": "orderId",
					"type": "bytes32"
				}
			],
			"name": "BuyOrderCancelled",
			"type": "event"
		},
		{
			"anonymous": false,
			"inputs": [
				{
					"indexed": true,
					"internalType": "address",
					"name": "seller",
					"type": "address"
				},
				{
					"indexed": true,
					"internalType": "bytes32",
					"name": "orderId",
					"type": "bytes32"
				},
				{
					"indexed": true,
					"internalType": "address",
					"name": "buyer",
					"type": "address"
				},
				{
					"indexed": false,
					"internalType": "uint256",
					"name": "txnEth",
					"type": "uint256"
				},
				{
					"indexed": false,
					"internalType": "uint256",
					"name": "txnHodl",
					"type": "uint256"
				}
			],
			"name": "BuyOrderFilled",
			"type": "event"
		},
		{
			"anonymous": false,
			"inputs": [
				{
					"indexed": true,
					"internalType": "bytes32",
					"name": "orderedId",
					"type": "bytes32"
				},
				{
					"indexed": true,
					"internalType": "address",
					"name": "buyer",
					"type": "address"
				},
				{
					"indexed": false,
					"internalType": "uint256",
					"name": "amountEth",
					"type": "uint256"
				}
			],
			"name": "BuyOrderOpened",
			"type": "event"
		},
		{
			"anonymous": false,
			"inputs": [
				{
					"indexed": true,
					"internalType": "address",
					"name": "seller",
					"type": "address"
				},
				{
					"indexed": true,
					"internalType": "bytes32",
					"name": "orderId",
					"type": "bytes32"
				},
				{
					"indexed": false,
					"internalType": "uint256",
					"name": "refundedEth",
					"type": "uint256"
				}
			],
			"name": "BuyOrderRefunded",
			"type": "event"
		},
		{
			"anonymous": false,
			"inputs": [
				{
					"indexed": false,
					"internalType": "address",
					"name": "sender",
					"type": "address"
				},
				{
					"indexed": false,
					"internalType": "uint256",
					"name": "errorCount",
					"type": "uint256"
				},
				{
					"indexed": false,
					"internalType": "uint256",
					"name": "ethUsd",
					"type": "uint256"
				}
			],
			"name": "EthUsdError",
			"type": "event"
		},
		{
			"anonymous": false,
			"inputs": [
				{
					"indexed": false,
					"internalType": "address",
					"name": "sender",
					"type": "address"
				},
				{
					"indexed": false,
					"internalType": "uint256",
					"name": "amount",
					"type": "uint256"
				}
			],
			"name": "HodlDistributionAllocated",
			"type": "event"
		},
		{
			"anonymous": false,
			"inputs": [
				{
					"indexed": true,
					"internalType": "address",
					"name": "user",
					"type": "address"
				},
				{
					"indexed": false,
					"internalType": "uint256",
					"name": "amountUsd",
					"type": "uint256"
				},
				{
					"indexed": false,
					"internalType": "uint256",
					"name": "anountHodl",
					"type": "uint256"
				}
			],
			"name": "HodlTIssued",
			"type": "event"
		},
		{
			"anonymous": false,
			"inputs": [
				{
					"indexed": true,
					"internalType": "address",
					"name": "user",
					"type": "address"
				},
				{
					"indexed": false,
					"internalType": "uint256",
					"name": "amountUsd",
					"type": "uint256"
				},
				{
					"indexed": false,
					"internalType": "uint256",
					"name": "amountHodl",
					"type": "uint256"
				}
			],
			"name": "HodlTRedeemed",
			"type": "event"
		},
		{
			"anonymous": false,
			"inputs": [
				{
					"indexed": false,
					"internalType": "address",
					"name": "sender",
					"type": "address"
				},
				{
					"indexed": false,
					"internalType": "uint256",
					"name": "gasLeft",
					"type": "uint256"
				},
				{
					"indexed": false,
					"internalType": "uint256",
					"name": "ordersFilled",
					"type": "uint256"
				}
			],
			"name": "IncreaseLowGas",
			"type": "event"
		},
		{
			"anonymous": false,
			"inputs": [
				{
					"indexed": false,
					"internalType": "address",
					"name": "sender",
					"type": "address"
				},
				{
					"indexed": false,
					"internalType": "uint256",
					"name": "transactionCount",
					"type": "uint256"
				},
				{
					"indexed": false,
					"internalType": "uint256",
					"name": "newHodlUsd",
					"type": "uint256"
				}
			],
			"name": "IncreasedByTransaction",
			"type": "event"
		},
		{
			"anonymous": false,
			"inputs": [
				{
					"indexed": false,
					"internalType": "address",
					"name": "sender",
					"type": "address"
				},
				{
					"indexed": false,
					"internalType": "contract IHTokenReserve",
					"name": "tokenReserve",
					"type": "address"
				},
				{
					"indexed": false,
					"internalType": "contract IHOracle",
					"name": "oracle",
					"type": "address"
				}
			],
			"name": "InitConfigure",
			"type": "event"
		},
		{
			"anonymous": false,
			"inputs": [
				{
					"indexed": false,
					"internalType": "address",
					"name": "sender",
					"type": "address"
				},
				{
					"indexed": false,
					"internalType": "address",
					"name": "from",
					"type": "address"
				},
				{
					"indexed": false,
					"internalType": "address",
					"name": "to",
					"type": "address"
				},
				{
					"indexed": false,
					"internalType": "uint256",
					"name": "amount",
					"type": "uint256"
				}
			],
			"name": "InternalTransfer",
			"type": "event"
		},
		{
			"anonymous": false,
			"inputs": [
				{
					"indexed": false,
					"internalType": "address",
					"name": "admin",
					"type": "address"
				},
				{
					"indexed": false,
					"internalType": "address",
					"name": "oracle",
					"type": "address"
				}
			],
			"name": "OracleSet",
			"type": "event"
		},
		{
			"anonymous": false,
			"inputs": [
				{
					"indexed": true,
					"internalType": "bytes32",
					"name": "role",
					"type": "bytes32"
				},
				{
					"indexed": true,
					"internalType": "address",
					"name": "account",
					"type": "address"
				},
				{
					"indexed": true,
					"internalType": "address",
					"name": "sender",
					"type": "address"
				}
			],
			"name": "RoleGranted",
			"type": "event"
		},
		{
			"anonymous": false,
			"inputs": [
				{
					"indexed": true,
					"internalType": "bytes32",
					"name": "role",
					"type": "bytes32"
				},
				{
					"indexed": true,
					"internalType": "address",
					"name": "account",
					"type": "address"
				},
				{
					"indexed": true,
					"internalType": "address",
					"name": "sender",
					"type": "address"
				}
			],
			"name": "RoleRevoked",
			"type": "event"
		},
		{
			"anonymous": false,
			"inputs": [
				{
					"indexed": true,
					"internalType": "address",
					"name": "seller",
					"type": "address"
				},
				{
					"indexed": false,
					"internalType": "uint256",
					"name": "quantityHodl",
					"type": "uint256"
				},
				{
					"indexed": false,
					"internalType": "uint256",
					"name": "lowGas",
					"type": "uint256"
				}
			],
			"name": "SellHodlCRequested",
			"type": "event"
		},
		{
			"anonymous": false,
			"inputs": [
				{
					"indexed": true,
					"internalType": "address",
					"name": "userAddr",
					"type": "address"
				},
				{
					"indexed": true,
					"internalType": "bytes32",
					"name": "orderId",
					"type": "bytes32"
				}
			],
			"name": "SellOrderCancelled",
			"type": "event"
		},
		{
			"anonymous": false,
			"inputs": [
				{
					"indexed": true,
					"internalType": "address",
					"name": "buyer",
					"type": "address"
				},
				{
					"indexed": true,
					"internalType": "bytes32",
					"name": "orderId",
					"type": "bytes32"
				},
				{
					"indexed": true,
					"internalType": "address",
					"name": "seller",
					"type": "address"
				},
				{
					"indexed": false,
					"internalType": "uint256",
					"name": "txnEth",
					"type": "uint256"
				},
				{
					"indexed": false,
					"internalType": "uint256",
					"name": "txnHodl",
					"type": "uint256"
				}
			],
			"name": "SellOrderFilled",
			"type": "event"
		},
		{
			"anonymous": false,
			"inputs": [
				{
					"indexed": true,
					"internalType": "bytes32",
					"name": "orderId",
					"type": "bytes32"
				},
				{
					"indexed": true,
					"internalType": "address",
					"name": "seller",
					"type": "address"
				},
				{
					"indexed": false,
					"internalType": "uint256",
					"name": "quantityHodl",
					"type": "uint256"
				},
				{
					"indexed": false,
					"internalType": "uint256",
					"name": "askUsd",
					"type": "uint256"
				}
			],
			"name": "SellOrderOpened",
			"type": "event"
		},
		{
			"anonymous": false,
			"inputs": [
				{
					"indexed": true,
					"internalType": "address",
					"name": "seller",
					"type": "address"
				},
				{
					"indexed": true,
					"internalType": "bytes32",
					"name": "orderId",
					"type": "bytes32"
				},
				{
					"indexed": false,
					"internalType": "uint256",
					"name": "refundedHodl",
					"type": "uint256"
				}
			],
			"name": "SellOrderRefunded",
			"type": "event"
		},
		{
			"anonymous": false,
			"inputs": [
				{
					"indexed": false,
					"internalType": "address",
					"name": "admin",
					"type": "address"
				},
				{
					"indexed": false,
					"internalType": "uint256",
					"name": "dailyAccrualRate",
					"type": "uint256"
				}
			],
			"name": "SetDailyAccrualRate",
			"type": "event"
		},
		{
			"anonymous": false,
			"inputs": [
				{
					"indexed": false,
					"internalType": "address",
					"name": "setter",
					"type": "address"
				},
				{
					"indexed": false,
					"internalType": "uint256",
					"name": "ethUsd18",
					"type": "uint256"
				}
			],
			"name": "SetEthUsd",
			"type": "event"
		},
		{
			"anonymous": false,
			"inputs": [
				{
					"indexed": true,
					"internalType": "address",
					"name": "user",
					"type": "address"
				},
				{
					"indexed": false,
					"internalType": "uint256",
					"name": "amountEth",
					"type": "uint256"
				}
			],
			"name": "UserDepositEth",
			"type": "event"
		},
		{
			"anonymous": false,
			"inputs": [
				{
					"indexed": false,
					"internalType": "address",
					"name": "admin",
					"type": "address"
				},
				{
					"indexed": true,
					"internalType": "address",
					"name": "user",
					"type": "address"
				},
				{
					"indexed": false,
					"internalType": "uint256",
					"name": "hodlCR",
					"type": "uint256"
				},
				{
					"indexed": false,
					"internalType": "uint256",
					"name": "ethCR",
					"type": "uint256"
				}
			],
			"name": "UserInitialized",
			"type": "event"
		},
		{
			"anonymous": false,
			"inputs": [
				{
					"indexed": false,
					"internalType": "address",
					"name": "admin",
					"type": "address"
				},
				{
					"indexed": true,
					"internalType": "address",
					"name": "user",
					"type": "address"
				}
			],
			"name": "UserUninitialized",
			"type": "event"
		},
		{
			"anonymous": false,
			"inputs": [
				{
					"indexed": true,
					"internalType": "address",
					"name": "user",
					"type": "address"
				},
				{
					"indexed": false,
					"internalType": "uint256",
					"name": "amountEth",
					"type": "uint256"
				}
			],
			"name": "UserWithdrawEth",
			"type": "event"
		},
		{
			"inputs": [],
			"name": "ADMIN_ROLE",
			"outputs": [
				{
					"internalType": "bytes32",
					"name": "",
					"type": "bytes32"
				}
			],
			"stateMutability": "view",
			"type": "function"
		},
		{
			"inputs": [],
			"name": "DEFAULT_ADMIN_ROLE",
			"outputs": [
				{
					"internalType": "bytes32",
					"name": "",
					"type": "bytes32"
				}
			],
			"stateMutability": "view",
			"type": "function"
		},
		{
			"inputs": [],
			"name": "ETH_ASSET",
			"outputs": [
				{
					"internalType": "bytes32",
					"name": "",
					"type": "bytes32"
				}
			],
			"stateMutability": "view",
			"type": "function"
		},
		{
			"inputs": [],
			"name": "ETH_USD",
			"outputs": [
				{
					"internalType": "uint256",
					"name": "",
					"type": "uint256"
				}
			],
			"stateMutability": "view",
			"type": "function"
		},
		{
			"inputs": [],
			"name": "HODL_ASSET",
			"outputs": [
				{
					"internalType": "bytes32",
					"name": "",
					"type": "bytes32"
				}
			],
			"stateMutability": "view",
			"type": "function"
		},
		{
			"inputs": [],
			"name": "MIGRATION_ROLE",
			"outputs": [
				{
					"internalType": "bytes32",
					"name": "",
					"type": "bytes32"
				}
			],
			"stateMutability": "view",
			"type": "function"
		},
		{
			"inputs": [],
			"name": "ORACLE_ROLE",
			"outputs": [
				{
					"internalType": "bytes32",
					"name": "",
					"type": "bytes32"
				}
			],
			"stateMutability": "view",
			"type": "function"
		},
		{
			"inputs": [],
			"name": "RESERVE_ROLE",
			"outputs": [
				{
					"internalType": "bytes32",
					"name": "",
					"type": "bytes32"
				}
			],
			"stateMutability": "view",
			"type": "function"
		},
		{
			"inputs": [],
			"name": "accrualDaysProcessed",
			"outputs": [
				{
					"internalType": "uint256",
					"name": "",
					"type": "uint256"
				}
			],
			"stateMutability": "view",
			"type": "function"
		},
		{
			"inputs": [
				{
					"internalType": "contract IHOracle",
					"name": "_oracle",
					"type": "address"
				}
			],
			"name": "adminSetOracle",
			"outputs": [],
			"stateMutability": "nonpayable",
			"type": "function"
		},
		{
			"inputs": [
				{
					"internalType": "uint256",
					"name": "amountHodl",
					"type": "uint256"
				}
			],
			"name": "allocateDistribution",
			"outputs": [],
			"stateMutability": "nonpayable",
			"type": "function"
		},
		{
			"inputs": [
				{
					"internalType": "uint256",
					"name": "amountEth",
					"type": "uint256"
				},
				{
					"internalType": "uint256",
					"name": "lowGas",
					"type": "uint256"
				}
			],
			"name": "buyHodlC",
			"outputs": [
				{
					"internalType": "bytes32",
					"name": "orderId",
					"type": "bytes32"
				}
			],
			"stateMutability": "nonpayable",
			"type": "function"
		},
		{
			"inputs": [
				{
					"internalType": "bytes32",
					"name": "",
					"type": "bytes32"
				}
			],
			"name": "buyOrder",
			"outputs": [
				{
					"internalType": "address",
					"name": "buyer",
					"type": "address"
				},
				{
					"internalType": "uint256",
					"name": "bidEth",
					"type": "uint256"
				}
			],
			"stateMutability": "view",
			"type": "function"
		},
		{
			"inputs": [],
			"name": "buyOrderCount",
			"outputs": [
				{
					"internalType": "uint256",
					"name": "count",
					"type": "uint256"
				}
			],
			"stateMutability": "view",
			"type": "function"
		},
		{
			"inputs": [],
			"name": "buyOrderFirst",
			"outputs": [
				{
					"internalType": "bytes32",
					"name": "orderId",
					"type": "bytes32"
				}
			],
			"stateMutability": "view",
			"type": "function"
		},
		{
			"inputs": [
				{
					"internalType": "bytes32",
					"name": "orderId",
					"type": "bytes32"
				}
			],
			"name": "buyOrderIterate",
			"outputs": [
				{
					"internalType": "bytes32",
					"name": "idBefore",
					"type": "bytes32"
				},
				{
					"internalType": "bytes32",
					"name": "idAfter",
					"type": "bytes32"
				}
			],
			"stateMutability": "view",
			"type": "function"
		},
		{
			"inputs": [],
			"name": "buyOrderLast",
			"outputs": [
				{
					"internalType": "bytes32",
					"name": "orderId",
					"type": "bytes32"
				}
			],
			"stateMutability": "view",
			"type": "function"
		},
		{
			"inputs": [
				{
					"internalType": "bytes32",
					"name": "orderId",
					"type": "bytes32"
				}
			],
			"name": "cancelBuy",
			"outputs": [],
			"stateMutability": "nonpayable",
			"type": "function"
		},
		{
			"inputs": [
				{
					"internalType": "bytes32",
					"name": "orderId",
					"type": "bytes32"
				}
			],
			"name": "cancelSell",
			"outputs": [],
			"stateMutability": "nonpayable",
			"type": "function"
		},
		{
			"inputs": [],
			"name": "circulatingSupply",
			"outputs": [
				{
					"internalType": "uint256",
					"name": "circulating",
					"type": "uint256"
				}
			],
			"stateMutability": "view",
			"type": "function"
		},
		{
			"inputs": [],
			"name": "claimEthDistribution",
			"outputs": [
				{
					"internalType": "uint256",
					"name": "amountEth",
					"type": "uint256"
				}
			],
			"stateMutability": "nonpayable",
			"type": "function"
		},
		{
			"inputs": [],
			"name": "claimHodlDistribution",
			"outputs": [
				{
					"internalType": "uint256",
					"name": "amountHodl",
					"type": "uint256"
				}
			],
			"stateMutability": "nonpayable",
			"type": "function"
		},
		{
			"inputs": [
				{
					"internalType": "uint256",
					"name": "amtEth",
					"type": "uint256"
				}
			],
			"name": "convertEthToHodl",
			"outputs": [
				{
					"internalType": "uint256",
					"name": "inHodl",
					"type": "uint256"
				}
			],
			"stateMutability": "view",
			"type": "function"
		},
		{
			"inputs": [
				{
					"internalType": "uint256",
					"name": "amtEth",
					"type": "uint256"
				}
			],
			"name": "convertEthToUsd",
			"outputs": [
				{
					"internalType": "uint256",
					"name": "inUsd",
					"type": "uint256"
				}
			],
			"stateMutability": "view",
			"type": "function"
		},
		{
			"inputs": [
				{
					"internalType": "uint256",
					"name": "amtHodl",
					"type": "uint256"
				}
			],
			"name": "convertHodlToEth",
			"outputs": [
				{
					"internalType": "uint256",
					"name": "inEth",
					"type": "uint256"
				}
			],
			"stateMutability": "view",
			"type": "function"
		},
		{
			"inputs": [
				{
					"internalType": "uint256",
					"name": "amtHodl",
					"type": "uint256"
				}
			],
			"name": "convertHodlToUsd",
			"outputs": [
				{
					"internalType": "uint256",
					"name": "inUsd",
					"type": "uint256"
				}
			],
			"stateMutability": "view",
			"type": "function"
		},
		{
			"inputs": [
				{
					"internalType": "uint256",
					"name": "amtUsd",
					"type": "uint256"
				}
			],
			"name": "convertUsdToEth",
			"outputs": [
				{
					"internalType": "uint256",
					"name": "inEth",
					"type": "uint256"
				}
			],
			"stateMutability": "view",
			"type": "function"
		},
		{
			"inputs": [
				{
					"internalType": "uint256",
					"name": "amtUsd",
					"type": "uint256"
				}
			],
			"name": "convertUsdToHodl",
			"outputs": [
				{
					"internalType": "uint256",
					"name": "inHodl",
					"type": "uint256"
				}
			],
			"stateMutability": "view",
			"type": "function"
		},
		{
			"inputs": [],
			"name": "depositEth",
			"outputs": [],
			"stateMutability": "payable",
			"type": "function"
		},
		{
			"inputs": [
				{
					"internalType": "bytes32",
					"name": "assetId",
					"type": "bytes32"
				},
				{
					"internalType": "uint256",
					"name": "index",
					"type": "uint256"
				}
			],
			"name": "distributionAtIndex",
			"outputs": [
				{
					"internalType": "uint256",
					"name": "denominator",
					"type": "uint256"
				},
				{
					"internalType": "uint256",
					"name": "amount",
					"type": "uint256"
				},
				{
					"internalType": "uint256",
					"name": "_period",
					"type": "uint256"
				}
			],
			"stateMutability": "view",
			"type": "function"
		},
		{
			"inputs": [
				{
					"internalType": "bytes32",
					"name": "assetId",
					"type": "bytes32"
				}
			],
			"name": "distributionCount",
			"outputs": [
				{
					"internalType": "uint256",
					"name": "count",
					"type": "uint256"
				}
			],
			"stateMutability": "view",
			"type": "function"
		},
		{
			"inputs": [],
			"name": "entropy_counter",
			"outputs": [
				{
					"internalType": "uint256",
					"name": "",
					"type": "uint256"
				}
			],
			"stateMutability": "view",
			"type": "function"
		},
		{
			"inputs": [],
			"name": "error_count",
			"outputs": [
				{
					"internalType": "uint256",
					"name": "",
					"type": "uint256"
				}
			],
			"stateMutability": "view",
			"type": "function"
		},
		{
			"inputs": [],
			"name": "eth_usd_block",
			"outputs": [
				{
					"internalType": "uint256",
					"name": "",
					"type": "uint256"
				}
			],
			"stateMutability": "view",
			"type": "function"
		},
		{
			"inputs": [],
			"name": "getEthToUsd",
			"outputs": [
				{
					"internalType": "uint256",
					"name": "ethUsd18",
					"type": "uint256"
				},
				{
					"internalType": "bool",
					"name": "success",
					"type": "bool"
				}
			],
			"stateMutability": "view",
			"type": "function"
		},
		{
			"inputs": [
				{
					"internalType": "bytes32",
					"name": "role",
					"type": "bytes32"
				}
			],
			"name": "getRoleAdmin",
			"outputs": [
				{
					"internalType": "bytes32",
					"name": "",
					"type": "bytes32"
				}
			],
			"stateMutability": "view",
			"type": "function"
		},
		{
			"inputs": [
				{
					"internalType": "bytes32",
					"name": "role",
					"type": "bytes32"
				},
				{
					"internalType": "uint256",
					"name": "index",
					"type": "uint256"
				}
			],
			"name": "getRoleMember",
			"outputs": [
				{
					"internalType": "address",
					"name": "",
					"type": "address"
				}
			],
			"stateMutability": "view",
			"type": "function"
		},
		{
			"inputs": [
				{
					"internalType": "bytes32",
					"name": "role",
					"type": "bytes32"
				}
			],
			"name": "getRoleMemberCount",
			"outputs": [
				{
					"internalType": "uint256",
					"name": "",
					"type": "uint256"
				}
			],
			"stateMutability": "view",
			"type": "function"
		},
		{
			"inputs": [
				{
					"internalType": "bytes32",
					"name": "role",
					"type": "bytes32"
				},
				{
					"internalType": "address",
					"name": "account",
					"type": "address"
				}
			],
			"name": "grantRole",
			"outputs": [],
			"stateMutability": "nonpayable",
			"type": "function"
		},
		{
			"inputs": [
				{
					"internalType": "bytes32",
					"name": "role",
					"type": "bytes32"
				},
				{
					"internalType": "address",
					"name": "account",
					"type": "address"
				}
			],
			"name": "hasRole",
			"outputs": [
				{
					"internalType": "bool",
					"name": "",
					"type": "bool"
				}
			],
			"stateMutability": "view",
			"type": "function"
		},
		{
			"inputs": [
				{
					"internalType": "uint256",
					"name": "amountUsd",
					"type": "uint256"
				}
			],
			"name": "hodlTIssue",
			"outputs": [],
			"stateMutability": "nonpayable",
			"type": "function"
		},
		{
			"inputs": [
				{
					"internalType": "uint256",
					"name": "amountUsd",
					"type": "uint256"
				}
			],
			"name": "hodlTRedeem",
			"outputs": [],
			"stateMutability": "nonpayable",
			"type": "function"
		},
		{
			"inputs": [
				{
					"internalType": "uint256",
					"name": "transactionCount",
					"type": "uint256"
				}
			],
			"name": "increaseTransactionCount",
			"outputs": [],
			"stateMutability": "nonpayable",
			"type": "function"
		},
		{
			"inputs": [
				{
					"internalType": "contract IHTokenReserve",
					"name": "_tokenReserve",
					"type": "address"
				},
				{
					"internalType": "contract IHOracle",
					"name": "_oracle",
					"type": "address"
				}
			],
			"name": "init",
			"outputs": [],
			"stateMutability": "nonpayable",
			"type": "function"
		},
		{
			"inputs": [
				{
					"internalType": "address",
					"name": "userAddr",
					"type": "address"
				}
			],
			"name": "initResetUser",
			"outputs": [],
			"stateMutability": "nonpayable",
			"type": "function"
		},
		{
			"inputs": [
				{
					"internalType": "uint256",
					"name": "rateAsDecimal18",
					"type": "uint256"
				}
			],
			"name": "initSetDailyAccrualRate",
			"outputs": [],
			"stateMutability": "nonpayable",
			"type": "function"
		},
		{
			"inputs": [
				{
					"internalType": "address",
					"name": "userAddr",
					"type": "address"
				},
				{
					"internalType": "uint256",
					"name": "hodl",
					"type": "uint256"
				}
			],
			"name": "initUser",
			"outputs": [],
			"stateMutability": "payable",
			"type": "function"
		},
		{
			"inputs": [],
			"name": "isAccruing",
			"outputs": [
				{
					"internalType": "bool",
					"name": "accruing",
					"type": "bool"
				}
			],
			"stateMutability": "view",
			"type": "function"
		},
		{
			"inputs": [],
			"name": "isConfigured",
			"outputs": [
				{
					"internalType": "bool",
					"name": "initialized",
					"type": "bool"
				}
			],
			"stateMutability": "view",
			"type": "function"
		},
		{
			"inputs": [],
			"name": "isRunning",
			"outputs": [
				{
					"internalType": "bool",
					"name": "running",
					"type": "bool"
				}
			],
			"stateMutability": "view",
			"type": "function"
		},
		{
			"inputs": [
				{
					"internalType": "address",
					"name": "userAddr",
					"type": "address"
				},
				{
					"internalType": "bytes32",
					"name": "assetId",
					"type": "bytes32"
				}
			],
			"name": "nextUserDistributionDetails",
			"outputs": [
				{
					"internalType": "uint256",
					"name": "amount",
					"type": "uint256"
				},
				{
					"internalType": "uint256",
					"name": "balanceIndex",
					"type": "uint256"
				},
				{
					"internalType": "uint256",
					"name": "distributionIndex",
					"type": "uint256"
				},
				{
					"internalType": "bool",
					"name": "closed",
					"type": "bool"
				}
			],
			"stateMutability": "view",
			"type": "function"
		},
		{
			"inputs": [],
			"name": "oracleContract",
			"outputs": [
				{
					"internalType": "contract IHOracle",
					"name": "_oracle",
					"type": "address"
				}
			],
			"stateMutability": "view",
			"type": "function"
		},
		{
			"inputs": [
				{
					"internalType": "uint256",
					"name": "ethUsd",
					"type": "uint256"
				}
			],
			"name": "oracleSetEthUsd",
			"outputs": [],
			"stateMutability": "nonpayable",
			"type": "function"
		},
		{
			"inputs": [],
			"name": "orderLimit",
			"outputs": [
				{
					"internalType": "uint256",
					"name": "limitUsd",
					"type": "uint256"
				}
			],
			"stateMutability": "view",
			"type": "function"
		},
		{
			"inputs": [],
			"name": "period",
			"outputs": [
				{
					"internalType": "uint256",
					"name": "_period",
					"type": "uint256"
				}
			],
			"stateMutability": "view",
			"type": "function"
		},
		{
			"inputs": [],
			"name": "poke",
			"outputs": [],
			"stateMutability": "nonpayable",
			"type": "function"
		},
		{
			"inputs": [],
			"name": "rates",
			"outputs": [
				{
					"internalType": "uint256",
					"name": "hodlUsd",
					"type": "uint256"
				},
				{
					"internalType": "uint256",
					"name": "dailyAccrualRate",
					"type": "uint256"
				}
			],
			"stateMutability": "view",
			"type": "function"
		},
		{
			"inputs": [
				{
					"internalType": "bytes32",
					"name": "role",
					"type": "bytes32"
				},
				{
					"internalType": "address",
					"name": "account",
					"type": "address"
				}
			],
			"name": "renounceRole",
			"outputs": [],
			"stateMutability": "nonpayable",
			"type": "function"
		},
		{
			"inputs": [
				{
					"internalType": "bytes32",
					"name": "role",
					"type": "bytes32"
				},
				{
					"internalType": "address",
					"name": "account",
					"type": "address"
				}
			],
			"name": "revokeRole",
			"outputs": [],
			"stateMutability": "nonpayable",
			"type": "function"
		},
		{
			"inputs": [
				{
					"internalType": "uint256",
					"name": "quantityHodl",
					"type": "uint256"
				},
				{
					"internalType": "uint256",
					"name": "lowGas",
					"type": "uint256"
				}
			],
			"name": "sellHodlC",
			"outputs": [
				{
					"internalType": "bytes32",
					"name": "orderId",
					"type": "bytes32"
				}
			],
			"stateMutability": "nonpayable",
			"type": "function"
		},
		{
			"inputs": [
				{
					"internalType": "bytes32",
					"name": "",
					"type": "bytes32"
				}
			],
			"name": "sellOrder",
			"outputs": [
				{
					"internalType": "address",
					"name": "seller",
					"type": "address"
				},
				{
					"internalType": "uint256",
					"name": "volumeHodl",
					"type": "uint256"
				},
				{
					"internalType": "uint256",
					"name": "askUsd",
					"type": "uint256"
				}
			],
			"stateMutability": "view",
			"type": "function"
		},
		{
			"inputs": [],
			"name": "sellOrderCount",
			"outputs": [
				{
					"internalType": "uint256",
					"name": "count",
					"type": "uint256"
				}
			],
			"stateMutability": "view",
			"type": "function"
		},
		{
			"inputs": [],
			"name": "sellOrderFirst",
			"outputs": [
				{
					"internalType": "bytes32",
					"name": "orderId",
					"type": "bytes32"
				}
			],
			"stateMutability": "view",
			"type": "function"
		},
		{
			"inputs": [
				{
					"internalType": "bytes32",
					"name": "orderId",
					"type": "bytes32"
				}
			],
			"name": "sellOrderIterate",
			"outputs": [
				{
					"internalType": "bytes32",
					"name": "idBefore",
					"type": "bytes32"
				},
				{
					"internalType": "bytes32",
					"name": "idAfter",
					"type": "bytes32"
				}
			],
			"stateMutability": "view",
			"type": "function"
		},
		{
			"inputs": [],
			"name": "sellOrderLast",
			"outputs": [
				{
					"internalType": "bytes32",
					"name": "orderId",
					"type": "bytes32"
				}
			],
			"stateMutability": "view",
			"type": "function"
		},
		{
			"inputs": [],
			"name": "tokenReserveContract",
			"outputs": [
				{
					"internalType": "contract IHTokenReserve",
					"name": "_reserve",
					"type": "address"
				}
			],
			"stateMutability": "view",
			"type": "function"
		},
		{
			"inputs": [
				{
					"internalType": "address",
					"name": "userAddr",
					"type": "address"
				}
			],
			"name": "user",
			"outputs": [
				{
					"internalType": "uint256",
					"name": "balanceEth",
					"type": "uint256"
				},
				{
					"internalType": "uint256",
					"name": "balanceHodl",
					"type": "uint256"
				},
				{
					"internalType": "uint256",
					"name": "controlledHodl",
					"type": "uint256"
				}
			],
			"stateMutability": "view",
			"type": "function"
		},
		{
			"inputs": [
				{
					"internalType": "bytes32",
					"name": "assetId",
					"type": "bytes32"
				},
				{
					"internalType": "address",
					"name": "userAddr",
					"type": "address"
				},
				{
					"internalType": "uint256",
					"name": "index",
					"type": "uint256"
				}
			],
			"name": "userBalanceAtIndex",
			"outputs": [
				{
					"internalType": "uint256",
					"name": "userBalance",
					"type": "uint256"
				},
				{
					"internalType": "uint256",
					"name": "controlled",
					"type": "uint256"
				},
				{
					"internalType": "uint256",
					"name": "_period",
					"type": "uint256"
				}
			],
			"stateMutability": "view",
			"type": "function"
		},
		{
			"inputs": [
				{
					"internalType": "bytes32",
					"name": "assetId",
					"type": "bytes32"
				},
				{
					"internalType": "address",
					"name": "userAddr",
					"type": "address"
				}
			],
			"name": "userBalanceCount",
			"outputs": [
				{
					"internalType": "uint256",
					"name": "count",
					"type": "uint256"
				}
			],
			"stateMutability": "view",
			"type": "function"
		},
		{
			"inputs": [
				{
					"internalType": "uint256",
					"name": "amount",
					"type": "uint256"
				}
			],
			"name": "withdrawEth",
			"outputs": [],
			"stateMutability": "nonpayable",
			"type": "function"
		}
	]
}