{
	"data": {
		"bytecode": {
			"linkReferences": {},
			"object": "6080604052615338806100136000396000f3fe6080604052600436106104055760003560e01c806375b238fc11610213578063bece753211610123578063e2ee29c3116100ab578063ef78d4fd1161007a578063ef78d4fd14610dd2578063f09a401614610de7578063f4f06eed14610e22578063f58c7acf14610e52578063f5f593a714610e6757610405565b8063e2ee29c314610d54578063e77349e714610d69578063e84abef114610d7e578063ece7ddbf14610da857610405565b8063d1e3175a116100f2578063d1e3175a14610cc7578063d26d1fe614610cdc578063d3a057c814610cf1578063d547741f14610d06578063e286bca514610d3f57610405565b8063bece753214610c34578063c086381e14610c49578063c311d04914610c73578063ca15c87314610c9d57610405565b806391d14854116101a6578063a217fddf11610175578063a217fddf14610b8a578063a3053e2a14610b9f578063b1eb816f14610bc9578063bc50040914610bf5578063bcffe5f414610c0a57610405565b806391d1485414610ae85780639358928b14610b21578063947b938314610b365780639e3202c914610b6057610405565b806384433221116101e25780638443322114610a10578063896e9ce014610a3a5780638eb6ac7a14610a4f5780639010d07c14610a9c57610405565b806375b238fc1461098957806375c303c91461099e5780637b4e610a146109b357806381e7e20e146109dd57610405565b80632b6fb51d11610319578063439370b1116102a15780634f8c4a45116102705780634f8c4a45146108ce578063519baf94146108e35780635f07cbc2146108f857806361d21875146109225780636260f55b1461097457610405565b8063439370b11461084457806343f48fbd1461084c57806346debf311461087a5780634d7de20c146108b957610405565b8063363ecbc0116102e8578063363ecbc01461079357806336568abe146107cc578063376fe05b1461080557806339c6d4cb1461081a5780633fb7a0ab1461082f57610405565b80632b6fb51d1461069c5780632cdf21f3146106fd5780632f2ff15d146107275780632f81b5df1461076057610405565b8063191fd57d1161039c5780632014e5d11161036b5780632014e5d1146105d7578063248a9ca314610600578063284fef4b1461062a5780632949f19e1461063f5780632b0eec971461067257610405565b8063191fd57d146105355780631b4d76771461054a5780631b7c7ea71461055f5780631d8f8f4b1461058957610405565b8063164cded6116103d8578063164cded6146104b157806316f30a7b146104db578063181783581461050b5780631911e5221461052057610405565b8063076299de1461040a57806307e2cea5146104365780630cc6e0191461045d5780630ef8e55014610487575b600080fd5b34801561041657600080fd5b506104346004803603602081101561042d57600080fd5b5035610e95565b005b34801561044257600080fd5b5061044b61100a565b60408051918252519081900360200190f35b34801561046957600080fd5b506104346004803603602081101561048057600080fd5b503561102d565b34801561049357600080fd5b5061044b600480360360208110156104aa57600080fd5b503561118d565b3480156104bd57600080fd5b50610434600480360360208110156104d457600080fd5b50356111ad565b3480156104e757600080fd5b5061044b600480360360408110156104fe57600080fd5b5080359060200135611308565b34801561051757600080fd5b50610434611473565b34801561052c57600080fd5b5061044b611524565b34801561054157600080fd5b5061044b611536565b34801561055657600080fd5b5061044b61155a565b34801561056b57600080fd5b506104346004803603602081101561058257600080fd5b5035611560565b34801561059557600080fd5b506105b9600480360360408110156105ac57600080fd5b508035906020013561167d565b60408051938452602084019290925282820152519081900360600190f35b3480156105e357600080fd5b506105ec6116a0565b604080519115158252519081900360200190f35b34801561060c57600080fd5b5061044b6004803603602081101561062357600080fd5b50356116d5565b34801561063657600080fd5b5061044b6116ea565b34801561064b57600080fd5b506104346004803603602081101561066257600080fd5b50356001600160a01b0316611705565b34801561067e57600080fd5b5061044b6004803603602081101561069557600080fd5b50356117cf565b3480156106a857600080fd5b506106d5600480360360408110156106bf57600080fd5b506001600160a01b0381351690602001356117e8565b6040805194855260208501939093528383019190915215156060830152519081900360800190f35b34801561070957600080fd5b5061044b6004803603602081101561072057600080fd5b503561180f565b34801561073357600080fd5b506104346004803603604081101561074a57600080fd5b50803590602001356001600160a01b0316611826565b34801561076c57600080fd5b506104346004803603602081101561078357600080fd5b50356001600160a01b031661188e565b34801561079f57600080fd5b5061044b600480360360408110156107b657600080fd5b50803590602001356001600160a01b0316611a26565b3480156107d857600080fd5b50610434600480360360408110156107ef57600080fd5b50803590602001356001600160a01b0316611a41565b34801561081157600080fd5b5061044b611aa2565b34801561082657600080fd5b5061044b611b17565b34801561083b57600080fd5b5061044b611b3d565b610434611b43565b34801561085857600080fd5b50610861611c2d565b6040805192835260208301919091528051918290030190f35b34801561088657600080fd5b506105b96004803603606081101561089d57600080fd5b508035906001600160a01b036020820135169060400135611cfa565b3480156108c557600080fd5b5061044b611d21565b3480156108da57600080fd5b5061044b611d2d565b3480156108ef57600080fd5b5061044b611d49565b34801561090457600080fd5b506104346004803603602081101561091b57600080fd5b5035611d55565b34801561092e57600080fd5b5061094c6004803603602081101561094557600080fd5b5035611ebc565b604080516001600160a01b039094168452602084019290925282820152519081900360600190f35b34801561098057600080fd5b5061044b611ee7565b34801561099557600080fd5b5061044b611eed565b3480156109aa57600080fd5b5061044b611f0f565b3480156109bf57600080fd5b50610434600480360360208110156109d657600080fd5b5035611f3f565b3480156109e957600080fd5b506105b960048036036020811015610a0057600080fd5b50356001600160a01b0316611ff8565b348015610a1c57600080fd5b5061086160048036036020811015610a3357600080fd5b503561208f565b348015610a4657600080fd5b506105ec6120bd565b348015610a5b57600080fd5b50610a7960048036036020811015610a7257600080fd5b50356120dd565b604080516001600160a01b03909316835260208301919091528051918290030190f35b348015610aa857600080fd5b50610acc60048036036040811015610abf57600080fd5b5080359060200135612102565b604080516001600160a01b039092168252519081900360200190f35b348015610af457600080fd5b506105ec60048036036040811015610b0b57600080fd5b50803590602001356001600160a01b0316612120565b348015610b2d57600080fd5b5061044b61213e565b348015610b4257600080fd5b5061044b60048036036020811015610b5957600080fd5b503561218c565b348015610b6c57600080fd5b5061044b60048036036020811015610b8357600080fd5b50356121b6565b348015610b9657600080fd5b5061044b6121e0565b348015610bab57600080fd5b5061044b60048036036020811015610bc257600080fd5b50356121e5565b61043460048036036040811015610bdf57600080fd5b506001600160a01b038135169060200135612213565b348015610c0157600080fd5b5061044b612364565b348015610c1657600080fd5b5061086160048036036020811015610c2d57600080fd5b5035612370565b348015610c4057600080fd5b50610acc612395565b348015610c5557600080fd5b5061044b60048036036020811015610c6c57600080fd5b50356123a4565b348015610c7f57600080fd5b5061043460048036036020811015610c9657600080fd5b50356123c7565b348015610ca957600080fd5b5061044b60048036036020811015610cc057600080fd5b503561249f565b348015610cd357600080fd5b5061044b6124b6565b348015610ce857600080fd5b5061044b6124c2565b348015610cfd57600080fd5b506105ec6124c8565b348015610d1257600080fd5b5061043460048036036040811015610d2957600080fd5b50803590602001356001600160a01b03166124d9565b348015610d4b57600080fd5b50610acc612530565b348015610d6057600080fd5b5061044b61253f565b348015610d7557600080fd5b5061044b6125b3565b348015610d8a57600080fd5b5061043460048036036020811015610da157600080fd5b50356125b9565b348015610db457600080fd5b5061043460048036036020811015610dcb57600080fd5b5035612632565b348015610dde57600080fd5b5061044b6126e9565b348015610df357600080fd5b5061043460048036036040811015610e0a57600080fd5b506001600160a01b03813581169160200135166126f5565b348015610e2e57600080fd5b5061044b60048036036040811015610e4557600080fd5b50803590602001356129b1565b348015610e5e57600080fd5b5061044b612b14565b348015610e7357600080fd5b50610e7c612b20565b6040805192835290151560208301528051918290030190f35b610e9d6116a0565b610edc576040805162461bcd60e51b815260206004820152601760248201526000805160206151e9833981519152604482015290519081900360640190fd5b60035460408051631a59529f60e21b81523360048201526024810184905290516000926001600160a01b0316916369654a7c91604480830192602092919082900301818787803b158015610f2f57600080fd5b505af1158015610f43573d6000803e3d6000fd5b505050506040513d6020811015610f5957600080fd5b505160408051848152905191925033917fae04020023b6607a78e324b7d4a7c1d68084b777dd7077dc7b816abb498c60db9181900360200190a260408051631213d11360e21b81529051908190036004019020610fc290600c903384600063ffffffff612baf16565b60408051631213d11360e21b81529051908190036004019020600354610ffc91600c916001600160a01b031684600063ffffffff612dc016565b50611005612f74565b505050565b604080516a4f7261636c6520526f6c6560a81b8152905190819003600b01902081565b6110356116a0565b611074576040805162461bcd60e51b815260206004820152601760248201526000805160206151e9833981519152604482015290519081900360640190fd5b604080516b5265736572766520526f6c6560a01b8152905190819003600c01902061109f9033612120565b6110e9576040805162461bcd60e51b81526020600482015260166024820152752437b2362232bc101a18199036b4b3b930ba34b7b71760511b604482015290519081900360640190fd5b604080513381526020810183905281517f8b476ddf0ff11f47272c435b662b2534d5469ed9f10fb084c37f17b028cb459d929181900390910190a160408051631213d11360e21b8152905190819003600401902060035461115e91600c916001600160a01b031684600063ffffffff612baf16565b60408051631213d11360e21b8152905190819003600401902061118a90600c908363ffffffff61300116565b50565b600080611199836123a4565b90506111a48161218c565b9150505b919050565b6111b56116a0565b6111f4576040805162461bcd60e51b815260206004820152601760248201526000805160206151e9833981519152604482015290519081900360640190fd5b6040516000908190839033907fdcb012e920167d8bdd0acebd98c41971b08b206986f2c59f3458fbe83c8e1d14908490a350600082815260116020526040902080546001600160a01b03169033821461128b576040805162461bcd60e51b81526020600482015260146024820152732437b2362232bc16103737ba1039b2b63632b91760611b604482015290519081900360640190fd5b600181015460408051631213d11360e21b815290519081900360040190209093506112c290600c903386600063ffffffff612dc016565b6112d360138563ffffffff6130f316565b60408051631213d11360e21b8152905190819003600401902061130290600c908460008763ffffffff612baf16565b50505050565b60006113126116a0565b611351576040805162461bcd60e51b815260206004820152601760248201526000805160206151e9833981519152604482015290519081900360640190fd5b6040805184815260208101849052815133927f9245568088742ccfdfc1dc58f9ad4f31812911170582b5cce5c4f48c86667711928290030190a26000611396846121b6565b905060006113a2611f0f565b90506802b5e3af16b18800008210156113f7576040805162461bcd60e51b8152602060048201526012602482015271121bd91b11195e0b080f081b5a5b881554d160721b604482015290519081900360640190fd5b8082111580611404575080155b61144a576040805162461bcd60e51b8152602060048201526012602482015271121bd91b11195e0b080f881b585e081554d160721b604482015290519081900360640190fd5b6114548585613221565b945061145f85613559565b9250505061146b612f74565b505092915050565b61147b6116a0565b6114ba576040805162461bcd60e51b815260206004820152601760248201526000805160206151e9833981519152604482015290519081900360640190fd5b6114c2612f74565b50506114cc613682565b50604080516208ae8d60eb1b815290519081900360030190206114f790600c9063ffffffff61379416565b60408051631213d11360e21b8152905190819003600401902061152290600c9063ffffffff61379416565b565b600061153060136137a0565b90505b90565b604080516b5265736572766520526f6c6560a01b8152905190819003600c01902081565b600a5481565b6115686116a0565b6115a7576040805162461bcd60e51b815260206004820152601760248201526000805160206151e9833981519152604482015290519081900360640190fd5b60008181526012602052604080822090519091839133917fbfd8eba8b6bbf7710760c1e5784271756899dfda53eccf56257e64e40c7f6fc191a380546001600160a01b03163314611635576040805162461bcd60e51b81526020600482015260136024820152722437b2362232bc16103737ba10313abcb2b91760691b604482015290519081900360640190fd5b604080516208ae8d60eb1b81529051908190036003019020600182015461166891600c913390600063ffffffff612dc016565b61167960188363ffffffff6130f316565b5050565b60008080611693600c868663ffffffff6137a716565b9250925092509250925092565b604080516d4d6967726174696f6e20526f6c6560901b8152905190819003600e0190206000906116cf9061249f565b15905090565b60009081526001602052604090206002015490565b604080516208ae8d60eb1b8152905190819003600301902081565b604080516941646d696e20526f6c6560b01b8152905190819003600a01902061172e9033612120565b611773576040805162461bcd60e51b81526020600482015260116024820152702437b2362232bc101a18199030b236b4b760791b604482015290519081900360640190fd5b600280546001600160a01b0319166001600160a01b03831690811790915560408051338152602081019290925280517fc1d3048301c0d23629a2532c8defa6d68f8e1a0e4157918769e9fb1b2eeb888e9281900390910190a150565b60006117e2600c8363ffffffff61382d16565b92915050565b60008080806117ff600c868863ffffffff61384216565b9299919850965090945092505050565b60008061181b836121b6565b90506111a4816121e5565b6000828152600160205260409020600201546118499061184461395e565b612120565b6118845760405162461bcd60e51b815260040180806020018281038252602f815260200180615190602f913960400191505060405180910390fd5b6116798282613962565b604080516d4d6967726174696f6e20526f6c6560901b8152905190819003600e0190206118bb9033612120565b611904576040805162461bcd60e51b81526020600482015260156024820152742437b2362232bc101a18199036b4b3b930ba34b7b760591b604482015290519081900360640190fd5b6040805133815290516001600160a01b038316917f4255b5dbb103b3831869724bf926f5cc492b23b18ae956dacbe85ab455977a31919081900360200190a260408051631213d11360e21b8082528251918290036004908101832091835292519182900390920190206119999190309061198790600c908663ffffffff6139d116565b600c929190600063ffffffff612dc016565b604080516208ae8d60eb1b815290519081900360030190206000906119c790600c908463ffffffff6139d116565b111561118a57604080516208ae8d60eb1b8152905190819003600301902033906108fc906119fe90600c908563ffffffff6139d116565b6040518115909202916000818181858888f19350505050158015611679573d6000803e3d6000fd5b6000611a3a600c848463ffffffff613a4516565b9392505050565b611a4961395e565b6001600160a01b0316816001600160a01b031614611a985760405162461bcd60e51b815260040180806020018281038252602f8152602001806152d4602f913960400191505060405180910390fd5b6116798282613a74565b6000611aac6116a0565b611aeb576040805162461bcd60e51b815260206004820152601760248201526000805160206151e9833981519152604482015290519081900360640190fd5b60408051631213d11360e21b8152905190819003600401902061153090600c903363ffffffff613ae316565b604080516d4d6967726174696f6e20526f6c6560901b8152905190819003600e01902081565b60085481565b611b4b6116a0565b611b8a576040805162461bcd60e51b815260206004820152601760248201526000805160206151e9833981519152604482015290519081900360640190fd5b60003411611bc95760405162461bcd60e51b81526004018080602001828103825260228152602001806152396022913960400191505060405180910390fd5b60408051348152905133917f67b91a3e1f20688667199fd4acb8590a39e93b3f50cb3253c74003c6d98de78b919081900360200190a2604080516208ae8d60eb1b8152905190819003600301902061152290600c903334600063ffffffff612dc016565b6006546007546000611c4c635f1f7dad62278d0063ffffffff613c8416565b905080421115611cf557600062015180611c6c428463ffffffff613cde16565b81611c7357fe5b0490506000611c8d60055483613cde90919063ffffffff16565b90508015611cf257611cc4670de0b6b3a7640000611cb8600754600654613d2090919063ffffffff16565b9063ffffffff613d7916565b9450611cef670de0b6b3a7640000611cb8670de0b68e11c8d5e0600754613d2090919063ffffffff16565b93505b50505b509091565b60008080611d11600c87878763ffffffff613dbb16565b9250925092505b93509350939050565b60006115306018613e26565b60408051631213d11360e21b8152905190819003600401902081565b60006115306013613e26565b611d5d6116a0565b611d9c576040805162461bcd60e51b815260206004820152601760248201526000805160206151e9833981519152604482015290519081900360640190fd5b6003546040805163aa94810160e01b81523360048201526024810184905290516000926001600160a01b03169163aa94810191604480830192602092919082900301818787803b158015611def57600080fd5b505af1158015611e03573d6000803e3d6000fd5b505050506040513d6020811015611e1957600080fd5b505160408051848152905191925033917f53308211e3d719134d0494716513f6425af9501ed203250452a377f7287e61729181900360200190a260408051631213d11360e21b81529051908190036004019020611e8290600c903384600063ffffffff612dc016565b60408051631213d11360e21b81529051908190036004019020600354610ffc91600c916001600160a01b031684600063ffffffff612baf16565b6011602052600090815260409020805460018201546002909201546001600160a01b03909116919083565b600b5481565b604080516941646d696e20526f6c6560b01b8152905190819003600a01902081565b600080611f1a611c2d565b509050678ac7230489e800008111611f36578061138802611f39565b60005b91505090565b604080516d4d6967726174696f6e20526f6c6560901b8152905190819003600e019020611f6c9033612120565b611fb5576040805162461bcd60e51b81526020600482015260156024820152742437b2362232bc101a18199036b4b3b930ba34b7b760591b604482015290519081900360640190fd5b6007819055604080513381526020810183905281517fd9c7ef198bbeb680fb4c70a0f01e1d6d1826dbc6cdc426fd1ab3aa1d059c71cd929181900390910190a150565b604080516208ae8d60eb1b815290519081900360030190206000908190819061202a90600c908663ffffffff6139d116565b60408051631213d11360e21b8152905190819003600401902061205690600c908763ffffffff6139d116565b60408051631213d11360e21b8152905190819003600401902061208290600c908863ffffffff613e2a16565b9250925092509193909250565b6000806120a360138463ffffffff613e9f16565b6120b460138563ffffffff613f0f16565b91509150915091565b60006120d6635f1f7dad62278d0063ffffffff613c8416565b4211905090565b601260205260009081526040902080546001909101546001600160a01b039091169082565b6000828152600160205260408120611a3a908363ffffffff613f7c16565b6000828152600160205260408120611a3a908363ffffffff613f8816565b60408051631213d11360e21b81529051908190036004019020600090819061216f90600c903063ffffffff6139d116565b9050611f396a108b2a2c280290940000008263ffffffff613cde16565b600080612197611c2d565b5090506111a481611cb885670de0b6b3a764000063ffffffff613d2016565b6000806121c1611c2d565b5090506111a4670de0b6b3a7640000611cb8858463ffffffff613d2016565b600081565b60006117e26121fb670de0b6b3a76400006123a4565b611cb884670de0b6b3a764000063ffffffff613d2016565b604080516d4d6967726174696f6e20526f6c6560901b8152905190819003600e0190206122409033612120565b612289576040805162461bcd60e51b81526020600482015260156024820152742437b2362232bc101a18199036b4b3b930ba34b7b760591b604482015290519081900360640190fd5b604080516208ae8d60eb1b815290519081900360030190206122b790600c908434600063ffffffff612dc016565b60408051631213d11360e21b815290519081900360040190206122e690600c908484600063ffffffff612dc016565b60408051631213d11360e21b8152905190819003600401902061231590600c903084600063ffffffff612baf16565b6040805133815260208101839052348183015290516001600160a01b038416917f3115c5c0a6de7cd7ce400fd4027f87c0d355dfef893e17cc1cc2db2782a0f9f7919081900360600190a25050565b600061153060186137a0565b60008061238460188463ffffffff613e9f16565b6120b460188563ffffffff613f0f16565b6002546001600160a01b031690565b60006117e2670de0b6b3a7640000611cb8600b5485613d2090919063ffffffff16565b6123cf6116a0565b61240e576040805162461bcd60e51b815260206004820152601760248201526000805160206151e9833981519152604482015290519081900360640190fd5b60408051828152905133917f654c7a7e59538b4e27a577ef2208b1f7cdcaf35938c4bb6288c945261702a56f919081900360200190a2604080516208ae8d60eb1b8152905190819003600301902061247290600c903384600063ffffffff612baf16565b604051339082156108fc029083906000818181858888f19350505050158015611679573d6000803e3d6000fd5b60008181526001602052604081206117e290613f9d565b60006115306018613fa8565b60055481565b6002546001600160a01b0316151590565b6000600b5411612526576040805162461bcd60e51b8152602060048201526013602482015272121bd91b11195e0b0814d95d08115d1a155cd9606a1b604482015290519081900360640190fd5b6116798282613fb6565b6003546001600160a01b031690565b60006125496116a0565b612588576040805162461bcd60e51b815260206004820152601760248201526000805160206151e9833981519152604482015290519081900360640190fd5b604080516208ae8d60eb1b8152905190819003600301902061153090600c903363ffffffff613ae316565b60095481565b604080516a4f7261636c6520526f6c6560a81b8152905190819003600b0190206125e39033612120565b612629576040805162461bcd60e51b8152602060048201526012602482015271486f646c44657820343033206f7261636c6560701b604482015290519081900360640190fd5b61118a8161400f565b604080516a4f7261636c6520526f6c6560a81b8152905190819003600b01902061265c9033612120565b6126a2576040805162461bcd60e51b8152602060048201526012602482015271486f646c44657820343033206f7261636c6560701b604482015290519081900360640190fd5b600b81905543600955604080513381526020810183905281517f0a4debdfc51da746dcb19f892eac110ce7d5d1c86475813bc7940be5c100eab4929181900390910190a150565b6000611530600c61408e565b600054610100900460ff168061270e575061270e6140d8565b8061271c575060005460ff16155b6127575760405162461bcd60e51b815260040180806020018281038252602e81526020018061525b602e913960400191505060405180910390fd5b600054610100900460ff16158015612782576000805460ff1961ff0019909116610100171660011790555b6711b4f2dd6db3b0b7600655670de772f195e3a78660075560408051631213d11360e21b8082528251918290036004908101832081546001818101845560008481527f8a35acfbc15ff81a39ae7d344fd709f28e8600b4aa8c65c6b64bfe7fe36bd19b928301939093556208ae8d60eb1b86528651958690036003018620845491820185559284905201559082529151908190038201902061283291600c914262278d003063ffffffff6140de16565b60408051631213d11360e21b8152905190819003600401902061286c90600c90306a108b2a2c28029094000000600063ffffffff612dc016565b600280546001600160a01b038085166001600160a01b03199283161790925560038054928616929091169190911790556128a7600033611884565b604080516941646d696e20526f6c6560b01b8152905190819003600a0190206128d09033611884565b604080516a4f7261636c6520526f6c6560a81b8152905190819003600b0190206128fa9033611884565b604080516d4d6967726174696f6e20526f6c6560901b8152905190819003600e0190206129279033611884565b604080516b5265736572766520526f6c6560a01b8152905190819003600c0190206129529084611884565b604080513381526001600160a01b03808616602083015284168183015290517fc437298f2d0663a10608d6add1ccfa44ae2a4bd3efcdc2fd427f7afb360d22e59181900360600190a18015611005576000805461ff0019169055505050565b60006129bb6116a0565b6129fa576040805162461bcd60e51b815260206004820152601760248201526000805160206151e9833981519152604482015290519081900360640190fd5b6040805184815260208101849052815133927fee9b02d9722b4950f646ec7e40d75e44f68d2f342d0257ca5c933476f81b5df8928290030190a26000612a3e611f0f565b90506000612a4b856123a4565b90506802b5e3af16b1880000811015612aa1576040805162461bcd60e51b815260206004820152601360248201527202437b2362232bc16101e1036b4b7102aa9a21606d1b604482015290519081900360640190fd5b8181111580612aae575081155b612af4576040805162461bcd60e51b8152602060048201526012602482015271121bd91b11195e0b080f881b585e081554d160721b604482015290519081900360640190fd5b612afe85856141b0565b9450612b098561453f565b945061145f856146ea565b60006115306013613fa8565b600080600260009054906101000a90046001600160a01b03166001600160a01b03166357de26a46040518163ffffffff1660e01b815260040160206040518083038186803b158015612b7157600080fd5b505afa925050508015612b9657506040513d6020811015612b9157600080fd5b505160015b612ba457600b549150612bab565b9150600190505b9091565b600084815260048601602090815260408083206001600160a01b0387168452600181019092528220805491929091908080612beb8b8b8b6147c4565b9250925092506000612bfc8c61408e565b9050612c338960405180604001604052806008815260200167283937b8102729a360c11b815250866148559092919063ffffffff16565b9350612c6a8860405180604001604052806008815260200167283937b8103739b360c11b815250846148559092919063ffffffff16565b9150612c7461514c565b506040805160608082018352868252602080830186905282840185905283518581526001600160a01b038f16918101919091528084018d90529081018b9052915190918d9133917fd8a7c80caa92de15995fb550a02b0921d0ec2c173b71ff94eaac5111eec710db919081900360800190a3600086118015612d0357508c600301548c141580612d0357508184145b15612d575780876000016001880381548110612d1b57fe5b90600052602060002090600302016000820151816000015560208201518160010155604082015181600201559050505050505050505050612db9565b60008c815260048e01602052604090205460018801541415612d7b57865460028801555b865460018181018955600098895260209889902083516003909302019182559782015197810197909755604001516002909601959095555050505050505b5050505050565b600084815260048601602090815260408083206001600160a01b038716845260018101909252822090918080612df78a8a8a6147c4565b865492955090935091506000612e0c8c61408e565b94890194928801929050612e1e61514c565b506040805160608082018352878252602080830187905282840185905283518581526001600160a01b038f16918101919091528084018d90529081018b9052915190918d9133917f34b2d1e14dd08f15cd0495453a3181c6aaffd6d2dc171dbf7c52b3d18cf35b75919081900360800190a3600083118015612ead57508c600301548c141580612ead57508185145b15612ec55780876000016001850381548110612d1b57fe5b82612d57576001612ed68e8e61382d565b0360018801819055885483918a918110612eec57fe5b9060005260206000209060030201600201541015612d5757600187810180549091019081905560008d815260048f0160205260409020541415612d7b5786546002880155865460018181018955600098895260209889902083516003909302019182559782015197810197909755604001516002909601959095555050505050505050505050565b600080612f7f611c2d565b600654919350915082141580612f9757506007548114155b15612bab5760068290556007819055600554612fba90600163ffffffff613c8416565b600555604080513381526020810184905280820183905290517fde6ecf3d8c720475e24f2d3ae66b2470fb69b76910e2ff22300ca03c14ca76f59181900360600190a19091565b6000828152600484016020526040812080549091908290600019810190811061302657fe5b9060005260206000209060030201905061303f8561408e565b816002015410156130775761305485856148ec565b81548290600019810190811061306657fe5b906000526020600020906003020190505b8215612db9576001810154613092908463ffffffff613c8416565b6001820155837f96709d4288825181c14df06e5002029d4207c82a70441a8338901b54c05a8332336130c38861408e565b604080516001600160a01b0390931683526020830191909152818101879052519081900360600190a25050505050565b6130fd82826149e8565b613147576040805162461bcd60e51b815260206004820152601660248201527511925193d4d95d0e881ad95e481b9bdd08199bdd5b9960521b604482015290519081900360640190fd5b6000818152600283016020526040812060018101548154919290919061316c86613e26565b90506000613179876137a0565b600085815260028901602052604080822086835291209192509061319c89613fa8565b600114156131b3576000808a5560018a01556131ed565b838814156131ca57600060018201558489556131ed565b828814156131e25760008255600189018690556131ed565b848255600181018690555b61320060038a018963ffffffff6149fd16565b50505060009485525050506002909201602052604081208181556001015550565b6000806000806000806000805b600061323a6018613fa8565b118015613247575060008a115b1561354257885a10156132b0577f26a72b1025f7454a60c5a168febefd96fe828d125284a2aa8de1d2d0942b577d335a604080516001600160a01b0390931683526020830191909152818101849052519081900360600190a160009750505050505050506117e2565b6132ba6018613e26565b6000818152601260205260409020805460018201549299506001600160a01b031697509094506132e985614af8565b95508561339257841561335c57604080516208ae8d60eb1b8152905190819003600301902061332490600c908988600063ffffffff612dc016565b604080518681529051899133917ff82d0d34c08930bc9f8e987fd50bea3840aeaae5cd4b5291ad47e3a9c00f2cd19181900360200190a35b600088815260126020526040812080546001600160a01b03191681556001015561338d60188963ffffffff6130f316565b61353c565b61339b8b614b04565b93508a9250838510156133af578493508592505b604080518581526020810185905281516001600160a01b038a16928b9233927f776137802df19e3b87a42166c59a2f6adaa28d46b8e1f0cc370e78b49516d622929181900390910190a460408051631213d11360e21b8152905190819003600401902061342890600c903386600063ffffffff612baf16565b60408051631213d11360e21b8152905190819003600401902061345790600c908986600063ffffffff612dc016565b604080516208ae8d60eb1b8152905190819003600301902061348590600c903387600063ffffffff612dc016565b838514156134c357600088815260126020526040812080546001600160a01b0319168155600101556134be60188963ffffffff6130f316565b613535565b60408051808201909152600b81526a0486f646c446578203530360ac1b60208201526134f8908690869063ffffffff61485516565b600182015560408051808201909152600b81526a486f646c4465782035303160a81b6020820152613532908c90859063ffffffff61485516565b9a505b6001909101905b5061322e565b61354b8161400f565b509798975050505050505050565b60006802b5e3af16b188000061356e836121b6565b11801561358257506135806018613fa8565b155b156111a85761358f614b1b565b9050600061359b611c2d565b5060008381526011602052604090209091506135be60138463ffffffff614b6516565b60408051858152602081018490528151339286927f859b9b1aca54f86cfca352a982e638c932e7fd450a59878afb01597257d13c9c929081900390910190a360408051631213d11360e21b8152905190819003600401902061362c90600c903360008863ffffffff612dc016565b80546001600160a01b031916339081178255600182018590556002820183905560408051631213d11360e21b8152905190819003600401902061367b91600c919087600063ffffffff612baf16565b5050919050565b60004360095414156136975750600b54611533565b60006136a1612b20565b600b8290554360095590925090508061370057600a805460010190819055604080513381526020810192909252818101849052517f1b6826f6886b75b3eaec36667372cfd16e72a81e148c098ededb06c10616e85d9181900360600190a15b604080513381526020810184905281517f0a4debdfc51da746dcb19f892eac110ce7d5d1c86475813bc7940be5c100eab4929181900390910190a1604080516208ae8d60eb1b8152905190819003600301902061376590600c9063ffffffff61379416565b60408051631213d11360e21b8152905190819003600401902061379090600c9063ffffffff61379416565b5090565b61167982826000613001565b6001015490565b600082815260048401602052604081208054829182918190869081106137c957fe5b9060005260206000209060030201600001548160000186815481106137ea57fe5b90600052602060002090600302016001015482600001878154811061380b57fe5b9060005260206000209060030201600201549350935093505093509350939050565b60009081526004909101602052604090205490565b60008281526004840160209081526040808320600387015484528184206001600160a01b0386168552600180820190945291842060028101548185015483549195909487949390929091860111156138a4575060009550859250613955915050565b60008360000186815481106138b557fe5b60009182526020909120600390910201805483548115159750919250906001890111806138e0575085155b156138f45750600097506139559350505050565b600083600001898154811061390557fe5b60009182526020822060039190910201600181810154825491870154929450019184670de0b6b3a764000083028161393957fe5b049050670de0b6b3a7640000838202049c505050505050505050505b93509350935093565b3390565b6000828152600160205260409020613980908263ffffffff614c5d16565b156116795761398d61395e565b6001600160a01b0316816001600160a01b0316837f2f8788117e7eff1d82e926ec794901d17c78024a50270940304540a733656f0d60405160405180910390a45050565b60008281526004840160205260408120816139ed868686613a45565b9050806139ff57600092505050611a3a565b6001600160a01b0384166000908152600183016020526040812080546000198401908110613a2957fe5b6000918252602090912060039091020154979650505050505050565b600082815260048401602090815260408083206001600160a01b03851684526001019091529020549392505050565b6000828152600160205260409020613a92908263ffffffff614c7216565b1561167957613a9f61395e565b6001600160a01b0316816001600160a01b0316837ff6391f5c32d9c69d2a47ea670b442974b53935d1edc7fd64eb21e047a839171b60405160405180910390a45050565b60008281526004840160209081526040808320600387015484528184206001600160a01b038616855260018083018552838620908201909452918420909290613b2c8888613794565b6000806000613b3c8b8b8b613842565b929a509094509250905080613b5b576000975050505050505050611a3a565b6000876000018381548110613b6c57fe5b906000526020600020906003020190508a336001600160a01b03167f703e744cb3ae9492e7b192242cd2a9916b267e8be750ff02a0961442d87ac60983600201548c88886040518085815260200184815260200183815260200182815260200194505050505060405180910390a3613be88c8c8c8c6000612dc0565b6000613bf48686614c87565b90506000613c028e86614cd1565b9050613c108e8e8e88614d30565b895460018901541415613c3a57505093546000190160029095019490945550611a3a945050505050565b808211613c7357613c4d8e8e8e89614d83565b613c588e8e8e613842565b929d5090975095509350613c6c8787614c87565b9150613c3a565b505050505050505050509392505050565b600082820183811015611a3a576040805162461bcd60e51b815260206004820152601b60248201527f536166654d6174683a206164646974696f6e206f766572666c6f770000000000604482015290519081900360640190fd5b6000611a3a83836040518060400160405280601e81526020017f536166654d6174683a207375627472616374696f6e206f766572666c6f770000815250614855565b600082613d2f575060006117e2565b82820282848281613d3c57fe5b0414611a3a5760405162461bcd60e51b81526004018080602001828103825260218152602001806152896021913960400191505060405180910390fd5b6000611a3a83836040518060400160405280601a81526020017f536166654d6174683a206469766973696f6e206279207a65726f000000000000815250614def565b600083815260048501602090815260408083206001600160a01b0386168452600181019092528220805483928392909183919087908110613df857fe5b6000918252602090912060039091020180546001820154600290920154909b919a5098509650505050505050565b5490565b6000828152600484016020526040812081613e46868686613a45565b905080613e5857600092505050611a3a565b6001600160a01b0384166000908152600183016020526040902080546000198301908110613e8257fe5b906000526020600020906003020160010154925050509392505050565b6000613eab83836149e8565b613ef5576040805162461bcd60e51b815260206004820152601660248201527511925193d4d95d0e881ad95e481b9bdd08199bdd5b9960521b604482015290519081900360640190fd5b506000908152600291909101602052604090206001015490565b6000613f1b83836149e8565b613f65576040805162461bcd60e51b815260206004820152601660248201527511925193d4d95d0e881ad95e481b9bdd08199bdd5b9960521b604482015290519081900360640190fd5b506000908152600291909101602052604090205490565b6000611a3a8383614e54565b6000611a3a836001600160a01b038416614eb8565b60006117e282613e26565b60006117e2826003016137a0565b600082815260016020526040902060020154613fd49061184461395e565b611a985760405162461bcd60e51b81526004018080602001828103825260308152602001806152096030913960400191505060405180910390fd5b801561118a576006546000614040614033655af3107a40008563ffffffff613d2016565b839063ffffffff613c8416565b6006819055604080513381526020810186905280820183905290519192507f9c333ae1cc367c5edbb5f945c128b377930f21862f1679bd163c93cef65e1a68919081900360600190a1505050565b8054604080518082019091526004815263281a981960e11b602082015260009182916140c191429163ffffffff61485516565b9050826001015481816140d057fe5b049392505050565b303b1590565b6140e661514c565b506040805160608101825260008082526020820181905291810182905260038801869055848855600188018490556002880180546001600160a01b0319166001600160a01b038516179055905b86548110156141a657600088600401600089848154811061415057fe5b600091825260208083209091015483528281019390935260409182018120805460018181018355918352918490208751600390930201918255928601518184015590850151600290910155919091019050614133565b5050505050505050565b6000806000806000806000805b60006141c96013613fa8565b1180156141d6575060008a115b1561354257885a101561423f577f26a72b1025f7454a60c5a168febefd96fe828d125284a2aa8de1d2d0942b577d335a604080516001600160a01b0390931683526020830191909152818101849052519081900360600190a160009750505050505050506117e2565b6142496013613e26565b6000818152601160205260409020805460018201549299506001600160a01b0316975090945061427885614b04565b95508561435757841561431a57604080518681529051899133917f766e265970a9d07808a7d69d71eed292addad9a58d5bd5739279d312ac6f1d469181900360200190a360408051631213d11360e21b815290519081900360040190206142eb90600c908988600063ffffffff612dc016565b60408051631213d11360e21b8152905190819003600401902061431a90600c908960008963ffffffff612baf16565b600088815260116020526040812080546001600160a01b0319168155600181018290556002015561435260138963ffffffff6130f316565b614539565b8a935061436384614af8565b925083861015614374578593508492505b604080518581526020810185905281516001600160a01b038a16928b9233927f1bba592cf2bf9b4f8f3adc25fb5285b07027e631563a4ac6fc49ff651801f9f2929181900390910190a4604080516208ae8d60eb1b815290519081900360030190206143ec90600c903387600063ffffffff612baf16565b604080516208ae8d60eb1b8152905190819003600301902061441a90600c908987600063ffffffff612dc016565b60408051631213d11360e21b8152905190819003600401902061444990600c903386600063ffffffff612dc016565b60408051631213d11360e21b8152905190819003600401902061447890600c908960008963ffffffff612baf16565b60408051808201909152600b81526a486f646c4465782035303360a81b60208201526144ad908c90869063ffffffff61485516565b9a50828514156144f457600088815260116020526040812080546001600160a01b031916815560018101829055600201556144ef60138963ffffffff6130f316565b614532565b60408051808201909152600b81526a121bd91b11195e080d4c0d60aa1b6020820152600182015461452c91859063ffffffff61485516565b60018201555b6001909101905b506141bd565b600080808084156146e157600061455586614af8565b60408051631213d11360e21b8152905190819003600401902090915061458490600c903063ffffffff6139d116565b9150818111156145945781614596565b805b935083156146df576145a784614b04565b6040805182815260208101879052815192955033927fc7a2c2400cc73e0579846bf1a4a815fea06f2b8e66c83d8f3de8364d3d2ec289929181900390910190a260408051631213d11360e21b8152905190819003600401902061461690600c903087600063ffffffff612baf16565b60408051631213d11360e21b8152905190819003600401902061464590600c903387600063ffffffff612dc016565b604080516208ae8d60eb1b8152905190819003600301902061467390600c903386600063ffffffff612baf16565b604080516208ae8d60eb1b8152905190819003600301902061469e90600c908563ffffffff61300116565b60408051808201909152600b81526a486f646c4465782035303560a81b60208201526146d3908790859063ffffffff61485516565b95506146df600161400f565b505b50929392505050565b60006802b5e3af16b18800006146ff836123a4565b11801561471357506147116013613fa8565b155b156111a857614720614b1b565b604080518481529051919250339183917fadae744503607b1ac6c8feb1a54fb687ecba33f5d4cc59fdde26dd19de99f0b5919081900360200190a3600081815260126020526040902061477a60188363ffffffff614b6516565b604080516208ae8d60eb1b815290519081900360030190206147a890600c903386600063ffffffff612baf16565b6001810183905580546001600160a01b03191633179055919050565b6000828152600484016020526040812081908190816147e4888888613a45565b9050806147fd575060009350839250829150611d189050565b6001600160a01b038616600090815260018301602052604081208054600019840190811061482757fe5b6000918252602090912060039091020180546002820154600190920154909b919a5098509650505050505050565b600081848411156148e45760405162461bcd60e51b81526004018080602001828103825283818151815260200191508051906020019080838360005b838110156148a9578181015183820152602001614891565b50505050905090810190601f1680156148d65780820380516001836020036101000a031916815260200191505b509250505060405180910390fd5b505050900390565b6000818152600483016020526040812080549091908290600019810190811061491157fe5b90600052602060002090600302019050600061492c8561408e565b905061493785614ed0565b825561494161514c565b50604080516060808201835260008083526020808401828152848601878152895460018181018c558b865294849020875160039092020190815591518285015551600291820155918701548754928801548651338152928301919091528186019290925291820152608081018490529151909186917f0d4b8133b244cfec82d848130189d3c9787263ecbcf6d4432f2d167642547d909181900360a00190a2505050505050565b6000611a3a600384018363ffffffff614f4916565b614a078282614f49565b614a425760405162461bcd60e51b815260040180806020018281038252602a8152602001806151bf602a913960400191505060405180910390fd5b60006001614a4f846137a0565b6000848152602086905260409020549190039150808214614ac0576000846001018381548110614a7b57fe5b90600052602060002001549050818560000160008381526020019081526020016000208190555080856001018381548110614ab257fe5b600091825260209091200155505b60008381526020859052604081205560018401805480614adc57fe5b6001900381819060005260206000200160009055905550505050565b60008061119983614f91565b600080614b10836121b6565b90506111a481614fb7565b60088054600101908190556040805130606090811b6020808401919091523390911b6034830152604880830194909452825180830390940184526068909101909152815191012090565b80614bb7576040805162461bcd60e51b815260206004820152601b60248201527f4649464f5365743a206b65792063616e6e6f74206265207a65726f0000000000604482015290519081900360640190fd5b614bc182826149e8565b15614c0c576040805162461bcd60e51b81526020600482015260166024820152754649464f5365743a206475706c6963617465206b657960501b604482015290519081900360640190fd5b60018201546000828152600284016020526040808220838352912082614c3457838555614c38565b8381555b60018201839055614c52600386018563ffffffff614fcd16565b505050600190910155565b6000611a3a836001600160a01b03841661503c565b6000611a3a836001600160a01b038416615086565b8154600090600183011015614cc157826000018260010181548110614ca857fe5b90600052602060002090600302016002015490506117e2565b50670de0b6b3a764000092915050565b6003820154600090815260048301602052604081208054600184011015614d1d57806000018360010181548110614d0457fe5b9060005260206000209060030201600201549150614d29565b670de0b6b3a763ffff91505b5092915050565b6003840154600090815260048501602052604090205481101561130257600083815260048501602090815260408083206001600160a01b0386168452600190810190925290912081830191015550505050565b6003840154600090815260048501602090815260408083206001600160a01b0386168452600101909152902054811015611302576000928352600493909301602090815260408084206001600160a01b0393909316845260019283019091529091209101600290910155565b60008183614e3e5760405162461bcd60e51b81526020600482018181528351602484015283519092839260449091019190850190808383600083156148a9578181015183820152602001614891565b506000838581614e4a57fe5b0495945050505050565b81546000908210614e965760405162461bcd60e51b815260040180806020018281038252602281526020018061516e6022913960400191505060405180910390fd5b826000018281548110614ea557fe5b9060005260206000200154905092915050565b60009081526001919091016020526040902054151590565b600281015460408051639358928b60e01b815290516000926001600160a01b031691639358928b916004808301926020929190829003018186803b158015614f1757600080fd5b505afa158015614f2b573d6000803e3d6000fd5b505050506040513d6020811015614f4157600080fd5b505192915050565b6001820154600090614f5d575060006117e2565b6000828152602084905260409020546001840180548492908110614f7d57fe5b906000526020600020015414905092915050565b60006117e2670de0b6b3a7640000611cb8614faa613682565b859063ffffffff613d2016565b60006117e26121fb670de0b6b3a7640000614f91565b614fd78282614f49565b156150135760405162461bcd60e51b815260040180806020018281038252602a8152602001806152aa602a913960400191505060405180910390fd5b600180830180546000848152602095865260408120829055928101825590825292902090910155565b60006150488383614eb8565b61507e575081546001818101845560008481526020808220909301849055845484825282860190935260409020919091556117e2565b5060006117e2565b6000818152600183016020526040812054801561514257835460001980830191908101906000908790839081106150b957fe5b90600052602060002001549050808760000184815481106150d657fe5b60009182526020808320909101929092558281526001898101909252604090209084019055865487908061510657fe5b600190038181906000526020600020016000905590558660010160008781526020019081526020016000206000905560019450505050506117e2565b60009150506117e2565b6040518060600160405280600081526020016000815260200160008152509056fe456e756d657261626c655365743a20696e646578206f7574206f6620626f756e6473416363657373436f6e74726f6c3a2073656e646572206d75737420626520616e2061646d696e20746f206772616e74427974657333325365743a206b657920646f6573206e6f7420657869737420696e20746865207365742e486f646c6544657820756e696e697469616c697a65642e000000000000000000416363657373436f6e74726f6c3a2073656e646572206d75737420626520616e2061646d696e20746f207265766f6b65596f75206d7573742073656e642045746820746f20746869732066756e6374696f6e496e697469616c697a61626c653a20636f6e747261637420697320616c726561647920696e697469616c697a6564536166654d6174683a206d756c7469706c69636174696f6e206f766572666c6f77427974657333325365743a206b657920616c72656164792065786973747320696e20746865207365742e416363657373436f6e74726f6c3a2063616e206f6e6c792072656e6f756e636520726f6c657320666f722073656c66a26469706673582212208cc666cd377ccb616bfc9e9caa5d52e1af25ec1293b418d5fb8e706afc81f1cd64736f6c63430006060033",
			"opcodes": "PUSH1 0x80 PUSH1 0x40 MSTORE PUSH2 0x5338 DUP1 PUSH2 0x13 PUSH1 0x0 CODECOPY PUSH1 0x0 RETURN INVALID PUSH1 0x80 PUSH1 0x40 MSTORE PUSH1 0x4 CALLDATASIZE LT PUSH2 0x405 JUMPI PUSH1 0x0 CALLDATALOAD PUSH1 0xE0 SHR DUP1 PUSH4 0x75B238FC GT PUSH2 0x213 JUMPI DUP1 PUSH4 0xBECE7532 GT PUSH2 0x123 JUMPI DUP1 PUSH4 0xE2EE29C3 GT PUSH2 0xAB JUMPI DUP1 PUSH4 0xEF78D4FD GT PUSH2 0x7A JUMPI DUP1 PUSH4 0xEF78D4FD EQ PUSH2 0xDD2 JUMPI DUP1 PUSH4 0xF09A4016 EQ PUSH2 0xDE7 JUMPI DUP1 PUSH4 0xF4F06EED EQ PUSH2 0xE22 JUMPI DUP1 PUSH4 0xF58C7ACF EQ PUSH2 0xE52 JUMPI DUP1 PUSH4 0xF5F593A7 EQ PUSH2 0xE67 JUMPI PUSH2 0x405 JUMP JUMPDEST DUP1 PUSH4 0xE2EE29C3 EQ PUSH2 0xD54 JUMPI DUP1 PUSH4 0xE77349E7 EQ PUSH2 0xD69 JUMPI DUP1 PUSH4 0xE84ABEF1 EQ PUSH2 0xD7E JUMPI DUP1 PUSH4 0xECE7DDBF EQ PUSH2 0xDA8 JUMPI PUSH2 0x405 JUMP JUMPDEST DUP1 PUSH4 0xD1E3175A GT PUSH2 0xF2 JUMPI DUP1 PUSH4 0xD1E3175A EQ PUSH2 0xCC7 JUMPI DUP1 PUSH4 0xD26D1FE6 EQ PUSH2 0xCDC JUMPI DUP1 PUSH4 0xD3A057C8 EQ PUSH2 0xCF1 JUMPI DUP1 PUSH4 0xD547741F EQ PUSH2 0xD06 JUMPI DUP1 PUSH4 0xE286BCA5 EQ PUSH2 0xD3F JUMPI PUSH2 0x405 JUMP JUMPDEST DUP1 PUSH4 0xBECE7532 EQ PUSH2 0xC34 JUMPI DUP1 PUSH4 0xC086381E EQ PUSH2 0xC49 JUMPI DUP1 PUSH4 0xC311D049 EQ PUSH2 0xC73 JUMPI DUP1 PUSH4 0xCA15C873 EQ PUSH2 0xC9D JUMPI PUSH2 0x405 JUMP JUMPDEST DUP1 PUSH4 0x91D14854 GT PUSH2 0x1A6 JUMPI DUP1 PUSH4 0xA217FDDF GT PUSH2 0x175 JUMPI DUP1 PUSH4 0xA217FDDF EQ PUSH2 0xB8A JUMPI DUP1 PUSH4 0xA3053E2A EQ PUSH2 0xB9F JUMPI DUP1 PUSH4 0xB1EB816F EQ PUSH2 0xBC9 JUMPI DUP1 PUSH4 0xBC500409 EQ PUSH2 0xBF5 JUMPI DUP1 PUSH4 0xBCFFE5F4 EQ PUSH2 0xC0A JUMPI PUSH2 0x405 JUMP JUMPDEST DUP1 PUSH4 0x91D14854 EQ PUSH2 0xAE8 JUMPI DUP1 PUSH4 0x9358928B EQ PUSH2 0xB21 JUMPI DUP1 PUSH4 0x947B9383 EQ PUSH2 0xB36 JUMPI DUP1 PUSH4 0x9E3202C9 EQ PUSH2 0xB60 JUMPI PUSH2 0x405 JUMP JUMPDEST DUP1 PUSH4 0x84433221 GT PUSH2 0x1E2 JUMPI DUP1 PUSH4 0x84433221 EQ PUSH2 0xA10 JUMPI DUP1 PUSH4 0x896E9CE0 EQ PUSH2 0xA3A JUMPI DUP1 PUSH4 0x8EB6AC7A EQ PUSH2 0xA4F JUMPI DUP1 PUSH4 0x9010D07C EQ PUSH2 0xA9C JUMPI PUSH2 0x405 JUMP JUMPDEST DUP1 PUSH4 0x75B238FC EQ PUSH2 0x989 JUMPI DUP1 PUSH4 0x75C303C9 EQ PUSH2 0x99E JUMPI DUP1 PUSH4 0x7B4E610A EQ PUSH2 0x9B3 JUMPI DUP1 PUSH4 0x81E7E20E EQ PUSH2 0x9DD JUMPI PUSH2 0x405 JUMP JUMPDEST DUP1 PUSH4 0x2B6FB51D GT PUSH2 0x319 JUMPI DUP1 PUSH4 0x439370B1 GT PUSH2 0x2A1 JUMPI DUP1 PUSH4 0x4F8C4A45 GT PUSH2 0x270 JUMPI DUP1 PUSH4 0x4F8C4A45 EQ PUSH2 0x8CE JUMPI DUP1 PUSH4 0x519BAF94 EQ PUSH2 0x8E3 JUMPI DUP1 PUSH4 0x5F07CBC2 EQ PUSH2 0x8F8 JUMPI DUP1 PUSH4 0x61D21875 EQ PUSH2 0x922 JUMPI DUP1 PUSH4 0x6260F55B EQ PUSH2 0x974 JUMPI PUSH2 0x405 JUMP JUMPDEST DUP1 PUSH4 0x439370B1 EQ PUSH2 0x844 JUMPI DUP1 PUSH4 0x43F48FBD EQ PUSH2 0x84C JUMPI DUP1 PUSH4 0x46DEBF31 EQ PUSH2 0x87A JUMPI DUP1 PUSH4 0x4D7DE20C EQ PUSH2 0x8B9 JUMPI PUSH2 0x405 JUMP JUMPDEST DUP1 PUSH4 0x363ECBC0 GT PUSH2 0x2E8 JUMPI DUP1 PUSH4 0x363ECBC0 EQ PUSH2 0x793 JUMPI DUP1 PUSH4 0x36568ABE EQ PUSH2 0x7CC JUMPI DUP1 PUSH4 0x376FE05B EQ PUSH2 0x805 JUMPI DUP1 PUSH4 0x39C6D4CB EQ PUSH2 0x81A JUMPI DUP1 PUSH4 0x3FB7A0AB EQ PUSH2 0x82F JUMPI PUSH2 0x405 JUMP JUMPDEST DUP1 PUSH4 0x2B6FB51D EQ PUSH2 0x69C JUMPI DUP1 PUSH4 0x2CDF21F3 EQ PUSH2 0x6FD JUMPI DUP1 PUSH4 0x2F2FF15D EQ PUSH2 0x727 JUMPI DUP1 PUSH4 0x2F81B5DF EQ PUSH2 0x760 JUMPI PUSH2 0x405 JUMP JUMPDEST DUP1 PUSH4 0x191FD57D GT PUSH2 0x39C JUMPI DUP1 PUSH4 0x2014E5D1 GT PUSH2 0x36B JUMPI DUP1 PUSH4 0x2014E5D1 EQ PUSH2 0x5D7 JUMPI DUP1 PUSH4 0x248A9CA3 EQ PUSH2 0x600 JUMPI DUP1 PUSH4 0x284FEF4B EQ PUSH2 0x62A JUMPI DUP1 PUSH4 0x2949F19E EQ PUSH2 0x63F JUMPI DUP1 PUSH4 0x2B0EEC97 EQ PUSH2 0x672 JUMPI PUSH2 0x405 JUMP JUMPDEST DUP1 PUSH4 0x191FD57D EQ PUSH2 0x535 JUMPI DUP1 PUSH4 0x1B4D7677 EQ PUSH2 0x54A JUMPI DUP1 PUSH4 0x1B7C7EA7 EQ PUSH2 0x55F JUMPI DUP1 PUSH4 0x1D8F8F4B EQ PUSH2 0x589 JUMPI PUSH2 0x405 JUMP JUMPDEST DUP1 PUSH4 0x164CDED6 GT PUSH2 0x3D8 JUMPI DUP1 PUSH4 0x164CDED6 EQ PUSH2 0x4B1 JUMPI DUP1 PUSH4 0x16F30A7B EQ PUSH2 0x4DB JUMPI DUP1 PUSH4 0x18178358 EQ PUSH2 0x50B JUMPI DUP1 PUSH4 0x1911E522 EQ PUSH2 0x520 JUMPI PUSH2 0x405 JUMP JUMPDEST DUP1 PUSH4 0x76299DE EQ PUSH2 0x40A JUMPI DUP1 PUSH4 0x7E2CEA5 EQ PUSH2 0x436 JUMPI DUP1 PUSH4 0xCC6E019 EQ PUSH2 0x45D JUMPI DUP1 PUSH4 0xEF8E550 EQ PUSH2 0x487 JUMPI JUMPDEST PUSH1 0x0 DUP1 REVERT JUMPDEST CALLVALUE DUP1 ISZERO PUSH2 0x416 JUMPI PUSH1 0x0 DUP1 REVERT JUMPDEST POP PUSH2 0x434 PUSH1 0x4 DUP1 CALLDATASIZE SUB PUSH1 0x20 DUP2 LT ISZERO PUSH2 0x42D JUMPI PUSH1 0x0 DUP1 REVERT JUMPDEST POP CALLDATALOAD PUSH2 0xE95 JUMP JUMPDEST STOP JUMPDEST CALLVALUE DUP1 ISZERO PUSH2 0x442 JUMPI PUSH1 0x0 DUP1 REVERT JUMPDEST POP PUSH2 0x44B PUSH2 0x100A JUMP JUMPDEST PUSH1 0x40 DUP1 MLOAD SWAP2 DUP3 MSTORE MLOAD SWAP1 DUP2 SWAP1 SUB PUSH1 0x20 ADD SWAP1 RETURN JUMPDEST CALLVALUE DUP1 ISZERO PUSH2 0x469 JUMPI PUSH1 0x0 DUP1 REVERT JUMPDEST POP PUSH2 0x434 PUSH1 0x4 DUP1 CALLDATASIZE SUB PUSH1 0x20 DUP2 LT ISZERO PUSH2 0x480 JUMPI PUSH1 0x0 DUP1 REVERT JUMPDEST POP CALLDATALOAD PUSH2 0x102D JUMP JUMPDEST CALLVALUE DUP1 ISZERO PUSH2 0x493 JUMPI PUSH1 0x0 DUP1 REVERT JUMPDEST POP PUSH2 0x44B PUSH1 0x4 DUP1 CALLDATASIZE SUB PUSH1 0x20 DUP2 LT ISZERO PUSH2 0x4AA JUMPI PUSH1 0x0 DUP1 REVERT JUMPDEST POP CALLDATALOAD PUSH2 0x118D JUMP JUMPDEST CALLVALUE DUP1 ISZERO PUSH2 0x4BD JUMPI PUSH1 0x0 DUP1 REVERT JUMPDEST POP PUSH2 0x434 PUSH1 0x4 DUP1 CALLDATASIZE SUB PUSH1 0x20 DUP2 LT ISZERO PUSH2 0x4D4 JUMPI PUSH1 0x0 DUP1 REVERT JUMPDEST POP CALLDATALOAD PUSH2 0x11AD JUMP JUMPDEST CALLVALUE DUP1 ISZERO PUSH2 0x4E7 JUMPI PUSH1 0x0 DUP1 REVERT JUMPDEST POP PUSH2 0x44B PUSH1 0x4 DUP1 CALLDATASIZE SUB PUSH1 0x40 DUP2 LT ISZERO PUSH2 0x4FE JUMPI PUSH1 0x0 DUP1 REVERT JUMPDEST POP DUP1 CALLDATALOAD SWAP1 PUSH1 0x20 ADD CALLDATALOAD PUSH2 0x1308 JUMP JUMPDEST CALLVALUE DUP1 ISZERO PUSH2 0x517 JUMPI PUSH1 0x0 DUP1 REVERT JUMPDEST POP PUSH2 0x434 PUSH2 0x1473 JUMP JUMPDEST CALLVALUE DUP1 ISZERO PUSH2 0x52C JUMPI PUSH1 0x0 DUP1 REVERT JUMPDEST POP PUSH2 0x44B PUSH2 0x1524 JUMP JUMPDEST CALLVALUE DUP1 ISZERO PUSH2 0x541 JUMPI PUSH1 0x0 DUP1 REVERT JUMPDEST POP PUSH2 0x44B PUSH2 0x1536 JUMP JUMPDEST CALLVALUE DUP1 ISZERO PUSH2 0x556 JUMPI PUSH1 0x0 DUP1 REVERT JUMPDEST POP PUSH2 0x44B PUSH2 0x155A JUMP JUMPDEST CALLVALUE DUP1 ISZERO PUSH2 0x56B JUMPI PUSH1 0x0 DUP1 REVERT JUMPDEST POP PUSH2 0x434 PUSH1 0x4 DUP1 CALLDATASIZE SUB PUSH1 0x20 DUP2 LT ISZERO PUSH2 0x582 JUMPI PUSH1 0x0 DUP1 REVERT JUMPDEST POP CALLDATALOAD PUSH2 0x1560 JUMP JUMPDEST CALLVALUE DUP1 ISZERO PUSH2 0x595 JUMPI PUSH1 0x0 DUP1 REVERT JUMPDEST POP PUSH2 0x5B9 PUSH1 0x4 DUP1 CALLDATASIZE SUB PUSH1 0x40 DUP2 LT ISZERO PUSH2 0x5AC JUMPI PUSH1 0x0 DUP1 REVERT JUMPDEST POP DUP1 CALLDATALOAD SWAP1 PUSH1 0x20 ADD CALLDATALOAD PUSH2 0x167D JUMP JUMPDEST PUSH1 0x40 DUP1 MLOAD SWAP4 DUP5 MSTORE PUSH1 0x20 DUP5 ADD SWAP3 SWAP1 SWAP3 MSTORE DUP3 DUP3 ADD MSTORE MLOAD SWAP1 DUP2 SWAP1 SUB PUSH1 0x60 ADD SWAP1 RETURN JUMPDEST CALLVALUE DUP1 ISZERO PUSH2 0x5E3 JUMPI PUSH1 0x0 DUP1 REVERT JUMPDEST POP PUSH2 0x5EC PUSH2 0x16A0 JUMP JUMPDEST PUSH1 0x40 DUP1 MLOAD SWAP2 ISZERO ISZERO DUP3 MSTORE MLOAD SWAP1 DUP2 SWAP1 SUB PUSH1 0x20 ADD SWAP1 RETURN JUMPDEST CALLVALUE DUP1 ISZERO PUSH2 0x60C JUMPI PUSH1 0x0 DUP1 REVERT JUMPDEST POP PUSH2 0x44B PUSH1 0x4 DUP1 CALLDATASIZE SUB PUSH1 0x20 DUP2 LT ISZERO PUSH2 0x623 JUMPI PUSH1 0x0 DUP1 REVERT JUMPDEST POP CALLDATALOAD PUSH2 0x16D5 JUMP JUMPDEST CALLVALUE DUP1 ISZERO PUSH2 0x636 JUMPI PUSH1 0x0 DUP1 REVERT JUMPDEST POP PUSH2 0x44B PUSH2 0x16EA JUMP JUMPDEST CALLVALUE DUP1 ISZERO PUSH2 0x64B JUMPI PUSH1 0x0 DUP1 REVERT JUMPDEST POP PUSH2 0x434 PUSH1 0x4 DUP1 CALLDATASIZE SUB PUSH1 0x20 DUP2 LT ISZERO PUSH2 0x662 JUMPI PUSH1 0x0 DUP1 REVERT JUMPDEST POP CALLDATALOAD PUSH1 0x1 PUSH1 0x1 PUSH1 0xA0 SHL SUB AND PUSH2 0x1705 JUMP JUMPDEST CALLVALUE DUP1 ISZERO PUSH2 0x67E JUMPI PUSH1 0x0 DUP1 REVERT JUMPDEST POP PUSH2 0x44B PUSH1 0x4 DUP1 CALLDATASIZE SUB PUSH1 0x20 DUP2 LT ISZERO PUSH2 0x695 JUMPI PUSH1 0x0 DUP1 REVERT JUMPDEST POP CALLDATALOAD PUSH2 0x17CF JUMP JUMPDEST CALLVALUE DUP1 ISZERO PUSH2 0x6A8 JUMPI PUSH1 0x0 DUP1 REVERT JUMPDEST POP PUSH2 0x6D5 PUSH1 0x4 DUP1 CALLDATASIZE SUB PUSH1 0x40 DUP2 LT ISZERO PUSH2 0x6BF JUMPI PUSH1 0x0 DUP1 REVERT JUMPDEST POP PUSH1 0x1 PUSH1 0x1 PUSH1 0xA0 SHL SUB DUP2 CALLDATALOAD AND SWAP1 PUSH1 0x20 ADD CALLDATALOAD PUSH2 0x17E8 JUMP JUMPDEST PUSH1 0x40 DUP1 MLOAD SWAP5 DUP6 MSTORE PUSH1 0x20 DUP6 ADD SWAP4 SWAP1 SWAP4 MSTORE DUP4 DUP4 ADD SWAP2 SWAP1 SWAP2 MSTORE ISZERO ISZERO PUSH1 0x60 DUP4 ADD MSTORE MLOAD SWAP1 DUP2 SWAP1 SUB PUSH1 0x80 ADD SWAP1 RETURN JUMPDEST CALLVALUE DUP1 ISZERO PUSH2 0x709 JUMPI PUSH1 0x0 DUP1 REVERT JUMPDEST POP PUSH2 0x44B PUSH1 0x4 DUP1 CALLDATASIZE SUB PUSH1 0x20 DUP2 LT ISZERO PUSH2 0x720 JUMPI PUSH1 0x0 DUP1 REVERT JUMPDEST POP CALLDATALOAD PUSH2 0x180F JUMP JUMPDEST CALLVALUE DUP1 ISZERO PUSH2 0x733 JUMPI PUSH1 0x0 DUP1 REVERT JUMPDEST POP PUSH2 0x434 PUSH1 0x4 DUP1 CALLDATASIZE SUB PUSH1 0x40 DUP2 LT ISZERO PUSH2 0x74A JUMPI PUSH1 0x0 DUP1 REVERT JUMPDEST POP DUP1 CALLDATALOAD SWAP1 PUSH1 0x20 ADD CALLDATALOAD PUSH1 0x1 PUSH1 0x1 PUSH1 0xA0 SHL SUB AND PUSH2 0x1826 JUMP JUMPDEST CALLVALUE DUP1 ISZERO PUSH2 0x76C JUMPI PUSH1 0x0 DUP1 REVERT JUMPDEST POP PUSH2 0x434 PUSH1 0x4 DUP1 CALLDATASIZE SUB PUSH1 0x20 DUP2 LT ISZERO PUSH2 0x783 JUMPI PUSH1 0x0 DUP1 REVERT JUMPDEST POP CALLDATALOAD PUSH1 0x1 PUSH1 0x1 PUSH1 0xA0 SHL SUB AND PUSH2 0x188E JUMP JUMPDEST CALLVALUE DUP1 ISZERO PUSH2 0x79F JUMPI PUSH1 0x0 DUP1 REVERT JUMPDEST POP PUSH2 0x44B PUSH1 0x4 DUP1 CALLDATASIZE SUB PUSH1 0x40 DUP2 LT ISZERO PUSH2 0x7B6 JUMPI PUSH1 0x0 DUP1 REVERT JUMPDEST POP DUP1 CALLDATALOAD SWAP1 PUSH1 0x20 ADD CALLDATALOAD PUSH1 0x1 PUSH1 0x1 PUSH1 0xA0 SHL SUB AND PUSH2 0x1A26 JUMP JUMPDEST CALLVALUE DUP1 ISZERO PUSH2 0x7D8 JUMPI PUSH1 0x0 DUP1 REVERT JUMPDEST POP PUSH2 0x434 PUSH1 0x4 DUP1 CALLDATASIZE SUB PUSH1 0x40 DUP2 LT ISZERO PUSH2 0x7EF JUMPI PUSH1 0x0 DUP1 REVERT JUMPDEST POP DUP1 CALLDATALOAD SWAP1 PUSH1 0x20 ADD CALLDATALOAD PUSH1 0x1 PUSH1 0x1 PUSH1 0xA0 SHL SUB AND PUSH2 0x1A41 JUMP JUMPDEST CALLVALUE DUP1 ISZERO PUSH2 0x811 JUMPI PUSH1 0x0 DUP1 REVERT JUMPDEST POP PUSH2 0x44B PUSH2 0x1AA2 JUMP JUMPDEST CALLVALUE DUP1 ISZERO PUSH2 0x826 JUMPI PUSH1 0x0 DUP1 REVERT JUMPDEST POP PUSH2 0x44B PUSH2 0x1B17 JUMP JUMPDEST CALLVALUE DUP1 ISZERO PUSH2 0x83B JUMPI PUSH1 0x0 DUP1 REVERT JUMPDEST POP PUSH2 0x44B PUSH2 0x1B3D JUMP JUMPDEST PUSH2 0x434 PUSH2 0x1B43 JUMP JUMPDEST CALLVALUE DUP1 ISZERO PUSH2 0x858 JUMPI PUSH1 0x0 DUP1 REVERT JUMPDEST POP PUSH2 0x861 PUSH2 0x1C2D JUMP JUMPDEST PUSH1 0x40 DUP1 MLOAD SWAP3 DUP4 MSTORE PUSH1 0x20 DUP4 ADD SWAP2 SWAP1 SWAP2 MSTORE DUP1 MLOAD SWAP2 DUP3 SWAP1 SUB ADD SWAP1 RETURN JUMPDEST CALLVALUE DUP1 ISZERO PUSH2 0x886 JUMPI PUSH1 0x0 DUP1 REVERT JUMPDEST POP PUSH2 0x5B9 PUSH1 0x4 DUP1 CALLDATASIZE SUB PUSH1 0x60 DUP2 LT ISZERO PUSH2 0x89D JUMPI PUSH1 0x0 DUP1 REVERT JUMPDEST POP DUP1 CALLDATALOAD SWAP1 PUSH1 0x1 PUSH1 0x1 PUSH1 0xA0 SHL SUB PUSH1 0x20 DUP3 ADD CALLDATALOAD AND SWAP1 PUSH1 0x40 ADD CALLDATALOAD PUSH2 0x1CFA JUMP JUMPDEST CALLVALUE DUP1 ISZERO PUSH2 0x8C5 JUMPI PUSH1 0x0 DUP1 REVERT JUMPDEST POP PUSH2 0x44B PUSH2 0x1D21 JUMP JUMPDEST CALLVALUE DUP1 ISZERO PUSH2 0x8DA JUMPI PUSH1 0x0 DUP1 REVERT JUMPDEST POP PUSH2 0x44B PUSH2 0x1D2D JUMP JUMPDEST CALLVALUE DUP1 ISZERO PUSH2 0x8EF JUMPI PUSH1 0x0 DUP1 REVERT JUMPDEST POP PUSH2 0x44B PUSH2 0x1D49 JUMP JUMPDEST CALLVALUE DUP1 ISZERO PUSH2 0x904 JUMPI PUSH1 0x0 DUP1 REVERT JUMPDEST POP PUSH2 0x434 PUSH1 0x4 DUP1 CALLDATASIZE SUB PUSH1 0x20 DUP2 LT ISZERO PUSH2 0x91B JUMPI PUSH1 0x0 DUP1 REVERT JUMPDEST POP CALLDATALOAD PUSH2 0x1D55 JUMP JUMPDEST CALLVALUE DUP1 ISZERO PUSH2 0x92E JUMPI PUSH1 0x0 DUP1 REVERT JUMPDEST POP PUSH2 0x94C PUSH1 0x4 DUP1 CALLDATASIZE SUB PUSH1 0x20 DUP2 LT ISZERO PUSH2 0x945 JUMPI PUSH1 0x0 DUP1 REVERT JUMPDEST POP CALLDATALOAD PUSH2 0x1EBC JUMP JUMPDEST PUSH1 0x40 DUP1 MLOAD PUSH1 0x1 PUSH1 0x1 PUSH1 0xA0 SHL SUB SWAP1 SWAP5 AND DUP5 MSTORE PUSH1 0x20 DUP5 ADD SWAP3 SWAP1 SWAP3 MSTORE DUP3 DUP3 ADD MSTORE MLOAD SWAP1 DUP2 SWAP1 SUB PUSH1 0x60 ADD SWAP1 RETURN JUMPDEST CALLVALUE DUP1 ISZERO PUSH2 0x980 JUMPI PUSH1 0x0 DUP1 REVERT JUMPDEST POP PUSH2 0x44B PUSH2 0x1EE7 JUMP JUMPDEST CALLVALUE DUP1 ISZERO PUSH2 0x995 JUMPI PUSH1 0x0 DUP1 REVERT JUMPDEST POP PUSH2 0x44B PUSH2 0x1EED JUMP JUMPDEST CALLVALUE DUP1 ISZERO PUSH2 0x9AA JUMPI PUSH1 0x0 DUP1 REVERT JUMPDEST POP PUSH2 0x44B PUSH2 0x1F0F JUMP JUMPDEST CALLVALUE DUP1 ISZERO PUSH2 0x9BF JUMPI PUSH1 0x0 DUP1 REVERT JUMPDEST POP PUSH2 0x434 PUSH1 0x4 DUP1 CALLDATASIZE SUB PUSH1 0x20 DUP2 LT ISZERO PUSH2 0x9D6 JUMPI PUSH1 0x0 DUP1 REVERT JUMPDEST POP CALLDATALOAD PUSH2 0x1F3F JUMP JUMPDEST CALLVALUE DUP1 ISZERO PUSH2 0x9E9 JUMPI PUSH1 0x0 DUP1 REVERT JUMPDEST POP PUSH2 0x5B9 PUSH1 0x4 DUP1 CALLDATASIZE SUB PUSH1 0x20 DUP2 LT ISZERO PUSH2 0xA00 JUMPI PUSH1 0x0 DUP1 REVERT JUMPDEST POP CALLDATALOAD PUSH1 0x1 PUSH1 0x1 PUSH1 0xA0 SHL SUB AND PUSH2 0x1FF8 JUMP JUMPDEST CALLVALUE DUP1 ISZERO PUSH2 0xA1C JUMPI PUSH1 0x0 DUP1 REVERT JUMPDEST POP PUSH2 0x861 PUSH1 0x4 DUP1 CALLDATASIZE SUB PUSH1 0x20 DUP2 LT ISZERO PUSH2 0xA33 JUMPI PUSH1 0x0 DUP1 REVERT JUMPDEST POP CALLDATALOAD PUSH2 0x208F JUMP JUMPDEST CALLVALUE DUP1 ISZERO PUSH2 0xA46 JUMPI PUSH1 0x0 DUP1 REVERT JUMPDEST POP PUSH2 0x5EC PUSH2 0x20BD JUMP JUMPDEST CALLVALUE DUP1 ISZERO PUSH2 0xA5B JUMPI PUSH1 0x0 DUP1 REVERT JUMPDEST POP PUSH2 0xA79 PUSH1 0x4 DUP1 CALLDATASIZE SUB PUSH1 0x20 DUP2 LT ISZERO PUSH2 0xA72 JUMPI PUSH1 0x0 DUP1 REVERT JUMPDEST POP CALLDATALOAD PUSH2 0x20DD JUMP JUMPDEST PUSH1 0x40 DUP1 MLOAD PUSH1 0x1 PUSH1 0x1 PUSH1 0xA0 SHL SUB SWAP1 SWAP4 AND DUP4 MSTORE PUSH1 0x20 DUP4 ADD SWAP2 SWAP1 SWAP2 MSTORE DUP1 MLOAD SWAP2 DUP3 SWAP1 SUB ADD SWAP1 RETURN JUMPDEST CALLVALUE DUP1 ISZERO PUSH2 0xAA8 JUMPI PUSH1 0x0 DUP1 REVERT JUMPDEST POP PUSH2 0xACC PUSH1 0x4 DUP1 CALLDATASIZE SUB PUSH1 0x40 DUP2 LT ISZERO PUSH2 0xABF JUMPI PUSH1 0x0 DUP1 REVERT JUMPDEST POP DUP1 CALLDATALOAD SWAP1 PUSH1 0x20 ADD CALLDATALOAD PUSH2 0x2102 JUMP JUMPDEST PUSH1 0x40 DUP1 MLOAD PUSH1 0x1 PUSH1 0x1 PUSH1 0xA0 SHL SUB SWAP1 SWAP3 AND DUP3 MSTORE MLOAD SWAP1 DUP2 SWAP1 SUB PUSH1 0x20 ADD SWAP1 RETURN JUMPDEST CALLVALUE DUP1 ISZERO PUSH2 0xAF4 JUMPI PUSH1 0x0 DUP1 REVERT JUMPDEST POP PUSH2 0x5EC PUSH1 0x4 DUP1 CALLDATASIZE SUB PUSH1 0x40 DUP2 LT ISZERO PUSH2 0xB0B JUMPI PUSH1 0x0 DUP1 REVERT JUMPDEST POP DUP1 CALLDATALOAD SWAP1 PUSH1 0x20 ADD CALLDATALOAD PUSH1 0x1 PUSH1 0x1 PUSH1 0xA0 SHL SUB AND PUSH2 0x2120 JUMP JUMPDEST CALLVALUE DUP1 ISZERO PUSH2 0xB2D JUMPI PUSH1 0x0 DUP1 REVERT JUMPDEST POP PUSH2 0x44B PUSH2 0x213E JUMP JUMPDEST CALLVALUE DUP1 ISZERO PUSH2 0xB42 JUMPI PUSH1 0x0 DUP1 REVERT JUMPDEST POP PUSH2 0x44B PUSH1 0x4 DUP1 CALLDATASIZE SUB PUSH1 0x20 DUP2 LT ISZERO PUSH2 0xB59 JUMPI PUSH1 0x0 DUP1 REVERT JUMPDEST POP CALLDATALOAD PUSH2 0x218C JUMP JUMPDEST CALLVALUE DUP1 ISZERO PUSH2 0xB6C JUMPI PUSH1 0x0 DUP1 REVERT JUMPDEST POP PUSH2 0x44B PUSH1 0x4 DUP1 CALLDATASIZE SUB PUSH1 0x20 DUP2 LT ISZERO PUSH2 0xB83 JUMPI PUSH1 0x0 DUP1 REVERT JUMPDEST POP CALLDATALOAD PUSH2 0x21B6 JUMP JUMPDEST CALLVALUE DUP1 ISZERO PUSH2 0xB96 JUMPI PUSH1 0x0 DUP1 REVERT JUMPDEST POP PUSH2 0x44B PUSH2 0x21E0 JUMP JUMPDEST CALLVALUE DUP1 ISZERO PUSH2 0xBAB JUMPI PUSH1 0x0 DUP1 REVERT JUMPDEST POP PUSH2 0x44B PUSH1 0x4 DUP1 CALLDATASIZE SUB PUSH1 0x20 DUP2 LT ISZERO PUSH2 0xBC2 JUMPI PUSH1 0x0 DUP1 REVERT JUMPDEST POP CALLDATALOAD PUSH2 0x21E5 JUMP JUMPDEST PUSH2 0x434 PUSH1 0x4 DUP1 CALLDATASIZE SUB PUSH1 0x40 DUP2 LT ISZERO PUSH2 0xBDF JUMPI PUSH1 0x0 DUP1 REVERT JUMPDEST POP PUSH1 0x1 PUSH1 0x1 PUSH1 0xA0 SHL SUB DUP2 CALLDATALOAD AND SWAP1 PUSH1 0x20 ADD CALLDATALOAD PUSH2 0x2213 JUMP JUMPDEST CALLVALUE DUP1 ISZERO PUSH2 0xC01 JUMPI PUSH1 0x0 DUP1 REVERT JUMPDEST POP PUSH2 0x44B PUSH2 0x2364 JUMP JUMPDEST CALLVALUE DUP1 ISZERO PUSH2 0xC16 JUMPI PUSH1 0x0 DUP1 REVERT JUMPDEST POP PUSH2 0x861 PUSH1 0x4 DUP1 CALLDATASIZE SUB PUSH1 0x20 DUP2 LT ISZERO PUSH2 0xC2D JUMPI PUSH1 0x0 DUP1 REVERT JUMPDEST POP CALLDATALOAD PUSH2 0x2370 JUMP JUMPDEST CALLVALUE DUP1 ISZERO PUSH2 0xC40 JUMPI PUSH1 0x0 DUP1 REVERT JUMPDEST POP PUSH2 0xACC PUSH2 0x2395 JUMP JUMPDEST CALLVALUE DUP1 ISZERO PUSH2 0xC55 JUMPI PUSH1 0x0 DUP1 REVERT JUMPDEST POP PUSH2 0x44B PUSH1 0x4 DUP1 CALLDATASIZE SUB PUSH1 0x20 DUP2 LT ISZERO PUSH2 0xC6C JUMPI PUSH1 0x0 DUP1 REVERT JUMPDEST POP CALLDATALOAD PUSH2 0x23A4 JUMP JUMPDEST CALLVALUE DUP1 ISZERO PUSH2 0xC7F JUMPI PUSH1 0x0 DUP1 REVERT JUMPDEST POP PUSH2 0x434 PUSH1 0x4 DUP1 CALLDATASIZE SUB PUSH1 0x20 DUP2 LT ISZERO PUSH2 0xC96 JUMPI PUSH1 0x0 DUP1 REVERT JUMPDEST POP CALLDATALOAD PUSH2 0x23C7 JUMP JUMPDEST CALLVALUE DUP1 ISZERO PUSH2 0xCA9 JUMPI PUSH1 0x0 DUP1 REVERT JUMPDEST POP PUSH2 0x44B PUSH1 0x4 DUP1 CALLDATASIZE SUB PUSH1 0x20 DUP2 LT ISZERO PUSH2 0xCC0 JUMPI PUSH1 0x0 DUP1 REVERT JUMPDEST POP CALLDATALOAD PUSH2 0x249F JUMP JUMPDEST CALLVALUE DUP1 ISZERO PUSH2 0xCD3 JUMPI PUSH1 0x0 DUP1 REVERT JUMPDEST POP PUSH2 0x44B PUSH2 0x24B6 JUMP JUMPDEST CALLVALUE DUP1 ISZERO PUSH2 0xCE8 JUMPI PUSH1 0x0 DUP1 REVERT JUMPDEST POP PUSH2 0x44B PUSH2 0x24C2 JUMP JUMPDEST CALLVALUE DUP1 ISZERO PUSH2 0xCFD JUMPI PUSH1 0x0 DUP1 REVERT JUMPDEST POP PUSH2 0x5EC PUSH2 0x24C8 JUMP JUMPDEST CALLVALUE DUP1 ISZERO PUSH2 0xD12 JUMPI PUSH1 0x0 DUP1 REVERT JUMPDEST POP PUSH2 0x434 PUSH1 0x4 DUP1 CALLDATASIZE SUB PUSH1 0x40 DUP2 LT ISZERO PUSH2 0xD29 JUMPI PUSH1 0x0 DUP1 REVERT JUMPDEST POP DUP1 CALLDATALOAD SWAP1 PUSH1 0x20 ADD CALLDATALOAD PUSH1 0x1 PUSH1 0x1 PUSH1 0xA0 SHL SUB AND PUSH2 0x24D9 JUMP JUMPDEST CALLVALUE DUP1 ISZERO PUSH2 0xD4B JUMPI PUSH1 0x0 DUP1 REVERT JUMPDEST POP PUSH2 0xACC PUSH2 0x2530 JUMP JUMPDEST CALLVALUE DUP1 ISZERO PUSH2 0xD60 JUMPI PUSH1 0x0 DUP1 REVERT JUMPDEST POP PUSH2 0x44B PUSH2 0x253F JUMP JUMPDEST CALLVALUE DUP1 ISZERO PUSH2 0xD75 JUMPI PUSH1 0x0 DUP1 REVERT JUMPDEST POP PUSH2 0x44B PUSH2 0x25B3 JUMP JUMPDEST CALLVALUE DUP1 ISZERO PUSH2 0xD8A JUMPI PUSH1 0x0 DUP1 REVERT JUMPDEST POP PUSH2 0x434 PUSH1 0x4 DUP1 CALLDATASIZE SUB PUSH1 0x20 DUP2 LT ISZERO PUSH2 0xDA1 JUMPI PUSH1 0x0 DUP1 REVERT JUMPDEST POP CALLDATALOAD PUSH2 0x25B9 JUMP JUMPDEST CALLVALUE DUP1 ISZERO PUSH2 0xDB4 JUMPI PUSH1 0x0 DUP1 REVERT JUMPDEST POP PUSH2 0x434 PUSH1 0x4 DUP1 CALLDATASIZE SUB PUSH1 0x20 DUP2 LT ISZERO PUSH2 0xDCB JUMPI PUSH1 0x0 DUP1 REVERT JUMPDEST POP CALLDATALOAD PUSH2 0x2632 JUMP JUMPDEST CALLVALUE DUP1 ISZERO PUSH2 0xDDE JUMPI PUSH1 0x0 DUP1 REVERT JUMPDEST POP PUSH2 0x44B PUSH2 0x26E9 JUMP JUMPDEST CALLVALUE DUP1 ISZERO PUSH2 0xDF3 JUMPI PUSH1 0x0 DUP1 REVERT JUMPDEST POP PUSH2 0x434 PUSH1 0x4 DUP1 CALLDATASIZE SUB PUSH1 0x40 DUP2 LT ISZERO PUSH2 0xE0A JUMPI PUSH1 0x0 DUP1 REVERT JUMPDEST POP PUSH1 0x1 PUSH1 0x1 PUSH1 0xA0 SHL SUB DUP2 CALLDATALOAD DUP2 AND SWAP2 PUSH1 0x20 ADD CALLDATALOAD AND PUSH2 0x26F5 JUMP JUMPDEST CALLVALUE DUP1 ISZERO PUSH2 0xE2E JUMPI PUSH1 0x0 DUP1 REVERT JUMPDEST POP PUSH2 0x44B PUSH1 0x4 DUP1 CALLDATASIZE SUB PUSH1 0x40 DUP2 LT ISZERO PUSH2 0xE45 JUMPI PUSH1 0x0 DUP1 REVERT JUMPDEST POP DUP1 CALLDATALOAD SWAP1 PUSH1 0x20 ADD CALLDATALOAD PUSH2 0x29B1 JUMP JUMPDEST CALLVALUE DUP1 ISZERO PUSH2 0xE5E JUMPI PUSH1 0x0 DUP1 REVERT JUMPDEST POP PUSH2 0x44B PUSH2 0x2B14 JUMP JUMPDEST CALLVALUE DUP1 ISZERO PUSH2 0xE73 JUMPI PUSH1 0x0 DUP1 REVERT JUMPDEST POP PUSH2 0xE7C PUSH2 0x2B20 JUMP JUMPDEST PUSH1 0x40 DUP1 MLOAD SWAP3 DUP4 MSTORE SWAP1 ISZERO ISZERO PUSH1 0x20 DUP4 ADD MSTORE DUP1 MLOAD SWAP2 DUP3 SWAP1 SUB ADD SWAP1 RETURN JUMPDEST PUSH2 0xE9D PUSH2 0x16A0 JUMP JUMPDEST PUSH2 0xEDC JUMPI PUSH1 0x40 DUP1 MLOAD PUSH3 0x461BCD PUSH1 0xE5 SHL DUP2 MSTORE PUSH1 0x20 PUSH1 0x4 DUP3 ADD MSTORE PUSH1 0x17 PUSH1 0x24 DUP3 ADD MSTORE PUSH1 0x0 DUP1 MLOAD PUSH1 0x20 PUSH2 0x51E9 DUP4 CODECOPY DUP2 MLOAD SWAP2 MSTORE PUSH1 0x44 DUP3 ADD MSTORE SWAP1 MLOAD SWAP1 DUP2 SWAP1 SUB PUSH1 0x64 ADD SWAP1 REVERT JUMPDEST PUSH1 0x3 SLOAD PUSH1 0x40 DUP1 MLOAD PUSH4 0x1A59529F PUSH1 0xE2 SHL DUP2 MSTORE CALLER PUSH1 0x4 DUP3 ADD MSTORE PUSH1 0x24 DUP2 ADD DUP5 SWAP1 MSTORE SWAP1 MLOAD PUSH1 0x0 SWAP3 PUSH1 0x1 PUSH1 0x1 PUSH1 0xA0 SHL SUB AND SWAP2 PUSH4 0x69654A7C SWAP2 PUSH1 0x44 DUP1 DUP4 ADD SWAP3 PUSH1 0x20 SWAP3 SWAP2 SWAP1 DUP3 SWAP1 SUB ADD DUP2 DUP8 DUP8 DUP1 EXTCODESIZE ISZERO DUP1 ISZERO PUSH2 0xF2F JUMPI PUSH1 0x0 DUP1 REVERT JUMPDEST POP GAS CALL ISZERO DUP1 ISZERO PUSH2 0xF43 JUMPI RETURNDATASIZE PUSH1 0x0 DUP1 RETURNDATACOPY RETURNDATASIZE PUSH1 0x0 REVERT JUMPDEST POP POP POP POP PUSH1 0x40 MLOAD RETURNDATASIZE PUSH1 0x20 DUP2 LT ISZERO PUSH2 0xF59 JUMPI PUSH1 0x0 DUP1 REVERT JUMPDEST POP MLOAD PUSH1 0x40 DUP1 MLOAD DUP5 DUP2 MSTORE SWAP1 MLOAD SWAP2 SWAP3 POP CALLER SWAP2 PUSH32 0xAE04020023B6607A78E324B7D4A7C1D68084B777DD7077DC7B816ABB498C60DB SWAP2 DUP2 SWAP1 SUB PUSH1 0x20 ADD SWAP1 LOG2 PUSH1 0x40 DUP1 MLOAD PUSH4 0x1213D113 PUSH1 0xE2 SHL DUP2 MSTORE SWAP1 MLOAD SWAP1 DUP2 SWAP1 SUB PUSH1 0x4 ADD SWAP1 KECCAK256 PUSH2 0xFC2 SWAP1 PUSH1 0xC SWAP1 CALLER DUP5 PUSH1 0x0 PUSH4 0xFFFFFFFF PUSH2 0x2BAF AND JUMP JUMPDEST PUSH1 0x40 DUP1 MLOAD PUSH4 0x1213D113 PUSH1 0xE2 SHL DUP2 MSTORE SWAP1 MLOAD SWAP1 DUP2 SWAP1 SUB PUSH1 0x4 ADD SWAP1 KECCAK256 PUSH1 0x3 SLOAD PUSH2 0xFFC SWAP2 PUSH1 0xC SWAP2 PUSH1 0x1 PUSH1 0x1 PUSH1 0xA0 SHL SUB AND DUP5 PUSH1 0x0 PUSH4 0xFFFFFFFF PUSH2 0x2DC0 AND JUMP JUMPDEST POP PUSH2 0x1005 PUSH2 0x2F74 JUMP JUMPDEST POP POP POP JUMP JUMPDEST PUSH1 0x40 DUP1 MLOAD PUSH11 0x4F7261636C6520526F6C65 PUSH1 0xA8 SHL DUP2 MSTORE SWAP1 MLOAD SWAP1 DUP2 SWAP1 SUB PUSH1 0xB ADD SWAP1 KECCAK256 DUP2 JUMP JUMPDEST PUSH2 0x1035 PUSH2 0x16A0 JUMP JUMPDEST PUSH2 0x1074 JUMPI PUSH1 0x40 DUP1 MLOAD PUSH3 0x461BCD PUSH1 0xE5 SHL DUP2 MSTORE PUSH1 0x20 PUSH1 0x4 DUP3 ADD MSTORE PUSH1 0x17 PUSH1 0x24 DUP3 ADD MSTORE PUSH1 0x0 DUP1 MLOAD PUSH1 0x20 PUSH2 0x51E9 DUP4 CODECOPY DUP2 MLOAD SWAP2 MSTORE PUSH1 0x44 DUP3 ADD MSTORE SWAP1 MLOAD SWAP1 DUP2 SWAP1 SUB PUSH1 0x64 ADD SWAP1 REVERT JUMPDEST PUSH1 0x40 DUP1 MLOAD PUSH12 0x5265736572766520526F6C65 PUSH1 0xA0 SHL DUP2 MSTORE SWAP1 MLOAD SWAP1 DUP2 SWAP1 SUB PUSH1 0xC ADD SWAP1 KECCAK256 PUSH2 0x109F SWAP1 CALLER PUSH2 0x2120 JUMP JUMPDEST PUSH2 0x10E9 JUMPI PUSH1 0x40 DUP1 MLOAD PUSH3 0x461BCD PUSH1 0xE5 SHL DUP2 MSTORE PUSH1 0x20 PUSH1 0x4 DUP3 ADD MSTORE PUSH1 0x16 PUSH1 0x24 DUP3 ADD MSTORE PUSH22 0x2437B2362232BC101A18199036B4B3B930BA34B7B717 PUSH1 0x51 SHL PUSH1 0x44 DUP3 ADD MSTORE SWAP1 MLOAD SWAP1 DUP2 SWAP1 SUB PUSH1 0x64 ADD SWAP1 REVERT JUMPDEST PUSH1 0x40 DUP1 MLOAD CALLER DUP2 MSTORE PUSH1 0x20 DUP2 ADD DUP4 SWAP1 MSTORE DUP2 MLOAD PUSH32 0x8B476DDF0FF11F47272C435B662B2534D5469ED9F10FB084C37F17B028CB459D SWAP3 SWAP2 DUP2 SWAP1 SUB SWAP1 SWAP2 ADD SWAP1 LOG1 PUSH1 0x40 DUP1 MLOAD PUSH4 0x1213D113 PUSH1 0xE2 SHL DUP2 MSTORE SWAP1 MLOAD SWAP1 DUP2 SWAP1 SUB PUSH1 0x4 ADD SWAP1 KECCAK256 PUSH1 0x3 SLOAD PUSH2 0x115E SWAP2 PUSH1 0xC SWAP2 PUSH1 0x1 PUSH1 0x1 PUSH1 0xA0 SHL SUB AND DUP5 PUSH1 0x0 PUSH4 0xFFFFFFFF PUSH2 0x2BAF AND JUMP JUMPDEST PUSH1 0x40 DUP1 MLOAD PUSH4 0x1213D113 PUSH1 0xE2 SHL DUP2 MSTORE SWAP1 MLOAD SWAP1 DUP2 SWAP1 SUB PUSH1 0x4 ADD SWAP1 KECCAK256 PUSH2 0x118A SWAP1 PUSH1 0xC SWAP1 DUP4 PUSH4 0xFFFFFFFF PUSH2 0x3001 AND JUMP JUMPDEST POP JUMP JUMPDEST PUSH1 0x0 DUP1 PUSH2 0x1199 DUP4 PUSH2 0x23A4 JUMP JUMPDEST SWAP1 POP PUSH2 0x11A4 DUP2 PUSH2 0x218C JUMP JUMPDEST SWAP2 POP POP JUMPDEST SWAP2 SWAP1 POP JUMP JUMPDEST PUSH2 0x11B5 PUSH2 0x16A0 JUMP JUMPDEST PUSH2 0x11F4 JUMPI PUSH1 0x40 DUP1 MLOAD PUSH3 0x461BCD PUSH1 0xE5 SHL DUP2 MSTORE PUSH1 0x20 PUSH1 0x4 DUP3 ADD MSTORE PUSH1 0x17 PUSH1 0x24 DUP3 ADD MSTORE PUSH1 0x0 DUP1 MLOAD PUSH1 0x20 PUSH2 0x51E9 DUP4 CODECOPY DUP2 MLOAD SWAP2 MSTORE PUSH1 0x44 DUP3 ADD MSTORE SWAP1 MLOAD SWAP1 DUP2 SWAP1 SUB PUSH1 0x64 ADD SWAP1 REVERT JUMPDEST PUSH1 0x40 MLOAD PUSH1 0x0 SWAP1 DUP2 SWAP1 DUP4 SWAP1 CALLER SWAP1 PUSH32 0xDCB012E920167D8BDD0ACEBD98C41971B08B206986F2C59F3458FBE83C8E1D14 SWAP1 DUP5 SWAP1 LOG3 POP PUSH1 0x0 DUP3 DUP2 MSTORE PUSH1 0x11 PUSH1 0x20 MSTORE PUSH1 0x40 SWAP1 KECCAK256 DUP1 SLOAD PUSH1 0x1 PUSH1 0x1 PUSH1 0xA0 SHL SUB AND SWAP1 CALLER DUP3 EQ PUSH2 0x128B JUMPI PUSH1 0x40 DUP1 MLOAD PUSH3 0x461BCD PUSH1 0xE5 SHL DUP2 MSTORE PUSH1 0x20 PUSH1 0x4 DUP3 ADD MSTORE PUSH1 0x14 PUSH1 0x24 DUP3 ADD MSTORE PUSH20 0x2437B2362232BC16103737BA1039B2B63632B917 PUSH1 0x61 SHL PUSH1 0x44 DUP3 ADD MSTORE SWAP1 MLOAD SWAP1 DUP2 SWAP1 SUB PUSH1 0x64 ADD SWAP1 REVERT JUMPDEST PUSH1 0x1 DUP2 ADD SLOAD PUSH1 0x40 DUP1 MLOAD PUSH4 0x1213D113 PUSH1 0xE2 SHL DUP2 MSTORE SWAP1 MLOAD SWAP1 DUP2 SWAP1 SUB PUSH1 0x4 ADD SWAP1 KECCAK256 SWAP1 SWAP4 POP PUSH2 0x12C2 SWAP1 PUSH1 0xC SWAP1 CALLER DUP7 PUSH1 0x0 PUSH4 0xFFFFFFFF PUSH2 0x2DC0 AND JUMP JUMPDEST PUSH2 0x12D3 PUSH1 0x13 DUP6 PUSH4 0xFFFFFFFF PUSH2 0x30F3 AND JUMP JUMPDEST PUSH1 0x40 DUP1 MLOAD PUSH4 0x1213D113 PUSH1 0xE2 SHL DUP2 MSTORE SWAP1 MLOAD SWAP1 DUP2 SWAP1 SUB PUSH1 0x4 ADD SWAP1 KECCAK256 PUSH2 0x1302 SWAP1 PUSH1 0xC SWAP1 DUP5 PUSH1 0x0 DUP8 PUSH4 0xFFFFFFFF PUSH2 0x2BAF AND JUMP JUMPDEST POP POP POP POP JUMP JUMPDEST PUSH1 0x0 PUSH2 0x1312 PUSH2 0x16A0 JUMP JUMPDEST PUSH2 0x1351 JUMPI PUSH1 0x40 DUP1 MLOAD PUSH3 0x461BCD PUSH1 0xE5 SHL DUP2 MSTORE PUSH1 0x20 PUSH1 0x4 DUP3 ADD MSTORE PUSH1 0x17 PUSH1 0x24 DUP3 ADD MSTORE PUSH1 0x0 DUP1 MLOAD PUSH1 0x20 PUSH2 0x51E9 DUP4 CODECOPY DUP2 MLOAD SWAP2 MSTORE PUSH1 0x44 DUP3 ADD MSTORE SWAP1 MLOAD SWAP1 DUP2 SWAP1 SUB PUSH1 0x64 ADD SWAP1 REVERT JUMPDEST PUSH1 0x40 DUP1 MLOAD DUP5 DUP2 MSTORE PUSH1 0x20 DUP2 ADD DUP5 SWAP1 MSTORE DUP2 MLOAD CALLER SWAP3 PUSH32 0x9245568088742CCFDFC1DC58F9AD4F31812911170582B5CCE5C4F48C86667711 SWAP3 DUP3 SWAP1 SUB ADD SWAP1 LOG2 PUSH1 0x0 PUSH2 0x1396 DUP5 PUSH2 0x21B6 JUMP JUMPDEST SWAP1 POP PUSH1 0x0 PUSH2 0x13A2 PUSH2 0x1F0F JUMP JUMPDEST SWAP1 POP PUSH9 0x2B5E3AF16B1880000 DUP3 LT ISZERO PUSH2 0x13F7 JUMPI PUSH1 0x40 DUP1 MLOAD PUSH3 0x461BCD PUSH1 0xE5 SHL DUP2 MSTORE PUSH1 0x20 PUSH1 0x4 DUP3 ADD MSTORE PUSH1 0x12 PUSH1 0x24 DUP3 ADD MSTORE PUSH18 0x121BD91B11195E0B080F081B5A5B881554D1 PUSH1 0x72 SHL PUSH1 0x44 DUP3 ADD MSTORE SWAP1 MLOAD SWAP1 DUP2 SWAP1 SUB PUSH1 0x64 ADD SWAP1 REVERT JUMPDEST DUP1 DUP3 GT ISZERO DUP1 PUSH2 0x1404 JUMPI POP DUP1 ISZERO JUMPDEST PUSH2 0x144A JUMPI PUSH1 0x40 DUP1 MLOAD PUSH3 0x461BCD PUSH1 0xE5 SHL DUP2 MSTORE PUSH1 0x20 PUSH1 0x4 DUP3 ADD MSTORE PUSH1 0x12 PUSH1 0x24 DUP3 ADD MSTORE PUSH18 0x121BD91B11195E0B080F881B585E081554D1 PUSH1 0x72 SHL PUSH1 0x44 DUP3 ADD MSTORE SWAP1 MLOAD SWAP1 DUP2 SWAP1 SUB PUSH1 0x64 ADD SWAP1 REVERT JUMPDEST PUSH2 0x1454 DUP6 DUP6 PUSH2 0x3221 JUMP JUMPDEST SWAP5 POP PUSH2 0x145F DUP6 PUSH2 0x3559 JUMP JUMPDEST SWAP3 POP POP POP PUSH2 0x146B PUSH2 0x2F74 JUMP JUMPDEST POP POP SWAP3 SWAP2 POP POP JUMP JUMPDEST PUSH2 0x147B PUSH2 0x16A0 JUMP JUMPDEST PUSH2 0x14BA JUMPI PUSH1 0x40 DUP1 MLOAD PUSH3 0x461BCD PUSH1 0xE5 SHL DUP2 MSTORE PUSH1 0x20 PUSH1 0x4 DUP3 ADD MSTORE PUSH1 0x17 PUSH1 0x24 DUP3 ADD MSTORE PUSH1 0x0 DUP1 MLOAD PUSH1 0x20 PUSH2 0x51E9 DUP4 CODECOPY DUP2 MLOAD SWAP2 MSTORE PUSH1 0x44 DUP3 ADD MSTORE SWAP1 MLOAD SWAP1 DUP2 SWAP1 SUB PUSH1 0x64 ADD SWAP1 REVERT JUMPDEST PUSH2 0x14C2 PUSH2 0x2F74 JUMP JUMPDEST POP POP PUSH2 0x14CC PUSH2 0x3682 JUMP JUMPDEST POP PUSH1 0x40 DUP1 MLOAD PUSH3 0x8AE8D PUSH1 0xEB SHL DUP2 MSTORE SWAP1 MLOAD SWAP1 DUP2 SWAP1 SUB PUSH1 0x3 ADD SWAP1 KECCAK256 PUSH2 0x14F7 SWAP1 PUSH1 0xC SWAP1 PUSH4 0xFFFFFFFF PUSH2 0x3794 AND JUMP JUMPDEST PUSH1 0x40 DUP1 MLOAD PUSH4 0x1213D113 PUSH1 0xE2 SHL DUP2 MSTORE SWAP1 MLOAD SWAP1 DUP2 SWAP1 SUB PUSH1 0x4 ADD SWAP1 KECCAK256 PUSH2 0x1522 SWAP1 PUSH1 0xC SWAP1 PUSH4 0xFFFFFFFF PUSH2 0x3794 AND JUMP JUMPDEST JUMP JUMPDEST PUSH1 0x0 PUSH2 0x1530 PUSH1 0x13 PUSH2 0x37A0 JUMP JUMPDEST SWAP1 POP JUMPDEST SWAP1 JUMP JUMPDEST PUSH1 0x40 DUP1 MLOAD PUSH12 0x5265736572766520526F6C65 PUSH1 0xA0 SHL DUP2 MSTORE SWAP1 MLOAD SWAP1 DUP2 SWAP1 SUB PUSH1 0xC ADD SWAP1 KECCAK256 DUP2 JUMP JUMPDEST PUSH1 0xA SLOAD DUP2 JUMP JUMPDEST PUSH2 0x1568 PUSH2 0x16A0 JUMP JUMPDEST PUSH2 0x15A7 JUMPI PUSH1 0x40 DUP1 MLOAD PUSH3 0x461BCD PUSH1 0xE5 SHL DUP2 MSTORE PUSH1 0x20 PUSH1 0x4 DUP3 ADD MSTORE PUSH1 0x17 PUSH1 0x24 DUP3 ADD MSTORE PUSH1 0x0 DUP1 MLOAD PUSH1 0x20 PUSH2 0x51E9 DUP4 CODECOPY DUP2 MLOAD SWAP2 MSTORE PUSH1 0x44 DUP3 ADD MSTORE SWAP1 MLOAD SWAP1 DUP2 SWAP1 SUB PUSH1 0x64 ADD SWAP1 REVERT JUMPDEST PUSH1 0x0 DUP2 DUP2 MSTORE PUSH1 0x12 PUSH1 0x20 MSTORE PUSH1 0x40 DUP1 DUP3 KECCAK256 SWAP1 MLOAD SWAP1 SWAP2 DUP4 SWAP2 CALLER SWAP2 PUSH32 0xBFD8EBA8B6BBF7710760C1E5784271756899DFDA53ECCF56257E64E40C7F6FC1 SWAP2 LOG3 DUP1 SLOAD PUSH1 0x1 PUSH1 0x1 PUSH1 0xA0 SHL SUB AND CALLER EQ PUSH2 0x1635 JUMPI PUSH1 0x40 DUP1 MLOAD PUSH3 0x461BCD PUSH1 0xE5 SHL DUP2 MSTORE PUSH1 0x20 PUSH1 0x4 DUP3 ADD MSTORE PUSH1 0x13 PUSH1 0x24 DUP3 ADD MSTORE PUSH19 0x2437B2362232BC16103737BA10313ABCB2B917 PUSH1 0x69 SHL PUSH1 0x44 DUP3 ADD MSTORE SWAP1 MLOAD SWAP1 DUP2 SWAP1 SUB PUSH1 0x64 ADD SWAP1 REVERT JUMPDEST PUSH1 0x40 DUP1 MLOAD PUSH3 0x8AE8D PUSH1 0xEB SHL DUP2 MSTORE SWAP1 MLOAD SWAP1 DUP2 SWAP1 SUB PUSH1 0x3 ADD SWAP1 KECCAK256 PUSH1 0x1 DUP3 ADD SLOAD PUSH2 0x1668 SWAP2 PUSH1 0xC SWAP2 CALLER SWAP1 PUSH1 0x0 PUSH4 0xFFFFFFFF PUSH2 0x2DC0 AND JUMP JUMPDEST PUSH2 0x1679 PUSH1 0x18 DUP4 PUSH4 0xFFFFFFFF PUSH2 0x30F3 AND JUMP JUMPDEST POP POP JUMP JUMPDEST PUSH1 0x0 DUP1 DUP1 PUSH2 0x1693 PUSH1 0xC DUP7 DUP7 PUSH4 0xFFFFFFFF PUSH2 0x37A7 AND JUMP JUMPDEST SWAP3 POP SWAP3 POP SWAP3 POP SWAP3 POP SWAP3 POP SWAP3 JUMP JUMPDEST PUSH1 0x40 DUP1 MLOAD PUSH14 0x4D6967726174696F6E20526F6C65 PUSH1 0x90 SHL DUP2 MSTORE SWAP1 MLOAD SWAP1 DUP2 SWAP1 SUB PUSH1 0xE ADD SWAP1 KECCAK256 PUSH1 0x0 SWAP1 PUSH2 0x16CF SWAP1 PUSH2 0x249F JUMP JUMPDEST ISZERO SWAP1 POP SWAP1 JUMP JUMPDEST PUSH1 0x0 SWAP1 DUP2 MSTORE PUSH1 0x1 PUSH1 0x20 MSTORE PUSH1 0x40 SWAP1 KECCAK256 PUSH1 0x2 ADD SLOAD SWAP1 JUMP JUMPDEST PUSH1 0x40 DUP1 MLOAD PUSH3 0x8AE8D PUSH1 0xEB SHL DUP2 MSTORE SWAP1 MLOAD SWAP1 DUP2 SWAP1 SUB PUSH1 0x3 ADD SWAP1 KECCAK256 DUP2 JUMP JUMPDEST PUSH1 0x40 DUP1 MLOAD PUSH10 0x41646D696E20526F6C65 PUSH1 0xB0 SHL DUP2 MSTORE SWAP1 MLOAD SWAP1 DUP2 SWAP1 SUB PUSH1 0xA ADD SWAP1 KECCAK256 PUSH2 0x172E SWAP1 CALLER PUSH2 0x2120 JUMP JUMPDEST PUSH2 0x1773 JUMPI PUSH1 0x40 DUP1 MLOAD PUSH3 0x461BCD PUSH1 0xE5 SHL DUP2 MSTORE PUSH1 0x20 PUSH1 0x4 DUP3 ADD MSTORE PUSH1 0x11 PUSH1 0x24 DUP3 ADD MSTORE PUSH17 0x2437B2362232BC101A18199030B236B4B7 PUSH1 0x79 SHL PUSH1 0x44 DUP3 ADD MSTORE SWAP1 MLOAD SWAP1 DUP2 SWAP1 SUB PUSH1 0x64 ADD SWAP1 REVERT JUMPDEST PUSH1 0x2 DUP1 SLOAD PUSH1 0x1 PUSH1 0x1 PUSH1 0xA0 SHL SUB NOT AND PUSH1 0x1 PUSH1 0x1 PUSH1 0xA0 SHL SUB DUP4 AND SWAP1 DUP2 OR SWAP1 SWAP2 SSTORE PUSH1 0x40 DUP1 MLOAD CALLER DUP2 MSTORE PUSH1 0x20 DUP2 ADD SWAP3 SWAP1 SWAP3 MSTORE DUP1 MLOAD PUSH32 0xC1D3048301C0D23629A2532C8DEFA6D68F8E1A0E4157918769E9FB1B2EEB888E SWAP3 DUP2 SWAP1 SUB SWAP1 SWAP2 ADD SWAP1 LOG1 POP JUMP JUMPDEST PUSH1 0x0 PUSH2 0x17E2 PUSH1 0xC DUP4 PUSH4 0xFFFFFFFF PUSH2 0x382D AND JUMP JUMPDEST SWAP3 SWAP2 POP POP JUMP JUMPDEST PUSH1 0x0 DUP1 DUP1 DUP1 PUSH2 0x17FF PUSH1 0xC DUP7 DUP9 PUSH4 0xFFFFFFFF PUSH2 0x3842 AND JUMP JUMPDEST SWAP3 SWAP10 SWAP2 SWAP9 POP SWAP7 POP SWAP1 SWAP5 POP SWAP3 POP POP POP JUMP JUMPDEST PUSH1 0x0 DUP1 PUSH2 0x181B DUP4 PUSH2 0x21B6 JUMP JUMPDEST SWAP1 POP PUSH2 0x11A4 DUP2 PUSH2 0x21E5 JUMP JUMPDEST PUSH1 0x0 DUP3 DUP2 MSTORE PUSH1 0x1 PUSH1 0x20 MSTORE PUSH1 0x40 SWAP1 KECCAK256 PUSH1 0x2 ADD SLOAD PUSH2 0x1849 SWAP1 PUSH2 0x1844 PUSH2 0x395E JUMP JUMPDEST PUSH2 0x2120 JUMP JUMPDEST PUSH2 0x1884 JUMPI PUSH1 0x40 MLOAD PUSH3 0x461BCD PUSH1 0xE5 SHL DUP2 MSTORE PUSH1 0x4 ADD DUP1 DUP1 PUSH1 0x20 ADD DUP3 DUP2 SUB DUP3 MSTORE PUSH1 0x2F DUP2 MSTORE PUSH1 0x20 ADD DUP1 PUSH2 0x5190 PUSH1 0x2F SWAP2 CODECOPY PUSH1 0x40 ADD SWAP2 POP POP PUSH1 0x40 MLOAD DUP1 SWAP2 SUB SWAP1 REVERT JUMPDEST PUSH2 0x1679 DUP3 DUP3 PUSH2 0x3962 JUMP JUMPDEST PUSH1 0x40 DUP1 MLOAD PUSH14 0x4D6967726174696F6E20526F6C65 PUSH1 0x90 SHL DUP2 MSTORE SWAP1 MLOAD SWAP1 DUP2 SWAP1 SUB PUSH1 0xE ADD SWAP1 KECCAK256 PUSH2 0x18BB SWAP1 CALLER PUSH2 0x2120 JUMP JUMPDEST PUSH2 0x1904 JUMPI PUSH1 0x40 DUP1 MLOAD PUSH3 0x461BCD PUSH1 0xE5 SHL DUP2 MSTORE PUSH1 0x20 PUSH1 0x4 DUP3 ADD MSTORE PUSH1 0x15 PUSH1 0x24 DUP3 ADD MSTORE PUSH21 0x2437B2362232BC101A18199036B4B3B930BA34B7B7 PUSH1 0x59 SHL PUSH1 0x44 DUP3 ADD MSTORE SWAP1 MLOAD SWAP1 DUP2 SWAP1 SUB PUSH1 0x64 ADD SWAP1 REVERT JUMPDEST PUSH1 0x40 DUP1 MLOAD CALLER DUP2 MSTORE SWAP1 MLOAD PUSH1 0x1 PUSH1 0x1 PUSH1 0xA0 SHL SUB DUP4 AND SWAP2 PUSH32 0x4255B5DBB103B3831869724BF926F5CC492B23B18AE956DACBE85AB455977A31 SWAP2 SWAP1 DUP2 SWAP1 SUB PUSH1 0x20 ADD SWAP1 LOG2 PUSH1 0x40 DUP1 MLOAD PUSH4 0x1213D113 PUSH1 0xE2 SHL DUP1 DUP3 MSTORE DUP3 MLOAD SWAP2 DUP3 SWAP1 SUB PUSH1 0x4 SWAP1 DUP2 ADD DUP4 KECCAK256 SWAP2 DUP4 MSTORE SWAP3 MLOAD SWAP2 DUP3 SWAP1 SUB SWAP1 SWAP3 ADD SWAP1 KECCAK256 PUSH2 0x1999 SWAP2 SWAP1 ADDRESS SWAP1 PUSH2 0x1987 SWAP1 PUSH1 0xC SWAP1 DUP7 PUSH4 0xFFFFFFFF PUSH2 0x39D1 AND JUMP JUMPDEST PUSH1 0xC SWAP3 SWAP2 SWAP1 PUSH1 0x0 PUSH4 0xFFFFFFFF PUSH2 0x2DC0 AND JUMP JUMPDEST PUSH1 0x40 DUP1 MLOAD PUSH3 0x8AE8D PUSH1 0xEB SHL DUP2 MSTORE SWAP1 MLOAD SWAP1 DUP2 SWAP1 SUB PUSH1 0x3 ADD SWAP1 KECCAK256 PUSH1 0x0 SWAP1 PUSH2 0x19C7 SWAP1 PUSH1 0xC SWAP1 DUP5 PUSH4 0xFFFFFFFF PUSH2 0x39D1 AND JUMP JUMPDEST GT ISZERO PUSH2 0x118A JUMPI PUSH1 0x40 DUP1 MLOAD PUSH3 0x8AE8D PUSH1 0xEB SHL DUP2 MSTORE SWAP1 MLOAD SWAP1 DUP2 SWAP1 SUB PUSH1 0x3 ADD SWAP1 KECCAK256 CALLER SWAP1 PUSH2 0x8FC SWAP1 PUSH2 0x19FE SWAP1 PUSH1 0xC SWAP1 DUP6 PUSH4 0xFFFFFFFF PUSH2 0x39D1 AND JUMP JUMPDEST PUSH1 0x40 MLOAD DUP2 ISZERO SWAP1 SWAP3 MUL SWAP2 PUSH1 0x0 DUP2 DUP2 DUP2 DUP6 DUP9 DUP9 CALL SWAP4 POP POP POP POP ISZERO DUP1 ISZERO PUSH2 0x1679 JUMPI RETURNDATASIZE PUSH1 0x0 DUP1 RETURNDATACOPY RETURNDATASIZE PUSH1 0x0 REVERT JUMPDEST PUSH1 0x0 PUSH2 0x1A3A PUSH1 0xC DUP5 DUP5 PUSH4 0xFFFFFFFF PUSH2 0x3A45 AND JUMP JUMPDEST SWAP4 SWAP3 POP POP POP JUMP JUMPDEST PUSH2 0x1A49 PUSH2 0x395E JUMP JUMPDEST PUSH1 0x1 PUSH1 0x1 PUSH1 0xA0 SHL SUB AND DUP2 PUSH1 0x1 PUSH1 0x1 PUSH1 0xA0 SHL SUB AND EQ PUSH2 0x1A98 JUMPI PUSH1 0x40 MLOAD PUSH3 0x461BCD PUSH1 0xE5 SHL DUP2 MSTORE PUSH1 0x4 ADD DUP1 DUP1 PUSH1 0x20 ADD DUP3 DUP2 SUB DUP3 MSTORE PUSH1 0x2F DUP2 MSTORE PUSH1 0x20 ADD DUP1 PUSH2 0x52D4 PUSH1 0x2F SWAP2 CODECOPY PUSH1 0x40 ADD SWAP2 POP POP PUSH1 0x40 MLOAD DUP1 SWAP2 SUB SWAP1 REVERT JUMPDEST PUSH2 0x1679 DUP3 DUP3 PUSH2 0x3A74 JUMP JUMPDEST PUSH1 0x0 PUSH2 0x1AAC PUSH2 0x16A0 JUMP JUMPDEST PUSH2 0x1AEB JUMPI PUSH1 0x40 DUP1 MLOAD PUSH3 0x461BCD PUSH1 0xE5 SHL DUP2 MSTORE PUSH1 0x20 PUSH1 0x4 DUP3 ADD MSTORE PUSH1 0x17 PUSH1 0x24 DUP3 ADD MSTORE PUSH1 0x0 DUP1 MLOAD PUSH1 0x20 PUSH2 0x51E9 DUP4 CODECOPY DUP2 MLOAD SWAP2 MSTORE PUSH1 0x44 DUP3 ADD MSTORE SWAP1 MLOAD SWAP1 DUP2 SWAP1 SUB PUSH1 0x64 ADD SWAP1 REVERT JUMPDEST PUSH1 0x40 DUP1 MLOAD PUSH4 0x1213D113 PUSH1 0xE2 SHL DUP2 MSTORE SWAP1 MLOAD SWAP1 DUP2 SWAP1 SUB PUSH1 0x4 ADD SWAP1 KECCAK256 PUSH2 0x1530 SWAP1 PUSH1 0xC SWAP1 CALLER PUSH4 0xFFFFFFFF PUSH2 0x3AE3 AND JUMP JUMPDEST PUSH1 0x40 DUP1 MLOAD PUSH14 0x4D6967726174696F6E20526F6C65 PUSH1 0x90 SHL DUP2 MSTORE SWAP1 MLOAD SWAP1 DUP2 SWAP1 SUB PUSH1 0xE ADD SWAP1 KECCAK256 DUP2 JUMP JUMPDEST PUSH1 0x8 SLOAD DUP2 JUMP JUMPDEST PUSH2 0x1B4B PUSH2 0x16A0 JUMP JUMPDEST PUSH2 0x1B8A JUMPI PUSH1 0x40 DUP1 MLOAD PUSH3 0x461BCD PUSH1 0xE5 SHL DUP2 MSTORE PUSH1 0x20 PUSH1 0x4 DUP3 ADD MSTORE PUSH1 0x17 PUSH1 0x24 DUP3 ADD MSTORE PUSH1 0x0 DUP1 MLOAD PUSH1 0x20 PUSH2 0x51E9 DUP4 CODECOPY DUP2 MLOAD SWAP2 MSTORE PUSH1 0x44 DUP3 ADD MSTORE SWAP1 MLOAD SWAP1 DUP2 SWAP1 SUB PUSH1 0x64 ADD SWAP1 REVERT JUMPDEST PUSH1 0x0 CALLVALUE GT PUSH2 0x1BC9 JUMPI PUSH1 0x40 MLOAD PUSH3 0x461BCD PUSH1 0xE5 SHL DUP2 MSTORE PUSH1 0x4 ADD DUP1 DUP1 PUSH1 0x20 ADD DUP3 DUP2 SUB DUP3 MSTORE PUSH1 0x22 DUP2 MSTORE PUSH1 0x20 ADD DUP1 PUSH2 0x5239 PUSH1 0x22 SWAP2 CODECOPY PUSH1 0x40 ADD SWAP2 POP POP PUSH1 0x40 MLOAD DUP1 SWAP2 SUB SWAP1 REVERT JUMPDEST PUSH1 0x40 DUP1 MLOAD CALLVALUE DUP2 MSTORE SWAP1 MLOAD CALLER SWAP2 PUSH32 0x67B91A3E1F20688667199FD4ACB8590A39E93B3F50CB3253C74003C6D98DE78B SWAP2 SWAP1 DUP2 SWAP1 SUB PUSH1 0x20 ADD SWAP1 LOG2 PUSH1 0x40 DUP1 MLOAD PUSH3 0x8AE8D PUSH1 0xEB SHL DUP2 MSTORE SWAP1 MLOAD SWAP1 DUP2 SWAP1 SUB PUSH1 0x3 ADD SWAP1 KECCAK256 PUSH2 0x1522 SWAP1 PUSH1 0xC SWAP1 CALLER CALLVALUE PUSH1 0x0 PUSH4 0xFFFFFFFF PUSH2 0x2DC0 AND JUMP JUMPDEST PUSH1 0x6 SLOAD PUSH1 0x7 SLOAD PUSH1 0x0 PUSH2 0x1C4C PUSH4 0x5F1F7DAD PUSH3 0x278D00 PUSH4 0xFFFFFFFF PUSH2 0x3C84 AND JUMP JUMPDEST SWAP1 POP DUP1 TIMESTAMP GT ISZERO PUSH2 0x1CF5 JUMPI PUSH1 0x0 PUSH3 0x15180 PUSH2 0x1C6C TIMESTAMP DUP5 PUSH4 0xFFFFFFFF PUSH2 0x3CDE AND JUMP JUMPDEST DUP2 PUSH2 0x1C73 JUMPI INVALID JUMPDEST DIV SWAP1 POP PUSH1 0x0 PUSH2 0x1C8D PUSH1 0x5 SLOAD DUP4 PUSH2 0x3CDE SWAP1 SWAP2 SWAP1 PUSH4 0xFFFFFFFF AND JUMP JUMPDEST SWAP1 POP DUP1 ISZERO PUSH2 0x1CF2 JUMPI PUSH2 0x1CC4 PUSH8 0xDE0B6B3A7640000 PUSH2 0x1CB8 PUSH1 0x7 SLOAD PUSH1 0x6 SLOAD PUSH2 0x3D20 SWAP1 SWAP2 SWAP1 PUSH4 0xFFFFFFFF AND JUMP JUMPDEST SWAP1 PUSH4 0xFFFFFFFF PUSH2 0x3D79 AND JUMP JUMPDEST SWAP5 POP PUSH2 0x1CEF PUSH8 0xDE0B6B3A7640000 PUSH2 0x1CB8 PUSH8 0xDE0B68E11C8D5E0 PUSH1 0x7 SLOAD PUSH2 0x3D20 SWAP1 SWAP2 SWAP1 PUSH4 0xFFFFFFFF AND JUMP JUMPDEST SWAP4 POP JUMPDEST POP POP JUMPDEST POP SWAP1 SWAP2 JUMP JUMPDEST PUSH1 0x0 DUP1 DUP1 PUSH2 0x1D11 PUSH1 0xC DUP8 DUP8 DUP8 PUSH4 0xFFFFFFFF PUSH2 0x3DBB AND JUMP JUMPDEST SWAP3 POP SWAP3 POP SWAP3 POP JUMPDEST SWAP4 POP SWAP4 POP SWAP4 SWAP1 POP JUMP JUMPDEST PUSH1 0x0 PUSH2 0x1530 PUSH1 0x18 PUSH2 0x3E26 JUMP JUMPDEST PUSH1 0x40 DUP1 MLOAD PUSH4 0x1213D113 PUSH1 0xE2 SHL DUP2 MSTORE SWAP1 MLOAD SWAP1 DUP2 SWAP1 SUB PUSH1 0x4 ADD SWAP1 KECCAK256 DUP2 JUMP JUMPDEST PUSH1 0x0 PUSH2 0x1530 PUSH1 0x13 PUSH2 0x3E26 JUMP JUMPDEST PUSH2 0x1D5D PUSH2 0x16A0 JUMP JUMPDEST PUSH2 0x1D9C JUMPI PUSH1 0x40 DUP1 MLOAD PUSH3 0x461BCD PUSH1 0xE5 SHL DUP2 MSTORE PUSH1 0x20 PUSH1 0x4 DUP3 ADD MSTORE PUSH1 0x17 PUSH1 0x24 DUP3 ADD MSTORE PUSH1 0x0 DUP1 MLOAD PUSH1 0x20 PUSH2 0x51E9 DUP4 CODECOPY DUP2 MLOAD SWAP2 MSTORE PUSH1 0x44 DUP3 ADD MSTORE SWAP1 MLOAD SWAP1 DUP2 SWAP1 SUB PUSH1 0x64 ADD SWAP1 REVERT JUMPDEST PUSH1 0x3 SLOAD PUSH1 0x40 DUP1 MLOAD PUSH4 0xAA948101 PUSH1 0xE0 SHL DUP2 MSTORE CALLER PUSH1 0x4 DUP3 ADD MSTORE PUSH1 0x24 DUP2 ADD DUP5 SWAP1 MSTORE SWAP1 MLOAD PUSH1 0x0 SWAP3 PUSH1 0x1 PUSH1 0x1 PUSH1 0xA0 SHL SUB AND SWAP2 PUSH4 0xAA948101 SWAP2 PUSH1 0x44 DUP1 DUP4 ADD SWAP3 PUSH1 0x20 SWAP3 SWAP2 SWAP1 DUP3 SWAP1 SUB ADD DUP2 DUP8 DUP8 DUP1 EXTCODESIZE ISZERO DUP1 ISZERO PUSH2 0x1DEF JUMPI PUSH1 0x0 DUP1 REVERT JUMPDEST POP GAS CALL ISZERO DUP1 ISZERO PUSH2 0x1E03 JUMPI RETURNDATASIZE PUSH1 0x0 DUP1 RETURNDATACOPY RETURNDATASIZE PUSH1 0x0 REVERT JUMPDEST POP POP POP POP PUSH1 0x40 MLOAD RETURNDATASIZE PUSH1 0x20 DUP2 LT ISZERO PUSH2 0x1E19 JUMPI PUSH1 0x0 DUP1 REVERT JUMPDEST POP MLOAD PUSH1 0x40 DUP1 MLOAD DUP5 DUP2 MSTORE SWAP1 MLOAD SWAP2 SWAP3 POP CALLER SWAP2 PUSH32 0x53308211E3D719134D0494716513F6425AF9501ED203250452A377F7287E6172 SWAP2 DUP2 SWAP1 SUB PUSH1 0x20 ADD SWAP1 LOG2 PUSH1 0x40 DUP1 MLOAD PUSH4 0x1213D113 PUSH1 0xE2 SHL DUP2 MSTORE SWAP1 MLOAD SWAP1 DUP2 SWAP1 SUB PUSH1 0x4 ADD SWAP1 KECCAK256 PUSH2 0x1E82 SWAP1 PUSH1 0xC SWAP1 CALLER DUP5 PUSH1 0x0 PUSH4 0xFFFFFFFF PUSH2 0x2DC0 AND JUMP JUMPDEST PUSH1 0x40 DUP1 MLOAD PUSH4 0x1213D113 PUSH1 0xE2 SHL DUP2 MSTORE SWAP1 MLOAD SWAP1 DUP2 SWAP1 SUB PUSH1 0x4 ADD SWAP1 KECCAK256 PUSH1 0x3 SLOAD PUSH2 0xFFC SWAP2 PUSH1 0xC SWAP2 PUSH1 0x1 PUSH1 0x1 PUSH1 0xA0 SHL SUB AND DUP5 PUSH1 0x0 PUSH4 0xFFFFFFFF PUSH2 0x2BAF AND JUMP JUMPDEST PUSH1 0x11 PUSH1 0x20 MSTORE PUSH1 0x0 SWAP1 DUP2 MSTORE PUSH1 0x40 SWAP1 KECCAK256 DUP1 SLOAD PUSH1 0x1 DUP3 ADD SLOAD PUSH1 0x2 SWAP1 SWAP3 ADD SLOAD PUSH1 0x1 PUSH1 0x1 PUSH1 0xA0 SHL SUB SWAP1 SWAP2 AND SWAP2 SWAP1 DUP4 JUMP JUMPDEST PUSH1 0xB SLOAD DUP2 JUMP JUMPDEST PUSH1 0x40 DUP1 MLOAD PUSH10 0x41646D696E20526F6C65 PUSH1 0xB0 SHL DUP2 MSTORE SWAP1 MLOAD SWAP1 DUP2 SWAP1 SUB PUSH1 0xA ADD SWAP1 KECCAK256 DUP2 JUMP JUMPDEST PUSH1 0x0 DUP1 PUSH2 0x1F1A PUSH2 0x1C2D JUMP JUMPDEST POP SWAP1 POP PUSH8 0x8AC7230489E80000 DUP2 GT PUSH2 0x1F36 JUMPI DUP1 PUSH2 0x1388 MUL PUSH2 0x1F39 JUMP JUMPDEST PUSH1 0x0 JUMPDEST SWAP2 POP POP SWAP1 JUMP JUMPDEST PUSH1 0x40 DUP1 MLOAD PUSH14 0x4D6967726174696F6E20526F6C65 PUSH1 0x90 SHL DUP2 MSTORE SWAP1 MLOAD SWAP1 DUP2 SWAP1 SUB PUSH1 0xE ADD SWAP1 KECCAK256 PUSH2 0x1F6C SWAP1 CALLER PUSH2 0x2120 JUMP JUMPDEST PUSH2 0x1FB5 JUMPI PUSH1 0x40 DUP1 MLOAD PUSH3 0x461BCD PUSH1 0xE5 SHL DUP2 MSTORE PUSH1 0x20 PUSH1 0x4 DUP3 ADD MSTORE PUSH1 0x15 PUSH1 0x24 DUP3 ADD MSTORE PUSH21 0x2437B2362232BC101A18199036B4B3B930BA34B7B7 PUSH1 0x59 SHL PUSH1 0x44 DUP3 ADD MSTORE SWAP1 MLOAD SWAP1 DUP2 SWAP1 SUB PUSH1 0x64 ADD SWAP1 REVERT JUMPDEST PUSH1 0x7 DUP2 SWAP1 SSTORE PUSH1 0x40 DUP1 MLOAD CALLER DUP2 MSTORE PUSH1 0x20 DUP2 ADD DUP4 SWAP1 MSTORE DUP2 MLOAD PUSH32 0xD9C7EF198BBEB680FB4C70A0F01E1D6D1826DBC6CDC426FD1AB3AA1D059C71CD SWAP3 SWAP2 DUP2 SWAP1 SUB SWAP1 SWAP2 ADD SWAP1 LOG1 POP JUMP JUMPDEST PUSH1 0x40 DUP1 MLOAD PUSH3 0x8AE8D PUSH1 0xEB SHL DUP2 MSTORE SWAP1 MLOAD SWAP1 DUP2 SWAP1 SUB PUSH1 0x3 ADD SWAP1 KECCAK256 PUSH1 0x0 SWAP1 DUP2 SWAP1 DUP2 SWAP1 PUSH2 0x202A SWAP1 PUSH1 0xC SWAP1 DUP7 PUSH4 0xFFFFFFFF PUSH2 0x39D1 AND JUMP JUMPDEST PUSH1 0x40 DUP1 MLOAD PUSH4 0x1213D113 PUSH1 0xE2 SHL DUP2 MSTORE SWAP1 MLOAD SWAP1 DUP2 SWAP1 SUB PUSH1 0x4 ADD SWAP1 KECCAK256 PUSH2 0x2056 SWAP1 PUSH1 0xC SWAP1 DUP8 PUSH4 0xFFFFFFFF PUSH2 0x39D1 AND JUMP JUMPDEST PUSH1 0x40 DUP1 MLOAD PUSH4 0x1213D113 PUSH1 0xE2 SHL DUP2 MSTORE SWAP1 MLOAD SWAP1 DUP2 SWAP1 SUB PUSH1 0x4 ADD SWAP1 KECCAK256 PUSH2 0x2082 SWAP1 PUSH1 0xC SWAP1 DUP9 PUSH4 0xFFFFFFFF PUSH2 0x3E2A AND JUMP JUMPDEST SWAP3 POP SWAP3 POP SWAP3 POP SWAP2 SWAP4 SWAP1 SWAP3 POP JUMP JUMPDEST PUSH1 0x0 DUP1 PUSH2 0x20A3 PUSH1 0x13 DUP5 PUSH4 0xFFFFFFFF PUSH2 0x3E9F AND JUMP JUMPDEST PUSH2 0x20B4 PUSH1 0x13 DUP6 PUSH4 0xFFFFFFFF PUSH2 0x3F0F AND JUMP JUMPDEST SWAP2 POP SWAP2 POP SWAP2 POP SWAP2 JUMP JUMPDEST PUSH1 0x0 PUSH2 0x20D6 PUSH4 0x5F1F7DAD PUSH3 0x278D00 PUSH4 0xFFFFFFFF PUSH2 0x3C84 AND JUMP JUMPDEST TIMESTAMP GT SWAP1 POP SWAP1 JUMP JUMPDEST PUSH1 0x12 PUSH1 0x20 MSTORE PUSH1 0x0 SWAP1 DUP2 MSTORE PUSH1 0x40 SWAP1 KECCAK256 DUP1 SLOAD PUSH1 0x1 SWAP1 SWAP2 ADD SLOAD PUSH1 0x1 PUSH1 0x1 PUSH1 0xA0 SHL SUB SWAP1 SWAP2 AND SWAP1 DUP3 JUMP JUMPDEST PUSH1 0x0 DUP3 DUP2 MSTORE PUSH1 0x1 PUSH1 0x20 MSTORE PUSH1 0x40 DUP2 KECCAK256 PUSH2 0x1A3A SWAP1 DUP4 PUSH4 0xFFFFFFFF PUSH2 0x3F7C AND JUMP JUMPDEST PUSH1 0x0 DUP3 DUP2 MSTORE PUSH1 0x1 PUSH1 0x20 MSTORE PUSH1 0x40 DUP2 KECCAK256 PUSH2 0x1A3A SWAP1 DUP4 PUSH4 0xFFFFFFFF PUSH2 0x3F88 AND JUMP JUMPDEST PUSH1 0x40 DUP1 MLOAD PUSH4 0x1213D113 PUSH1 0xE2 SHL DUP2 MSTORE SWAP1 MLOAD SWAP1 DUP2 SWAP1 SUB PUSH1 0x4 ADD SWAP1 KECCAK256 PUSH1 0x0 SWAP1 DUP2 SWAP1 PUSH2 0x216F SWAP1 PUSH1 0xC SWAP1 ADDRESS PUSH4 0xFFFFFFFF PUSH2 0x39D1 AND JUMP JUMPDEST SWAP1 POP PUSH2 0x1F39 PUSH11 0x108B2A2C28029094000000 DUP3 PUSH4 0xFFFFFFFF PUSH2 0x3CDE AND JUMP JUMPDEST PUSH1 0x0 DUP1 PUSH2 0x2197 PUSH2 0x1C2D JUMP JUMPDEST POP SWAP1 POP PUSH2 0x11A4 DUP2 PUSH2 0x1CB8 DUP6 PUSH8 0xDE0B6B3A7640000 PUSH4 0xFFFFFFFF PUSH2 0x3D20 AND JUMP JUMPDEST PUSH1 0x0 DUP1 PUSH2 0x21C1 PUSH2 0x1C2D JUMP JUMPDEST POP SWAP1 POP PUSH2 0x11A4 PUSH8 0xDE0B6B3A7640000 PUSH2 0x1CB8 DUP6 DUP5 PUSH4 0xFFFFFFFF PUSH2 0x3D20 AND JUMP JUMPDEST PUSH1 0x0 DUP2 JUMP JUMPDEST PUSH1 0x0 PUSH2 0x17E2 PUSH2 0x21FB PUSH8 0xDE0B6B3A7640000 PUSH2 0x23A4 JUMP JUMPDEST PUSH2 0x1CB8 DUP5 PUSH8 0xDE0B6B3A7640000 PUSH4 0xFFFFFFFF PUSH2 0x3D20 AND JUMP JUMPDEST PUSH1 0x40 DUP1 MLOAD PUSH14 0x4D6967726174696F6E20526F6C65 PUSH1 0x90 SHL DUP2 MSTORE SWAP1 MLOAD SWAP1 DUP2 SWAP1 SUB PUSH1 0xE ADD SWAP1 KECCAK256 PUSH2 0x2240 SWAP1 CALLER PUSH2 0x2120 JUMP JUMPDEST PUSH2 0x2289 JUMPI PUSH1 0x40 DUP1 MLOAD PUSH3 0x461BCD PUSH1 0xE5 SHL DUP2 MSTORE PUSH1 0x20 PUSH1 0x4 DUP3 ADD MSTORE PUSH1 0x15 PUSH1 0x24 DUP3 ADD MSTORE PUSH21 0x2437B2362232BC101A18199036B4B3B930BA34B7B7 PUSH1 0x59 SHL PUSH1 0x44 DUP3 ADD MSTORE SWAP1 MLOAD SWAP1 DUP2 SWAP1 SUB PUSH1 0x64 ADD SWAP1 REVERT JUMPDEST PUSH1 0x40 DUP1 MLOAD PUSH3 0x8AE8D PUSH1 0xEB SHL DUP2 MSTORE SWAP1 MLOAD SWAP1 DUP2 SWAP1 SUB PUSH1 0x3 ADD SWAP1 KECCAK256 PUSH2 0x22B7 SWAP1 PUSH1 0xC SWAP1 DUP5 CALLVALUE PUSH1 0x0 PUSH4 0xFFFFFFFF PUSH2 0x2DC0 AND JUMP JUMPDEST PUSH1 0x40 DUP1 MLOAD PUSH4 0x1213D113 PUSH1 0xE2 SHL DUP2 MSTORE SWAP1 MLOAD SWAP1 DUP2 SWAP1 SUB PUSH1 0x4 ADD SWAP1 KECCAK256 PUSH2 0x22E6 SWAP1 PUSH1 0xC SWAP1 DUP5 DUP5 PUSH1 0x0 PUSH4 0xFFFFFFFF PUSH2 0x2DC0 AND JUMP JUMPDEST PUSH1 0x40 DUP1 MLOAD PUSH4 0x1213D113 PUSH1 0xE2 SHL DUP2 MSTORE SWAP1 MLOAD SWAP1 DUP2 SWAP1 SUB PUSH1 0x4 ADD SWAP1 KECCAK256 PUSH2 0x2315 SWAP1 PUSH1 0xC SWAP1 ADDRESS DUP5 PUSH1 0x0 PUSH4 0xFFFFFFFF PUSH2 0x2BAF AND JUMP JUMPDEST PUSH1 0x40 DUP1 MLOAD CALLER DUP2 MSTORE PUSH1 0x20 DUP2 ADD DUP4 SWAP1 MSTORE CALLVALUE DUP2 DUP4 ADD MSTORE SWAP1 MLOAD PUSH1 0x1 PUSH1 0x1 PUSH1 0xA0 SHL SUB DUP5 AND SWAP2 PUSH32 0x3115C5C0A6DE7CD7CE400FD4027F87C0D355DFEF893E17CC1CC2DB2782A0F9F7 SWAP2 SWAP1 DUP2 SWAP1 SUB PUSH1 0x60 ADD SWAP1 LOG2 POP POP JUMP JUMPDEST PUSH1 0x0 PUSH2 0x1530 PUSH1 0x18 PUSH2 0x37A0 JUMP JUMPDEST PUSH1 0x0 DUP1 PUSH2 0x2384 PUSH1 0x18 DUP5 PUSH4 0xFFFFFFFF PUSH2 0x3E9F AND JUMP JUMPDEST PUSH2 0x20B4 PUSH1 0x18 DUP6 PUSH4 0xFFFFFFFF PUSH2 0x3F0F AND JUMP JUMPDEST PUSH1 0x2 SLOAD PUSH1 0x1 PUSH1 0x1 PUSH1 0xA0 SHL SUB AND SWAP1 JUMP JUMPDEST PUSH1 0x0 PUSH2 0x17E2 PUSH8 0xDE0B6B3A7640000 PUSH2 0x1CB8 PUSH1 0xB SLOAD DUP6 PUSH2 0x3D20 SWAP1 SWAP2 SWAP1 PUSH4 0xFFFFFFFF AND JUMP JUMPDEST PUSH2 0x23CF PUSH2 0x16A0 JUMP JUMPDEST PUSH2 0x240E JUMPI PUSH1 0x40 DUP1 MLOAD PUSH3 0x461BCD PUSH1 0xE5 SHL DUP2 MSTORE PUSH1 0x20 PUSH1 0x4 DUP3 ADD MSTORE PUSH1 0x17 PUSH1 0x24 DUP3 ADD MSTORE PUSH1 0x0 DUP1 MLOAD PUSH1 0x20 PUSH2 0x51E9 DUP4 CODECOPY DUP2 MLOAD SWAP2 MSTORE PUSH1 0x44 DUP3 ADD MSTORE SWAP1 MLOAD SWAP1 DUP2 SWAP1 SUB PUSH1 0x64 ADD SWAP1 REVERT JUMPDEST PUSH1 0x40 DUP1 MLOAD DUP3 DUP2 MSTORE SWAP1 MLOAD CALLER SWAP2 PUSH32 0x654C7A7E59538B4E27A577EF2208B1F7CDCAF35938C4BB6288C945261702A56F SWAP2 SWAP1 DUP2 SWAP1 SUB PUSH1 0x20 ADD SWAP1 LOG2 PUSH1 0x40 DUP1 MLOAD PUSH3 0x8AE8D PUSH1 0xEB SHL DUP2 MSTORE SWAP1 MLOAD SWAP1 DUP2 SWAP1 SUB PUSH1 0x3 ADD SWAP1 KECCAK256 PUSH2 0x2472 SWAP1 PUSH1 0xC SWAP1 CALLER DUP5 PUSH1 0x0 PUSH4 0xFFFFFFFF PUSH2 0x2BAF AND JUMP JUMPDEST PUSH1 0x40 MLOAD CALLER SWAP1 DUP3 ISZERO PUSH2 0x8FC MUL SWAP1 DUP4 SWAP1 PUSH1 0x0 DUP2 DUP2 DUP2 DUP6 DUP9 DUP9 CALL SWAP4 POP POP POP POP ISZERO DUP1 ISZERO PUSH2 0x1679 JUMPI RETURNDATASIZE PUSH1 0x0 DUP1 RETURNDATACOPY RETURNDATASIZE PUSH1 0x0 REVERT JUMPDEST PUSH1 0x0 DUP2 DUP2 MSTORE PUSH1 0x1 PUSH1 0x20 MSTORE PUSH1 0x40 DUP2 KECCAK256 PUSH2 0x17E2 SWAP1 PUSH2 0x3F9D JUMP JUMPDEST PUSH1 0x0 PUSH2 0x1530 PUSH1 0x18 PUSH2 0x3FA8 JUMP JUMPDEST PUSH1 0x5 SLOAD DUP2 JUMP JUMPDEST PUSH1 0x2 SLOAD PUSH1 0x1 PUSH1 0x1 PUSH1 0xA0 SHL SUB AND ISZERO ISZERO SWAP1 JUMP JUMPDEST PUSH1 0x0 PUSH1 0xB SLOAD GT PUSH2 0x2526 JUMPI PUSH1 0x40 DUP1 MLOAD PUSH3 0x461BCD PUSH1 0xE5 SHL DUP2 MSTORE PUSH1 0x20 PUSH1 0x4 DUP3 ADD MSTORE PUSH1 0x13 PUSH1 0x24 DUP3 ADD MSTORE PUSH19 0x121BD91B11195E0B0814D95D08115D1A155CD9 PUSH1 0x6A SHL PUSH1 0x44 DUP3 ADD MSTORE SWAP1 MLOAD SWAP1 DUP2 SWAP1 SUB PUSH1 0x64 ADD SWAP1 REVERT JUMPDEST PUSH2 0x1679 DUP3 DUP3 PUSH2 0x3FB6 JUMP JUMPDEST PUSH1 0x3 SLOAD PUSH1 0x1 PUSH1 0x1 PUSH1 0xA0 SHL SUB AND SWAP1 JUMP JUMPDEST PUSH1 0x0 PUSH2 0x2549 PUSH2 0x16A0 JUMP JUMPDEST PUSH2 0x2588 JUMPI PUSH1 0x40 DUP1 MLOAD PUSH3 0x461BCD PUSH1 0xE5 SHL DUP2 MSTORE PUSH1 0x20 PUSH1 0x4 DUP3 ADD MSTORE PUSH1 0x17 PUSH1 0x24 DUP3 ADD MSTORE PUSH1 0x0 DUP1 MLOAD PUSH1 0x20 PUSH2 0x51E9 DUP4 CODECOPY DUP2 MLOAD SWAP2 MSTORE PUSH1 0x44 DUP3 ADD MSTORE SWAP1 MLOAD SWAP1 DUP2 SWAP1 SUB PUSH1 0x64 ADD SWAP1 REVERT JUMPDEST PUSH1 0x40 DUP1 MLOAD PUSH3 0x8AE8D PUSH1 0xEB SHL DUP2 MSTORE SWAP1 MLOAD SWAP1 DUP2 SWAP1 SUB PUSH1 0x3 ADD SWAP1 KECCAK256 PUSH2 0x1530 SWAP1 PUSH1 0xC SWAP1 CALLER PUSH4 0xFFFFFFFF PUSH2 0x3AE3 AND JUMP JUMPDEST PUSH1 0x9 SLOAD DUP2 JUMP JUMPDEST PUSH1 0x40 DUP1 MLOAD PUSH11 0x4F7261636C6520526F6C65 PUSH1 0xA8 SHL DUP2 MSTORE SWAP1 MLOAD SWAP1 DUP2 SWAP1 SUB PUSH1 0xB ADD SWAP1 KECCAK256 PUSH2 0x25E3 SWAP1 CALLER PUSH2 0x2120 JUMP JUMPDEST PUSH2 0x2629 JUMPI PUSH1 0x40 DUP1 MLOAD PUSH3 0x461BCD PUSH1 0xE5 SHL DUP2 MSTORE PUSH1 0x20 PUSH1 0x4 DUP3 ADD MSTORE PUSH1 0x12 PUSH1 0x24 DUP3 ADD MSTORE PUSH18 0x486F646C44657820343033206F7261636C65 PUSH1 0x70 SHL PUSH1 0x44 DUP3 ADD MSTORE SWAP1 MLOAD SWAP1 DUP2 SWAP1 SUB PUSH1 0x64 ADD SWAP1 REVERT JUMPDEST PUSH2 0x118A DUP2 PUSH2 0x400F JUMP JUMPDEST PUSH1 0x40 DUP1 MLOAD PUSH11 0x4F7261636C6520526F6C65 PUSH1 0xA8 SHL DUP2 MSTORE SWAP1 MLOAD SWAP1 DUP2 SWAP1 SUB PUSH1 0xB ADD SWAP1 KECCAK256 PUSH2 0x265C SWAP1 CALLER PUSH2 0x2120 JUMP JUMPDEST PUSH2 0x26A2 JUMPI PUSH1 0x40 DUP1 MLOAD PUSH3 0x461BCD PUSH1 0xE5 SHL DUP2 MSTORE PUSH1 0x20 PUSH1 0x4 DUP3 ADD MSTORE PUSH1 0x12 PUSH1 0x24 DUP3 ADD MSTORE PUSH18 0x486F646C44657820343033206F7261636C65 PUSH1 0x70 SHL PUSH1 0x44 DUP3 ADD MSTORE SWAP1 MLOAD SWAP1 DUP2 SWAP1 SUB PUSH1 0x64 ADD SWAP1 REVERT JUMPDEST PUSH1 0xB DUP2 SWAP1 SSTORE NUMBER PUSH1 0x9 SSTORE PUSH1 0x40 DUP1 MLOAD CALLER DUP2 MSTORE PUSH1 0x20 DUP2 ADD DUP4 SWAP1 MSTORE DUP2 MLOAD PUSH32 0xA4DEBDFC51DA746DCB19F892EAC110CE7D5D1C86475813BC7940BE5C100EAB4 SWAP3 SWAP2 DUP2 SWAP1 SUB SWAP1 SWAP2 ADD SWAP1 LOG1 POP JUMP JUMPDEST PUSH1 0x0 PUSH2 0x1530 PUSH1 0xC PUSH2 0x408E JUMP JUMPDEST PUSH1 0x0 SLOAD PUSH2 0x100 SWAP1 DIV PUSH1 0xFF AND DUP1 PUSH2 0x270E JUMPI POP PUSH2 0x270E PUSH2 0x40D8 JUMP JUMPDEST DUP1 PUSH2 0x271C JUMPI POP PUSH1 0x0 SLOAD PUSH1 0xFF AND ISZERO JUMPDEST PUSH2 0x2757 JUMPI PUSH1 0x40 MLOAD PUSH3 0x461BCD PUSH1 0xE5 SHL DUP2 MSTORE PUSH1 0x4 ADD DUP1 DUP1 PUSH1 0x20 ADD DUP3 DUP2 SUB DUP3 MSTORE PUSH1 0x2E DUP2 MSTORE PUSH1 0x20 ADD DUP1 PUSH2 0x525B PUSH1 0x2E SWAP2 CODECOPY PUSH1 0x40 ADD SWAP2 POP POP PUSH1 0x40 MLOAD DUP1 SWAP2 SUB SWAP1 REVERT JUMPDEST PUSH1 0x0 SLOAD PUSH2 0x100 SWAP1 DIV PUSH1 0xFF AND ISZERO DUP1 ISZERO PUSH2 0x2782 JUMPI PUSH1 0x0 DUP1 SLOAD PUSH1 0xFF NOT PUSH2 0xFF00 NOT SWAP1 SWAP2 AND PUSH2 0x100 OR AND PUSH1 0x1 OR SWAP1 SSTORE JUMPDEST PUSH8 0x11B4F2DD6DB3B0B7 PUSH1 0x6 SSTORE PUSH8 0xDE772F195E3A786 PUSH1 0x7 SSTORE PUSH1 0x40 DUP1 MLOAD PUSH4 0x1213D113 PUSH1 0xE2 SHL DUP1 DUP3 MSTORE DUP3 MLOAD SWAP2 DUP3 SWAP1 SUB PUSH1 0x4 SWAP1 DUP2 ADD DUP4 KECCAK256 DUP2 SLOAD PUSH1 0x1 DUP2 DUP2 ADD DUP5 SSTORE PUSH1 0x0 DUP5 DUP2 MSTORE PUSH32 0x8A35ACFBC15FF81A39AE7D344FD709F28E8600B4AA8C65C6B64BFE7FE36BD19B SWAP3 DUP4 ADD SWAP4 SWAP1 SWAP4 SSTORE PUSH3 0x8AE8D PUSH1 0xEB SHL DUP7 MSTORE DUP7 MLOAD SWAP6 DUP7 SWAP1 SUB PUSH1 0x3 ADD DUP7 KECCAK256 DUP5 SLOAD SWAP2 DUP3 ADD DUP6 SSTORE SWAP3 DUP5 SWAP1 MSTORE ADD SSTORE SWAP1 DUP3 MSTORE SWAP2 MLOAD SWAP1 DUP2 SWAP1 SUB DUP3 ADD SWAP1 KECCAK256 PUSH2 0x2832 SWAP2 PUSH1 0xC SWAP2 TIMESTAMP PUSH3 0x278D00 ADDRESS PUSH4 0xFFFFFFFF PUSH2 0x40DE AND JUMP JUMPDEST PUSH1 0x40 DUP1 MLOAD PUSH4 0x1213D113 PUSH1 0xE2 SHL DUP2 MSTORE SWAP1 MLOAD SWAP1 DUP2 SWAP1 SUB PUSH1 0x4 ADD SWAP1 KECCAK256 PUSH2 0x286C SWAP1 PUSH1 0xC SWAP1 ADDRESS PUSH11 0x108B2A2C28029094000000 PUSH1 0x0 PUSH4 0xFFFFFFFF PUSH2 0x2DC0 AND JUMP JUMPDEST PUSH1 0x2 DUP1 SLOAD PUSH1 0x1 PUSH1 0x1 PUSH1 0xA0 SHL SUB DUP1 DUP6 AND PUSH1 0x1 PUSH1 0x1 PUSH1 0xA0 SHL SUB NOT SWAP3 DUP4 AND OR SWAP1 SWAP3 SSTORE PUSH1 0x3 DUP1 SLOAD SWAP3 DUP7 AND SWAP3 SWAP1 SWAP2 AND SWAP2 SWAP1 SWAP2 OR SWAP1 SSTORE PUSH2 0x28A7 PUSH1 0x0 CALLER PUSH2 0x1884 JUMP JUMPDEST PUSH1 0x40 DUP1 MLOAD PUSH10 0x41646D696E20526F6C65 PUSH1 0xB0 SHL DUP2 MSTORE SWAP1 MLOAD SWAP1 DUP2 SWAP1 SUB PUSH1 0xA ADD SWAP1 KECCAK256 PUSH2 0x28D0 SWAP1 CALLER PUSH2 0x1884 JUMP JUMPDEST PUSH1 0x40 DUP1 MLOAD PUSH11 0x4F7261636C6520526F6C65 PUSH1 0xA8 SHL DUP2 MSTORE SWAP1 MLOAD SWAP1 DUP2 SWAP1 SUB PUSH1 0xB ADD SWAP1 KECCAK256 PUSH2 0x28FA SWAP1 CALLER PUSH2 0x1884 JUMP JUMPDEST PUSH1 0x40 DUP1 MLOAD PUSH14 0x4D6967726174696F6E20526F6C65 PUSH1 0x90 SHL DUP2 MSTORE SWAP1 MLOAD SWAP1 DUP2 SWAP1 SUB PUSH1 0xE ADD SWAP1 KECCAK256 PUSH2 0x2927 SWAP1 CALLER PUSH2 0x1884 JUMP JUMPDEST PUSH1 0x40 DUP1 MLOAD PUSH12 0x5265736572766520526F6C65 PUSH1 0xA0 SHL DUP2 MSTORE SWAP1 MLOAD SWAP1 DUP2 SWAP1 SUB PUSH1 0xC ADD SWAP1 KECCAK256 PUSH2 0x2952 SWAP1 DUP5 PUSH2 0x1884 JUMP JUMPDEST PUSH1 0x40 DUP1 MLOAD CALLER DUP2 MSTORE PUSH1 0x1 PUSH1 0x1 PUSH1 0xA0 SHL SUB DUP1 DUP7 AND PUSH1 0x20 DUP4 ADD MSTORE DUP5 AND DUP2 DUP4 ADD MSTORE SWAP1 MLOAD PUSH32 0xC437298F2D0663A10608D6ADD1CCFA44AE2A4BD3EFCDC2FD427F7AFB360D22E5 SWAP2 DUP2 SWAP1 SUB PUSH1 0x60 ADD SWAP1 LOG1 DUP1 ISZERO PUSH2 0x1005 JUMPI PUSH1 0x0 DUP1 SLOAD PUSH2 0xFF00 NOT AND SWAP1 SSTORE POP POP POP JUMP JUMPDEST PUSH1 0x0 PUSH2 0x29BB PUSH2 0x16A0 JUMP JUMPDEST PUSH2 0x29FA JUMPI PUSH1 0x40 DUP1 MLOAD PUSH3 0x461BCD PUSH1 0xE5 SHL DUP2 MSTORE PUSH1 0x20 PUSH1 0x4 DUP3 ADD MSTORE PUSH1 0x17 PUSH1 0x24 DUP3 ADD MSTORE PUSH1 0x0 DUP1 MLOAD PUSH1 0x20 PUSH2 0x51E9 DUP4 CODECOPY DUP2 MLOAD SWAP2 MSTORE PUSH1 0x44 DUP3 ADD MSTORE SWAP1 MLOAD SWAP1 DUP2 SWAP1 SUB PUSH1 0x64 ADD SWAP1 REVERT JUMPDEST PUSH1 0x40 DUP1 MLOAD DUP5 DUP2 MSTORE PUSH1 0x20 DUP2 ADD DUP5 SWAP1 MSTORE DUP2 MLOAD CALLER SWAP3 PUSH32 0xEE9B02D9722B4950F646EC7E40D75E44F68D2F342D0257CA5C933476F81B5DF8 SWAP3 DUP3 SWAP1 SUB ADD SWAP1 LOG2 PUSH1 0x0 PUSH2 0x2A3E PUSH2 0x1F0F JUMP JUMPDEST SWAP1 POP PUSH1 0x0 PUSH2 0x2A4B DUP6 PUSH2 0x23A4 JUMP JUMPDEST SWAP1 POP PUSH9 0x2B5E3AF16B1880000 DUP2 LT ISZERO PUSH2 0x2AA1 JUMPI PUSH1 0x40 DUP1 MLOAD PUSH3 0x461BCD PUSH1 0xE5 SHL DUP2 MSTORE PUSH1 0x20 PUSH1 0x4 DUP3 ADD MSTORE PUSH1 0x13 PUSH1 0x24 DUP3 ADD MSTORE PUSH19 0x2437B2362232BC16101E1036B4B7102AA9A21 PUSH1 0x6D SHL PUSH1 0x44 DUP3 ADD MSTORE SWAP1 MLOAD SWAP1 DUP2 SWAP1 SUB PUSH1 0x64 ADD SWAP1 REVERT JUMPDEST DUP2 DUP2 GT ISZERO DUP1 PUSH2 0x2AAE JUMPI POP DUP2 ISZERO JUMPDEST PUSH2 0x2AF4 JUMPI PUSH1 0x40 DUP1 MLOAD PUSH3 0x461BCD PUSH1 0xE5 SHL DUP2 MSTORE PUSH1 0x20 PUSH1 0x4 DUP3 ADD MSTORE PUSH1 0x12 PUSH1 0x24 DUP3 ADD MSTORE PUSH18 0x121BD91B11195E0B080F881B585E081554D1 PUSH1 0x72 SHL PUSH1 0x44 DUP3 ADD MSTORE SWAP1 MLOAD SWAP1 DUP2 SWAP1 SUB PUSH1 0x64 ADD SWAP1 REVERT JUMPDEST PUSH2 0x2AFE DUP6 DUP6 PUSH2 0x41B0 JUMP JUMPDEST SWAP5 POP PUSH2 0x2B09 DUP6 PUSH2 0x453F JUMP JUMPDEST SWAP5 POP PUSH2 0x145F DUP6 PUSH2 0x46EA JUMP JUMPDEST PUSH1 0x0 PUSH2 0x1530 PUSH1 0x13 PUSH2 0x3FA8 JUMP JUMPDEST PUSH1 0x0 DUP1 PUSH1 0x2 PUSH1 0x0 SWAP1 SLOAD SWAP1 PUSH2 0x100 EXP SWAP1 DIV PUSH1 0x1 PUSH1 0x1 PUSH1 0xA0 SHL SUB AND PUSH1 0x1 PUSH1 0x1 PUSH1 0xA0 SHL SUB AND PUSH4 0x57DE26A4 PUSH1 0x40 MLOAD DUP2 PUSH4 0xFFFFFFFF AND PUSH1 0xE0 SHL DUP2 MSTORE PUSH1 0x4 ADD PUSH1 0x20 PUSH1 0x40 MLOAD DUP1 DUP4 SUB DUP2 DUP7 DUP1 EXTCODESIZE ISZERO DUP1 ISZERO PUSH2 0x2B71 JUMPI PUSH1 0x0 DUP1 REVERT JUMPDEST POP GAS STATICCALL SWAP3 POP POP POP DUP1 ISZERO PUSH2 0x2B96 JUMPI POP PUSH1 0x40 MLOAD RETURNDATASIZE PUSH1 0x20 DUP2 LT ISZERO PUSH2 0x2B91 JUMPI PUSH1 0x0 DUP1 REVERT JUMPDEST POP MLOAD PUSH1 0x1 JUMPDEST PUSH2 0x2BA4 JUMPI PUSH1 0xB SLOAD SWAP2 POP PUSH2 0x2BAB JUMP JUMPDEST SWAP2 POP PUSH1 0x1 SWAP1 POP JUMPDEST SWAP1 SWAP2 JUMP JUMPDEST PUSH1 0x0 DUP5 DUP2 MSTORE PUSH1 0x4 DUP7 ADD PUSH1 0x20 SWAP1 DUP2 MSTORE PUSH1 0x40 DUP1 DUP4 KECCAK256 PUSH1 0x1 PUSH1 0x1 PUSH1 0xA0 SHL SUB DUP8 AND DUP5 MSTORE PUSH1 0x1 DUP2 ADD SWAP1 SWAP3 MSTORE DUP3 KECCAK256 DUP1 SLOAD SWAP2 SWAP3 SWAP1 SWAP2 SWAP1 DUP1 DUP1 PUSH2 0x2BEB DUP12 DUP12 DUP12 PUSH2 0x47C4 JUMP JUMPDEST SWAP3 POP SWAP3 POP SWAP3 POP PUSH1 0x0 PUSH2 0x2BFC DUP13 PUSH2 0x408E JUMP JUMPDEST SWAP1 POP PUSH2 0x2C33 DUP10 PUSH1 0x40 MLOAD DUP1 PUSH1 0x40 ADD PUSH1 0x40 MSTORE DUP1 PUSH1 0x8 DUP2 MSTORE PUSH1 0x20 ADD PUSH8 0x283937B8102729A3 PUSH1 0xC1 SHL DUP2 MSTORE POP DUP7 PUSH2 0x4855 SWAP1 SWAP3 SWAP2 SWAP1 PUSH4 0xFFFFFFFF AND JUMP JUMPDEST SWAP4 POP PUSH2 0x2C6A DUP9 PUSH1 0x40 MLOAD DUP1 PUSH1 0x40 ADD PUSH1 0x40 MSTORE DUP1 PUSH1 0x8 DUP2 MSTORE PUSH1 0x20 ADD PUSH8 0x283937B8103739B3 PUSH1 0xC1 SHL DUP2 MSTORE POP DUP5 PUSH2 0x4855 SWAP1 SWAP3 SWAP2 SWAP1 PUSH4 0xFFFFFFFF AND JUMP JUMPDEST SWAP2 POP PUSH2 0x2C74 PUSH2 0x514C JUMP JUMPDEST POP PUSH1 0x40 DUP1 MLOAD PUSH1 0x60 DUP1 DUP3 ADD DUP4 MSTORE DUP7 DUP3 MSTORE PUSH1 0x20 DUP1 DUP4 ADD DUP7 SWAP1 MSTORE DUP3 DUP5 ADD DUP6 SWAP1 MSTORE DUP4 MLOAD DUP6 DUP2 MSTORE PUSH1 0x1 PUSH1 0x1 PUSH1 0xA0 SHL SUB DUP16 AND SWAP2 DUP2 ADD SWAP2 SWAP1 SWAP2 MSTORE DUP1 DUP5 ADD DUP14 SWAP1 MSTORE SWAP1 DUP2 ADD DUP12 SWAP1 MSTORE SWAP2 MLOAD SWAP1 SWAP2 DUP14 SWAP2 CALLER SWAP2 PUSH32 0xD8A7C80CAA92DE15995FB550A02B0921D0EC2C173B71FF94EAAC5111EEC710DB SWAP2 SWAP1 DUP2 SWAP1 SUB PUSH1 0x80 ADD SWAP1 LOG3 PUSH1 0x0 DUP7 GT DUP1 ISZERO PUSH2 0x2D03 JUMPI POP DUP13 PUSH1 0x3 ADD SLOAD DUP13 EQ ISZERO DUP1 PUSH2 0x2D03 JUMPI POP DUP2 DUP5 EQ JUMPDEST ISZERO PUSH2 0x2D57 JUMPI DUP1 DUP8 PUSH1 0x0 ADD PUSH1 0x1 DUP9 SUB DUP2 SLOAD DUP2 LT PUSH2 0x2D1B JUMPI INVALID JUMPDEST SWAP1 PUSH1 0x0 MSTORE PUSH1 0x20 PUSH1 0x0 KECCAK256 SWAP1 PUSH1 0x3 MUL ADD PUSH1 0x0 DUP3 ADD MLOAD DUP2 PUSH1 0x0 ADD SSTORE PUSH1 0x20 DUP3 ADD MLOAD DUP2 PUSH1 0x1 ADD SSTORE PUSH1 0x40 DUP3 ADD MLOAD DUP2 PUSH1 0x2 ADD SSTORE SWAP1 POP POP POP POP POP POP POP POP POP POP PUSH2 0x2DB9 JUMP JUMPDEST PUSH1 0x0 DUP13 DUP2 MSTORE PUSH1 0x4 DUP15 ADD PUSH1 0x20 MSTORE PUSH1 0x40 SWAP1 KECCAK256 SLOAD PUSH1 0x1 DUP9 ADD SLOAD EQ ISZERO PUSH2 0x2D7B JUMPI DUP7 SLOAD PUSH1 0x2 DUP9 ADD SSTORE JUMPDEST DUP7 SLOAD PUSH1 0x1 DUP2 DUP2 ADD DUP10 SSTORE PUSH1 0x0 SWAP9 DUP10 MSTORE PUSH1 0x20 SWAP9 DUP10 SWAP1 KECCAK256 DUP4 MLOAD PUSH1 0x3 SWAP1 SWAP4 MUL ADD SWAP2 DUP3 SSTORE SWAP8 DUP3 ADD MLOAD SWAP8 DUP2 ADD SWAP8 SWAP1 SWAP8 SSTORE PUSH1 0x40 ADD MLOAD PUSH1 0x2 SWAP1 SWAP7 ADD SWAP6 SWAP1 SWAP6 SSTORE POP POP POP POP POP POP JUMPDEST POP POP POP POP POP JUMP JUMPDEST PUSH1 0x0 DUP5 DUP2 MSTORE PUSH1 0x4 DUP7 ADD PUSH1 0x20 SWAP1 DUP2 MSTORE PUSH1 0x40 DUP1 DUP4 KECCAK256 PUSH1 0x1 PUSH1 0x1 PUSH1 0xA0 SHL SUB DUP8 AND DUP5 MSTORE PUSH1 0x1 DUP2 ADD SWAP1 SWAP3 MSTORE DUP3 KECCAK256 SWAP1 SWAP2 DUP1 DUP1 PUSH2 0x2DF7 DUP11 DUP11 DUP11 PUSH2 0x47C4 JUMP JUMPDEST DUP7 SLOAD SWAP3 SWAP6 POP SWAP1 SWAP4 POP SWAP2 POP PUSH1 0x0 PUSH2 0x2E0C DUP13 PUSH2 0x408E JUMP JUMPDEST SWAP5 DUP10 ADD SWAP5 SWAP3 DUP9 ADD SWAP3 SWAP1 POP PUSH2 0x2E1E PUSH2 0x514C JUMP JUMPDEST POP PUSH1 0x40 DUP1 MLOAD PUSH1 0x60 DUP1 DUP3 ADD DUP4 MSTORE DUP8 DUP3 MSTORE PUSH1 0x20 DUP1 DUP4 ADD DUP8 SWAP1 MSTORE DUP3 DUP5 ADD DUP6 SWAP1 MSTORE DUP4 MLOAD DUP6 DUP2 MSTORE PUSH1 0x1 PUSH1 0x1 PUSH1 0xA0 SHL SUB DUP16 AND SWAP2 DUP2 ADD SWAP2 SWAP1 SWAP2 MSTORE DUP1 DUP5 ADD DUP14 SWAP1 MSTORE SWAP1 DUP2 ADD DUP12 SWAP1 MSTORE SWAP2 MLOAD SWAP1 SWAP2 DUP14 SWAP2 CALLER SWAP2 PUSH32 0x34B2D1E14DD08F15CD0495453A3181C6AAFFD6D2DC171DBF7C52B3D18CF35B75 SWAP2 SWAP1 DUP2 SWAP1 SUB PUSH1 0x80 ADD SWAP1 LOG3 PUSH1 0x0 DUP4 GT DUP1 ISZERO PUSH2 0x2EAD JUMPI POP DUP13 PUSH1 0x3 ADD SLOAD DUP13 EQ ISZERO DUP1 PUSH2 0x2EAD JUMPI POP DUP2 DUP6 EQ JUMPDEST ISZERO PUSH2 0x2EC5 JUMPI DUP1 DUP8 PUSH1 0x0 ADD PUSH1 0x1 DUP6 SUB DUP2 SLOAD DUP2 LT PUSH2 0x2D1B JUMPI INVALID JUMPDEST DUP3 PUSH2 0x2D57 JUMPI PUSH1 0x1 PUSH2 0x2ED6 DUP15 DUP15 PUSH2 0x382D JUMP JUMPDEST SUB PUSH1 0x1 DUP9 ADD DUP2 SWAP1 SSTORE DUP9 SLOAD DUP4 SWAP2 DUP11 SWAP2 DUP2 LT PUSH2 0x2EEC JUMPI INVALID JUMPDEST SWAP1 PUSH1 0x0 MSTORE PUSH1 0x20 PUSH1 0x0 KECCAK256 SWAP1 PUSH1 0x3 MUL ADD PUSH1 0x2 ADD SLOAD LT ISZERO PUSH2 0x2D57 JUMPI PUSH1 0x1 DUP8 DUP2 ADD DUP1 SLOAD SWAP1 SWAP2 ADD SWAP1 DUP2 SWAP1 SSTORE PUSH1 0x0 DUP14 DUP2 MSTORE PUSH1 0x4 DUP16 ADD PUSH1 0x20 MSTORE PUSH1 0x40 SWAP1 KECCAK256 SLOAD EQ ISZERO PUSH2 0x2D7B JUMPI DUP7 SLOAD PUSH1 0x2 DUP9 ADD SSTORE DUP7 SLOAD PUSH1 0x1 DUP2 DUP2 ADD DUP10 SSTORE PUSH1 0x0 SWAP9 DUP10 MSTORE PUSH1 0x20 SWAP9 DUP10 SWAP1 KECCAK256 DUP4 MLOAD PUSH1 0x3 SWAP1 SWAP4 MUL ADD SWAP2 DUP3 SSTORE SWAP8 DUP3 ADD MLOAD SWAP8 DUP2 ADD SWAP8 SWAP1 SWAP8 SSTORE PUSH1 0x40 ADD MLOAD PUSH1 0x2 SWAP1 SWAP7 ADD SWAP6 SWAP1 SWAP6 SSTORE POP POP POP POP POP POP POP POP POP POP POP JUMP JUMPDEST PUSH1 0x0 DUP1 PUSH2 0x2F7F PUSH2 0x1C2D JUMP JUMPDEST PUSH1 0x6 SLOAD SWAP2 SWAP4 POP SWAP2 POP DUP3 EQ ISZERO DUP1 PUSH2 0x2F97 JUMPI POP PUSH1 0x7 SLOAD DUP2 EQ ISZERO JUMPDEST ISZERO PUSH2 0x2BAB JUMPI PUSH1 0x6 DUP3 SWAP1 SSTORE PUSH1 0x7 DUP2 SWAP1 SSTORE PUSH1 0x5 SLOAD PUSH2 0x2FBA SWAP1 PUSH1 0x1 PUSH4 0xFFFFFFFF PUSH2 0x3C84 AND JUMP JUMPDEST PUSH1 0x5 SSTORE PUSH1 0x40 DUP1 MLOAD CALLER DUP2 MSTORE PUSH1 0x20 DUP2 ADD DUP5 SWAP1 MSTORE DUP1 DUP3 ADD DUP4 SWAP1 MSTORE SWAP1 MLOAD PUSH32 0xDE6ECF3D8C720475E24F2D3AE66B2470FB69B76910E2FF22300CA03C14CA76F5 SWAP2 DUP2 SWAP1 SUB PUSH1 0x60 ADD SWAP1 LOG1 SWAP1 SWAP2 JUMP JUMPDEST PUSH1 0x0 DUP3 DUP2 MSTORE PUSH1 0x4 DUP5 ADD PUSH1 0x20 MSTORE PUSH1 0x40 DUP2 KECCAK256 DUP1 SLOAD SWAP1 SWAP2 SWAP1 DUP3 SWAP1 PUSH1 0x0 NOT DUP2 ADD SWAP1 DUP2 LT PUSH2 0x3026 JUMPI INVALID JUMPDEST SWAP1 PUSH1 0x0 MSTORE PUSH1 0x20 PUSH1 0x0 KECCAK256 SWAP1 PUSH1 0x3 MUL ADD SWAP1 POP PUSH2 0x303F DUP6 PUSH2 0x408E JUMP JUMPDEST DUP2 PUSH1 0x2 ADD SLOAD LT ISZERO PUSH2 0x3077 JUMPI PUSH2 0x3054 DUP6 DUP6 PUSH2 0x48EC JUMP JUMPDEST DUP2 SLOAD DUP3 SWAP1 PUSH1 0x0 NOT DUP2 ADD SWAP1 DUP2 LT PUSH2 0x3066 JUMPI INVALID JUMPDEST SWAP1 PUSH1 0x0 MSTORE PUSH1 0x20 PUSH1 0x0 KECCAK256 SWAP1 PUSH1 0x3 MUL ADD SWAP1 POP JUMPDEST DUP3 ISZERO PUSH2 0x2DB9 JUMPI PUSH1 0x1 DUP2 ADD SLOAD PUSH2 0x3092 SWAP1 DUP5 PUSH4 0xFFFFFFFF PUSH2 0x3C84 AND JUMP JUMPDEST PUSH1 0x1 DUP3 ADD SSTORE DUP4 PUSH32 0x96709D4288825181C14DF06E5002029D4207C82A70441A8338901B54C05A8332 CALLER PUSH2 0x30C3 DUP9 PUSH2 0x408E JUMP JUMPDEST PUSH1 0x40 DUP1 MLOAD PUSH1 0x1 PUSH1 0x1 PUSH1 0xA0 SHL SUB SWAP1 SWAP4 AND DUP4 MSTORE PUSH1 0x20 DUP4 ADD SWAP2 SWAP1 SWAP2 MSTORE DUP2 DUP2 ADD DUP8 SWAP1 MSTORE MLOAD SWAP1 DUP2 SWAP1 SUB PUSH1 0x60 ADD SWAP1 LOG2 POP POP POP POP POP JUMP JUMPDEST PUSH2 0x30FD DUP3 DUP3 PUSH2 0x49E8 JUMP JUMPDEST PUSH2 0x3147 JUMPI PUSH1 0x40 DUP1 MLOAD PUSH3 0x461BCD PUSH1 0xE5 SHL DUP2 MSTORE PUSH1 0x20 PUSH1 0x4 DUP3 ADD MSTORE PUSH1 0x16 PUSH1 0x24 DUP3 ADD MSTORE PUSH22 0x11925193D4D95D0E881AD95E481B9BDD08199BDD5B99 PUSH1 0x52 SHL PUSH1 0x44 DUP3 ADD MSTORE SWAP1 MLOAD SWAP1 DUP2 SWAP1 SUB PUSH1 0x64 ADD SWAP1 REVERT JUMPDEST PUSH1 0x0 DUP2 DUP2 MSTORE PUSH1 0x2 DUP4 ADD PUSH1 0x20 MSTORE PUSH1 0x40 DUP2 KECCAK256 PUSH1 0x1 DUP2 ADD SLOAD DUP2 SLOAD SWAP2 SWAP3 SWAP1 SWAP2 SWAP1 PUSH2 0x316C DUP7 PUSH2 0x3E26 JUMP JUMPDEST SWAP1 POP PUSH1 0x0 PUSH2 0x3179 DUP8 PUSH2 0x37A0 JUMP JUMPDEST PUSH1 0x0 DUP6 DUP2 MSTORE PUSH1 0x2 DUP10 ADD PUSH1 0x20 MSTORE PUSH1 0x40 DUP1 DUP3 KECCAK256 DUP7 DUP4 MSTORE SWAP2 KECCAK256 SWAP2 SWAP3 POP SWAP1 PUSH2 0x319C DUP10 PUSH2 0x3FA8 JUMP JUMPDEST PUSH1 0x1 EQ ISZERO PUSH2 0x31B3 JUMPI PUSH1 0x0 DUP1 DUP11 SSTORE PUSH1 0x1 DUP11 ADD SSTORE PUSH2 0x31ED JUMP JUMPDEST DUP4 DUP9 EQ ISZERO PUSH2 0x31CA JUMPI PUSH1 0x0 PUSH1 0x1 DUP3 ADD SSTORE DUP5 DUP10 SSTORE PUSH2 0x31ED JUMP JUMPDEST DUP3 DUP9 EQ ISZERO PUSH2 0x31E2 JUMPI PUSH1 0x0 DUP3 SSTORE PUSH1 0x1 DUP10 ADD DUP7 SWAP1 SSTORE PUSH2 0x31ED JUMP JUMPDEST DUP5 DUP3 SSTORE PUSH1 0x1 DUP2 ADD DUP7 SWAP1 SSTORE JUMPDEST PUSH2 0x3200 PUSH1 0x3 DUP11 ADD DUP10 PUSH4 0xFFFFFFFF PUSH2 0x49FD AND JUMP JUMPDEST POP POP POP PUSH1 0x0 SWAP5 DUP6 MSTORE POP POP POP PUSH1 0x2 SWAP1 SWAP3 ADD PUSH1 0x20 MSTORE PUSH1 0x40 DUP2 KECCAK256 DUP2 DUP2 SSTORE PUSH1 0x1 ADD SSTORE POP JUMP JUMPDEST PUSH1 0x0 DUP1 PUSH1 0x0 DUP1 PUSH1 0x0 DUP1 PUSH1 0x0 DUP1 JUMPDEST PUSH1 0x0 PUSH2 0x323A PUSH1 0x18 PUSH2 0x3FA8 JUMP JUMPDEST GT DUP1 ISZERO PUSH2 0x3247 JUMPI POP PUSH1 0x0 DUP11 GT JUMPDEST ISZERO PUSH2 0x3542 JUMPI DUP9 GAS LT ISZERO PUSH2 0x32B0 JUMPI PUSH32 0x26A72B1025F7454A60C5A168FEBEFD96FE828D125284A2AA8DE1D2D0942B577D CALLER GAS PUSH1 0x40 DUP1 MLOAD PUSH1 0x1 PUSH1 0x1 PUSH1 0xA0 SHL SUB SWAP1 SWAP4 AND DUP4 MSTORE PUSH1 0x20 DUP4 ADD SWAP2 SWAP1 SWAP2 MSTORE DUP2 DUP2 ADD DUP5 SWAP1 MSTORE MLOAD SWAP1 DUP2 SWAP1 SUB PUSH1 0x60 ADD SWAP1 LOG1 PUSH1 0x0 SWAP8 POP POP POP POP POP POP POP POP PUSH2 0x17E2 JUMP JUMPDEST PUSH2 0x32BA PUSH1 0x18 PUSH2 0x3E26 JUMP JUMPDEST PUSH1 0x0 DUP2 DUP2 MSTORE PUSH1 0x12 PUSH1 0x20 MSTORE PUSH1 0x40 SWAP1 KECCAK256 DUP1 SLOAD PUSH1 0x1 DUP3 ADD SLOAD SWAP3 SWAP10 POP PUSH1 0x1 PUSH1 0x1 PUSH1 0xA0 SHL SUB AND SWAP8 POP SWAP1 SWAP5 POP PUSH2 0x32E9 DUP6 PUSH2 0x4AF8 JUMP JUMPDEST SWAP6 POP DUP6 PUSH2 0x3392 JUMPI DUP5 ISZERO PUSH2 0x335C JUMPI PUSH1 0x40 DUP1 MLOAD PUSH3 0x8AE8D PUSH1 0xEB SHL DUP2 MSTORE SWAP1 MLOAD SWAP1 DUP2 SWAP1 SUB PUSH1 0x3 ADD SWAP1 KECCAK256 PUSH2 0x3324 SWAP1 PUSH1 0xC SWAP1 DUP10 DUP9 PUSH1 0x0 PUSH4 0xFFFFFFFF PUSH2 0x2DC0 AND JUMP JUMPDEST PUSH1 0x40 DUP1 MLOAD DUP7 DUP2 MSTORE SWAP1 MLOAD DUP10 SWAP2 CALLER SWAP2 PUSH32 0xF82D0D34C08930BC9F8E987FD50BEA3840AEAAE5CD4B5291AD47E3A9C00F2CD1 SWAP2 DUP2 SWAP1 SUB PUSH1 0x20 ADD SWAP1 LOG3 JUMPDEST PUSH1 0x0 DUP9 DUP2 MSTORE PUSH1 0x12 PUSH1 0x20 MSTORE PUSH1 0x40 DUP2 KECCAK256 DUP1 SLOAD PUSH1 0x1 PUSH1 0x1 PUSH1 0xA0 SHL SUB NOT AND DUP2 SSTORE PUSH1 0x1 ADD SSTORE PUSH2 0x338D PUSH1 0x18 DUP10 PUSH4 0xFFFFFFFF PUSH2 0x30F3 AND JUMP JUMPDEST PUSH2 0x353C JUMP JUMPDEST PUSH2 0x339B DUP12 PUSH2 0x4B04 JUMP JUMPDEST SWAP4 POP DUP11 SWAP3 POP DUP4 DUP6 LT ISZERO PUSH2 0x33AF JUMPI DUP5 SWAP4 POP DUP6 SWAP3 POP JUMPDEST PUSH1 0x40 DUP1 MLOAD DUP6 DUP2 MSTORE PUSH1 0x20 DUP2 ADD DUP6 SWAP1 MSTORE DUP2 MLOAD PUSH1 0x1 PUSH1 0x1 PUSH1 0xA0 SHL SUB DUP11 AND SWAP3 DUP12 SWAP3 CALLER SWAP3 PUSH32 0x776137802DF19E3B87A42166C59A2F6ADAA28D46B8E1F0CC370E78B49516D622 SWAP3 SWAP2 DUP2 SWAP1 SUB SWAP1 SWAP2 ADD SWAP1 LOG4 PUSH1 0x40 DUP1 MLOAD PUSH4 0x1213D113 PUSH1 0xE2 SHL DUP2 MSTORE SWAP1 MLOAD SWAP1 DUP2 SWAP1 SUB PUSH1 0x4 ADD SWAP1 KECCAK256 PUSH2 0x3428 SWAP1 PUSH1 0xC SWAP1 CALLER DUP7 PUSH1 0x0 PUSH4 0xFFFFFFFF PUSH2 0x2BAF AND JUMP JUMPDEST PUSH1 0x40 DUP1 MLOAD PUSH4 0x1213D113 PUSH1 0xE2 SHL DUP2 MSTORE SWAP1 MLOAD SWAP1 DUP2 SWAP1 SUB PUSH1 0x4 ADD SWAP1 KECCAK256 PUSH2 0x3457 SWAP1 PUSH1 0xC SWAP1 DUP10 DUP7 PUSH1 0x0 PUSH4 0xFFFFFFFF PUSH2 0x2DC0 AND JUMP JUMPDEST PUSH1 0x40 DUP1 MLOAD PUSH3 0x8AE8D PUSH1 0xEB SHL DUP2 MSTORE SWAP1 MLOAD SWAP1 DUP2 SWAP1 SUB PUSH1 0x3 ADD SWAP1 KECCAK256 PUSH2 0x3485 SWAP1 PUSH1 0xC SWAP1 CALLER DUP8 PUSH1 0x0 PUSH4 0xFFFFFFFF PUSH2 0x2DC0 AND JUMP JUMPDEST DUP4 DUP6 EQ ISZERO PUSH2 0x34C3 JUMPI PUSH1 0x0 DUP9 DUP2 MSTORE PUSH1 0x12 PUSH1 0x20 MSTORE PUSH1 0x40 DUP2 KECCAK256 DUP1 SLOAD PUSH1 0x1 PUSH1 0x1 PUSH1 0xA0 SHL SUB NOT AND DUP2 SSTORE PUSH1 0x1 ADD SSTORE PUSH2 0x34BE PUSH1 0x18 DUP10 PUSH4 0xFFFFFFFF PUSH2 0x30F3 AND JUMP JUMPDEST PUSH2 0x3535 JUMP JUMPDEST PUSH1 0x40 DUP1 MLOAD DUP1 DUP3 ADD SWAP1 SWAP2 MSTORE PUSH1 0xB DUP2 MSTORE PUSH11 0x486F646C4465782035303 PUSH1 0xAC SHL PUSH1 0x20 DUP3 ADD MSTORE PUSH2 0x34F8 SWAP1 DUP7 SWAP1 DUP7 SWAP1 PUSH4 0xFFFFFFFF PUSH2 0x4855 AND JUMP JUMPDEST PUSH1 0x1 DUP3 ADD SSTORE PUSH1 0x40 DUP1 MLOAD DUP1 DUP3 ADD SWAP1 SWAP2 MSTORE PUSH1 0xB DUP2 MSTORE PUSH11 0x486F646C44657820353031 PUSH1 0xA8 SHL PUSH1 0x20 DUP3 ADD MSTORE PUSH2 0x3532 SWAP1 DUP13 SWAP1 DUP6 SWAP1 PUSH4 0xFFFFFFFF PUSH2 0x4855 AND JUMP JUMPDEST SWAP11 POP JUMPDEST PUSH1 0x1 SWAP1 SWAP2 ADD SWAP1 JUMPDEST POP PUSH2 0x322E JUMP JUMPDEST PUSH2 0x354B DUP2 PUSH2 0x400F JUMP JUMPDEST POP SWAP8 SWAP9 SWAP8 POP POP POP POP POP POP POP POP JUMP JUMPDEST PUSH1 0x0 PUSH9 0x2B5E3AF16B1880000 PUSH2 0x356E DUP4 PUSH2 0x21B6 JUMP JUMPDEST GT DUP1 ISZERO PUSH2 0x3582 JUMPI POP PUSH2 0x3580 PUSH1 0x18 PUSH2 0x3FA8 JUMP JUMPDEST ISZERO JUMPDEST ISZERO PUSH2 0x11A8 JUMPI PUSH2 0x358F PUSH2 0x4B1B JUMP JUMPDEST SWAP1 POP PUSH1 0x0 PUSH2 0x359B PUSH2 0x1C2D JUMP JUMPDEST POP PUSH1 0x0 DUP4 DUP2 MSTORE PUSH1 0x11 PUSH1 0x20 MSTORE PUSH1 0x40 SWAP1 KECCAK256 SWAP1 SWAP2 POP PUSH2 0x35BE PUSH1 0x13 DUP5 PUSH4 0xFFFFFFFF PUSH2 0x4B65 AND JUMP JUMPDEST PUSH1 0x40 DUP1 MLOAD DUP6 DUP2 MSTORE PUSH1 0x20 DUP2 ADD DUP5 SWAP1 MSTORE DUP2 MLOAD CALLER SWAP3 DUP7 SWAP3 PUSH32 0x859B9B1ACA54F86CFCA352A982E638C932E7FD450A59878AFB01597257D13C9C SWAP3 SWAP1 DUP2 SWAP1 SUB SWAP1 SWAP2 ADD SWAP1 LOG3 PUSH1 0x40 DUP1 MLOAD PUSH4 0x1213D113 PUSH1 0xE2 SHL DUP2 MSTORE SWAP1 MLOAD SWAP1 DUP2 SWAP1 SUB PUSH1 0x4 ADD SWAP1 KECCAK256 PUSH2 0x362C SWAP1 PUSH1 0xC SWAP1 CALLER PUSH1 0x0 DUP9 PUSH4 0xFFFFFFFF PUSH2 0x2DC0 AND JUMP JUMPDEST DUP1 SLOAD PUSH1 0x1 PUSH1 0x1 PUSH1 0xA0 SHL SUB NOT AND CALLER SWAP1 DUP2 OR DUP3 SSTORE PUSH1 0x1 DUP3 ADD DUP6 SWAP1 SSTORE PUSH1 0x2 DUP3 ADD DUP4 SWAP1 SSTORE PUSH1 0x40 DUP1 MLOAD PUSH4 0x1213D113 PUSH1 0xE2 SHL DUP2 MSTORE SWAP1 MLOAD SWAP1 DUP2 SWAP1 SUB PUSH1 0x4 ADD SWAP1 KECCAK256 PUSH2 0x367B SWAP2 PUSH1 0xC SWAP2 SWAP1 DUP8 PUSH1 0x0 PUSH4 0xFFFFFFFF PUSH2 0x2BAF AND JUMP JUMPDEST POP POP SWAP2 SWAP1 POP JUMP JUMPDEST PUSH1 0x0 NUMBER PUSH1 0x9 SLOAD EQ ISZERO PUSH2 0x3697 JUMPI POP PUSH1 0xB SLOAD PUSH2 0x1533 JUMP JUMPDEST PUSH1 0x0 PUSH2 0x36A1 PUSH2 0x2B20 JUMP JUMPDEST PUSH1 0xB DUP3 SWAP1 SSTORE NUMBER PUSH1 0x9 SSTORE SWAP1 SWAP3 POP SWAP1 POP DUP1 PUSH2 0x3700 JUMPI PUSH1 0xA DUP1 SLOAD PUSH1 0x1 ADD SWAP1 DUP2 SWAP1 SSTORE PUSH1 0x40 DUP1 MLOAD CALLER DUP2 MSTORE PUSH1 0x20 DUP2 ADD SWAP3 SWAP1 SWAP3 MSTORE DUP2 DUP2 ADD DUP5 SWAP1 MSTORE MLOAD PUSH32 0x1B6826F6886B75B3EAEC36667372CFD16E72A81E148C098EDEDB06C10616E85D SWAP2 DUP2 SWAP1 SUB PUSH1 0x60 ADD SWAP1 LOG1 JUMPDEST PUSH1 0x40 DUP1 MLOAD CALLER DUP2 MSTORE PUSH1 0x20 DUP2 ADD DUP5 SWAP1 MSTORE DUP2 MLOAD PUSH32 0xA4DEBDFC51DA746DCB19F892EAC110CE7D5D1C86475813BC7940BE5C100EAB4 SWAP3 SWAP2 DUP2 SWAP1 SUB SWAP1 SWAP2 ADD SWAP1 LOG1 PUSH1 0x40 DUP1 MLOAD PUSH3 0x8AE8D PUSH1 0xEB SHL DUP2 MSTORE SWAP1 MLOAD SWAP1 DUP2 SWAP1 SUB PUSH1 0x3 ADD SWAP1 KECCAK256 PUSH2 0x3765 SWAP1 PUSH1 0xC SWAP1 PUSH4 0xFFFFFFFF PUSH2 0x3794 AND JUMP JUMPDEST PUSH1 0x40 DUP1 MLOAD PUSH4 0x1213D113 PUSH1 0xE2 SHL DUP2 MSTORE SWAP1 MLOAD SWAP1 DUP2 SWAP1 SUB PUSH1 0x4 ADD SWAP1 KECCAK256 PUSH2 0x3790 SWAP1 PUSH1 0xC SWAP1 PUSH4 0xFFFFFFFF PUSH2 0x3794 AND JUMP JUMPDEST POP SWAP1 JUMP JUMPDEST PUSH2 0x1679 DUP3 DUP3 PUSH1 0x0 PUSH2 0x3001 JUMP JUMPDEST PUSH1 0x1 ADD SLOAD SWAP1 JUMP JUMPDEST PUSH1 0x0 DUP3 DUP2 MSTORE PUSH1 0x4 DUP5 ADD PUSH1 0x20 MSTORE PUSH1 0x40 DUP2 KECCAK256 DUP1 SLOAD DUP3 SWAP2 DUP3 SWAP2 DUP2 SWAP1 DUP7 SWAP1 DUP2 LT PUSH2 0x37C9 JUMPI INVALID JUMPDEST SWAP1 PUSH1 0x0 MSTORE PUSH1 0x20 PUSH1 0x0 KECCAK256 SWAP1 PUSH1 0x3 MUL ADD PUSH1 0x0 ADD SLOAD DUP2 PUSH1 0x0 ADD DUP7 DUP2 SLOAD DUP2 LT PUSH2 0x37EA JUMPI INVALID JUMPDEST SWAP1 PUSH1 0x0 MSTORE PUSH1 0x20 PUSH1 0x0 KECCAK256 SWAP1 PUSH1 0x3 MUL ADD PUSH1 0x1 ADD SLOAD DUP3 PUSH1 0x0 ADD DUP8 DUP2 SLOAD DUP2 LT PUSH2 0x380B JUMPI INVALID JUMPDEST SWAP1 PUSH1 0x0 MSTORE PUSH1 0x20 PUSH1 0x0 KECCAK256 SWAP1 PUSH1 0x3 MUL ADD PUSH1 0x2 ADD SLOAD SWAP4 POP SWAP4 POP SWAP4 POP POP SWAP4 POP SWAP4 POP SWAP4 SWAP1 POP JUMP JUMPDEST PUSH1 0x0 SWAP1 DUP2 MSTORE PUSH1 0x4 SWAP1 SWAP2 ADD PUSH1 0x20 MSTORE PUSH1 0x40 SWAP1 KECCAK256 SLOAD SWAP1 JUMP JUMPDEST PUSH1 0x0 DUP3 DUP2 MSTORE PUSH1 0x4 DUP5 ADD PUSH1 0x20 SWAP1 DUP2 MSTORE PUSH1 0x40 DUP1 DUP4 KECCAK256 PUSH1 0x3 DUP8 ADD SLOAD DUP5 MSTORE DUP2 DUP5 KECCAK256 PUSH1 0x1 PUSH1 0x1 PUSH1 0xA0 SHL SUB DUP7 AND DUP6 MSTORE PUSH1 0x1 DUP1 DUP3 ADD SWAP1 SWAP5 MSTORE SWAP2 DUP5 KECCAK256 PUSH1 0x2 DUP2 ADD SLOAD DUP2 DUP6 ADD SLOAD DUP4 SLOAD SWAP2 SWAP6 SWAP1 SWAP5 DUP8 SWAP5 SWAP4 SWAP1 SWAP3 SWAP1 SWAP2 DUP7 ADD GT ISZERO PUSH2 0x38A4 JUMPI POP PUSH1 0x0 SWAP6 POP DUP6 SWAP3 POP PUSH2 0x3955 SWAP2 POP POP JUMP JUMPDEST PUSH1 0x0 DUP4 PUSH1 0x0 ADD DUP7 DUP2 SLOAD DUP2 LT PUSH2 0x38B5 JUMPI INVALID JUMPDEST PUSH1 0x0 SWAP2 DUP3 MSTORE PUSH1 0x20 SWAP1 SWAP2 KECCAK256 PUSH1 0x3 SWAP1 SWAP2 MUL ADD DUP1 SLOAD DUP4 SLOAD DUP2 ISZERO ISZERO SWAP8 POP SWAP2 SWAP3 POP SWAP1 PUSH1 0x1 DUP10 ADD GT DUP1 PUSH2 0x38E0 JUMPI POP DUP6 ISZERO JUMPDEST ISZERO PUSH2 0x38F4 JUMPI POP PUSH1 0x0 SWAP8 POP PUSH2 0x3955 SWAP4 POP POP POP POP JUMP JUMPDEST PUSH1 0x0 DUP4 PUSH1 0x0 ADD DUP10 DUP2 SLOAD DUP2 LT PUSH2 0x3905 JUMPI INVALID JUMPDEST PUSH1 0x0 SWAP2 DUP3 MSTORE PUSH1 0x20 DUP3 KECCAK256 PUSH1 0x3 SWAP2 SWAP1 SWAP2 MUL ADD PUSH1 0x1 DUP2 DUP2 ADD SLOAD DUP3 SLOAD SWAP2 DUP8 ADD SLOAD SWAP3 SWAP5 POP ADD SWAP2 DUP5 PUSH8 0xDE0B6B3A7640000 DUP4 MUL DUP2 PUSH2 0x3939 JUMPI INVALID JUMPDEST DIV SWAP1 POP PUSH8 0xDE0B6B3A7640000 DUP4 DUP3 MUL DIV SWAP13 POP POP POP POP POP POP POP POP POP POP JUMPDEST SWAP4 POP SWAP4 POP SWAP4 POP SWAP4 JUMP JUMPDEST CALLER SWAP1 JUMP JUMPDEST PUSH1 0x0 DUP3 DUP2 MSTORE PUSH1 0x1 PUSH1 0x20 MSTORE PUSH1 0x40 SWAP1 KECCAK256 PUSH2 0x3980 SWAP1 DUP3 PUSH4 0xFFFFFFFF PUSH2 0x4C5D AND JUMP JUMPDEST ISZERO PUSH2 0x1679 JUMPI PUSH2 0x398D PUSH2 0x395E JUMP JUMPDEST PUSH1 0x1 PUSH1 0x1 PUSH1 0xA0 SHL SUB AND DUP2 PUSH1 0x1 PUSH1 0x1 PUSH1 0xA0 SHL SUB AND DUP4 PUSH32 0x2F8788117E7EFF1D82E926EC794901D17C78024A50270940304540A733656F0D PUSH1 0x40 MLOAD PUSH1 0x40 MLOAD DUP1 SWAP2 SUB SWAP1 LOG4 POP POP JUMP JUMPDEST PUSH1 0x0 DUP3 DUP2 MSTORE PUSH1 0x4 DUP5 ADD PUSH1 0x20 MSTORE PUSH1 0x40 DUP2 KECCAK256 DUP2 PUSH2 0x39ED DUP7 DUP7 DUP7 PUSH2 0x3A45 JUMP JUMPDEST SWAP1 POP DUP1 PUSH2 0x39FF JUMPI PUSH1 0x0 SWAP3 POP POP POP PUSH2 0x1A3A JUMP JUMPDEST PUSH1 0x1 PUSH1 0x1 PUSH1 0xA0 SHL SUB DUP5 AND PUSH1 0x0 SWAP1 DUP2 MSTORE PUSH1 0x1 DUP4 ADD PUSH1 0x20 MSTORE PUSH1 0x40 DUP2 KECCAK256 DUP1 SLOAD PUSH1 0x0 NOT DUP5 ADD SWAP1 DUP2 LT PUSH2 0x3A29 JUMPI INVALID JUMPDEST PUSH1 0x0 SWAP2 DUP3 MSTORE PUSH1 0x20 SWAP1 SWAP2 KECCAK256 PUSH1 0x3 SWAP1 SWAP2 MUL ADD SLOAD SWAP8 SWAP7 POP POP POP POP POP POP POP JUMP JUMPDEST PUSH1 0x0 DUP3 DUP2 MSTORE PUSH1 0x4 DUP5 ADD PUSH1 0x20 SWAP1 DUP2 MSTORE PUSH1 0x40 DUP1 DUP4 KECCAK256 PUSH1 0x1 PUSH1 0x1 PUSH1 0xA0 SHL SUB DUP6 AND DUP5 MSTORE PUSH1 0x1 ADD SWAP1 SWAP2 MSTORE SWAP1 KECCAK256 SLOAD SWAP4 SWAP3 POP POP POP JUMP JUMPDEST PUSH1 0x0 DUP3 DUP2 MSTORE PUSH1 0x1 PUSH1 0x20 MSTORE PUSH1 0x40 SWAP1 KECCAK256 PUSH2 0x3A92 SWAP1 DUP3 PUSH4 0xFFFFFFFF PUSH2 0x4C72 AND JUMP JUMPDEST ISZERO PUSH2 0x1679 JUMPI PUSH2 0x3A9F PUSH2 0x395E JUMP JUMPDEST PUSH1 0x1 PUSH1 0x1 PUSH1 0xA0 SHL SUB AND DUP2 PUSH1 0x1 PUSH1 0x1 PUSH1 0xA0 SHL SUB AND DUP4 PUSH32 0xF6391F5C32D9C69D2A47EA670B442974B53935D1EDC7FD64EB21E047A839171B PUSH1 0x40 MLOAD PUSH1 0x40 MLOAD DUP1 SWAP2 SUB SWAP1 LOG4 POP POP JUMP JUMPDEST PUSH1 0x0 DUP3 DUP2 MSTORE PUSH1 0x4 DUP5 ADD PUSH1 0x20 SWAP1 DUP2 MSTORE PUSH1 0x40 DUP1 DUP4 KECCAK256 PUSH1 0x3 DUP8 ADD SLOAD DUP5 MSTORE DUP2 DUP5 KECCAK256 PUSH1 0x1 PUSH1 0x1 PUSH1 0xA0 SHL SUB DUP7 AND DUP6 MSTORE PUSH1 0x1 DUP1 DUP4 ADD DUP6 MSTORE DUP4 DUP7 KECCAK256 SWAP1 DUP3 ADD SWAP1 SWAP5 MSTORE SWAP2 DUP5 KECCAK256 SWAP1 SWAP3 SWAP1 PUSH2 0x3B2C DUP9 DUP9 PUSH2 0x3794 JUMP JUMPDEST PUSH1 0x0 DUP1 PUSH1 0x0 PUSH2 0x3B3C DUP12 DUP12 DUP12 PUSH2 0x3842 JUMP JUMPDEST SWAP3 SWAP11 POP SWAP1 SWAP5 POP SWAP3 POP SWAP1 POP DUP1 PUSH2 0x3B5B JUMPI PUSH1 0x0 SWAP8 POP POP POP POP POP POP POP POP PUSH2 0x1A3A JUMP JUMPDEST PUSH1 0x0 DUP8 PUSH1 0x0 ADD DUP4 DUP2 SLOAD DUP2 LT PUSH2 0x3B6C JUMPI INVALID JUMPDEST SWAP1 PUSH1 0x0 MSTORE PUSH1 0x20 PUSH1 0x0 KECCAK256 SWAP1 PUSH1 0x3 MUL ADD SWAP1 POP DUP11 CALLER PUSH1 0x1 PUSH1 0x1 PUSH1 0xA0 SHL SUB AND PUSH32 0x703E744CB3AE9492E7B192242CD2A9916B267E8BE750FF02A0961442D87AC609 DUP4 PUSH1 0x2 ADD SLOAD DUP13 DUP9 DUP9 PUSH1 0x40 MLOAD DUP1 DUP6 DUP2 MSTORE PUSH1 0x20 ADD DUP5 DUP2 MSTORE PUSH1 0x20 ADD DUP4 DUP2 MSTORE PUSH1 0x20 ADD DUP3 DUP2 MSTORE PUSH1 0x20 ADD SWAP5 POP POP POP POP POP PUSH1 0x40 MLOAD DUP1 SWAP2 SUB SWAP1 LOG3 PUSH2 0x3BE8 DUP13 DUP13 DUP13 DUP13 PUSH1 0x0 PUSH2 0x2DC0 JUMP JUMPDEST PUSH1 0x0 PUSH2 0x3BF4 DUP7 DUP7 PUSH2 0x4C87 JUMP JUMPDEST SWAP1 POP PUSH1 0x0 PUSH2 0x3C02 DUP15 DUP7 PUSH2 0x4CD1 JUMP JUMPDEST SWAP1 POP PUSH2 0x3C10 DUP15 DUP15 DUP15 DUP9 PUSH2 0x4D30 JUMP JUMPDEST DUP10 SLOAD PUSH1 0x1 DUP10 ADD SLOAD EQ ISZERO PUSH2 0x3C3A JUMPI POP POP SWAP4 SLOAD PUSH1 0x0 NOT ADD PUSH1 0x2 SWAP1 SWAP6 ADD SWAP5 SWAP1 SWAP5 SSTORE POP PUSH2 0x1A3A SWAP5 POP POP POP POP POP JUMP JUMPDEST DUP1 DUP3 GT PUSH2 0x3C73 JUMPI PUSH2 0x3C4D DUP15 DUP15 DUP15 DUP10 PUSH2 0x4D83 JUMP JUMPDEST PUSH2 0x3C58 DUP15 DUP15 DUP15 PUSH2 0x3842 JUMP JUMPDEST SWAP3 SWAP14 POP SWAP1 SWAP8 POP SWAP6 POP SWAP4 POP PUSH2 0x3C6C DUP8 DUP8 PUSH2 0x4C87 JUMP JUMPDEST SWAP2 POP PUSH2 0x3C3A JUMP JUMPDEST POP POP POP POP POP POP POP POP POP POP SWAP4 SWAP3 POP POP POP JUMP JUMPDEST PUSH1 0x0 DUP3 DUP3 ADD DUP4 DUP2 LT ISZERO PUSH2 0x1A3A JUMPI PUSH1 0x40 DUP1 MLOAD PUSH3 0x461BCD PUSH1 0xE5 SHL DUP2 MSTORE PUSH1 0x20 PUSH1 0x4 DUP3 ADD MSTORE PUSH1 0x1B PUSH1 0x24 DUP3 ADD MSTORE PUSH32 0x536166654D6174683A206164646974696F6E206F766572666C6F770000000000 PUSH1 0x44 DUP3 ADD MSTORE SWAP1 MLOAD SWAP1 DUP2 SWAP1 SUB PUSH1 0x64 ADD SWAP1 REVERT JUMPDEST PUSH1 0x0 PUSH2 0x1A3A DUP4 DUP4 PUSH1 0x40 MLOAD DUP1 PUSH1 0x40 ADD PUSH1 0x40 MSTORE DUP1 PUSH1 0x1E DUP2 MSTORE PUSH1 0x20 ADD PUSH32 0x536166654D6174683A207375627472616374696F6E206F766572666C6F770000 DUP2 MSTORE POP PUSH2 0x4855 JUMP JUMPDEST PUSH1 0x0 DUP3 PUSH2 0x3D2F JUMPI POP PUSH1 0x0 PUSH2 0x17E2 JUMP JUMPDEST DUP3 DUP3 MUL DUP3 DUP5 DUP3 DUP2 PUSH2 0x3D3C JUMPI INVALID JUMPDEST DIV EQ PUSH2 0x1A3A JUMPI PUSH1 0x40 MLOAD PUSH3 0x461BCD PUSH1 0xE5 SHL DUP2 MSTORE PUSH1 0x4 ADD DUP1 DUP1 PUSH1 0x20 ADD DUP3 DUP2 SUB DUP3 MSTORE PUSH1 0x21 DUP2 MSTORE PUSH1 0x20 ADD DUP1 PUSH2 0x5289 PUSH1 0x21 SWAP2 CODECOPY PUSH1 0x40 ADD SWAP2 POP POP PUSH1 0x40 MLOAD DUP1 SWAP2 SUB SWAP1 REVERT JUMPDEST PUSH1 0x0 PUSH2 0x1A3A DUP4 DUP4 PUSH1 0x40 MLOAD DUP1 PUSH1 0x40 ADD PUSH1 0x40 MSTORE DUP1 PUSH1 0x1A DUP2 MSTORE PUSH1 0x20 ADD PUSH32 0x536166654D6174683A206469766973696F6E206279207A65726F000000000000 DUP2 MSTORE POP PUSH2 0x4DEF JUMP JUMPDEST PUSH1 0x0 DUP4 DUP2 MSTORE PUSH1 0x4 DUP6 ADD PUSH1 0x20 SWAP1 DUP2 MSTORE PUSH1 0x40 DUP1 DUP4 KECCAK256 PUSH1 0x1 PUSH1 0x1 PUSH1 0xA0 SHL SUB DUP7 AND DUP5 MSTORE PUSH1 0x1 DUP2 ADD SWAP1 SWAP3 MSTORE DUP3 KECCAK256 DUP1 SLOAD DUP4 SWAP3 DUP4 SWAP3 SWAP1 SWAP2 DUP4 SWAP2 SWAP1 DUP8 SWAP1 DUP2 LT PUSH2 0x3DF8 JUMPI INVALID JUMPDEST PUSH1 0x0 SWAP2 DUP3 MSTORE PUSH1 0x20 SWAP1 SWAP2 KECCAK256 PUSH1 0x3 SWAP1 SWAP2 MUL ADD DUP1 SLOAD PUSH1 0x1 DUP3 ADD SLOAD PUSH1 0x2 SWAP1 SWAP3 ADD SLOAD SWAP1 SWAP12 SWAP2 SWAP11 POP SWAP9 POP SWAP7 POP POP POP POP POP POP POP JUMP JUMPDEST SLOAD SWAP1 JUMP JUMPDEST PUSH1 0x0 DUP3 DUP2 MSTORE PUSH1 0x4 DUP5 ADD PUSH1 0x20 MSTORE PUSH1 0x40 DUP2 KECCAK256 DUP2 PUSH2 0x3E46 DUP7 DUP7 DUP7 PUSH2 0x3A45 JUMP JUMPDEST SWAP1 POP DUP1 PUSH2 0x3E58 JUMPI PUSH1 0x0 SWAP3 POP POP POP PUSH2 0x1A3A JUMP JUMPDEST PUSH1 0x1 PUSH1 0x1 PUSH1 0xA0 SHL SUB DUP5 AND PUSH1 0x0 SWAP1 DUP2 MSTORE PUSH1 0x1 DUP4 ADD PUSH1 0x20 MSTORE PUSH1 0x40 SWAP1 KECCAK256 DUP1 SLOAD PUSH1 0x0 NOT DUP4 ADD SWAP1 DUP2 LT PUSH2 0x3E82 JUMPI INVALID JUMPDEST SWAP1 PUSH1 0x0 MSTORE PUSH1 0x20 PUSH1 0x0 KECCAK256 SWAP1 PUSH1 0x3 MUL ADD PUSH1 0x1 ADD SLOAD SWAP3 POP POP POP SWAP4 SWAP3 POP POP POP JUMP JUMPDEST PUSH1 0x0 PUSH2 0x3EAB DUP4 DUP4 PUSH2 0x49E8 JUMP JUMPDEST PUSH2 0x3EF5 JUMPI PUSH1 0x40 DUP1 MLOAD PUSH3 0x461BCD PUSH1 0xE5 SHL DUP2 MSTORE PUSH1 0x20 PUSH1 0x4 DUP3 ADD MSTORE PUSH1 0x16 PUSH1 0x24 DUP3 ADD MSTORE PUSH22 0x11925193D4D95D0E881AD95E481B9BDD08199BDD5B99 PUSH1 0x52 SHL PUSH1 0x44 DUP3 ADD MSTORE SWAP1 MLOAD SWAP1 DUP2 SWAP1 SUB PUSH1 0x64 ADD SWAP1 REVERT JUMPDEST POP PUSH1 0x0 SWAP1 DUP2 MSTORE PUSH1 0x2 SWAP2 SWAP1 SWAP2 ADD PUSH1 0x20 MSTORE PUSH1 0x40 SWAP1 KECCAK256 PUSH1 0x1 ADD SLOAD SWAP1 JUMP JUMPDEST PUSH1 0x0 PUSH2 0x3F1B DUP4 DUP4 PUSH2 0x49E8 JUMP JUMPDEST PUSH2 0x3F65 JUMPI PUSH1 0x40 DUP1 MLOAD PUSH3 0x461BCD PUSH1 0xE5 SHL DUP2 MSTORE PUSH1 0x20 PUSH1 0x4 DUP3 ADD MSTORE PUSH1 0x16 PUSH1 0x24 DUP3 ADD MSTORE PUSH22 0x11925193D4D95D0E881AD95E481B9BDD08199BDD5B99 PUSH1 0x52 SHL PUSH1 0x44 DUP3 ADD MSTORE SWAP1 MLOAD SWAP1 DUP2 SWAP1 SUB PUSH1 0x64 ADD SWAP1 REVERT JUMPDEST POP PUSH1 0x0 SWAP1 DUP2 MSTORE PUSH1 0x2 SWAP2 SWAP1 SWAP2 ADD PUSH1 0x20 MSTORE PUSH1 0x40 SWAP1 KECCAK256 SLOAD SWAP1 JUMP JUMPDEST PUSH1 0x0 PUSH2 0x1A3A DUP4 DUP4 PUSH2 0x4E54 JUMP JUMPDEST PUSH1 0x0 PUSH2 0x1A3A DUP4 PUSH1 0x1 PUSH1 0x1 PUSH1 0xA0 SHL SUB DUP5 AND PUSH2 0x4EB8 JUMP JUMPDEST PUSH1 0x0 PUSH2 0x17E2 DUP3 PUSH2 0x3E26 JUMP JUMPDEST PUSH1 0x0 PUSH2 0x17E2 DUP3 PUSH1 0x3 ADD PUSH2 0x37A0 JUMP JUMPDEST PUSH1 0x0 DUP3 DUP2 MSTORE PUSH1 0x1 PUSH1 0x20 MSTORE PUSH1 0x40 SWAP1 KECCAK256 PUSH1 0x2 ADD SLOAD PUSH2 0x3FD4 SWAP1 PUSH2 0x1844 PUSH2 0x395E JUMP JUMPDEST PUSH2 0x1A98 JUMPI PUSH1 0x40 MLOAD PUSH3 0x461BCD PUSH1 0xE5 SHL DUP2 MSTORE PUSH1 0x4 ADD DUP1 DUP1 PUSH1 0x20 ADD DUP3 DUP2 SUB DUP3 MSTORE PUSH1 0x30 DUP2 MSTORE PUSH1 0x20 ADD DUP1 PUSH2 0x5209 PUSH1 0x30 SWAP2 CODECOPY PUSH1 0x40 ADD SWAP2 POP POP PUSH1 0x40 MLOAD DUP1 SWAP2 SUB SWAP1 REVERT JUMPDEST DUP1 ISZERO PUSH2 0x118A JUMPI PUSH1 0x6 SLOAD PUSH1 0x0 PUSH2 0x4040 PUSH2 0x4033 PUSH6 0x5AF3107A4000 DUP6 PUSH4 0xFFFFFFFF PUSH2 0x3D20 AND JUMP JUMPDEST DUP4 SWAP1 PUSH4 0xFFFFFFFF PUSH2 0x3C84 AND JUMP JUMPDEST PUSH1 0x6 DUP2 SWAP1 SSTORE PUSH1 0x40 DUP1 MLOAD CALLER DUP2 MSTORE PUSH1 0x20 DUP2 ADD DUP7 SWAP1 MSTORE DUP1 DUP3 ADD DUP4 SWAP1 MSTORE SWAP1 MLOAD SWAP2 SWAP3 POP PUSH32 0x9C333AE1CC367C5EDBB5F945C128B377930F21862F1679BD163C93CEF65E1A68 SWAP2 SWAP1 DUP2 SWAP1 SUB PUSH1 0x60 ADD SWAP1 LOG1 POP POP POP JUMP JUMPDEST DUP1 SLOAD PUSH1 0x40 DUP1 MLOAD DUP1 DUP3 ADD SWAP1 SWAP2 MSTORE PUSH1 0x4 DUP2 MSTORE PUSH4 0x281A9819 PUSH1 0xE1 SHL PUSH1 0x20 DUP3 ADD MSTORE PUSH1 0x0 SWAP2 DUP3 SWAP2 PUSH2 0x40C1 SWAP2 TIMESTAMP SWAP2 PUSH4 0xFFFFFFFF PUSH2 0x4855 AND JUMP JUMPDEST SWAP1 POP DUP3 PUSH1 0x1 ADD SLOAD DUP2 DUP2 PUSH2 0x40D0 JUMPI INVALID JUMPDEST DIV SWAP4 SWAP3 POP POP POP JUMP JUMPDEST ADDRESS EXTCODESIZE ISZERO SWAP1 JUMP JUMPDEST PUSH2 0x40E6 PUSH2 0x514C JUMP JUMPDEST POP PUSH1 0x40 DUP1 MLOAD PUSH1 0x60 DUP2 ADD DUP3 MSTORE PUSH1 0x0 DUP1 DUP3 MSTORE PUSH1 0x20 DUP3 ADD DUP2 SWAP1 MSTORE SWAP2 DUP2 ADD DUP3 SWAP1 MSTORE PUSH1 0x3 DUP9 ADD DUP7 SWAP1 SSTORE DUP5 DUP9 SSTORE PUSH1 0x1 DUP9 ADD DUP5 SWAP1 SSTORE PUSH1 0x2 DUP9 ADD DUP1 SLOAD PUSH1 0x1 PUSH1 0x1 PUSH1 0xA0 SHL SUB NOT AND PUSH1 0x1 PUSH1 0x1 PUSH1 0xA0 SHL SUB DUP6 AND OR SWAP1 SSTORE SWAP1 JUMPDEST DUP7 SLOAD DUP2 LT ISZERO PUSH2 0x41A6 JUMPI PUSH1 0x0 DUP9 PUSH1 0x4 ADD PUSH1 0x0 DUP10 DUP5 DUP2 SLOAD DUP2 LT PUSH2 0x4150 JUMPI INVALID JUMPDEST PUSH1 0x0 SWAP2 DUP3 MSTORE PUSH1 0x20 DUP1 DUP4 KECCAK256 SWAP1 SWAP2 ADD SLOAD DUP4 MSTORE DUP3 DUP2 ADD SWAP4 SWAP1 SWAP4 MSTORE PUSH1 0x40 SWAP2 DUP3 ADD DUP2 KECCAK256 DUP1 SLOAD PUSH1 0x1 DUP2 DUP2 ADD DUP4 SSTORE SWAP2 DUP4 MSTORE SWAP2 DUP5 SWAP1 KECCAK256 DUP8 MLOAD PUSH1 0x3 SWAP1 SWAP4 MUL ADD SWAP2 DUP3 SSTORE SWAP3 DUP7 ADD MLOAD DUP2 DUP5 ADD SSTORE SWAP1 DUP6 ADD MLOAD PUSH1 0x2 SWAP1 SWAP2 ADD SSTORE SWAP2 SWAP1 SWAP2 ADD SWAP1 POP PUSH2 0x4133 JUMP JUMPDEST POP POP POP POP POP POP POP POP JUMP JUMPDEST PUSH1 0x0 DUP1 PUSH1 0x0 DUP1 PUSH1 0x0 DUP1 PUSH1 0x0 DUP1 JUMPDEST PUSH1 0x0 PUSH2 0x41C9 PUSH1 0x13 PUSH2 0x3FA8 JUMP JUMPDEST GT DUP1 ISZERO PUSH2 0x41D6 JUMPI POP PUSH1 0x0 DUP11 GT JUMPDEST ISZERO PUSH2 0x3542 JUMPI DUP9 GAS LT ISZERO PUSH2 0x423F JUMPI PUSH32 0x26A72B1025F7454A60C5A168FEBEFD96FE828D125284A2AA8DE1D2D0942B577D CALLER GAS PUSH1 0x40 DUP1 MLOAD PUSH1 0x1 PUSH1 0x1 PUSH1 0xA0 SHL SUB SWAP1 SWAP4 AND DUP4 MSTORE PUSH1 0x20 DUP4 ADD SWAP2 SWAP1 SWAP2 MSTORE DUP2 DUP2 ADD DUP5 SWAP1 MSTORE MLOAD SWAP1 DUP2 SWAP1 SUB PUSH1 0x60 ADD SWAP1 LOG1 PUSH1 0x0 SWAP8 POP POP POP POP POP POP POP POP PUSH2 0x17E2 JUMP JUMPDEST PUSH2 0x4249 PUSH1 0x13 PUSH2 0x3E26 JUMP JUMPDEST PUSH1 0x0 DUP2 DUP2 MSTORE PUSH1 0x11 PUSH1 0x20 MSTORE PUSH1 0x40 SWAP1 KECCAK256 DUP1 SLOAD PUSH1 0x1 DUP3 ADD SLOAD SWAP3 SWAP10 POP PUSH1 0x1 PUSH1 0x1 PUSH1 0xA0 SHL SUB AND SWAP8 POP SWAP1 SWAP5 POP PUSH2 0x4278 DUP6 PUSH2 0x4B04 JUMP JUMPDEST SWAP6 POP DUP6 PUSH2 0x4357 JUMPI DUP5 ISZERO PUSH2 0x431A JUMPI PUSH1 0x40 DUP1 MLOAD DUP7 DUP2 MSTORE SWAP1 MLOAD DUP10 SWAP2 CALLER SWAP2 PUSH32 0x766E265970A9D07808A7D69D71EED292ADDAD9A58D5BD5739279D312AC6F1D46 SWAP2 DUP2 SWAP1 SUB PUSH1 0x20 ADD SWAP1 LOG3 PUSH1 0x40 DUP1 MLOAD PUSH4 0x1213D113 PUSH1 0xE2 SHL DUP2 MSTORE SWAP1 MLOAD SWAP1 DUP2 SWAP1 SUB PUSH1 0x4 ADD SWAP1 KECCAK256 PUSH2 0x42EB SWAP1 PUSH1 0xC SWAP1 DUP10 DUP9 PUSH1 0x0 PUSH4 0xFFFFFFFF PUSH2 0x2DC0 AND JUMP JUMPDEST PUSH1 0x40 DUP1 MLOAD PUSH4 0x1213D113 PUSH1 0xE2 SHL DUP2 MSTORE SWAP1 MLOAD SWAP1 DUP2 SWAP1 SUB PUSH1 0x4 ADD SWAP1 KECCAK256 PUSH2 0x431A SWAP1 PUSH1 0xC SWAP1 DUP10 PUSH1 0x0 DUP10 PUSH4 0xFFFFFFFF PUSH2 0x2BAF AND JUMP JUMPDEST PUSH1 0x0 DUP9 DUP2 MSTORE PUSH1 0x11 PUSH1 0x20 MSTORE PUSH1 0x40 DUP2 KECCAK256 DUP1 SLOAD PUSH1 0x1 PUSH1 0x1 PUSH1 0xA0 SHL SUB NOT AND DUP2 SSTORE PUSH1 0x1 DUP2 ADD DUP3 SWAP1 SSTORE PUSH1 0x2 ADD SSTORE PUSH2 0x4352 PUSH1 0x13 DUP10 PUSH4 0xFFFFFFFF PUSH2 0x30F3 AND JUMP JUMPDEST PUSH2 0x4539 JUMP JUMPDEST DUP11 SWAP4 POP PUSH2 0x4363 DUP5 PUSH2 0x4AF8 JUMP JUMPDEST SWAP3 POP DUP4 DUP7 LT ISZERO PUSH2 0x4374 JUMPI DUP6 SWAP4 POP DUP5 SWAP3 POP JUMPDEST PUSH1 0x40 DUP1 MLOAD DUP6 DUP2 MSTORE PUSH1 0x20 DUP2 ADD DUP6 SWAP1 MSTORE DUP2 MLOAD PUSH1 0x1 PUSH1 0x1 PUSH1 0xA0 SHL SUB DUP11 AND SWAP3 DUP12 SWAP3 CALLER SWAP3 PUSH32 0x1BBA592CF2BF9B4F8F3ADC25FB5285B07027E631563A4AC6FC49FF651801F9F2 SWAP3 SWAP2 DUP2 SWAP1 SUB SWAP1 SWAP2 ADD SWAP1 LOG4 PUSH1 0x40 DUP1 MLOAD PUSH3 0x8AE8D PUSH1 0xEB SHL DUP2 MSTORE SWAP1 MLOAD SWAP1 DUP2 SWAP1 SUB PUSH1 0x3 ADD SWAP1 KECCAK256 PUSH2 0x43EC SWAP1 PUSH1 0xC SWAP1 CALLER DUP8 PUSH1 0x0 PUSH4 0xFFFFFFFF PUSH2 0x2BAF AND JUMP JUMPDEST PUSH1 0x40 DUP1 MLOAD PUSH3 0x8AE8D PUSH1 0xEB SHL DUP2 MSTORE SWAP1 MLOAD SWAP1 DUP2 SWAP1 SUB PUSH1 0x3 ADD SWAP1 KECCAK256 PUSH2 0x441A SWAP1 PUSH1 0xC SWAP1 DUP10 DUP8 PUSH1 0x0 PUSH4 0xFFFFFFFF PUSH2 0x2DC0 AND JUMP JUMPDEST PUSH1 0x40 DUP1 MLOAD PUSH4 0x1213D113 PUSH1 0xE2 SHL DUP2 MSTORE SWAP1 MLOAD SWAP1 DUP2 SWAP1 SUB PUSH1 0x4 ADD SWAP1 KECCAK256 PUSH2 0x4449 SWAP1 PUSH1 0xC SWAP1 CALLER DUP7 PUSH1 0x0 PUSH4 0xFFFFFFFF PUSH2 0x2DC0 AND JUMP JUMPDEST PUSH1 0x40 DUP1 MLOAD PUSH4 0x1213D113 PUSH1 0xE2 SHL DUP2 MSTORE SWAP1 MLOAD SWAP1 DUP2 SWAP1 SUB PUSH1 0x4 ADD SWAP1 KECCAK256 PUSH2 0x4478 SWAP1 PUSH1 0xC SWAP1 DUP10 PUSH1 0x0 DUP10 PUSH4 0xFFFFFFFF PUSH2 0x2BAF AND JUMP JUMPDEST PUSH1 0x40 DUP1 MLOAD DUP1 DUP3 ADD SWAP1 SWAP2 MSTORE PUSH1 0xB DUP2 MSTORE PUSH11 0x486F646C44657820353033 PUSH1 0xA8 SHL PUSH1 0x20 DUP3 ADD MSTORE PUSH2 0x44AD SWAP1 DUP13 SWAP1 DUP7 SWAP1 PUSH4 0xFFFFFFFF PUSH2 0x4855 AND JUMP JUMPDEST SWAP11 POP DUP3 DUP6 EQ ISZERO PUSH2 0x44F4 JUMPI PUSH1 0x0 DUP9 DUP2 MSTORE PUSH1 0x11 PUSH1 0x20 MSTORE PUSH1 0x40 DUP2 KECCAK256 DUP1 SLOAD PUSH1 0x1 PUSH1 0x1 PUSH1 0xA0 SHL SUB NOT AND DUP2 SSTORE PUSH1 0x1 DUP2 ADD DUP3 SWAP1 SSTORE PUSH1 0x2 ADD SSTORE PUSH2 0x44EF PUSH1 0x13 DUP10 PUSH4 0xFFFFFFFF PUSH2 0x30F3 AND JUMP JUMPDEST PUSH2 0x4532 JUMP JUMPDEST PUSH1 0x40 DUP1 MLOAD DUP1 DUP3 ADD SWAP1 SWAP2 MSTORE PUSH1 0xB DUP2 MSTORE PUSH11 0x121BD91B11195E080D4C0D PUSH1 0xAA SHL PUSH1 0x20 DUP3 ADD MSTORE PUSH1 0x1 DUP3 ADD SLOAD PUSH2 0x452C SWAP2 DUP6 SWAP1 PUSH4 0xFFFFFFFF PUSH2 0x4855 AND JUMP JUMPDEST PUSH1 0x1 DUP3 ADD SSTORE JUMPDEST PUSH1 0x1 SWAP1 SWAP2 ADD SWAP1 JUMPDEST POP PUSH2 0x41BD JUMP JUMPDEST PUSH1 0x0 DUP1 DUP1 DUP1 DUP5 ISZERO PUSH2 0x46E1 JUMPI PUSH1 0x0 PUSH2 0x4555 DUP7 PUSH2 0x4AF8 JUMP JUMPDEST PUSH1 0x40 DUP1 MLOAD PUSH4 0x1213D113 PUSH1 0xE2 SHL DUP2 MSTORE SWAP1 MLOAD SWAP1 DUP2 SWAP1 SUB PUSH1 0x4 ADD SWAP1 KECCAK256 SWAP1 SWAP2 POP PUSH2 0x4584 SWAP1 PUSH1 0xC SWAP1 ADDRESS PUSH4 0xFFFFFFFF PUSH2 0x39D1 AND JUMP JUMPDEST SWAP2 POP DUP2 DUP2 GT ISZERO PUSH2 0x4594 JUMPI DUP2 PUSH2 0x4596 JUMP JUMPDEST DUP1 JUMPDEST SWAP4 POP DUP4 ISZERO PUSH2 0x46DF JUMPI PUSH2 0x45A7 DUP5 PUSH2 0x4B04 JUMP JUMPDEST PUSH1 0x40 DUP1 MLOAD DUP3 DUP2 MSTORE PUSH1 0x20 DUP2 ADD DUP8 SWAP1 MSTORE DUP2 MLOAD SWAP3 SWAP6 POP CALLER SWAP3 PUSH32 0xC7A2C2400CC73E0579846BF1A4A815FEA06F2B8E66C83D8F3DE8364D3D2EC289 SWAP3 SWAP2 DUP2 SWAP1 SUB SWAP1 SWAP2 ADD SWAP1 LOG2 PUSH1 0x40 DUP1 MLOAD PUSH4 0x1213D113 PUSH1 0xE2 SHL DUP2 MSTORE SWAP1 MLOAD SWAP1 DUP2 SWAP1 SUB PUSH1 0x4 ADD SWAP1 KECCAK256 PUSH2 0x4616 SWAP1 PUSH1 0xC SWAP1 ADDRESS DUP8 PUSH1 0x0 PUSH4 0xFFFFFFFF PUSH2 0x2BAF AND JUMP JUMPDEST PUSH1 0x40 DUP1 MLOAD PUSH4 0x1213D113 PUSH1 0xE2 SHL DUP2 MSTORE SWAP1 MLOAD SWAP1 DUP2 SWAP1 SUB PUSH1 0x4 ADD SWAP1 KECCAK256 PUSH2 0x4645 SWAP1 PUSH1 0xC SWAP1 CALLER DUP8 PUSH1 0x0 PUSH4 0xFFFFFFFF PUSH2 0x2DC0 AND JUMP JUMPDEST PUSH1 0x40 DUP1 MLOAD PUSH3 0x8AE8D PUSH1 0xEB SHL DUP2 MSTORE SWAP1 MLOAD SWAP1 DUP2 SWAP1 SUB PUSH1 0x3 ADD SWAP1 KECCAK256 PUSH2 0x4673 SWAP1 PUSH1 0xC SWAP1 CALLER DUP7 PUSH1 0x0 PUSH4 0xFFFFFFFF PUSH2 0x2BAF AND JUMP JUMPDEST PUSH1 0x40 DUP1 MLOAD PUSH3 0x8AE8D PUSH1 0xEB SHL DUP2 MSTORE SWAP1 MLOAD SWAP1 DUP2 SWAP1 SUB PUSH1 0x3 ADD SWAP1 KECCAK256 PUSH2 0x469E SWAP1 PUSH1 0xC SWAP1 DUP6 PUSH4 0xFFFFFFFF PUSH2 0x3001 AND JUMP JUMPDEST PUSH1 0x40 DUP1 MLOAD DUP1 DUP3 ADD SWAP1 SWAP2 MSTORE PUSH1 0xB DUP2 MSTORE PUSH11 0x486F646C44657820353035 PUSH1 0xA8 SHL PUSH1 0x20 DUP3 ADD MSTORE PUSH2 0x46D3 SWAP1 DUP8 SWAP1 DUP6 SWAP1 PUSH4 0xFFFFFFFF PUSH2 0x4855 AND JUMP JUMPDEST SWAP6 POP PUSH2 0x46DF PUSH1 0x1 PUSH2 0x400F JUMP JUMPDEST POP JUMPDEST POP SWAP3 SWAP4 SWAP3 POP POP POP JUMP JUMPDEST PUSH1 0x0 PUSH9 0x2B5E3AF16B1880000 PUSH2 0x46FF DUP4 PUSH2 0x23A4 JUMP JUMPDEST GT DUP1 ISZERO PUSH2 0x4713 JUMPI POP PUSH2 0x4711 PUSH1 0x13 PUSH2 0x3FA8 JUMP JUMPDEST ISZERO JUMPDEST ISZERO PUSH2 0x11A8 JUMPI PUSH2 0x4720 PUSH2 0x4B1B JUMP JUMPDEST PUSH1 0x40 DUP1 MLOAD DUP5 DUP2 MSTORE SWAP1 MLOAD SWAP2 SWAP3 POP CALLER SWAP2 DUP4 SWAP2 PUSH32 0xADAE744503607B1AC6C8FEB1A54FB687ECBA33F5D4CC59FDDE26DD19DE99F0B5 SWAP2 SWAP1 DUP2 SWAP1 SUB PUSH1 0x20 ADD SWAP1 LOG3 PUSH1 0x0 DUP2 DUP2 MSTORE PUSH1 0x12 PUSH1 0x20 MSTORE PUSH1 0x40 SWAP1 KECCAK256 PUSH2 0x477A PUSH1 0x18 DUP4 PUSH4 0xFFFFFFFF PUSH2 0x4B65 AND JUMP JUMPDEST PUSH1 0x40 DUP1 MLOAD PUSH3 0x8AE8D PUSH1 0xEB SHL DUP2 MSTORE SWAP1 MLOAD SWAP1 DUP2 SWAP1 SUB PUSH1 0x3 ADD SWAP1 KECCAK256 PUSH2 0x47A8 SWAP1 PUSH1 0xC SWAP1 CALLER DUP7 PUSH1 0x0 PUSH4 0xFFFFFFFF PUSH2 0x2BAF AND JUMP JUMPDEST PUSH1 0x1 DUP2 ADD DUP4 SWAP1 SSTORE DUP1 SLOAD PUSH1 0x1 PUSH1 0x1 PUSH1 0xA0 SHL SUB NOT AND CALLER OR SWAP1 SSTORE SWAP2 SWAP1 POP JUMP JUMPDEST PUSH1 0x0 DUP3 DUP2 MSTORE PUSH1 0x4 DUP5 ADD PUSH1 0x20 MSTORE PUSH1 0x40 DUP2 KECCAK256 DUP2 SWAP1 DUP2 SWAP1 DUP2 PUSH2 0x47E4 DUP9 DUP9 DUP9 PUSH2 0x3A45 JUMP JUMPDEST SWAP1 POP DUP1 PUSH2 0x47FD JUMPI POP PUSH1 0x0 SWAP4 POP DUP4 SWAP3 POP DUP3 SWAP2 POP PUSH2 0x1D18 SWAP1 POP JUMP JUMPDEST PUSH1 0x1 PUSH1 0x1 PUSH1 0xA0 SHL SUB DUP7 AND PUSH1 0x0 SWAP1 DUP2 MSTORE PUSH1 0x1 DUP4 ADD PUSH1 0x20 MSTORE PUSH1 0x40 DUP2 KECCAK256 DUP1 SLOAD PUSH1 0x0 NOT DUP5 ADD SWAP1 DUP2 LT PUSH2 0x4827 JUMPI INVALID JUMPDEST PUSH1 0x0 SWAP2 DUP3 MSTORE PUSH1 0x20 SWAP1 SWAP2 KECCAK256 PUSH1 0x3 SWAP1 SWAP2 MUL ADD DUP1 SLOAD PUSH1 0x2 DUP3 ADD SLOAD PUSH1 0x1 SWAP1 SWAP3 ADD SLOAD SWAP1 SWAP12 SWAP2 SWAP11 POP SWAP9 POP SWAP7 POP POP POP POP POP POP POP JUMP JUMPDEST PUSH1 0x0 DUP2 DUP5 DUP5 GT ISZERO PUSH2 0x48E4 JUMPI PUSH1 0x40 MLOAD PUSH3 0x461BCD PUSH1 0xE5 SHL DUP2 MSTORE PUSH1 0x4 ADD DUP1 DUP1 PUSH1 0x20 ADD DUP3 DUP2 SUB DUP3 MSTORE DUP4 DUP2 DUP2 MLOAD DUP2 MSTORE PUSH1 0x20 ADD SWAP2 POP DUP1 MLOAD SWAP1 PUSH1 0x20 ADD SWAP1 DUP1 DUP4 DUP4 PUSH1 0x0 JUMPDEST DUP4 DUP2 LT ISZERO PUSH2 0x48A9 JUMPI DUP2 DUP2 ADD MLOAD DUP4 DUP3 ADD MSTORE PUSH1 0x20 ADD PUSH2 0x4891 JUMP JUMPDEST POP POP POP POP SWAP1 POP SWAP1 DUP2 ADD SWAP1 PUSH1 0x1F AND DUP1 ISZERO PUSH2 0x48D6 JUMPI DUP1 DUP3 SUB DUP1 MLOAD PUSH1 0x1 DUP4 PUSH1 0x20 SUB PUSH2 0x100 EXP SUB NOT AND DUP2 MSTORE PUSH1 0x20 ADD SWAP2 POP JUMPDEST POP SWAP3 POP POP POP PUSH1 0x40 MLOAD DUP1 SWAP2 SUB SWAP1 REVERT JUMPDEST POP POP POP SWAP1 SUB SWAP1 JUMP JUMPDEST PUSH1 0x0 DUP2 DUP2 MSTORE PUSH1 0x4 DUP4 ADD PUSH1 0x20 MSTORE PUSH1 0x40 DUP2 KECCAK256 DUP1 SLOAD SWAP1 SWAP2 SWAP1 DUP3 SWAP1 PUSH1 0x0 NOT DUP2 ADD SWAP1 DUP2 LT PUSH2 0x4911 JUMPI INVALID JUMPDEST SWAP1 PUSH1 0x0 MSTORE PUSH1 0x20 PUSH1 0x0 KECCAK256 SWAP1 PUSH1 0x3 MUL ADD SWAP1 POP PUSH1 0x0 PUSH2 0x492C DUP6 PUSH2 0x408E JUMP JUMPDEST SWAP1 POP PUSH2 0x4937 DUP6 PUSH2 0x4ED0 JUMP JUMPDEST DUP3 SSTORE PUSH2 0x4941 PUSH2 0x514C JUMP JUMPDEST POP PUSH1 0x40 DUP1 MLOAD PUSH1 0x60 DUP1 DUP3 ADD DUP4 MSTORE PUSH1 0x0 DUP1 DUP4 MSTORE PUSH1 0x20 DUP1 DUP5 ADD DUP3 DUP2 MSTORE DUP5 DUP7 ADD DUP8 DUP2 MSTORE DUP10 SLOAD PUSH1 0x1 DUP2 DUP2 ADD DUP13 SSTORE DUP12 DUP7 MSTORE SWAP5 DUP5 SWAP1 KECCAK256 DUP8 MLOAD PUSH1 0x3 SWAP1 SWAP3 MUL ADD SWAP1 DUP2 SSTORE SWAP2 MLOAD DUP3 DUP6 ADD SSTORE MLOAD PUSH1 0x2 SWAP2 DUP3 ADD SSTORE SWAP2 DUP8 ADD SLOAD DUP8 SLOAD SWAP3 DUP9 ADD SLOAD DUP7 MLOAD CALLER DUP2 MSTORE SWAP3 DUP4 ADD SWAP2 SWAP1 SWAP2 MSTORE DUP2 DUP7 ADD SWAP3 SWAP1 SWAP3 MSTORE SWAP2 DUP3 ADD MSTORE PUSH1 0x80 DUP2 ADD DUP5 SWAP1 MSTORE SWAP2 MLOAD SWAP1 SWAP2 DUP7 SWAP2 PUSH32 0xD4B8133B244CFEC82D848130189D3C9787263ECBCF6D4432F2D167642547D90 SWAP2 DUP2 SWAP1 SUB PUSH1 0xA0 ADD SWAP1 LOG2 POP POP POP POP POP POP JUMP JUMPDEST PUSH1 0x0 PUSH2 0x1A3A PUSH1 0x3 DUP5 ADD DUP4 PUSH4 0xFFFFFFFF PUSH2 0x4F49 AND JUMP JUMPDEST PUSH2 0x4A07 DUP3 DUP3 PUSH2 0x4F49 JUMP JUMPDEST PUSH2 0x4A42 JUMPI PUSH1 0x40 MLOAD PUSH3 0x461BCD PUSH1 0xE5 SHL DUP2 MSTORE PUSH1 0x4 ADD DUP1 DUP1 PUSH1 0x20 ADD DUP3 DUP2 SUB DUP3 MSTORE PUSH1 0x2A DUP2 MSTORE PUSH1 0x20 ADD DUP1 PUSH2 0x51BF PUSH1 0x2A SWAP2 CODECOPY PUSH1 0x40 ADD SWAP2 POP POP PUSH1 0x40 MLOAD DUP1 SWAP2 SUB SWAP1 REVERT JUMPDEST PUSH1 0x0 PUSH1 0x1 PUSH2 0x4A4F DUP5 PUSH2 0x37A0 JUMP JUMPDEST PUSH1 0x0 DUP5 DUP2 MSTORE PUSH1 0x20 DUP7 SWAP1 MSTORE PUSH1 0x40 SWAP1 KECCAK256 SLOAD SWAP2 SWAP1 SUB SWAP2 POP DUP1 DUP3 EQ PUSH2 0x4AC0 JUMPI PUSH1 0x0 DUP5 PUSH1 0x1 ADD DUP4 DUP2 SLOAD DUP2 LT PUSH2 0x4A7B JUMPI INVALID JUMPDEST SWAP1 PUSH1 0x0 MSTORE PUSH1 0x20 PUSH1 0x0 KECCAK256 ADD SLOAD SWAP1 POP DUP2 DUP6 PUSH1 0x0 ADD PUSH1 0x0 DUP4 DUP2 MSTORE PUSH1 0x20 ADD SWAP1 DUP2 MSTORE PUSH1 0x20 ADD PUSH1 0x0 KECCAK256 DUP2 SWAP1 SSTORE POP DUP1 DUP6 PUSH1 0x1 ADD DUP4 DUP2 SLOAD DUP2 LT PUSH2 0x4AB2 JUMPI INVALID JUMPDEST PUSH1 0x0 SWAP2 DUP3 MSTORE PUSH1 0x20 SWAP1 SWAP2 KECCAK256 ADD SSTORE POP JUMPDEST PUSH1 0x0 DUP4 DUP2 MSTORE PUSH1 0x20 DUP6 SWAP1 MSTORE PUSH1 0x40 DUP2 KECCAK256 SSTORE PUSH1 0x1 DUP5 ADD DUP1 SLOAD DUP1 PUSH2 0x4ADC JUMPI INVALID JUMPDEST PUSH1 0x1 SWAP1 SUB DUP2 DUP2 SWAP1 PUSH1 0x0 MSTORE PUSH1 0x20 PUSH1 0x0 KECCAK256 ADD PUSH1 0x0 SWAP1 SSTORE SWAP1 SSTORE POP POP POP POP JUMP JUMPDEST PUSH1 0x0 DUP1 PUSH2 0x1199 DUP4 PUSH2 0x4F91 JUMP JUMPDEST PUSH1 0x0 DUP1 PUSH2 0x4B10 DUP4 PUSH2 0x21B6 JUMP JUMPDEST SWAP1 POP PUSH2 0x11A4 DUP2 PUSH2 0x4FB7 JUMP JUMPDEST PUSH1 0x8 DUP1 SLOAD PUSH1 0x1 ADD SWAP1 DUP2 SWAP1 SSTORE PUSH1 0x40 DUP1 MLOAD ADDRESS PUSH1 0x60 SWAP1 DUP2 SHL PUSH1 0x20 DUP1 DUP5 ADD SWAP2 SWAP1 SWAP2 MSTORE CALLER SWAP1 SWAP2 SHL PUSH1 0x34 DUP4 ADD MSTORE PUSH1 0x48 DUP1 DUP4 ADD SWAP5 SWAP1 SWAP5 MSTORE DUP3 MLOAD DUP1 DUP4 SUB SWAP1 SWAP5 ADD DUP5 MSTORE PUSH1 0x68 SWAP1 SWAP2 ADD SWAP1 SWAP2 MSTORE DUP2 MLOAD SWAP2 ADD KECCAK256 SWAP1 JUMP JUMPDEST DUP1 PUSH2 0x4BB7 JUMPI PUSH1 0x40 DUP1 MLOAD PUSH3 0x461BCD PUSH1 0xE5 SHL DUP2 MSTORE PUSH1 0x20 PUSH1 0x4 DUP3 ADD MSTORE PUSH1 0x1B PUSH1 0x24 DUP3 ADD MSTORE PUSH32 0x4649464F5365743A206B65792063616E6E6F74206265207A65726F0000000000 PUSH1 0x44 DUP3 ADD MSTORE SWAP1 MLOAD SWAP1 DUP2 SWAP1 SUB PUSH1 0x64 ADD SWAP1 REVERT JUMPDEST PUSH2 0x4BC1 DUP3 DUP3 PUSH2 0x49E8 JUMP JUMPDEST ISZERO PUSH2 0x4C0C JUMPI PUSH1 0x40 DUP1 MLOAD PUSH3 0x461BCD PUSH1 0xE5 SHL DUP2 MSTORE PUSH1 0x20 PUSH1 0x4 DUP3 ADD MSTORE PUSH1 0x16 PUSH1 0x24 DUP3 ADD MSTORE PUSH22 0x4649464F5365743A206475706C6963617465206B6579 PUSH1 0x50 SHL PUSH1 0x44 DUP3 ADD MSTORE SWAP1 MLOAD SWAP1 DUP2 SWAP1 SUB PUSH1 0x64 ADD SWAP1 REVERT JUMPDEST PUSH1 0x1 DUP3 ADD SLOAD PUSH1 0x0 DUP3 DUP2 MSTORE PUSH1 0x2 DUP5 ADD PUSH1 0x20 MSTORE PUSH1 0x40 DUP1 DUP3 KECCAK256 DUP4 DUP4 MSTORE SWAP2 KECCAK256 DUP3 PUSH2 0x4C34 JUMPI DUP4 DUP6 SSTORE PUSH2 0x4C38 JUMP JUMPDEST DUP4 DUP2 SSTORE JUMPDEST PUSH1 0x1 DUP3 ADD DUP4 SWAP1 SSTORE PUSH2 0x4C52 PUSH1 0x3 DUP7 ADD DUP6 PUSH4 0xFFFFFFFF PUSH2 0x4FCD AND JUMP JUMPDEST POP POP POP PUSH1 0x1 SWAP1 SWAP2 ADD SSTORE JUMP JUMPDEST PUSH1 0x0 PUSH2 0x1A3A DUP4 PUSH1 0x1 PUSH1 0x1 PUSH1 0xA0 SHL SUB DUP5 AND PUSH2 0x503C JUMP JUMPDEST PUSH1 0x0 PUSH2 0x1A3A DUP4 PUSH1 0x1 PUSH1 0x1 PUSH1 0xA0 SHL SUB DUP5 AND PUSH2 0x5086 JUMP JUMPDEST DUP2 SLOAD PUSH1 0x0 SWAP1 PUSH1 0x1 DUP4 ADD LT ISZERO PUSH2 0x4CC1 JUMPI DUP3 PUSH1 0x0 ADD DUP3 PUSH1 0x1 ADD DUP2 SLOAD DUP2 LT PUSH2 0x4CA8 JUMPI INVALID JUMPDEST SWAP1 PUSH1 0x0 MSTORE PUSH1 0x20 PUSH1 0x0 KECCAK256 SWAP1 PUSH1 0x3 MUL ADD PUSH1 0x2 ADD SLOAD SWAP1 POP PUSH2 0x17E2 JUMP JUMPDEST POP PUSH8 0xDE0B6B3A7640000 SWAP3 SWAP2 POP POP JUMP JUMPDEST PUSH1 0x3 DUP3 ADD SLOAD PUSH1 0x0 SWAP1 DUP2 MSTORE PUSH1 0x4 DUP4 ADD PUSH1 0x20 MSTORE PUSH1 0x40 DUP2 KECCAK256 DUP1 SLOAD PUSH1 0x1 DUP5 ADD LT ISZERO PUSH2 0x4D1D JUMPI DUP1 PUSH1 0x0 ADD DUP4 PUSH1 0x1 ADD DUP2 SLOAD DUP2 LT PUSH2 0x4D04 JUMPI INVALID JUMPDEST SWAP1 PUSH1 0x0 MSTORE PUSH1 0x20 PUSH1 0x0 KECCAK256 SWAP1 PUSH1 0x3 MUL ADD PUSH1 0x2 ADD SLOAD SWAP2 POP PUSH2 0x4D29 JUMP JUMPDEST PUSH8 0xDE0B6B3A763FFFF SWAP2 POP JUMPDEST POP SWAP3 SWAP2 POP POP JUMP JUMPDEST PUSH1 0x3 DUP5 ADD SLOAD PUSH1 0x0 SWAP1 DUP2 MSTORE PUSH1 0x4 DUP6 ADD PUSH1 0x20 MSTORE PUSH1 0x40 SWAP1 KECCAK256 SLOAD DUP2 LT ISZERO PUSH2 0x1302 JUMPI PUSH1 0x0 DUP4 DUP2 MSTORE PUSH1 0x4 DUP6 ADD PUSH1 0x20 SWAP1 DUP2 MSTORE PUSH1 0x40 DUP1 DUP4 KECCAK256 PUSH1 0x1 PUSH1 0x1 PUSH1 0xA0 SHL SUB DUP7 AND DUP5 MSTORE PUSH1 0x1 SWAP1 DUP2 ADD SWAP1 SWAP3 MSTORE SWAP1 SWAP2 KECCAK256 DUP2 DUP4 ADD SWAP2 ADD SSTORE POP POP POP POP JUMP JUMPDEST PUSH1 0x3 DUP5 ADD SLOAD PUSH1 0x0 SWAP1 DUP2 MSTORE PUSH1 0x4 DUP6 ADD PUSH1 0x20 SWAP1 DUP2 MSTORE PUSH1 0x40 DUP1 DUP4 KECCAK256 PUSH1 0x1 PUSH1 0x1 PUSH1 0xA0 SHL SUB DUP7 AND DUP5 MSTORE PUSH1 0x1 ADD SWAP1 SWAP2 MSTORE SWAP1 KECCAK256 SLOAD DUP2 LT ISZERO PUSH2 0x1302 JUMPI PUSH1 0x0 SWAP3 DUP4 MSTORE PUSH1 0x4 SWAP4 SWAP1 SWAP4 ADD PUSH1 0x20 SWAP1 DUP2 MSTORE PUSH1 0x40 DUP1 DUP5 KECCAK256 PUSH1 0x1 PUSH1 0x1 PUSH1 0xA0 SHL SUB SWAP4 SWAP1 SWAP4 AND DUP5 MSTORE PUSH1 0x1 SWAP3 DUP4 ADD SWAP1 SWAP2 MSTORE SWAP1 SWAP2 KECCAK256 SWAP2 ADD PUSH1 0x2 SWAP1 SWAP2 ADD SSTORE JUMP JUMPDEST PUSH1 0x0 DUP2 DUP4 PUSH2 0x4E3E JUMPI PUSH1 0x40 MLOAD PUSH3 0x461BCD PUSH1 0xE5 SHL DUP2 MSTORE PUSH1 0x20 PUSH1 0x4 DUP3 ADD DUP2 DUP2 MSTORE DUP4 MLOAD PUSH1 0x24 DUP5 ADD MSTORE DUP4 MLOAD SWAP1 SWAP3 DUP4 SWAP3 PUSH1 0x44 SWAP1 SWAP2 ADD SWAP2 SWAP1 DUP6 ADD SWAP1 DUP1 DUP4 DUP4 PUSH1 0x0 DUP4 ISZERO PUSH2 0x48A9 JUMPI DUP2 DUP2 ADD MLOAD DUP4 DUP3 ADD MSTORE PUSH1 0x20 ADD PUSH2 0x4891 JUMP JUMPDEST POP PUSH1 0x0 DUP4 DUP6 DUP2 PUSH2 0x4E4A JUMPI INVALID JUMPDEST DIV SWAP6 SWAP5 POP POP POP POP POP JUMP JUMPDEST DUP2 SLOAD PUSH1 0x0 SWAP1 DUP3 LT PUSH2 0x4E96 JUMPI PUSH1 0x40 MLOAD PUSH3 0x461BCD PUSH1 0xE5 SHL DUP2 MSTORE PUSH1 0x4 ADD DUP1 DUP1 PUSH1 0x20 ADD DUP3 DUP2 SUB DUP3 MSTORE PUSH1 0x22 DUP2 MSTORE PUSH1 0x20 ADD DUP1 PUSH2 0x516E PUSH1 0x22 SWAP2 CODECOPY PUSH1 0x40 ADD SWAP2 POP POP PUSH1 0x40 MLOAD DUP1 SWAP2 SUB SWAP1 REVERT JUMPDEST DUP3 PUSH1 0x0 ADD DUP3 DUP2 SLOAD DUP2 LT PUSH2 0x4EA5 JUMPI INVALID JUMPDEST SWAP1 PUSH1 0x0 MSTORE PUSH1 0x20 PUSH1 0x0 KECCAK256 ADD SLOAD SWAP1 POP SWAP3 SWAP2 POP POP JUMP JUMPDEST PUSH1 0x0 SWAP1 DUP2 MSTORE PUSH1 0x1 SWAP2 SWAP1 SWAP2 ADD PUSH1 0x20 MSTORE PUSH1 0x40 SWAP1 KECCAK256 SLOAD ISZERO ISZERO SWAP1 JUMP JUMPDEST PUSH1 0x2 DUP2 ADD SLOAD PUSH1 0x40 DUP1 MLOAD PUSH4 0x9358928B PUSH1 0xE0 SHL DUP2 MSTORE SWAP1 MLOAD PUSH1 0x0 SWAP3 PUSH1 0x1 PUSH1 0x1 PUSH1 0xA0 SHL SUB AND SWAP2 PUSH4 0x9358928B SWAP2 PUSH1 0x4 DUP1 DUP4 ADD SWAP3 PUSH1 0x20 SWAP3 SWAP2 SWAP1 DUP3 SWAP1 SUB ADD DUP2 DUP7 DUP1 EXTCODESIZE ISZERO DUP1 ISZERO PUSH2 0x4F17 JUMPI PUSH1 0x0 DUP1 REVERT JUMPDEST POP GAS STATICCALL ISZERO DUP1 ISZERO PUSH2 0x4F2B JUMPI RETURNDATASIZE PUSH1 0x0 DUP1 RETURNDATACOPY RETURNDATASIZE PUSH1 0x0 REVERT JUMPDEST POP POP POP POP PUSH1 0x40 MLOAD RETURNDATASIZE PUSH1 0x20 DUP2 LT ISZERO PUSH2 0x4F41 JUMPI PUSH1 0x0 DUP1 REVERT JUMPDEST POP MLOAD SWAP3 SWAP2 POP POP JUMP JUMPDEST PUSH1 0x1 DUP3 ADD SLOAD PUSH1 0x0 SWAP1 PUSH2 0x4F5D JUMPI POP PUSH1 0x0 PUSH2 0x17E2 JUMP JUMPDEST PUSH1 0x0 DUP3 DUP2 MSTORE PUSH1 0x20 DUP5 SWAP1 MSTORE PUSH1 0x40 SWAP1 KECCAK256 SLOAD PUSH1 0x1 DUP5 ADD DUP1 SLOAD DUP5 SWAP3 SWAP1 DUP2 LT PUSH2 0x4F7D JUMPI INVALID JUMPDEST SWAP1 PUSH1 0x0 MSTORE PUSH1 0x20 PUSH1 0x0 KECCAK256 ADD SLOAD EQ SWAP1 POP SWAP3 SWAP2 POP POP JUMP JUMPDEST PUSH1 0x0 PUSH2 0x17E2 PUSH8 0xDE0B6B3A7640000 PUSH2 0x1CB8 PUSH2 0x4FAA PUSH2 0x3682 JUMP JUMPDEST DUP6 SWAP1 PUSH4 0xFFFFFFFF PUSH2 0x3D20 AND JUMP JUMPDEST PUSH1 0x0 PUSH2 0x17E2 PUSH2 0x21FB PUSH8 0xDE0B6B3A7640000 PUSH2 0x4F91 JUMP JUMPDEST PUSH2 0x4FD7 DUP3 DUP3 PUSH2 0x4F49 JUMP JUMPDEST ISZERO PUSH2 0x5013 JUMPI PUSH1 0x40 MLOAD PUSH3 0x461BCD PUSH1 0xE5 SHL DUP2 MSTORE PUSH1 0x4 ADD DUP1 DUP1 PUSH1 0x20 ADD DUP3 DUP2 SUB DUP3 MSTORE PUSH1 0x2A DUP2 MSTORE PUSH1 0x20 ADD DUP1 PUSH2 0x52AA PUSH1 0x2A SWAP2 CODECOPY PUSH1 0x40 ADD SWAP2 POP POP PUSH1 0x40 MLOAD DUP1 SWAP2 SUB SWAP1 REVERT JUMPDEST PUSH1 0x1 DUP1 DUP4 ADD DUP1 SLOAD PUSH1 0x0 DUP5 DUP2 MSTORE PUSH1 0x20 SWAP6 DUP7 MSTORE PUSH1 0x40 DUP2 KECCAK256 DUP3 SWAP1 SSTORE SWAP3 DUP2 ADD DUP3 SSTORE SWAP1 DUP3 MSTORE SWAP3 SWAP1 KECCAK256 SWAP1 SWAP2 ADD SSTORE JUMP JUMPDEST PUSH1 0x0 PUSH2 0x5048 DUP4 DUP4 PUSH2 0x4EB8 JUMP JUMPDEST PUSH2 0x507E JUMPI POP DUP2 SLOAD PUSH1 0x1 DUP2 DUP2 ADD DUP5 SSTORE PUSH1 0x0 DUP5 DUP2 MSTORE PUSH1 0x20 DUP1 DUP3 KECCAK256 SWAP1 SWAP4 ADD DUP5 SWAP1 SSTORE DUP5 SLOAD DUP5 DUP3 MSTORE DUP3 DUP7 ADD SWAP1 SWAP4 MSTORE PUSH1 0x40 SWAP1 KECCAK256 SWAP2 SWAP1 SWAP2 SSTORE PUSH2 0x17E2 JUMP JUMPDEST POP PUSH1 0x0 PUSH2 0x17E2 JUMP JUMPDEST PUSH1 0x0 DUP2 DUP2 MSTORE PUSH1 0x1 DUP4 ADD PUSH1 0x20 MSTORE PUSH1 0x40 DUP2 KECCAK256 SLOAD DUP1 ISZERO PUSH2 0x5142 JUMPI DUP4 SLOAD PUSH1 0x0 NOT DUP1 DUP4 ADD SWAP2 SWAP1 DUP2 ADD SWAP1 PUSH1 0x0 SWAP1 DUP8 SWAP1 DUP4 SWAP1 DUP2 LT PUSH2 0x50B9 JUMPI INVALID JUMPDEST SWAP1 PUSH1 0x0 MSTORE PUSH1 0x20 PUSH1 0x0 KECCAK256 ADD SLOAD SWAP1 POP DUP1 DUP8 PUSH1 0x0 ADD DUP5 DUP2 SLOAD DUP2 LT PUSH2 0x50D6 JUMPI INVALID JUMPDEST PUSH1 0x0 SWAP2 DUP3 MSTORE PUSH1 0x20 DUP1 DUP4 KECCAK256 SWAP1 SWAP2 ADD SWAP3 SWAP1 SWAP3 SSTORE DUP3 DUP2 MSTORE PUSH1 0x1 DUP10 DUP2 ADD SWAP1 SWAP3 MSTORE PUSH1 0x40 SWAP1 KECCAK256 SWAP1 DUP5 ADD SWAP1 SSTORE DUP7 SLOAD DUP8 SWAP1 DUP1 PUSH2 0x5106 JUMPI INVALID JUMPDEST PUSH1 0x1 SWAP1 SUB DUP2 DUP2 SWAP1 PUSH1 0x0 MSTORE PUSH1 0x20 PUSH1 0x0 KECCAK256 ADD PUSH1 0x0 SWAP1 SSTORE SWAP1 SSTORE DUP7 PUSH1 0x1 ADD PUSH1 0x0 DUP8 DUP2 MSTORE PUSH1 0x20 ADD SWAP1 DUP2 MSTORE PUSH1 0x20 ADD PUSH1 0x0 KECCAK256 PUSH1 0x0 SWAP1 SSTORE PUSH1 0x1 SWAP5 POP POP POP POP POP PUSH2 0x17E2 JUMP JUMPDEST PUSH1 0x0 SWAP2 POP POP PUSH2 0x17E2 JUMP JUMPDEST PUSH1 0x40 MLOAD DUP1 PUSH1 0x60 ADD PUSH1 0x40 MSTORE DUP1 PUSH1 0x0 DUP2 MSTORE PUSH1 0x20 ADD PUSH1 0x0 DUP2 MSTORE PUSH1 0x20 ADD PUSH1 0x0 DUP2 MSTORE POP SWAP1 JUMP INVALID GASLIMIT PUSH15 0x756D657261626C655365743A20696E PUSH5 0x6578206F75 PUSH21 0x206F6620626F756E6473416363657373436F6E7472 PUSH16 0x6C3A2073656E646572206D7573742062 PUSH6 0x20616E206164 PUSH14 0x696E20746F206772616E74427974 PUSH6 0x733332536574 GASPRICE KECCAK256 PUSH12 0x657920646F6573206E6F7420 PUSH6 0x786973742069 PUSH15 0x20746865207365742E486F646C6544 PUSH6 0x7820756E696E PUSH10 0x7469616C697A65642E00 STOP STOP STOP STOP STOP STOP STOP STOP COINBASE PUSH4 0x63657373 NUMBER PUSH16 0x6E74726F6C3A2073656E646572206D75 PUSH20 0x7420626520616E2061646D696E20746F20726576 PUSH16 0x6B65596F75206D7573742073656E6420 GASLIMIT PUSH21 0x6820746F20746869732066756E6374696F6E496E69 PUSH21 0x69616C697A61626C653A20636F6E74726163742069 PUSH20 0x20616C726561647920696E697469616C697A6564 MSTORE8 PUSH2 0x6665 0x4D PUSH2 0x7468 GASPRICE KECCAK256 PUSH14 0x756C7469706C69636174696F6E20 PUSH16 0x766572666C6F77427974657333325365 PUSH21 0x3A206B657920616C72656164792065786973747320 PUSH10 0x6E20746865207365742E COINBASE PUSH4 0x63657373 NUMBER PUSH16 0x6E74726F6C3A2063616E206F6E6C7920 PUSH19 0x656E6F756E636520726F6C657320666F722073 PUSH6 0x6C66A2646970 PUSH7 0x73582212208CC6 PUSH7 0xCD377CCB616BFC SWAP15 SWAP13 0xAA 0x5D MSTORE 0xE1 0xAF 0x25 0xEC SLT SWAP4 0xB4 XOR 0xD5 0xFB DUP15 PUSH17 0x6AFC81F1CD64736F6C6343000606003300 "
		},
		"gasEstimates": {
			"creation": {
				"codeDepositCost": "4260800",
				"executionCost": "4889",
				"totalCost": "4265689"
			},
			"external": {
				"ADMIN_ROLE()": "351",
				"DEFAULT_ADMIN_ROLE()": "265",
				"ETH_ASSET()": "394",
				"ETH_USD()": "1153",
				"HODL_ASSET()": "349",
				"MIGRATION_ROLE()": "416",
				"ORACLE_ROLE()": "374",
				"RESERVE_ROLE()": "351",
				"accrualDaysProcessed()": "1087",
				"adminSetOracle(address)": "infinite",
				"allocateDistribution(uint256)": "infinite",
				"buyHodlC(uint256,uint256)": "infinite",
				"buyOrder(bytes32)": "2105",
				"buyOrderCount()": "1153",
				"buyOrderFirst()": "1168",
				"buyOrderIterate(bytes32)": "infinite",
				"buyOrderLast()": "1173",
				"cancelBuy(bytes32)": "infinite",
				"cancelSell(bytes32)": "infinite",
				"circulatingSupply()": "infinite",
				"claimEthDistribution()": "infinite",
				"claimHodlDistribution()": "infinite",
				"convertEthToHodl(uint256)": "infinite",
				"convertEthToUsd(uint256)": "infinite",
				"convertHodlToEth(uint256)": "infinite",
				"convertHodlToUsd(uint256)": "infinite",
				"convertUsdToEth(uint256)": "infinite",
				"convertUsdToHodl(uint256)": "infinite",
				"depositEth()": "infinite",
				"distributionAtIndex(bytes32,uint256)": "infinite",
				"distributionCount(bytes32)": "infinite",
				"entropy_counter()": "1154",
				"error_count()": "1089",
				"eth_usd_block()": "1087",
				"getEthToUsd()": "infinite",
				"getRoleAdmin(bytes32)": "1202",
				"getRoleMember(bytes32,uint256)": "infinite",
				"getRoleMemberCount(bytes32)": "infinite",
				"grantRole(bytes32,address)": "infinite",
				"hasRole(bytes32,address)": "infinite",
				"hodlTIssue(uint256)": "infinite",
				"hodlTRedeem(uint256)": "infinite",
				"increaseTransactionCount(uint256)": "infinite",
				"init(address,address)": "infinite",
				"initResetUser(address)": "infinite",
				"initSetDailyAccrualRate(uint256)": "infinite",
				"initUser(address,uint256)": "infinite",
				"isAccruing()": "infinite",
				"isConfigured()": "1139",
				"isRunning()": "infinite",
				"nextUserDistributionDetails(address,bytes32)": "infinite",
				"oracleContract()": "1105",
				"oracleSetEthUsd(uint256)": "infinite",
				"orderLimit()": "infinite",
				"period()": "infinite",
				"poke()": "infinite",
				"rates()": "infinite",
				"renounceRole(bytes32,address)": "infinite",
				"revokeRole(bytes32,address)": "infinite",
				"sellHodlC(uint256,uint256)": "infinite",
				"sellOrder(bytes32)": "2953",
				"sellOrderCount()": "1218",
				"sellOrderFirst()": "1123",
				"sellOrderIterate(bytes32)": "infinite",
				"sellOrderLast()": "1175",
				"tokenReserveContract()": "1192",
				"user(address)": "infinite",
				"userBalanceAtIndex(bytes32,address,uint256)": "infinite",
				"userBalanceCount(bytes32,address)": "infinite",
				"withdrawEth(uint256)": "infinite"
			},
			"internal": {
				"_accrueByTime()": "infinite",
				"_buyFromReserve(uint256)": "infinite",
				"_convertEthToHodl(uint256)": "infinite",
				"_convertEthToUsd(uint256)": "infinite",
				"_convertHodlToEth(uint256)": "infinite",
				"_convertUsdToEth(uint256)": "infinite",
				"_fillBuyOrders(uint256,uint256)": "infinite",
				"_fillSellOrders(uint256,uint256)": "infinite",
				"_increaseTransactionCount(uint256)": "infinite",
				"_openBuyOrder(uint256)": "infinite",
				"_openSellOrder(uint256)": "infinite",
				"_setEthToUsd()": "infinite",
				"keyGen()": "infinite"
			}
		},
		"methodIdentifiers": {
			"ADMIN_ROLE()": "75b238fc",
			"DEFAULT_ADMIN_ROLE()": "a217fddf",
			"ETH_ASSET()": "284fef4b",
			"ETH_USD()": "6260f55b",
			"HODL_ASSET()": "4f8c4a45",
			"MIGRATION_ROLE()": "39c6d4cb",
			"ORACLE_ROLE()": "07e2cea5",
			"RESERVE_ROLE()": "191fd57d",
			"accrualDaysProcessed()": "d26d1fe6",
			"adminSetOracle(address)": "2949f19e",
			"allocateDistribution(uint256)": "0cc6e019",
			"buyHodlC(uint256,uint256)": "f4f06eed",
			"buyOrder(bytes32)": "8eb6ac7a",
			"buyOrderCount()": "d1e3175a",
			"buyOrderFirst()": "4d7de20c",
			"buyOrderIterate(bytes32)": "bcffe5f4",
			"buyOrderLast()": "bc500409",
			"cancelBuy(bytes32)": "1b7c7ea7",
			"cancelSell(bytes32)": "164cded6",
			"circulatingSupply()": "9358928b",
			"claimEthDistribution()": "e2ee29c3",
			"claimHodlDistribution()": "376fe05b",
			"convertEthToHodl(uint256)": "0ef8e550",
			"convertEthToUsd(uint256)": "c086381e",
			"convertHodlToEth(uint256)": "2cdf21f3",
			"convertHodlToUsd(uint256)": "9e3202c9",
			"convertUsdToEth(uint256)": "a3053e2a",
			"convertUsdToHodl(uint256)": "947b9383",
			"depositEth()": "439370b1",
			"distributionAtIndex(bytes32,uint256)": "1d8f8f4b",
			"distributionCount(bytes32)": "2b0eec97",
			"entropy_counter()": "3fb7a0ab",
			"error_count()": "1b4d7677",
			"eth_usd_block()": "e77349e7",
			"getEthToUsd()": "f5f593a7",
			"getRoleAdmin(bytes32)": "248a9ca3",
			"getRoleMember(bytes32,uint256)": "9010d07c",
			"getRoleMemberCount(bytes32)": "ca15c873",
			"grantRole(bytes32,address)": "2f2ff15d",
			"hasRole(bytes32,address)": "91d14854",
			"hodlTIssue(uint256)": "076299de",
			"hodlTRedeem(uint256)": "5f07cbc2",
			"increaseTransactionCount(uint256)": "e84abef1",
			"init(address,address)": "f09a4016",
			"initResetUser(address)": "2f81b5df",
			"initSetDailyAccrualRate(uint256)": "7b4e610a",
			"initUser(address,uint256)": "b1eb816f",
			"isAccruing()": "896e9ce0",
			"isConfigured()": "d3a057c8",
			"isRunning()": "2014e5d1",
			"nextUserDistributionDetails(address,bytes32)": "2b6fb51d",
			"oracleContract()": "bece7532",
			"oracleSetEthUsd(uint256)": "ece7ddbf",
			"orderLimit()": "75c303c9",
			"period()": "ef78d4fd",
			"poke()": "18178358",
			"rates()": "43f48fbd",
			"renounceRole(bytes32,address)": "36568abe",
			"revokeRole(bytes32,address)": "d547741f",
			"sellHodlC(uint256,uint256)": "16f30a7b",
			"sellOrder(bytes32)": "61d21875",
			"sellOrderCount()": "f58c7acf",
			"sellOrderFirst()": "519baf94",
			"sellOrderIterate(bytes32)": "84433221",
			"sellOrderLast()": "1911e522",
			"tokenReserveContract()": "e286bca5",
			"user(address)": "81e7e20e",
			"userBalanceAtIndex(bytes32,address,uint256)": "46debf31",
			"userBalanceCount(bytes32,address)": "363ecbc0",
			"withdrawEth(uint256)": "c311d049"
		}
	},
	"abi": [
		{
			"anonymous": false,
			"inputs": [
				{
					"indexed": false,
					"internalType": "address",
					"name": "sender",
					"type": "address"
				},
				{
					"indexed": false,
					"internalType": "uint256",
					"name": "hodlUsdNow",
					"type": "uint256"
				},
				{
					"indexed": false,
					"internalType": "uint256",
					"name": "dailyAccrualRateNow",
					"type": "uint256"
				}
			],
			"name": "AccrueByTime",
			"type": "event"
		},
		{
			"anonymous": false,
			"inputs": [
				{
					"indexed": true,
					"internalType": "address",
					"name": "buyer",
					"type": "address"
				},
				{
					"indexed": false,
					"internalType": "uint256",
					"name": "txnEth",
					"type": "uint256"
				},
				{
					"indexed": false,
					"internalType": "uint256",
					"name": "txnHodl",
					"type": "uint256"
				}
			],
			"name": "BuyFromReserve",
			"type": "event"
		},
		{
			"anonymous": false,
			"inputs": [
				{
					"indexed": true,
					"internalType": "address",
					"name": "buyer",
					"type": "address"
				},
				{
					"indexed": false,
					"internalType": "uint256",
					"name": "amountEth",
					"type": "uint256"
				},
				{
					"indexed": false,
					"internalType": "uint256",
					"name": "lowGas",
					"type": "uint256"
				}
			],
			"name": "BuyHodlCRequested",
			"type": "event"
		},
		{
			"anonymous": false,
			"inputs": [
				{
					"indexed": true,
					"internalType": "address",
					"name": "userAddr",
					"type": "address"
				},
				{
					"indexed": true,
					"internalType": "bytes32",
					"name": "orderId",
					"type": "bytes32"
				}
			],
			"name": "BuyOrderCancelled",
			"type": "event"
		},
		{
			"anonymous": false,
			"inputs": [
				{
					"indexed": true,
					"internalType": "address",
					"name": "seller",
					"type": "address"
				},
				{
					"indexed": true,
					"internalType": "bytes32",
					"name": "orderId",
					"type": "bytes32"
				},
				{
					"indexed": true,
					"internalType": "address",
					"name": "buyer",
					"type": "address"
				},
				{
					"indexed": false,
					"internalType": "uint256",
					"name": "txnEth",
					"type": "uint256"
				},
				{
					"indexed": false,
					"internalType": "uint256",
					"name": "txnHodl",
					"type": "uint256"
				}
			],
			"name": "BuyOrderFilled",
			"type": "event"
		},
		{
			"anonymous": false,
			"inputs": [
				{
					"indexed": true,
					"internalType": "bytes32",
					"name": "orderedId",
					"type": "bytes32"
				},
				{
					"indexed": true,
					"internalType": "address",
					"name": "buyer",
					"type": "address"
				},
				{
					"indexed": false,
					"internalType": "uint256",
					"name": "amountEth",
					"type": "uint256"
				}
			],
			"name": "BuyOrderOpened",
			"type": "event"
		},
		{
			"anonymous": false,
			"inputs": [
				{
					"indexed": true,
					"internalType": "address",
					"name": "seller",
					"type": "address"
				},
				{
					"indexed": true,
					"internalType": "bytes32",
					"name": "orderId",
					"type": "bytes32"
				},
				{
					"indexed": false,
					"internalType": "uint256",
					"name": "refundedEth",
					"type": "uint256"
				}
			],
			"name": "BuyOrderRefunded",
			"type": "event"
		},
		{
			"anonymous": false,
			"inputs": [
				{
					"indexed": false,
					"internalType": "address",
					"name": "sender",
					"type": "address"
				},
				{
					"indexed": false,
					"internalType": "uint256",
					"name": "errorCount",
					"type": "uint256"
				},
				{
					"indexed": false,
					"internalType": "uint256",
					"name": "ethUsd",
					"type": "uint256"
				}
			],
			"name": "EthUsdError",
			"type": "event"
		},
		{
			"anonymous": false,
			"inputs": [
				{
					"indexed": false,
					"internalType": "address",
					"name": "sender",
					"type": "address"
				},
				{
					"indexed": false,
					"internalType": "uint256",
					"name": "amount",
					"type": "uint256"
				}
			],
			"name": "HodlDistributionAllocated",
			"type": "event"
		},
		{
			"anonymous": false,
			"inputs": [
				{
					"indexed": true,
					"internalType": "address",
					"name": "user",
					"type": "address"
				},
				{
					"indexed": false,
					"internalType": "uint256",
					"name": "amountUsd",
					"type": "uint256"
				}
			],
			"name": "HodlTIssued",
			"type": "event"
		},
		{
			"anonymous": false,
			"inputs": [
				{
					"indexed": true,
					"internalType": "address",
					"name": "user",
					"type": "address"
				},
				{
					"indexed": false,
					"internalType": "uint256",
					"name": "amountUsd",
					"type": "uint256"
				}
			],
			"name": "HodlTRedeemed",
			"type": "event"
		},
		{
			"anonymous": false,
			"inputs": [
				{
					"indexed": false,
					"internalType": "address",
					"name": "sender",
					"type": "address"
				},
				{
					"indexed": false,
					"internalType": "uint256",
					"name": "gasLeft",
					"type": "uint256"
				},
				{
					"indexed": false,
					"internalType": "uint256",
					"name": "ordersFilled",
					"type": "uint256"
				}
			],
			"name": "IncreaseLowGas",
			"type": "event"
		},
		{
			"anonymous": false,
			"inputs": [
				{
					"indexed": false,
					"internalType": "address",
					"name": "sender",
					"type": "address"
				},
				{
					"indexed": false,
					"internalType": "uint256",
					"name": "transactionCount",
					"type": "uint256"
				},
				{
					"indexed": false,
					"internalType": "uint256",
					"name": "newHodlUsd",
					"type": "uint256"
				}
			],
			"name": "IncreasedByTransaction",
			"type": "event"
		},
		{
			"anonymous": false,
			"inputs": [
				{
					"indexed": false,
					"internalType": "address",
					"name": "sender",
					"type": "address"
				},
				{
					"indexed": false,
					"internalType": "contract IHTokenReserve",
					"name": "tokenReserve",
					"type": "address"
				},
				{
					"indexed": false,
					"internalType": "contract IHOracle",
					"name": "oracle",
					"type": "address"
				}
			],
			"name": "InitConfigure",
			"type": "event"
		},
		{
			"anonymous": false,
			"inputs": [
				{
					"indexed": false,
					"internalType": "address",
					"name": "sender",
					"type": "address"
				},
				{
					"indexed": false,
					"internalType": "address",
					"name": "from",
					"type": "address"
				},
				{
					"indexed": false,
					"internalType": "address",
					"name": "to",
					"type": "address"
				},
				{
					"indexed": false,
					"internalType": "uint256",
					"name": "amount",
					"type": "uint256"
				}
			],
			"name": "InternalTransfer",
			"type": "event"
		},
		{
			"anonymous": false,
			"inputs": [
				{
					"indexed": false,
					"internalType": "address",
					"name": "admin",
					"type": "address"
				},
				{
					"indexed": false,
					"internalType": "address",
					"name": "oracle",
					"type": "address"
				}
			],
			"name": "OracleSet",
			"type": "event"
		},
		{
			"anonymous": false,
			"inputs": [
				{
					"indexed": true,
					"internalType": "bytes32",
					"name": "role",
					"type": "bytes32"
				},
				{
					"indexed": true,
					"internalType": "address",
					"name": "account",
					"type": "address"
				},
				{
					"indexed": true,
					"internalType": "address",
					"name": "sender",
					"type": "address"
				}
			],
			"name": "RoleGranted",
			"type": "event"
		},
		{
			"anonymous": false,
			"inputs": [
				{
					"indexed": true,
					"internalType": "bytes32",
					"name": "role",
					"type": "bytes32"
				},
				{
					"indexed": true,
					"internalType": "address",
					"name": "account",
					"type": "address"
				},
				{
					"indexed": true,
					"internalType": "address",
					"name": "sender",
					"type": "address"
				}
			],
			"name": "RoleRevoked",
			"type": "event"
		},
		{
			"anonymous": false,
			"inputs": [
				{
					"indexed": true,
					"internalType": "address",
					"name": "seller",
					"type": "address"
				},
				{
					"indexed": false,
					"internalType": "uint256",
					"name": "quantityHodl",
					"type": "uint256"
				},
				{
					"indexed": false,
					"internalType": "uint256",
					"name": "lowGas",
					"type": "uint256"
				}
			],
			"name": "SellHodlCRequested",
			"type": "event"
		},
		{
			"anonymous": false,
			"inputs": [
				{
					"indexed": true,
					"internalType": "address",
					"name": "userAddr",
					"type": "address"
				},
				{
					"indexed": true,
					"internalType": "bytes32",
					"name": "orderId",
					"type": "bytes32"
				}
			],
			"name": "SellOrderCancelled",
			"type": "event"
		},
		{
			"anonymous": false,
			"inputs": [
				{
					"indexed": true,
					"internalType": "address",
					"name": "buyer",
					"type": "address"
				},
				{
					"indexed": true,
					"internalType": "bytes32",
					"name": "orderId",
					"type": "bytes32"
				},
				{
					"indexed": true,
					"internalType": "address",
					"name": "seller",
					"type": "address"
				},
				{
					"indexed": false,
					"internalType": "uint256",
					"name": "txnEth",
					"type": "uint256"
				},
				{
					"indexed": false,
					"internalType": "uint256",
					"name": "txnHodl",
					"type": "uint256"
				}
			],
			"name": "SellOrderFilled",
			"type": "event"
		},
		{
			"anonymous": false,
			"inputs": [
				{
					"indexed": true,
					"internalType": "bytes32",
					"name": "orderId",
					"type": "bytes32"
				},
				{
					"indexed": true,
					"internalType": "address",
					"name": "seller",
					"type": "address"
				},
				{
					"indexed": false,
					"internalType": "uint256",
					"name": "quantityHodl",
					"type": "uint256"
				},
				{
					"indexed": false,
					"internalType": "uint256",
					"name": "askUsd",
					"type": "uint256"
				}
			],
			"name": "SellOrderOpened",
			"type": "event"
		},
		{
			"anonymous": false,
			"inputs": [
				{
					"indexed": true,
					"internalType": "address",
					"name": "seller",
					"type": "address"
				},
				{
					"indexed": true,
					"internalType": "bytes32",
					"name": "orderId",
					"type": "bytes32"
				},
				{
					"indexed": false,
					"internalType": "uint256",
					"name": "refundedHodl",
					"type": "uint256"
				}
			],
			"name": "SellOrderRefunded",
			"type": "event"
		},
		{
			"anonymous": false,
			"inputs": [
				{
					"indexed": false,
					"internalType": "address",
					"name": "admin",
					"type": "address"
				},
				{
					"indexed": false,
					"internalType": "uint256",
					"name": "dailyAccrualRate",
					"type": "uint256"
				}
			],
			"name": "SetDailyAccrualRate",
			"type": "event"
		},
		{
			"anonymous": false,
			"inputs": [
				{
					"indexed": false,
					"internalType": "address",
					"name": "setter",
					"type": "address"
				},
				{
					"indexed": false,
					"internalType": "uint256",
					"name": "ethUsd18",
					"type": "uint256"
				}
			],
			"name": "SetEthUsd",
			"type": "event"
		},
		{
			"anonymous": false,
			"inputs": [
				{
					"indexed": true,
					"internalType": "address",
					"name": "user",
					"type": "address"
				},
				{
					"indexed": false,
					"internalType": "uint256",
					"name": "amountEth",
					"type": "uint256"
				}
			],
			"name": "UserDepositEth",
			"type": "event"
		},
		{
			"anonymous": false,
			"inputs": [
				{
					"indexed": false,
					"internalType": "address",
					"name": "admin",
					"type": "address"
				},
				{
					"indexed": true,
					"internalType": "address",
					"name": "user",
					"type": "address"
				},
				{
					"indexed": false,
					"internalType": "uint256",
					"name": "hodlCR",
					"type": "uint256"
				},
				{
					"indexed": false,
					"internalType": "uint256",
					"name": "ethCR",
					"type": "uint256"
				}
			],
			"name": "UserInitialized",
			"type": "event"
		},
		{
			"anonymous": false,
			"inputs": [
				{
					"indexed": false,
					"internalType": "address",
					"name": "admin",
					"type": "address"
				},
				{
					"indexed": true,
					"internalType": "address",
					"name": "user",
					"type": "address"
				}
			],
			"name": "UserUninitialized",
			"type": "event"
		},
		{
			"anonymous": false,
			"inputs": [
				{
					"indexed": true,
					"internalType": "address",
					"name": "user",
					"type": "address"
				},
				{
					"indexed": false,
					"internalType": "uint256",
					"name": "amountEth",
					"type": "uint256"
				}
			],
			"name": "UserWithdrawEth",
			"type": "event"
		},
		{
			"inputs": [],
			"name": "ADMIN_ROLE",
			"outputs": [
				{
					"internalType": "bytes32",
					"name": "",
					"type": "bytes32"
				}
			],
			"stateMutability": "view",
			"type": "function"
		},
		{
			"inputs": [],
			"name": "DEFAULT_ADMIN_ROLE",
			"outputs": [
				{
					"internalType": "bytes32",
					"name": "",
					"type": "bytes32"
				}
			],
			"stateMutability": "view",
			"type": "function"
		},
		{
			"inputs": [],
			"name": "ETH_ASSET",
			"outputs": [
				{
					"internalType": "bytes32",
					"name": "",
					"type": "bytes32"
				}
			],
			"stateMutability": "view",
			"type": "function"
		},
		{
			"inputs": [],
			"name": "ETH_USD",
			"outputs": [
				{
					"internalType": "uint256",
					"name": "",
					"type": "uint256"
				}
			],
			"stateMutability": "view",
			"type": "function"
		},
		{
			"inputs": [],
			"name": "HODL_ASSET",
			"outputs": [
				{
					"internalType": "bytes32",
					"name": "",
					"type": "bytes32"
				}
			],
			"stateMutability": "view",
			"type": "function"
		},
		{
			"inputs": [],
			"name": "MIGRATION_ROLE",
			"outputs": [
				{
					"internalType": "bytes32",
					"name": "",
					"type": "bytes32"
				}
			],
			"stateMutability": "view",
			"type": "function"
		},
		{
			"inputs": [],
			"name": "ORACLE_ROLE",
			"outputs": [
				{
					"internalType": "bytes32",
					"name": "",
					"type": "bytes32"
				}
			],
			"stateMutability": "view",
			"type": "function"
		},
		{
			"inputs": [],
			"name": "RESERVE_ROLE",
			"outputs": [
				{
					"internalType": "bytes32",
					"name": "",
					"type": "bytes32"
				}
			],
			"stateMutability": "view",
			"type": "function"
		},
		{
			"inputs": [],
			"name": "accrualDaysProcessed",
			"outputs": [
				{
					"internalType": "uint256",
					"name": "",
					"type": "uint256"
				}
			],
			"stateMutability": "view",
			"type": "function"
		},
		{
			"inputs": [
				{
					"internalType": "contract IHOracle",
					"name": "_oracle",
					"type": "address"
				}
			],
			"name": "adminSetOracle",
			"outputs": [],
			"stateMutability": "nonpayable",
			"type": "function"
		},
		{
			"inputs": [
				{
					"internalType": "uint256",
					"name": "amountHodl",
					"type": "uint256"
				}
			],
			"name": "allocateDistribution",
			"outputs": [],
			"stateMutability": "nonpayable",
			"type": "function"
		},
		{
			"inputs": [
				{
					"internalType": "uint256",
					"name": "amountEth",
					"type": "uint256"
				},
				{
					"internalType": "uint256",
					"name": "lowGas",
					"type": "uint256"
				}
			],
			"name": "buyHodlC",
			"outputs": [
				{
					"internalType": "bytes32",
					"name": "orderId",
					"type": "bytes32"
				}
			],
			"stateMutability": "nonpayable",
			"type": "function"
		},
		{
			"inputs": [
				{
					"internalType": "bytes32",
					"name": "",
					"type": "bytes32"
				}
			],
			"name": "buyOrder",
			"outputs": [
				{
					"internalType": "address",
					"name": "buyer",
					"type": "address"
				},
				{
					"internalType": "uint256",
					"name": "bidEth",
					"type": "uint256"
				}
			],
			"stateMutability": "view",
			"type": "function"
		},
		{
			"inputs": [],
			"name": "buyOrderCount",
			"outputs": [
				{
					"internalType": "uint256",
					"name": "count",
					"type": "uint256"
				}
			],
			"stateMutability": "view",
			"type": "function"
		},
		{
			"inputs": [],
			"name": "buyOrderFirst",
			"outputs": [
				{
					"internalType": "bytes32",
					"name": "orderId",
					"type": "bytes32"
				}
			],
			"stateMutability": "view",
			"type": "function"
		},
		{
			"inputs": [
				{
					"internalType": "bytes32",
					"name": "orderId",
					"type": "bytes32"
				}
			],
			"name": "buyOrderIterate",
			"outputs": [
				{
					"internalType": "bytes32",
					"name": "idBefore",
					"type": "bytes32"
				},
				{
					"internalType": "bytes32",
					"name": "idAfter",
					"type": "bytes32"
				}
			],
			"stateMutability": "view",
			"type": "function"
		},
		{
			"inputs": [],
			"name": "buyOrderLast",
			"outputs": [
				{
					"internalType": "bytes32",
					"name": "orderId",
					"type": "bytes32"
				}
			],
			"stateMutability": "view",
			"type": "function"
		},
		{
			"inputs": [
				{
					"internalType": "bytes32",
					"name": "orderId",
					"type": "bytes32"
				}
			],
			"name": "cancelBuy",
			"outputs": [],
			"stateMutability": "nonpayable",
			"type": "function"
		},
		{
			"inputs": [
				{
					"internalType": "bytes32",
					"name": "orderId",
					"type": "bytes32"
				}
			],
			"name": "cancelSell",
			"outputs": [],
			"stateMutability": "nonpayable",
			"type": "function"
		},
		{
			"inputs": [],
			"name": "circulatingSupply",
			"outputs": [
				{
					"internalType": "uint256",
					"name": "circulating",
					"type": "uint256"
				}
			],
			"stateMutability": "view",
			"type": "function"
		},
		{
			"inputs": [],
			"name": "claimEthDistribution",
			"outputs": [
				{
					"internalType": "uint256",
					"name": "amount",
					"type": "uint256"
				}
			],
			"stateMutability": "nonpayable",
			"type": "function"
		},
		{
			"inputs": [],
			"name": "claimHodlDistribution",
			"outputs": [
				{
					"internalType": "uint256",
					"name": "amount",
					"type": "uint256"
				}
			],
			"stateMutability": "nonpayable",
			"type": "function"
		},
		{
			"inputs": [
				{
					"internalType": "uint256",
					"name": "amtEth",
					"type": "uint256"
				}
			],
			"name": "convertEthToHodl",
			"outputs": [
				{
					"internalType": "uint256",
					"name": "inHodl",
					"type": "uint256"
				}
			],
			"stateMutability": "view",
			"type": "function"
		},
		{
			"inputs": [
				{
					"internalType": "uint256",
					"name": "amtEth",
					"type": "uint256"
				}
			],
			"name": "convertEthToUsd",
			"outputs": [
				{
					"internalType": "uint256",
					"name": "inUsd",
					"type": "uint256"
				}
			],
			"stateMutability": "view",
			"type": "function"
		},
		{
			"inputs": [
				{
					"internalType": "uint256",
					"name": "amtHodl",
					"type": "uint256"
				}
			],
			"name": "convertHodlToEth",
			"outputs": [
				{
					"internalType": "uint256",
					"name": "inEth",
					"type": "uint256"
				}
			],
			"stateMutability": "view",
			"type": "function"
		},
		{
			"inputs": [
				{
					"internalType": "uint256",
					"name": "amtHodl",
					"type": "uint256"
				}
			],
			"name": "convertHodlToUsd",
			"outputs": [
				{
					"internalType": "uint256",
					"name": "inUsd",
					"type": "uint256"
				}
			],
			"stateMutability": "view",
			"type": "function"
		},
		{
			"inputs": [
				{
					"internalType": "uint256",
					"name": "amtUsd",
					"type": "uint256"
				}
			],
			"name": "convertUsdToEth",
			"outputs": [
				{
					"internalType": "uint256",
					"name": "inEth",
					"type": "uint256"
				}
			],
			"stateMutability": "view",
			"type": "function"
		},
		{
			"inputs": [
				{
					"internalType": "uint256",
					"name": "amtUsd",
					"type": "uint256"
				}
			],
			"name": "convertUsdToHodl",
			"outputs": [
				{
					"internalType": "uint256",
					"name": "inHodl",
					"type": "uint256"
				}
			],
			"stateMutability": "view",
			"type": "function"
		},
		{
			"inputs": [],
			"name": "depositEth",
			"outputs": [],
			"stateMutability": "payable",
			"type": "function"
		},
		{
			"inputs": [
				{
					"internalType": "bytes32",
					"name": "assetId",
					"type": "bytes32"
				},
				{
					"internalType": "uint256",
					"name": "index",
					"type": "uint256"
				}
			],
			"name": "distributionAtIndex",
			"outputs": [
				{
					"internalType": "uint256",
					"name": "denominator",
					"type": "uint256"
				},
				{
					"internalType": "uint256",
					"name": "distributionAmount",
					"type": "uint256"
				},
				{
					"internalType": "uint256",
					"name": "_period",
					"type": "uint256"
				}
			],
			"stateMutability": "view",
			"type": "function"
		},
		{
			"inputs": [
				{
					"internalType": "bytes32",
					"name": "assetId",
					"type": "bytes32"
				}
			],
			"name": "distributionCount",
			"outputs": [
				{
					"internalType": "uint256",
					"name": "count",
					"type": "uint256"
				}
			],
			"stateMutability": "view",
			"type": "function"
		},
		{
			"inputs": [],
			"name": "entropy_counter",
			"outputs": [
				{
					"internalType": "uint256",
					"name": "",
					"type": "uint256"
				}
			],
			"stateMutability": "view",
			"type": "function"
		},
		{
			"inputs": [],
			"name": "error_count",
			"outputs": [
				{
					"internalType": "uint256",
					"name": "",
					"type": "uint256"
				}
			],
			"stateMutability": "view",
			"type": "function"
		},
		{
			"inputs": [],
			"name": "eth_usd_block",
			"outputs": [
				{
					"internalType": "uint256",
					"name": "",
					"type": "uint256"
				}
			],
			"stateMutability": "view",
			"type": "function"
		},
		{
			"inputs": [],
			"name": "getEthToUsd",
			"outputs": [
				{
					"internalType": "uint256",
					"name": "ethUsd18",
					"type": "uint256"
				},
				{
					"internalType": "bool",
					"name": "success",
					"type": "bool"
				}
			],
			"stateMutability": "view",
			"type": "function"
		},
		{
			"inputs": [
				{
					"internalType": "bytes32",
					"name": "role",
					"type": "bytes32"
				}
			],
			"name": "getRoleAdmin",
			"outputs": [
				{
					"internalType": "bytes32",
					"name": "",
					"type": "bytes32"
				}
			],
			"stateMutability": "view",
			"type": "function"
		},
		{
			"inputs": [
				{
					"internalType": "bytes32",
					"name": "role",
					"type": "bytes32"
				},
				{
					"internalType": "uint256",
					"name": "index",
					"type": "uint256"
				}
			],
			"name": "getRoleMember",
			"outputs": [
				{
					"internalType": "address",
					"name": "",
					"type": "address"
				}
			],
			"stateMutability": "view",
			"type": "function"
		},
		{
			"inputs": [
				{
					"internalType": "bytes32",
					"name": "role",
					"type": "bytes32"
				}
			],
			"name": "getRoleMemberCount",
			"outputs": [
				{
					"internalType": "uint256",
					"name": "",
					"type": "uint256"
				}
			],
			"stateMutability": "view",
			"type": "function"
		},
		{
			"inputs": [
				{
					"internalType": "bytes32",
					"name": "role",
					"type": "bytes32"
				},
				{
					"internalType": "address",
					"name": "account",
					"type": "address"
				}
			],
			"name": "grantRole",
			"outputs": [],
			"stateMutability": "nonpayable",
			"type": "function"
		},
		{
			"inputs": [
				{
					"internalType": "bytes32",
					"name": "role",
					"type": "bytes32"
				},
				{
					"internalType": "address",
					"name": "account",
					"type": "address"
				}
			],
			"name": "hasRole",
			"outputs": [
				{
					"internalType": "bool",
					"name": "",
					"type": "bool"
				}
			],
			"stateMutability": "view",
			"type": "function"
		},
		{
			"inputs": [
				{
					"internalType": "uint256",
					"name": "amountUsd",
					"type": "uint256"
				}
			],
			"name": "hodlTIssue",
			"outputs": [],
			"stateMutability": "nonpayable",
			"type": "function"
		},
		{
			"inputs": [
				{
					"internalType": "uint256",
					"name": "amountUsd",
					"type": "uint256"
				}
			],
			"name": "hodlTRedeem",
			"outputs": [],
			"stateMutability": "nonpayable",
			"type": "function"
		},
		{
			"inputs": [
				{
					"internalType": "uint256",
					"name": "transactionCount",
					"type": "uint256"
				}
			],
			"name": "increaseTransactionCount",
			"outputs": [],
			"stateMutability": "nonpayable",
			"type": "function"
		},
		{
			"inputs": [
				{
					"internalType": "contract IHTokenReserve",
					"name": "_tokenReserve",
					"type": "address"
				},
				{
					"internalType": "contract IHOracle",
					"name": "_oracle",
					"type": "address"
				}
			],
			"name": "init",
			"outputs": [],
			"stateMutability": "nonpayable",
			"type": "function"
		},
		{
			"inputs": [
				{
					"internalType": "address",
					"name": "userAddr",
					"type": "address"
				}
			],
			"name": "initResetUser",
			"outputs": [],
			"stateMutability": "nonpayable",
			"type": "function"
		},
		{
			"inputs": [
				{
					"internalType": "uint256",
					"name": "rateAsDecimal18",
					"type": "uint256"
				}
			],
			"name": "initSetDailyAccrualRate",
			"outputs": [],
			"stateMutability": "nonpayable",
			"type": "function"
		},
		{
			"inputs": [
				{
					"internalType": "address",
					"name": "userAddr",
					"type": "address"
				},
				{
					"internalType": "uint256",
					"name": "hodl",
					"type": "uint256"
				}
			],
			"name": "initUser",
			"outputs": [],
			"stateMutability": "payable",
			"type": "function"
		},
		{
			"inputs": [],
			"name": "isAccruing",
			"outputs": [
				{
					"internalType": "bool",
					"name": "accruing",
					"type": "bool"
				}
			],
			"stateMutability": "view",
			"type": "function"
		},
		{
			"inputs": [],
			"name": "isConfigured",
			"outputs": [
				{
					"internalType": "bool",
					"name": "initialized",
					"type": "bool"
				}
			],
			"stateMutability": "view",
			"type": "function"
		},
		{
			"inputs": [],
			"name": "isRunning",
			"outputs": [
				{
					"internalType": "bool",
					"name": "running",
					"type": "bool"
				}
			],
			"stateMutability": "view",
			"type": "function"
		},
		{
			"inputs": [
				{
					"internalType": "address",
					"name": "userAddr",
					"type": "address"
				},
				{
					"internalType": "bytes32",
					"name": "assetId",
					"type": "bytes32"
				}
			],
			"name": "nextUserDistributionDetails",
			"outputs": [
				{
					"internalType": "uint256",
					"name": "amount",
					"type": "uint256"
				},
				{
					"internalType": "uint256",
					"name": "balanceIndex",
					"type": "uint256"
				},
				{
					"internalType": "uint256",
					"name": "distributionIndex",
					"type": "uint256"
				},
				{
					"internalType": "bool",
					"name": "closed",
					"type": "bool"
				}
			],
			"stateMutability": "view",
			"type": "function"
		},
		{
			"inputs": [],
			"name": "oracleContract",
			"outputs": [
				{
					"internalType": "contract IHOracle",
					"name": "_oracle",
					"type": "address"
				}
			],
			"stateMutability": "view",
			"type": "function"
		},
		{
			"inputs": [
				{
					"internalType": "uint256",
					"name": "ethUsd",
					"type": "uint256"
				}
			],
			"name": "oracleSetEthUsd",
			"outputs": [],
			"stateMutability": "nonpayable",
			"type": "function"
		},
		{
			"inputs": [],
			"name": "orderLimit",
			"outputs": [
				{
					"internalType": "uint256",
					"name": "limitUsd",
					"type": "uint256"
				}
			],
			"stateMutability": "view",
			"type": "function"
		},
		{
			"inputs": [],
			"name": "period",
			"outputs": [
				{
					"internalType": "uint256",
					"name": "_period",
					"type": "uint256"
				}
			],
			"stateMutability": "view",
			"type": "function"
		},
		{
			"inputs": [],
			"name": "poke",
			"outputs": [],
			"stateMutability": "nonpayable",
			"type": "function"
		},
		{
			"inputs": [],
			"name": "rates",
			"outputs": [
				{
					"internalType": "uint256",
					"name": "hodlUsd",
					"type": "uint256"
				},
				{
					"internalType": "uint256",
					"name": "dailyAccrualRate",
					"type": "uint256"
				}
			],
			"stateMutability": "view",
			"type": "function"
		},
		{
			"inputs": [
				{
					"internalType": "bytes32",
					"name": "role",
					"type": "bytes32"
				},
				{
					"internalType": "address",
					"name": "account",
					"type": "address"
				}
			],
			"name": "renounceRole",
			"outputs": [],
			"stateMutability": "nonpayable",
			"type": "function"
		},
		{
			"inputs": [
				{
					"internalType": "bytes32",
					"name": "role",
					"type": "bytes32"
				},
				{
					"internalType": "address",
					"name": "account",
					"type": "address"
				}
			],
			"name": "revokeRole",
			"outputs": [],
			"stateMutability": "nonpayable",
			"type": "function"
		},
		{
			"inputs": [
				{
					"internalType": "uint256",
					"name": "quantityHodl",
					"type": "uint256"
				},
				{
					"internalType": "uint256",
					"name": "lowGas",
					"type": "uint256"
				}
			],
			"name": "sellHodlC",
			"outputs": [
				{
					"internalType": "bytes32",
					"name": "orderId",
					"type": "bytes32"
				}
			],
			"stateMutability": "nonpayable",
			"type": "function"
		},
		{
			"inputs": [
				{
					"internalType": "bytes32",
					"name": "",
					"type": "bytes32"
				}
			],
			"name": "sellOrder",
			"outputs": [
				{
					"internalType": "address",
					"name": "seller",
					"type": "address"
				},
				{
					"internalType": "uint256",
					"name": "volumeHodl",
					"type": "uint256"
				},
				{
					"internalType": "uint256",
					"name": "askUsd",
					"type": "uint256"
				}
			],
			"stateMutability": "view",
			"type": "function"
		},
		{
			"inputs": [],
			"name": "sellOrderCount",
			"outputs": [
				{
					"internalType": "uint256",
					"name": "count",
					"type": "uint256"
				}
			],
			"stateMutability": "view",
			"type": "function"
		},
		{
			"inputs": [],
			"name": "sellOrderFirst",
			"outputs": [
				{
					"internalType": "bytes32",
					"name": "orderId",
					"type": "bytes32"
				}
			],
			"stateMutability": "view",
			"type": "function"
		},
		{
			"inputs": [
				{
					"internalType": "bytes32",
					"name": "orderId",
					"type": "bytes32"
				}
			],
			"name": "sellOrderIterate",
			"outputs": [
				{
					"internalType": "bytes32",
					"name": "idBefore",
					"type": "bytes32"
				},
				{
					"internalType": "bytes32",
					"name": "idAfter",
					"type": "bytes32"
				}
			],
			"stateMutability": "view",
			"type": "function"
		},
		{
			"inputs": [],
			"name": "sellOrderLast",
			"outputs": [
				{
					"internalType": "bytes32",
					"name": "orderId",
					"type": "bytes32"
				}
			],
			"stateMutability": "view",
			"type": "function"
		},
		{
			"inputs": [],
			"name": "tokenReserveContract",
			"outputs": [
				{
					"internalType": "contract IHTokenReserve",
					"name": "_reserve",
					"type": "address"
				}
			],
			"stateMutability": "view",
			"type": "function"
		},
		{
			"inputs": [
				{
					"internalType": "address",
					"name": "userAddr",
					"type": "address"
				}
			],
			"name": "user",
			"outputs": [
				{
					"internalType": "uint256",
					"name": "balanceEth",
					"type": "uint256"
				},
				{
					"internalType": "uint256",
					"name": "balanceHodl",
					"type": "uint256"
				},
				{
					"internalType": "uint256",
					"name": "controlledHodl",
					"type": "uint256"
				}
			],
			"stateMutability": "view",
			"type": "function"
		},
		{
			"inputs": [
				{
					"internalType": "bytes32",
					"name": "assetId",
					"type": "bytes32"
				},
				{
					"internalType": "address",
					"name": "userAddr",
					"type": "address"
				},
				{
					"internalType": "uint256",
					"name": "index",
					"type": "uint256"
				}
			],
			"name": "userBalanceAtIndex",
			"outputs": [
				{
					"internalType": "uint256",
					"name": "userBalance",
					"type": "uint256"
				},
				{
					"internalType": "uint256",
					"name": "controlled",
					"type": "uint256"
				},
				{
					"internalType": "uint256",
					"name": "_period",
					"type": "uint256"
				}
			],
			"stateMutability": "view",
			"type": "function"
		},
		{
			"inputs": [
				{
					"internalType": "bytes32",
					"name": "assetId",
					"type": "bytes32"
				},
				{
					"internalType": "address",
					"name": "userAddr",
					"type": "address"
				}
			],
			"name": "userBalanceCount",
			"outputs": [
				{
					"internalType": "uint256",
					"name": "count",
					"type": "uint256"
				}
			],
			"stateMutability": "view",
			"type": "function"
		},
		{
			"inputs": [
				{
					"internalType": "uint256",
					"name": "amount",
					"type": "uint256"
				}
			],
			"name": "withdrawEth",
			"outputs": [],
			"stateMutability": "nonpayable",
			"type": "function"
		}
	]
}