{
	"data": {
		"bytecode": {
			"linkReferences": {
				"localhost/contracts/libraries/Proportional.sol": {
					"Proportional": [
						{
							"length": 20,
							"start": 1663
						}
					]
				}
			},
			"object": "60806040526a01a784379d99db4200000060065534801561001f57600080fd5b5060408051631213d11360e21b80825282519182900360049081018320600580546001818101835560008381527f036b6384b5eca791c62761152d0c79bb0604c104a5fb6f4eb0703f3154bb3db0928301949094556208ae8d60eb1b8752875196879003600301872083549182018455838552910155928452935192839003019091206100c19291904262278d00306114d86100c6602090811b91909117901c565b6101b9565b6100ce610198565b506040805160608101825260008082526020820181905291810182905260038801869055848855600188018490556002880180546001600160a01b0319166001600160a01b038516179055905b865481101561018e57600088600401600089848154811061013857fe5b60009182526020808320909101548352828101939093526040918201812080546001818101835591835291849020875160039093020191825592860151818401559085015160029091015591909101905061011b565b5050505050505050565b60405180606001604052806000815260200160008152602001600081525090565b6115e080620001c96000396000f3fe608060405234801561001057600080fd5b50600436106101215760003560e01c806362a1cdd5116100ad578063c203823611610071578063c203823614610359578063c68d21cd14610385578063d169aec1146103a8578063df14566e146103d4578063ef78d4fd1461040057610121565b806362a1cdd51461027f5780636c70bee9146102b757806391ed8c58146102ed5780639358928b14610325578063bae7be4f1461032d57610121565b80632b0eec97116100f45780632b0eec97146101f4578063363ecbc01461021157806340a319581461023d57806346debf31146102455780634f8c4a451461027757610121565b806302207eaa146101265780631504460f1461017a5780631d8f8f4b14610199578063284fef4b146101da575b600080fd5b6101526004803603604081101561013c57600080fd5b50803590602001356001600160a01b0316610408565b6040805194855260208501939093528383019190915215156060830152519081900360800190f35b6101976004803603602081101561019057600080fd5b503561042e565b005b6101bc600480360360408110156101af57600080fd5b5080359060200135610442565b60408051938452602084019290925282820152519081900360600190f35b6101e2610464565b60408051918252519081900360200190f35b6101e26004803603602081101561020a57600080fd5b503561047f565b6101e26004803603604081101561022757600080fd5b50803590602001356001600160a01b0316610497565b6101e26104b1565b6101bc6004803603606081101561025b57600080fd5b508035906001600160a01b036020820135169060400135610535565b6101e261055b565b6101976004803603608081101561029557600080fd5b508035906001600160a01b036020820135169060408101359060600135610577565b6102bf610591565b6040805194855260208501939093526001600160a01b03909116838301526060830152519081900360800190f35b6101976004803603608081101561030357600080fd5b508035906001600160a01b0360208201351690604081013590606001356105af565b6101e26105c3565b6101e26004803603604081101561034357600080fd5b50803590602001356001600160a01b03166105c9565b6101e26004803603604081101561036f57600080fd5b50803590602001356001600160a01b03166105dc565b6101976004803603604081101561039b57600080fd5b50803590602001356105ef565b6101bc600480360360408110156103be57600080fd5b50803590602001356001600160a01b0316610605565b6101e2600480360360408110156103ea57600080fd5b50803590602001356001600160a01b031661061a565b6101e261062d565b600080808061041e81878763ffffffff61063e16565b9299919850965090945092505050565b61043f60008263ffffffff61075a16565b50565b6000808061045781868663ffffffff61076616565b9250925092509250925092565b604080516208ae8d60eb1b8152905190819003600301902081565b6000610491818363ffffffff6107ec16565b92915050565b60006104aa81848463ffffffff61080116565b9392505050565b60008073__$c71035777a05953667b140521c1ffed0ee$__63d9782d4690916040518263ffffffff1660e01b81526004018082815260200191505060206040518083038186803b15801561050457600080fd5b505af4158015610518573d6000803e3d6000fd5b505050506040513d602081101561052e57600080fd5b5051919050565b6000808061054b8187878763ffffffff61083016565b9250925092505b93509350939050565b60408051631213d11360e21b8152905190819003600401902081565b61058b60008585858563ffffffff61089b16565b50505050565b6000806000806105a16000610a76565b935093509350935090919293565b61058b60008585858563ffffffff610a9916565b60065490565b60006104aa81848463ffffffff610c7516565b60006104aa81848463ffffffff610e2b16565b6106016000838363ffffffff610e9f16565b5050565b6000808061045781868663ffffffff610f9016565b60006104aa81848463ffffffff61102116565b60006106396000611096565b905090565b60008281526004840160209081526040808320600387015484528184206001600160a01b0386168552600180820190945291842060028101548185015483549195909487949390929091860111156106a0575060009550859250610751915050565b60008360000186815481106106b157fe5b60009182526020909120600390910201805483548115159750919250906001890111806106dc575085155b156106f05750600097506107519350505050565b600083600001898154811061070157fe5b60009182526020822060039190910201600181810154825491870154929450019184670de0b6b3a764000083028161073557fe5b049050670de0b6b3a7640000838202049c505050505050505050505b93509350935093565b61060182826000610e9f565b6000828152600484016020526040812080548291829181908690811061078857fe5b9060005260206000209060030201600001548160000186815481106107a957fe5b9060005260206000209060030201600101548260000187815481106107ca57fe5b9060005260206000209060030201600201549350935093505093509350939050565b60009081526004909101602052604090205490565b600082815260048401602090815260408083206001600160a01b03851684526001019091529020549392505050565b600083815260048501602090815260408083206001600160a01b038616845260018101909252822080548392839290918391908790811061086d57fe5b6000918252602090912060039091020180546001820154600290920154909b919a5098509650505050505050565b600084815260048601602090815260408083206001600160a01b0387168452600181019092528220909180806108d28a8a8a610f90565b92509250925060006108e38b611096565b905061091a8860405180604001604052806008815260200167283937b8102729a360c11b815250866110e09092919063ffffffff16565b93506109518760405180604001604052806008815260200167283937b8103739b360c11b815250846110e09092919063ffffffff16565b915061095b6114b7565b506040805160608082018352868252602080830186905282840185905283513381529081018e90528084018590526001600160a01b038d1691810191909152608081018b905260a081018a9052915190917fd8a7c80caa92de15995fb550a02b0921d0ec2c173b71ff94eaac5111eec710db919081900360c00190a18b600301548b1480156109e957508184105b15610a245785546001818101885560008881526020908190208451600390940201928355830151908201556040820151600290910155610a68565b8554819087906000198101908110610a3857fe5b90600052602060002090600302016000820151816000015560208201518160010155604082015181600201559050505b505050505050505050505050565b805460018201546002830154600390930154919390926001600160a01b03169190565b600084815260048601602090815260408083206001600160a01b038716845260018101909252822090918080610ad08a8a8a610f90565b865492955090935091506000610ae58c611096565b94890194928801929050610af76114b7565b506040805160608082018352878252602080830187905282840185905283513381529081018f90528084018590526001600160a01b038e1691810191909152608081018c905260a081018b9052915190917f34b2d1e14dd08f15cd0495453a3181c6aaffd6d2dc171dbf7c52b3d18cf35b75919081900360c00190a1600083118015610b9057508c600301548c141580610b9057508185145b15610be45780876000016001850381548110610ba857fe5b90600052602060002090600302016000820151816000015560208201518160010155604082015181600201559050505050505050505050610c6e565b82610c30576001610bf58e8e6107ec565b0360018801819055885483918a918110610c0b57fe5b9060005260206000209060030201600201541015610c30576001808801805490910190555b865460018181018955600098895260209889902083516003909302019182559782015197810197909755604001516002909601959095555050505050505b5050505050565b60008281526004840160209081526040808320600387015484528184206001600160a01b0386168552600180830185528386209082019094529184208154919391859085906000198101908110610cc857fe5b90600052602060002090600302019050610ce189611096565b81600201541015610cf657610cf68989611177565b6000806000610d068c8c8c61063e565b929b509094509250905080610d26576000985050505050505050506104aa565b600284015460408051338152602081018e905280820192909252606082018b90526080820185905260a08201849052517f703e744cb3ae9492e7b192242cd2a9916b267e8be750ff02a0961442d87ac6099181900360c00190a1610d8e8c8c8c8c6000610a99565b6000610d9a868561127c565b90506000610da88e856112c6565b9050610db68e8e8e87611325565b895460018901541415610de1575050855460001901600290960195909555506104aa95505050505050565b808211610e1a57610df48e8e8e88611378565b610dff8e8e8e61063e565b929d5090965094509250610e13878661127c565b9150610de1565b505050505050505050509392505050565b6000828152600484016020526040812081610e47868686610801565b905080610e59576000925050506104aa565b6001600160a01b0384166000908152600183016020526040812080546000198401908110610e8357fe5b6000918252602090912060039091020154979650505050505050565b60008281526004840160205260408120805490919082906000198101908110610ec457fe5b90600052602060002090600302019050610edd85611096565b81600201541015610f1557610ef28585611177565b815482906000198101908110610f0457fe5b906000526020600020906003020190505b6001810154610f2a908463ffffffff6113e416565b60018201557f96709d4288825181c14df06e5002029d4207c82a70441a8338901b54c05a83323385610f5b88611096565b604080516001600160a01b03909416845260208401929092528282015260608201869052519081900360800190a15050505050565b600082815260048401602052604081208190819081610fb0888888610801565b905080610fc95750600093508392508291506105529050565b6001600160a01b0386166000908152600183016020526040812080546000198401908110610ff357fe5b6000918252602090912060039091020180546002820154600190920154909b919a5098509650505050505050565b600082815260048401602052604081208161103d868686610801565b90508061104f576000925050506104aa565b6001600160a01b038416600090815260018301602052604090208054600019830190811061107957fe5b906000526020600020906003020160010154925050509392505050565b8054604080518082019091526004815263281a981960e11b602082015260009182916110c991429163ffffffff6110e016565b9050826001015481816110d857fe5b049392505050565b6000818484111561116f5760405162461bcd60e51b81526004018080602001828103825283818151815260200191508051906020019080838360005b8381101561113457818101518382015260200161111c565b50505050905090810190601f1680156111615780820380516001836020036101000a031916815260200191505b509250505060405180910390fd5b505050900390565b6000818152600483016020526040812080549091908290600019810190811061119c57fe5b9060005260206000209060030201905060006111b785611096565b90506111c28561143e565b82556111cc6114b7565b50604080516060808201835260008083526020808401828152848601878152895460018181018c558b8652948490208751600390920201908155915182850155516002918201559187015487549288015486513381529283018b90528287019190915292810191909152608081019190915260a08101849052915190917f0d4b8133b244cfec82d848130189d3c9787263ecbcf6d4432f2d167642547d90919081900360c00190a1505050505050565b81546000906001830110156112b65782600001826001018154811061129d57fe5b9060005260206000209060030201600201549050610491565b50670de0b6b3a764000092915050565b6003820154600090815260048301602052604081208054600184011015611312578060000183600101815481106112f957fe5b906000526020600020906003020160020154915061131e565b670de0b6b3a763ffff91505b5092915050565b6003840154600090815260048501602052604090205481101561058b57600083815260048501602090815260408083206001600160a01b0386168452600190810190925290912081830191015550505050565b6003840154600090815260048501602090815260408083206001600160a01b038616845260010190915290205481101561058b576000928352600493909301602090815260408084206001600160a01b0393909316845260019283019091529091209101600290910155565b6000828201838110156104aa576040805162461bcd60e51b815260206004820152601b60248201527f536166654d6174683a206164646974696f6e206f766572666c6f770000000000604482015290519081900360640190fd5b600281015460408051639358928b60e01b815290516000926001600160a01b031691639358928b916004808301926020929190829003018186803b15801561148557600080fd5b505afa158015611499573d6000803e3d6000fd5b505050506040513d60208110156114af57600080fd5b505192915050565b60405180606001604052806000815260200160008152602001600081525090565b6114e06114b7565b506040805160608101825260008082526020820181905291810182905260038801869055848855600188018490556002880180546001600160a01b0319166001600160a01b038516179055905b86548110156115a057600088600401600089848154811061154a57fe5b60009182526020808320909101548352828101939093526040918201812080546001818101835591835291849020875160039093020191825592860151818401559085015160029091015591909101905061152d565b505050505050505056fea2646970667358221220b32b2f3dc5ab6bde9cc58b41c612874dd5515e5c53daff477b9b5c2152d8b1c564736f6c63430006060033",
			"opcodes": "PUSH1 0x80 PUSH1 0x40 MSTORE PUSH11 0x1A784379D99DB42000000 PUSH1 0x6 SSTORE CALLVALUE DUP1 ISZERO PUSH2 0x1F JUMPI PUSH1 0x0 DUP1 REVERT JUMPDEST POP PUSH1 0x40 DUP1 MLOAD PUSH4 0x1213D113 PUSH1 0xE2 SHL DUP1 DUP3 MSTORE DUP3 MLOAD SWAP2 DUP3 SWAP1 SUB PUSH1 0x4 SWAP1 DUP2 ADD DUP4 KECCAK256 PUSH1 0x5 DUP1 SLOAD PUSH1 0x1 DUP2 DUP2 ADD DUP4 SSTORE PUSH1 0x0 DUP4 DUP2 MSTORE PUSH32 0x36B6384B5ECA791C62761152D0C79BB0604C104A5FB6F4EB0703F3154BB3DB0 SWAP3 DUP4 ADD SWAP5 SWAP1 SWAP5 SSTORE PUSH3 0x8AE8D PUSH1 0xEB SHL DUP8 MSTORE DUP8 MLOAD SWAP7 DUP8 SWAP1 SUB PUSH1 0x3 ADD DUP8 KECCAK256 DUP4 SLOAD SWAP2 DUP3 ADD DUP5 SSTORE DUP4 DUP6 MSTORE SWAP2 ADD SSTORE SWAP3 DUP5 MSTORE SWAP4 MLOAD SWAP3 DUP4 SWAP1 SUB ADD SWAP1 SWAP2 KECCAK256 PUSH2 0xC1 SWAP3 SWAP2 SWAP1 TIMESTAMP PUSH3 0x278D00 ADDRESS PUSH2 0x14D8 PUSH2 0xC6 PUSH1 0x20 SWAP1 DUP2 SHL SWAP2 SWAP1 SWAP2 OR SWAP1 SHR JUMP JUMPDEST PUSH2 0x1B9 JUMP JUMPDEST PUSH2 0xCE PUSH2 0x198 JUMP JUMPDEST POP PUSH1 0x40 DUP1 MLOAD PUSH1 0x60 DUP2 ADD DUP3 MSTORE PUSH1 0x0 DUP1 DUP3 MSTORE PUSH1 0x20 DUP3 ADD DUP2 SWAP1 MSTORE SWAP2 DUP2 ADD DUP3 SWAP1 MSTORE PUSH1 0x3 DUP9 ADD DUP7 SWAP1 SSTORE DUP5 DUP9 SSTORE PUSH1 0x1 DUP9 ADD DUP5 SWAP1 SSTORE PUSH1 0x2 DUP9 ADD DUP1 SLOAD PUSH1 0x1 PUSH1 0x1 PUSH1 0xA0 SHL SUB NOT AND PUSH1 0x1 PUSH1 0x1 PUSH1 0xA0 SHL SUB DUP6 AND OR SWAP1 SSTORE SWAP1 JUMPDEST DUP7 SLOAD DUP2 LT ISZERO PUSH2 0x18E JUMPI PUSH1 0x0 DUP9 PUSH1 0x4 ADD PUSH1 0x0 DUP10 DUP5 DUP2 SLOAD DUP2 LT PUSH2 0x138 JUMPI INVALID JUMPDEST PUSH1 0x0 SWAP2 DUP3 MSTORE PUSH1 0x20 DUP1 DUP4 KECCAK256 SWAP1 SWAP2 ADD SLOAD DUP4 MSTORE DUP3 DUP2 ADD SWAP4 SWAP1 SWAP4 MSTORE PUSH1 0x40 SWAP2 DUP3 ADD DUP2 KECCAK256 DUP1 SLOAD PUSH1 0x1 DUP2 DUP2 ADD DUP4 SSTORE SWAP2 DUP4 MSTORE SWAP2 DUP5 SWAP1 KECCAK256 DUP8 MLOAD PUSH1 0x3 SWAP1 SWAP4 MUL ADD SWAP2 DUP3 SSTORE SWAP3 DUP7 ADD MLOAD DUP2 DUP5 ADD SSTORE SWAP1 DUP6 ADD MLOAD PUSH1 0x2 SWAP1 SWAP2 ADD SSTORE SWAP2 SWAP1 SWAP2 ADD SWAP1 POP PUSH2 0x11B JUMP JUMPDEST POP POP POP POP POP POP POP POP JUMP JUMPDEST PUSH1 0x40 MLOAD DUP1 PUSH1 0x60 ADD PUSH1 0x40 MSTORE DUP1 PUSH1 0x0 DUP2 MSTORE PUSH1 0x20 ADD PUSH1 0x0 DUP2 MSTORE PUSH1 0x20 ADD PUSH1 0x0 DUP2 MSTORE POP SWAP1 JUMP JUMPDEST PUSH2 0x15E0 DUP1 PUSH3 0x1C9 PUSH1 0x0 CODECOPY PUSH1 0x0 RETURN INVALID PUSH1 0x80 PUSH1 0x40 MSTORE CALLVALUE DUP1 ISZERO PUSH2 0x10 JUMPI PUSH1 0x0 DUP1 REVERT JUMPDEST POP PUSH1 0x4 CALLDATASIZE LT PUSH2 0x121 JUMPI PUSH1 0x0 CALLDATALOAD PUSH1 0xE0 SHR DUP1 PUSH4 0x62A1CDD5 GT PUSH2 0xAD JUMPI DUP1 PUSH4 0xC2038236 GT PUSH2 0x71 JUMPI DUP1 PUSH4 0xC2038236 EQ PUSH2 0x359 JUMPI DUP1 PUSH4 0xC68D21CD EQ PUSH2 0x385 JUMPI DUP1 PUSH4 0xD169AEC1 EQ PUSH2 0x3A8 JUMPI DUP1 PUSH4 0xDF14566E EQ PUSH2 0x3D4 JUMPI DUP1 PUSH4 0xEF78D4FD EQ PUSH2 0x400 JUMPI PUSH2 0x121 JUMP JUMPDEST DUP1 PUSH4 0x62A1CDD5 EQ PUSH2 0x27F JUMPI DUP1 PUSH4 0x6C70BEE9 EQ PUSH2 0x2B7 JUMPI DUP1 PUSH4 0x91ED8C58 EQ PUSH2 0x2ED JUMPI DUP1 PUSH4 0x9358928B EQ PUSH2 0x325 JUMPI DUP1 PUSH4 0xBAE7BE4F EQ PUSH2 0x32D JUMPI PUSH2 0x121 JUMP JUMPDEST DUP1 PUSH4 0x2B0EEC97 GT PUSH2 0xF4 JUMPI DUP1 PUSH4 0x2B0EEC97 EQ PUSH2 0x1F4 JUMPI DUP1 PUSH4 0x363ECBC0 EQ PUSH2 0x211 JUMPI DUP1 PUSH4 0x40A31958 EQ PUSH2 0x23D JUMPI DUP1 PUSH4 0x46DEBF31 EQ PUSH2 0x245 JUMPI DUP1 PUSH4 0x4F8C4A45 EQ PUSH2 0x277 JUMPI PUSH2 0x121 JUMP JUMPDEST DUP1 PUSH4 0x2207EAA EQ PUSH2 0x126 JUMPI DUP1 PUSH4 0x1504460F EQ PUSH2 0x17A JUMPI DUP1 PUSH4 0x1D8F8F4B EQ PUSH2 0x199 JUMPI DUP1 PUSH4 0x284FEF4B EQ PUSH2 0x1DA JUMPI JUMPDEST PUSH1 0x0 DUP1 REVERT JUMPDEST PUSH2 0x152 PUSH1 0x4 DUP1 CALLDATASIZE SUB PUSH1 0x40 DUP2 LT ISZERO PUSH2 0x13C JUMPI PUSH1 0x0 DUP1 REVERT JUMPDEST POP DUP1 CALLDATALOAD SWAP1 PUSH1 0x20 ADD CALLDATALOAD PUSH1 0x1 PUSH1 0x1 PUSH1 0xA0 SHL SUB AND PUSH2 0x408 JUMP JUMPDEST PUSH1 0x40 DUP1 MLOAD SWAP5 DUP6 MSTORE PUSH1 0x20 DUP6 ADD SWAP4 SWAP1 SWAP4 MSTORE DUP4 DUP4 ADD SWAP2 SWAP1 SWAP2 MSTORE ISZERO ISZERO PUSH1 0x60 DUP4 ADD MSTORE MLOAD SWAP1 DUP2 SWAP1 SUB PUSH1 0x80 ADD SWAP1 RETURN JUMPDEST PUSH2 0x197 PUSH1 0x4 DUP1 CALLDATASIZE SUB PUSH1 0x20 DUP2 LT ISZERO PUSH2 0x190 JUMPI PUSH1 0x0 DUP1 REVERT JUMPDEST POP CALLDATALOAD PUSH2 0x42E JUMP JUMPDEST STOP JUMPDEST PUSH2 0x1BC PUSH1 0x4 DUP1 CALLDATASIZE SUB PUSH1 0x40 DUP2 LT ISZERO PUSH2 0x1AF JUMPI PUSH1 0x0 DUP1 REVERT JUMPDEST POP DUP1 CALLDATALOAD SWAP1 PUSH1 0x20 ADD CALLDATALOAD PUSH2 0x442 JUMP JUMPDEST PUSH1 0x40 DUP1 MLOAD SWAP4 DUP5 MSTORE PUSH1 0x20 DUP5 ADD SWAP3 SWAP1 SWAP3 MSTORE DUP3 DUP3 ADD MSTORE MLOAD SWAP1 DUP2 SWAP1 SUB PUSH1 0x60 ADD SWAP1 RETURN JUMPDEST PUSH2 0x1E2 PUSH2 0x464 JUMP JUMPDEST PUSH1 0x40 DUP1 MLOAD SWAP2 DUP3 MSTORE MLOAD SWAP1 DUP2 SWAP1 SUB PUSH1 0x20 ADD SWAP1 RETURN JUMPDEST PUSH2 0x1E2 PUSH1 0x4 DUP1 CALLDATASIZE SUB PUSH1 0x20 DUP2 LT ISZERO PUSH2 0x20A JUMPI PUSH1 0x0 DUP1 REVERT JUMPDEST POP CALLDATALOAD PUSH2 0x47F JUMP JUMPDEST PUSH2 0x1E2 PUSH1 0x4 DUP1 CALLDATASIZE SUB PUSH1 0x40 DUP2 LT ISZERO PUSH2 0x227 JUMPI PUSH1 0x0 DUP1 REVERT JUMPDEST POP DUP1 CALLDATALOAD SWAP1 PUSH1 0x20 ADD CALLDATALOAD PUSH1 0x1 PUSH1 0x1 PUSH1 0xA0 SHL SUB AND PUSH2 0x497 JUMP JUMPDEST PUSH2 0x1E2 PUSH2 0x4B1 JUMP JUMPDEST PUSH2 0x1BC PUSH1 0x4 DUP1 CALLDATASIZE SUB PUSH1 0x60 DUP2 LT ISZERO PUSH2 0x25B JUMPI PUSH1 0x0 DUP1 REVERT JUMPDEST POP DUP1 CALLDATALOAD SWAP1 PUSH1 0x1 PUSH1 0x1 PUSH1 0xA0 SHL SUB PUSH1 0x20 DUP3 ADD CALLDATALOAD AND SWAP1 PUSH1 0x40 ADD CALLDATALOAD PUSH2 0x535 JUMP JUMPDEST PUSH2 0x1E2 PUSH2 0x55B JUMP JUMPDEST PUSH2 0x197 PUSH1 0x4 DUP1 CALLDATASIZE SUB PUSH1 0x80 DUP2 LT ISZERO PUSH2 0x295 JUMPI PUSH1 0x0 DUP1 REVERT JUMPDEST POP DUP1 CALLDATALOAD SWAP1 PUSH1 0x1 PUSH1 0x1 PUSH1 0xA0 SHL SUB PUSH1 0x20 DUP3 ADD CALLDATALOAD AND SWAP1 PUSH1 0x40 DUP2 ADD CALLDATALOAD SWAP1 PUSH1 0x60 ADD CALLDATALOAD PUSH2 0x577 JUMP JUMPDEST PUSH2 0x2BF PUSH2 0x591 JUMP JUMPDEST PUSH1 0x40 DUP1 MLOAD SWAP5 DUP6 MSTORE PUSH1 0x20 DUP6 ADD SWAP4 SWAP1 SWAP4 MSTORE PUSH1 0x1 PUSH1 0x1 PUSH1 0xA0 SHL SUB SWAP1 SWAP2 AND DUP4 DUP4 ADD MSTORE PUSH1 0x60 DUP4 ADD MSTORE MLOAD SWAP1 DUP2 SWAP1 SUB PUSH1 0x80 ADD SWAP1 RETURN JUMPDEST PUSH2 0x197 PUSH1 0x4 DUP1 CALLDATASIZE SUB PUSH1 0x80 DUP2 LT ISZERO PUSH2 0x303 JUMPI PUSH1 0x0 DUP1 REVERT JUMPDEST POP DUP1 CALLDATALOAD SWAP1 PUSH1 0x1 PUSH1 0x1 PUSH1 0xA0 SHL SUB PUSH1 0x20 DUP3 ADD CALLDATALOAD AND SWAP1 PUSH1 0x40 DUP2 ADD CALLDATALOAD SWAP1 PUSH1 0x60 ADD CALLDATALOAD PUSH2 0x5AF JUMP JUMPDEST PUSH2 0x1E2 PUSH2 0x5C3 JUMP JUMPDEST PUSH2 0x1E2 PUSH1 0x4 DUP1 CALLDATASIZE SUB PUSH1 0x40 DUP2 LT ISZERO PUSH2 0x343 JUMPI PUSH1 0x0 DUP1 REVERT JUMPDEST POP DUP1 CALLDATALOAD SWAP1 PUSH1 0x20 ADD CALLDATALOAD PUSH1 0x1 PUSH1 0x1 PUSH1 0xA0 SHL SUB AND PUSH2 0x5C9 JUMP JUMPDEST PUSH2 0x1E2 PUSH1 0x4 DUP1 CALLDATASIZE SUB PUSH1 0x40 DUP2 LT ISZERO PUSH2 0x36F JUMPI PUSH1 0x0 DUP1 REVERT JUMPDEST POP DUP1 CALLDATALOAD SWAP1 PUSH1 0x20 ADD CALLDATALOAD PUSH1 0x1 PUSH1 0x1 PUSH1 0xA0 SHL SUB AND PUSH2 0x5DC JUMP JUMPDEST PUSH2 0x197 PUSH1 0x4 DUP1 CALLDATASIZE SUB PUSH1 0x40 DUP2 LT ISZERO PUSH2 0x39B JUMPI PUSH1 0x0 DUP1 REVERT JUMPDEST POP DUP1 CALLDATALOAD SWAP1 PUSH1 0x20 ADD CALLDATALOAD PUSH2 0x5EF JUMP JUMPDEST PUSH2 0x1BC PUSH1 0x4 DUP1 CALLDATASIZE SUB PUSH1 0x40 DUP2 LT ISZERO PUSH2 0x3BE JUMPI PUSH1 0x0 DUP1 REVERT JUMPDEST POP DUP1 CALLDATALOAD SWAP1 PUSH1 0x20 ADD CALLDATALOAD PUSH1 0x1 PUSH1 0x1 PUSH1 0xA0 SHL SUB AND PUSH2 0x605 JUMP JUMPDEST PUSH2 0x1E2 PUSH1 0x4 DUP1 CALLDATASIZE SUB PUSH1 0x40 DUP2 LT ISZERO PUSH2 0x3EA JUMPI PUSH1 0x0 DUP1 REVERT JUMPDEST POP DUP1 CALLDATALOAD SWAP1 PUSH1 0x20 ADD CALLDATALOAD PUSH1 0x1 PUSH1 0x1 PUSH1 0xA0 SHL SUB AND PUSH2 0x61A JUMP JUMPDEST PUSH2 0x1E2 PUSH2 0x62D JUMP JUMPDEST PUSH1 0x0 DUP1 DUP1 DUP1 PUSH2 0x41E DUP2 DUP8 DUP8 PUSH4 0xFFFFFFFF PUSH2 0x63E AND JUMP JUMPDEST SWAP3 SWAP10 SWAP2 SWAP9 POP SWAP7 POP SWAP1 SWAP5 POP SWAP3 POP POP POP JUMP JUMPDEST PUSH2 0x43F PUSH1 0x0 DUP3 PUSH4 0xFFFFFFFF PUSH2 0x75A AND JUMP JUMPDEST POP JUMP JUMPDEST PUSH1 0x0 DUP1 DUP1 PUSH2 0x457 DUP2 DUP7 DUP7 PUSH4 0xFFFFFFFF PUSH2 0x766 AND JUMP JUMPDEST SWAP3 POP SWAP3 POP SWAP3 POP SWAP3 POP SWAP3 POP SWAP3 JUMP JUMPDEST PUSH1 0x40 DUP1 MLOAD PUSH3 0x8AE8D PUSH1 0xEB SHL DUP2 MSTORE SWAP1 MLOAD SWAP1 DUP2 SWAP1 SUB PUSH1 0x3 ADD SWAP1 KECCAK256 DUP2 JUMP JUMPDEST PUSH1 0x0 PUSH2 0x491 DUP2 DUP4 PUSH4 0xFFFFFFFF PUSH2 0x7EC AND JUMP JUMPDEST SWAP3 SWAP2 POP POP JUMP JUMPDEST PUSH1 0x0 PUSH2 0x4AA DUP2 DUP5 DUP5 PUSH4 0xFFFFFFFF PUSH2 0x801 AND JUMP JUMPDEST SWAP4 SWAP3 POP POP POP JUMP JUMPDEST PUSH1 0x0 DUP1 PUSH20 0x0 PUSH4 0xD9782D46 SWAP1 SWAP2 PUSH1 0x40 MLOAD DUP3 PUSH4 0xFFFFFFFF AND PUSH1 0xE0 SHL DUP2 MSTORE PUSH1 0x4 ADD DUP1 DUP3 DUP2 MSTORE PUSH1 0x20 ADD SWAP2 POP POP PUSH1 0x20 PUSH1 0x40 MLOAD DUP1 DUP4 SUB DUP2 DUP7 DUP1 EXTCODESIZE ISZERO DUP1 ISZERO PUSH2 0x504 JUMPI PUSH1 0x0 DUP1 REVERT JUMPDEST POP GAS DELEGATECALL ISZERO DUP1 ISZERO PUSH2 0x518 JUMPI RETURNDATASIZE PUSH1 0x0 DUP1 RETURNDATACOPY RETURNDATASIZE PUSH1 0x0 REVERT JUMPDEST POP POP POP POP PUSH1 0x40 MLOAD RETURNDATASIZE PUSH1 0x20 DUP2 LT ISZERO PUSH2 0x52E JUMPI PUSH1 0x0 DUP1 REVERT JUMPDEST POP MLOAD SWAP2 SWAP1 POP JUMP JUMPDEST PUSH1 0x0 DUP1 DUP1 PUSH2 0x54B DUP2 DUP8 DUP8 DUP8 PUSH4 0xFFFFFFFF PUSH2 0x830 AND JUMP JUMPDEST SWAP3 POP SWAP3 POP SWAP3 POP JUMPDEST SWAP4 POP SWAP4 POP SWAP4 SWAP1 POP JUMP JUMPDEST PUSH1 0x40 DUP1 MLOAD PUSH4 0x1213D113 PUSH1 0xE2 SHL DUP2 MSTORE SWAP1 MLOAD SWAP1 DUP2 SWAP1 SUB PUSH1 0x4 ADD SWAP1 KECCAK256 DUP2 JUMP JUMPDEST PUSH2 0x58B PUSH1 0x0 DUP6 DUP6 DUP6 DUP6 PUSH4 0xFFFFFFFF PUSH2 0x89B AND JUMP JUMPDEST POP POP POP POP JUMP JUMPDEST PUSH1 0x0 DUP1 PUSH1 0x0 DUP1 PUSH2 0x5A1 PUSH1 0x0 PUSH2 0xA76 JUMP JUMPDEST SWAP4 POP SWAP4 POP SWAP4 POP SWAP4 POP SWAP1 SWAP2 SWAP3 SWAP4 JUMP JUMPDEST PUSH2 0x58B PUSH1 0x0 DUP6 DUP6 DUP6 DUP6 PUSH4 0xFFFFFFFF PUSH2 0xA99 AND JUMP JUMPDEST PUSH1 0x6 SLOAD SWAP1 JUMP JUMPDEST PUSH1 0x0 PUSH2 0x4AA DUP2 DUP5 DUP5 PUSH4 0xFFFFFFFF PUSH2 0xC75 AND JUMP JUMPDEST PUSH1 0x0 PUSH2 0x4AA DUP2 DUP5 DUP5 PUSH4 0xFFFFFFFF PUSH2 0xE2B AND JUMP JUMPDEST PUSH2 0x601 PUSH1 0x0 DUP4 DUP4 PUSH4 0xFFFFFFFF PUSH2 0xE9F AND JUMP JUMPDEST POP POP JUMP JUMPDEST PUSH1 0x0 DUP1 DUP1 PUSH2 0x457 DUP2 DUP7 DUP7 PUSH4 0xFFFFFFFF PUSH2 0xF90 AND JUMP JUMPDEST PUSH1 0x0 PUSH2 0x4AA DUP2 DUP5 DUP5 PUSH4 0xFFFFFFFF PUSH2 0x1021 AND JUMP JUMPDEST PUSH1 0x0 PUSH2 0x639 PUSH1 0x0 PUSH2 0x1096 JUMP JUMPDEST SWAP1 POP SWAP1 JUMP JUMPDEST PUSH1 0x0 DUP3 DUP2 MSTORE PUSH1 0x4 DUP5 ADD PUSH1 0x20 SWAP1 DUP2 MSTORE PUSH1 0x40 DUP1 DUP4 KECCAK256 PUSH1 0x3 DUP8 ADD SLOAD DUP5 MSTORE DUP2 DUP5 KECCAK256 PUSH1 0x1 PUSH1 0x1 PUSH1 0xA0 SHL SUB DUP7 AND DUP6 MSTORE PUSH1 0x1 DUP1 DUP3 ADD SWAP1 SWAP5 MSTORE SWAP2 DUP5 KECCAK256 PUSH1 0x2 DUP2 ADD SLOAD DUP2 DUP6 ADD SLOAD DUP4 SLOAD SWAP2 SWAP6 SWAP1 SWAP5 DUP8 SWAP5 SWAP4 SWAP1 SWAP3 SWAP1 SWAP2 DUP7 ADD GT ISZERO PUSH2 0x6A0 JUMPI POP PUSH1 0x0 SWAP6 POP DUP6 SWAP3 POP PUSH2 0x751 SWAP2 POP POP JUMP JUMPDEST PUSH1 0x0 DUP4 PUSH1 0x0 ADD DUP7 DUP2 SLOAD DUP2 LT PUSH2 0x6B1 JUMPI INVALID JUMPDEST PUSH1 0x0 SWAP2 DUP3 MSTORE PUSH1 0x20 SWAP1 SWAP2 KECCAK256 PUSH1 0x3 SWAP1 SWAP2 MUL ADD DUP1 SLOAD DUP4 SLOAD DUP2 ISZERO ISZERO SWAP8 POP SWAP2 SWAP3 POP SWAP1 PUSH1 0x1 DUP10 ADD GT DUP1 PUSH2 0x6DC JUMPI POP DUP6 ISZERO JUMPDEST ISZERO PUSH2 0x6F0 JUMPI POP PUSH1 0x0 SWAP8 POP PUSH2 0x751 SWAP4 POP POP POP POP JUMP JUMPDEST PUSH1 0x0 DUP4 PUSH1 0x0 ADD DUP10 DUP2 SLOAD DUP2 LT PUSH2 0x701 JUMPI INVALID JUMPDEST PUSH1 0x0 SWAP2 DUP3 MSTORE PUSH1 0x20 DUP3 KECCAK256 PUSH1 0x3 SWAP2 SWAP1 SWAP2 MUL ADD PUSH1 0x1 DUP2 DUP2 ADD SLOAD DUP3 SLOAD SWAP2 DUP8 ADD SLOAD SWAP3 SWAP5 POP ADD SWAP2 DUP5 PUSH8 0xDE0B6B3A7640000 DUP4 MUL DUP2 PUSH2 0x735 JUMPI INVALID JUMPDEST DIV SWAP1 POP PUSH8 0xDE0B6B3A7640000 DUP4 DUP3 MUL DIV SWAP13 POP POP POP POP POP POP POP POP POP POP JUMPDEST SWAP4 POP SWAP4 POP SWAP4 POP SWAP4 JUMP JUMPDEST PUSH2 0x601 DUP3 DUP3 PUSH1 0x0 PUSH2 0xE9F JUMP JUMPDEST PUSH1 0x0 DUP3 DUP2 MSTORE PUSH1 0x4 DUP5 ADD PUSH1 0x20 MSTORE PUSH1 0x40 DUP2 KECCAK256 DUP1 SLOAD DUP3 SWAP2 DUP3 SWAP2 DUP2 SWAP1 DUP7 SWAP1 DUP2 LT PUSH2 0x788 JUMPI INVALID JUMPDEST SWAP1 PUSH1 0x0 MSTORE PUSH1 0x20 PUSH1 0x0 KECCAK256 SWAP1 PUSH1 0x3 MUL ADD PUSH1 0x0 ADD SLOAD DUP2 PUSH1 0x0 ADD DUP7 DUP2 SLOAD DUP2 LT PUSH2 0x7A9 JUMPI INVALID JUMPDEST SWAP1 PUSH1 0x0 MSTORE PUSH1 0x20 PUSH1 0x0 KECCAK256 SWAP1 PUSH1 0x3 MUL ADD PUSH1 0x1 ADD SLOAD DUP3 PUSH1 0x0 ADD DUP8 DUP2 SLOAD DUP2 LT PUSH2 0x7CA JUMPI INVALID JUMPDEST SWAP1 PUSH1 0x0 MSTORE PUSH1 0x20 PUSH1 0x0 KECCAK256 SWAP1 PUSH1 0x3 MUL ADD PUSH1 0x2 ADD SLOAD SWAP4 POP SWAP4 POP SWAP4 POP POP SWAP4 POP SWAP4 POP SWAP4 SWAP1 POP JUMP JUMPDEST PUSH1 0x0 SWAP1 DUP2 MSTORE PUSH1 0x4 SWAP1 SWAP2 ADD PUSH1 0x20 MSTORE PUSH1 0x40 SWAP1 KECCAK256 SLOAD SWAP1 JUMP JUMPDEST PUSH1 0x0 DUP3 DUP2 MSTORE PUSH1 0x4 DUP5 ADD PUSH1 0x20 SWAP1 DUP2 MSTORE PUSH1 0x40 DUP1 DUP4 KECCAK256 PUSH1 0x1 PUSH1 0x1 PUSH1 0xA0 SHL SUB DUP6 AND DUP5 MSTORE PUSH1 0x1 ADD SWAP1 SWAP2 MSTORE SWAP1 KECCAK256 SLOAD SWAP4 SWAP3 POP POP POP JUMP JUMPDEST PUSH1 0x0 DUP4 DUP2 MSTORE PUSH1 0x4 DUP6 ADD PUSH1 0x20 SWAP1 DUP2 MSTORE PUSH1 0x40 DUP1 DUP4 KECCAK256 PUSH1 0x1 PUSH1 0x1 PUSH1 0xA0 SHL SUB DUP7 AND DUP5 MSTORE PUSH1 0x1 DUP2 ADD SWAP1 SWAP3 MSTORE DUP3 KECCAK256 DUP1 SLOAD DUP4 SWAP3 DUP4 SWAP3 SWAP1 SWAP2 DUP4 SWAP2 SWAP1 DUP8 SWAP1 DUP2 LT PUSH2 0x86D JUMPI INVALID JUMPDEST PUSH1 0x0 SWAP2 DUP3 MSTORE PUSH1 0x20 SWAP1 SWAP2 KECCAK256 PUSH1 0x3 SWAP1 SWAP2 MUL ADD DUP1 SLOAD PUSH1 0x1 DUP3 ADD SLOAD PUSH1 0x2 SWAP1 SWAP3 ADD SLOAD SWAP1 SWAP12 SWAP2 SWAP11 POP SWAP9 POP SWAP7 POP POP POP POP POP POP POP JUMP JUMPDEST PUSH1 0x0 DUP5 DUP2 MSTORE PUSH1 0x4 DUP7 ADD PUSH1 0x20 SWAP1 DUP2 MSTORE PUSH1 0x40 DUP1 DUP4 KECCAK256 PUSH1 0x1 PUSH1 0x1 PUSH1 0xA0 SHL SUB DUP8 AND DUP5 MSTORE PUSH1 0x1 DUP2 ADD SWAP1 SWAP3 MSTORE DUP3 KECCAK256 SWAP1 SWAP2 DUP1 DUP1 PUSH2 0x8D2 DUP11 DUP11 DUP11 PUSH2 0xF90 JUMP JUMPDEST SWAP3 POP SWAP3 POP SWAP3 POP PUSH1 0x0 PUSH2 0x8E3 DUP12 PUSH2 0x1096 JUMP JUMPDEST SWAP1 POP PUSH2 0x91A DUP9 PUSH1 0x40 MLOAD DUP1 PUSH1 0x40 ADD PUSH1 0x40 MSTORE DUP1 PUSH1 0x8 DUP2 MSTORE PUSH1 0x20 ADD PUSH8 0x283937B8102729A3 PUSH1 0xC1 SHL DUP2 MSTORE POP DUP7 PUSH2 0x10E0 SWAP1 SWAP3 SWAP2 SWAP1 PUSH4 0xFFFFFFFF AND JUMP JUMPDEST SWAP4 POP PUSH2 0x951 DUP8 PUSH1 0x40 MLOAD DUP1 PUSH1 0x40 ADD PUSH1 0x40 MSTORE DUP1 PUSH1 0x8 DUP2 MSTORE PUSH1 0x20 ADD PUSH8 0x283937B8103739B3 PUSH1 0xC1 SHL DUP2 MSTORE POP DUP5 PUSH2 0x10E0 SWAP1 SWAP3 SWAP2 SWAP1 PUSH4 0xFFFFFFFF AND JUMP JUMPDEST SWAP2 POP PUSH2 0x95B PUSH2 0x14B7 JUMP JUMPDEST POP PUSH1 0x40 DUP1 MLOAD PUSH1 0x60 DUP1 DUP3 ADD DUP4 MSTORE DUP7 DUP3 MSTORE PUSH1 0x20 DUP1 DUP4 ADD DUP7 SWAP1 MSTORE DUP3 DUP5 ADD DUP6 SWAP1 MSTORE DUP4 MLOAD CALLER DUP2 MSTORE SWAP1 DUP2 ADD DUP15 SWAP1 MSTORE DUP1 DUP5 ADD DUP6 SWAP1 MSTORE PUSH1 0x1 PUSH1 0x1 PUSH1 0xA0 SHL SUB DUP14 AND SWAP2 DUP2 ADD SWAP2 SWAP1 SWAP2 MSTORE PUSH1 0x80 DUP2 ADD DUP12 SWAP1 MSTORE PUSH1 0xA0 DUP2 ADD DUP11 SWAP1 MSTORE SWAP2 MLOAD SWAP1 SWAP2 PUSH32 0xD8A7C80CAA92DE15995FB550A02B0921D0EC2C173B71FF94EAAC5111EEC710DB SWAP2 SWAP1 DUP2 SWAP1 SUB PUSH1 0xC0 ADD SWAP1 LOG1 DUP12 PUSH1 0x3 ADD SLOAD DUP12 EQ DUP1 ISZERO PUSH2 0x9E9 JUMPI POP DUP2 DUP5 LT JUMPDEST ISZERO PUSH2 0xA24 JUMPI DUP6 SLOAD PUSH1 0x1 DUP2 DUP2 ADD DUP9 SSTORE PUSH1 0x0 DUP9 DUP2 MSTORE PUSH1 0x20 SWAP1 DUP2 SWAP1 KECCAK256 DUP5 MLOAD PUSH1 0x3 SWAP1 SWAP5 MUL ADD SWAP3 DUP4 SSTORE DUP4 ADD MLOAD SWAP1 DUP3 ADD SSTORE PUSH1 0x40 DUP3 ADD MLOAD PUSH1 0x2 SWAP1 SWAP2 ADD SSTORE PUSH2 0xA68 JUMP JUMPDEST DUP6 SLOAD DUP2 SWAP1 DUP8 SWAP1 PUSH1 0x0 NOT DUP2 ADD SWAP1 DUP2 LT PUSH2 0xA38 JUMPI INVALID JUMPDEST SWAP1 PUSH1 0x0 MSTORE PUSH1 0x20 PUSH1 0x0 KECCAK256 SWAP1 PUSH1 0x3 MUL ADD PUSH1 0x0 DUP3 ADD MLOAD DUP2 PUSH1 0x0 ADD SSTORE PUSH1 0x20 DUP3 ADD MLOAD DUP2 PUSH1 0x1 ADD SSTORE PUSH1 0x40 DUP3 ADD MLOAD DUP2 PUSH1 0x2 ADD SSTORE SWAP1 POP POP JUMPDEST POP POP POP POP POP POP POP POP POP POP POP POP JUMP JUMPDEST DUP1 SLOAD PUSH1 0x1 DUP3 ADD SLOAD PUSH1 0x2 DUP4 ADD SLOAD PUSH1 0x3 SWAP1 SWAP4 ADD SLOAD SWAP2 SWAP4 SWAP1 SWAP3 PUSH1 0x1 PUSH1 0x1 PUSH1 0xA0 SHL SUB AND SWAP2 SWAP1 JUMP JUMPDEST PUSH1 0x0 DUP5 DUP2 MSTORE PUSH1 0x4 DUP7 ADD PUSH1 0x20 SWAP1 DUP2 MSTORE PUSH1 0x40 DUP1 DUP4 KECCAK256 PUSH1 0x1 PUSH1 0x1 PUSH1 0xA0 SHL SUB DUP8 AND DUP5 MSTORE PUSH1 0x1 DUP2 ADD SWAP1 SWAP3 MSTORE DUP3 KECCAK256 SWAP1 SWAP2 DUP1 DUP1 PUSH2 0xAD0 DUP11 DUP11 DUP11 PUSH2 0xF90 JUMP JUMPDEST DUP7 SLOAD SWAP3 SWAP6 POP SWAP1 SWAP4 POP SWAP2 POP PUSH1 0x0 PUSH2 0xAE5 DUP13 PUSH2 0x1096 JUMP JUMPDEST SWAP5 DUP10 ADD SWAP5 SWAP3 DUP9 ADD SWAP3 SWAP1 POP PUSH2 0xAF7 PUSH2 0x14B7 JUMP JUMPDEST POP PUSH1 0x40 DUP1 MLOAD PUSH1 0x60 DUP1 DUP3 ADD DUP4 MSTORE DUP8 DUP3 MSTORE PUSH1 0x20 DUP1 DUP4 ADD DUP8 SWAP1 MSTORE DUP3 DUP5 ADD DUP6 SWAP1 MSTORE DUP4 MLOAD CALLER DUP2 MSTORE SWAP1 DUP2 ADD DUP16 SWAP1 MSTORE DUP1 DUP5 ADD DUP6 SWAP1 MSTORE PUSH1 0x1 PUSH1 0x1 PUSH1 0xA0 SHL SUB DUP15 AND SWAP2 DUP2 ADD SWAP2 SWAP1 SWAP2 MSTORE PUSH1 0x80 DUP2 ADD DUP13 SWAP1 MSTORE PUSH1 0xA0 DUP2 ADD DUP12 SWAP1 MSTORE SWAP2 MLOAD SWAP1 SWAP2 PUSH32 0x34B2D1E14DD08F15CD0495453A3181C6AAFFD6D2DC171DBF7C52B3D18CF35B75 SWAP2 SWAP1 DUP2 SWAP1 SUB PUSH1 0xC0 ADD SWAP1 LOG1 PUSH1 0x0 DUP4 GT DUP1 ISZERO PUSH2 0xB90 JUMPI POP DUP13 PUSH1 0x3 ADD SLOAD DUP13 EQ ISZERO DUP1 PUSH2 0xB90 JUMPI POP DUP2 DUP6 EQ JUMPDEST ISZERO PUSH2 0xBE4 JUMPI DUP1 DUP8 PUSH1 0x0 ADD PUSH1 0x1 DUP6 SUB DUP2 SLOAD DUP2 LT PUSH2 0xBA8 JUMPI INVALID JUMPDEST SWAP1 PUSH1 0x0 MSTORE PUSH1 0x20 PUSH1 0x0 KECCAK256 SWAP1 PUSH1 0x3 MUL ADD PUSH1 0x0 DUP3 ADD MLOAD DUP2 PUSH1 0x0 ADD SSTORE PUSH1 0x20 DUP3 ADD MLOAD DUP2 PUSH1 0x1 ADD SSTORE PUSH1 0x40 DUP3 ADD MLOAD DUP2 PUSH1 0x2 ADD SSTORE SWAP1 POP POP POP POP POP POP POP POP POP POP PUSH2 0xC6E JUMP JUMPDEST DUP3 PUSH2 0xC30 JUMPI PUSH1 0x1 PUSH2 0xBF5 DUP15 DUP15 PUSH2 0x7EC JUMP JUMPDEST SUB PUSH1 0x1 DUP9 ADD DUP2 SWAP1 SSTORE DUP9 SLOAD DUP4 SWAP2 DUP11 SWAP2 DUP2 LT PUSH2 0xC0B JUMPI INVALID JUMPDEST SWAP1 PUSH1 0x0 MSTORE PUSH1 0x20 PUSH1 0x0 KECCAK256 SWAP1 PUSH1 0x3 MUL ADD PUSH1 0x2 ADD SLOAD LT ISZERO PUSH2 0xC30 JUMPI PUSH1 0x1 DUP1 DUP9 ADD DUP1 SLOAD SWAP1 SWAP2 ADD SWAP1 SSTORE JUMPDEST DUP7 SLOAD PUSH1 0x1 DUP2 DUP2 ADD DUP10 SSTORE PUSH1 0x0 SWAP9 DUP10 MSTORE PUSH1 0x20 SWAP9 DUP10 SWAP1 KECCAK256 DUP4 MLOAD PUSH1 0x3 SWAP1 SWAP4 MUL ADD SWAP2 DUP3 SSTORE SWAP8 DUP3 ADD MLOAD SWAP8 DUP2 ADD SWAP8 SWAP1 SWAP8 SSTORE PUSH1 0x40 ADD MLOAD PUSH1 0x2 SWAP1 SWAP7 ADD SWAP6 SWAP1 SWAP6 SSTORE POP POP POP POP POP POP JUMPDEST POP POP POP POP POP JUMP JUMPDEST PUSH1 0x0 DUP3 DUP2 MSTORE PUSH1 0x4 DUP5 ADD PUSH1 0x20 SWAP1 DUP2 MSTORE PUSH1 0x40 DUP1 DUP4 KECCAK256 PUSH1 0x3 DUP8 ADD SLOAD DUP5 MSTORE DUP2 DUP5 KECCAK256 PUSH1 0x1 PUSH1 0x1 PUSH1 0xA0 SHL SUB DUP7 AND DUP6 MSTORE PUSH1 0x1 DUP1 DUP4 ADD DUP6 MSTORE DUP4 DUP7 KECCAK256 SWAP1 DUP3 ADD SWAP1 SWAP5 MSTORE SWAP2 DUP5 KECCAK256 DUP2 SLOAD SWAP2 SWAP4 SWAP2 DUP6 SWAP1 DUP6 SWAP1 PUSH1 0x0 NOT DUP2 ADD SWAP1 DUP2 LT PUSH2 0xCC8 JUMPI INVALID JUMPDEST SWAP1 PUSH1 0x0 MSTORE PUSH1 0x20 PUSH1 0x0 KECCAK256 SWAP1 PUSH1 0x3 MUL ADD SWAP1 POP PUSH2 0xCE1 DUP10 PUSH2 0x1096 JUMP JUMPDEST DUP2 PUSH1 0x2 ADD SLOAD LT ISZERO PUSH2 0xCF6 JUMPI PUSH2 0xCF6 DUP10 DUP10 PUSH2 0x1177 JUMP JUMPDEST PUSH1 0x0 DUP1 PUSH1 0x0 PUSH2 0xD06 DUP13 DUP13 DUP13 PUSH2 0x63E JUMP JUMPDEST SWAP3 SWAP12 POP SWAP1 SWAP5 POP SWAP3 POP SWAP1 POP DUP1 PUSH2 0xD26 JUMPI PUSH1 0x0 SWAP9 POP POP POP POP POP POP POP POP POP PUSH2 0x4AA JUMP JUMPDEST PUSH1 0x2 DUP5 ADD SLOAD PUSH1 0x40 DUP1 MLOAD CALLER DUP2 MSTORE PUSH1 0x20 DUP2 ADD DUP15 SWAP1 MSTORE DUP1 DUP3 ADD SWAP3 SWAP1 SWAP3 MSTORE PUSH1 0x60 DUP3 ADD DUP12 SWAP1 MSTORE PUSH1 0x80 DUP3 ADD DUP6 SWAP1 MSTORE PUSH1 0xA0 DUP3 ADD DUP5 SWAP1 MSTORE MLOAD PUSH32 0x703E744CB3AE9492E7B192242CD2A9916B267E8BE750FF02A0961442D87AC609 SWAP2 DUP2 SWAP1 SUB PUSH1 0xC0 ADD SWAP1 LOG1 PUSH2 0xD8E DUP13 DUP13 DUP13 DUP13 PUSH1 0x0 PUSH2 0xA99 JUMP JUMPDEST PUSH1 0x0 PUSH2 0xD9A DUP7 DUP6 PUSH2 0x127C JUMP JUMPDEST SWAP1 POP PUSH1 0x0 PUSH2 0xDA8 DUP15 DUP6 PUSH2 0x12C6 JUMP JUMPDEST SWAP1 POP PUSH2 0xDB6 DUP15 DUP15 DUP15 DUP8 PUSH2 0x1325 JUMP JUMPDEST DUP10 SLOAD PUSH1 0x1 DUP10 ADD SLOAD EQ ISZERO PUSH2 0xDE1 JUMPI POP POP DUP6 SLOAD PUSH1 0x0 NOT ADD PUSH1 0x2 SWAP1 SWAP7 ADD SWAP6 SWAP1 SWAP6 SSTORE POP PUSH2 0x4AA SWAP6 POP POP POP POP POP POP JUMP JUMPDEST DUP1 DUP3 GT PUSH2 0xE1A JUMPI PUSH2 0xDF4 DUP15 DUP15 DUP15 DUP9 PUSH2 0x1378 JUMP JUMPDEST PUSH2 0xDFF DUP15 DUP15 DUP15 PUSH2 0x63E JUMP JUMPDEST SWAP3 SWAP14 POP SWAP1 SWAP7 POP SWAP5 POP SWAP3 POP PUSH2 0xE13 DUP8 DUP7 PUSH2 0x127C JUMP JUMPDEST SWAP2 POP PUSH2 0xDE1 JUMP JUMPDEST POP POP POP POP POP POP POP POP POP POP SWAP4 SWAP3 POP POP POP JUMP JUMPDEST PUSH1 0x0 DUP3 DUP2 MSTORE PUSH1 0x4 DUP5 ADD PUSH1 0x20 MSTORE PUSH1 0x40 DUP2 KECCAK256 DUP2 PUSH2 0xE47 DUP7 DUP7 DUP7 PUSH2 0x801 JUMP JUMPDEST SWAP1 POP DUP1 PUSH2 0xE59 JUMPI PUSH1 0x0 SWAP3 POP POP POP PUSH2 0x4AA JUMP JUMPDEST PUSH1 0x1 PUSH1 0x1 PUSH1 0xA0 SHL SUB DUP5 AND PUSH1 0x0 SWAP1 DUP2 MSTORE PUSH1 0x1 DUP4 ADD PUSH1 0x20 MSTORE PUSH1 0x40 DUP2 KECCAK256 DUP1 SLOAD PUSH1 0x0 NOT DUP5 ADD SWAP1 DUP2 LT PUSH2 0xE83 JUMPI INVALID JUMPDEST PUSH1 0x0 SWAP2 DUP3 MSTORE PUSH1 0x20 SWAP1 SWAP2 KECCAK256 PUSH1 0x3 SWAP1 SWAP2 MUL ADD SLOAD SWAP8 SWAP7 POP POP POP POP POP POP POP JUMP JUMPDEST PUSH1 0x0 DUP3 DUP2 MSTORE PUSH1 0x4 DUP5 ADD PUSH1 0x20 MSTORE PUSH1 0x40 DUP2 KECCAK256 DUP1 SLOAD SWAP1 SWAP2 SWAP1 DUP3 SWAP1 PUSH1 0x0 NOT DUP2 ADD SWAP1 DUP2 LT PUSH2 0xEC4 JUMPI INVALID JUMPDEST SWAP1 PUSH1 0x0 MSTORE PUSH1 0x20 PUSH1 0x0 KECCAK256 SWAP1 PUSH1 0x3 MUL ADD SWAP1 POP PUSH2 0xEDD DUP6 PUSH2 0x1096 JUMP JUMPDEST DUP2 PUSH1 0x2 ADD SLOAD LT ISZERO PUSH2 0xF15 JUMPI PUSH2 0xEF2 DUP6 DUP6 PUSH2 0x1177 JUMP JUMPDEST DUP2 SLOAD DUP3 SWAP1 PUSH1 0x0 NOT DUP2 ADD SWAP1 DUP2 LT PUSH2 0xF04 JUMPI INVALID JUMPDEST SWAP1 PUSH1 0x0 MSTORE PUSH1 0x20 PUSH1 0x0 KECCAK256 SWAP1 PUSH1 0x3 MUL ADD SWAP1 POP JUMPDEST PUSH1 0x1 DUP2 ADD SLOAD PUSH2 0xF2A SWAP1 DUP5 PUSH4 0xFFFFFFFF PUSH2 0x13E4 AND JUMP JUMPDEST PUSH1 0x1 DUP3 ADD SSTORE PUSH32 0x96709D4288825181C14DF06E5002029D4207C82A70441A8338901B54C05A8332 CALLER DUP6 PUSH2 0xF5B DUP9 PUSH2 0x1096 JUMP JUMPDEST PUSH1 0x40 DUP1 MLOAD PUSH1 0x1 PUSH1 0x1 PUSH1 0xA0 SHL SUB SWAP1 SWAP5 AND DUP5 MSTORE PUSH1 0x20 DUP5 ADD SWAP3 SWAP1 SWAP3 MSTORE DUP3 DUP3 ADD MSTORE PUSH1 0x60 DUP3 ADD DUP7 SWAP1 MSTORE MLOAD SWAP1 DUP2 SWAP1 SUB PUSH1 0x80 ADD SWAP1 LOG1 POP POP POP POP POP JUMP JUMPDEST PUSH1 0x0 DUP3 DUP2 MSTORE PUSH1 0x4 DUP5 ADD PUSH1 0x20 MSTORE PUSH1 0x40 DUP2 KECCAK256 DUP2 SWAP1 DUP2 SWAP1 DUP2 PUSH2 0xFB0 DUP9 DUP9 DUP9 PUSH2 0x801 JUMP JUMPDEST SWAP1 POP DUP1 PUSH2 0xFC9 JUMPI POP PUSH1 0x0 SWAP4 POP DUP4 SWAP3 POP DUP3 SWAP2 POP PUSH2 0x552 SWAP1 POP JUMP JUMPDEST PUSH1 0x1 PUSH1 0x1 PUSH1 0xA0 SHL SUB DUP7 AND PUSH1 0x0 SWAP1 DUP2 MSTORE PUSH1 0x1 DUP4 ADD PUSH1 0x20 MSTORE PUSH1 0x40 DUP2 KECCAK256 DUP1 SLOAD PUSH1 0x0 NOT DUP5 ADD SWAP1 DUP2 LT PUSH2 0xFF3 JUMPI INVALID JUMPDEST PUSH1 0x0 SWAP2 DUP3 MSTORE PUSH1 0x20 SWAP1 SWAP2 KECCAK256 PUSH1 0x3 SWAP1 SWAP2 MUL ADD DUP1 SLOAD PUSH1 0x2 DUP3 ADD SLOAD PUSH1 0x1 SWAP1 SWAP3 ADD SLOAD SWAP1 SWAP12 SWAP2 SWAP11 POP SWAP9 POP SWAP7 POP POP POP POP POP POP POP JUMP JUMPDEST PUSH1 0x0 DUP3 DUP2 MSTORE PUSH1 0x4 DUP5 ADD PUSH1 0x20 MSTORE PUSH1 0x40 DUP2 KECCAK256 DUP2 PUSH2 0x103D DUP7 DUP7 DUP7 PUSH2 0x801 JUMP JUMPDEST SWAP1 POP DUP1 PUSH2 0x104F JUMPI PUSH1 0x0 SWAP3 POP POP POP PUSH2 0x4AA JUMP JUMPDEST PUSH1 0x1 PUSH1 0x1 PUSH1 0xA0 SHL SUB DUP5 AND PUSH1 0x0 SWAP1 DUP2 MSTORE PUSH1 0x1 DUP4 ADD PUSH1 0x20 MSTORE PUSH1 0x40 SWAP1 KECCAK256 DUP1 SLOAD PUSH1 0x0 NOT DUP4 ADD SWAP1 DUP2 LT PUSH2 0x1079 JUMPI INVALID JUMPDEST SWAP1 PUSH1 0x0 MSTORE PUSH1 0x20 PUSH1 0x0 KECCAK256 SWAP1 PUSH1 0x3 MUL ADD PUSH1 0x1 ADD SLOAD SWAP3 POP POP POP SWAP4 SWAP3 POP POP POP JUMP JUMPDEST DUP1 SLOAD PUSH1 0x40 DUP1 MLOAD DUP1 DUP3 ADD SWAP1 SWAP2 MSTORE PUSH1 0x4 DUP2 MSTORE PUSH4 0x281A9819 PUSH1 0xE1 SHL PUSH1 0x20 DUP3 ADD MSTORE PUSH1 0x0 SWAP2 DUP3 SWAP2 PUSH2 0x10C9 SWAP2 TIMESTAMP SWAP2 PUSH4 0xFFFFFFFF PUSH2 0x10E0 AND JUMP JUMPDEST SWAP1 POP DUP3 PUSH1 0x1 ADD SLOAD DUP2 DUP2 PUSH2 0x10D8 JUMPI INVALID JUMPDEST DIV SWAP4 SWAP3 POP POP POP JUMP JUMPDEST PUSH1 0x0 DUP2 DUP5 DUP5 GT ISZERO PUSH2 0x116F JUMPI PUSH1 0x40 MLOAD PUSH3 0x461BCD PUSH1 0xE5 SHL DUP2 MSTORE PUSH1 0x4 ADD DUP1 DUP1 PUSH1 0x20 ADD DUP3 DUP2 SUB DUP3 MSTORE DUP4 DUP2 DUP2 MLOAD DUP2 MSTORE PUSH1 0x20 ADD SWAP2 POP DUP1 MLOAD SWAP1 PUSH1 0x20 ADD SWAP1 DUP1 DUP4 DUP4 PUSH1 0x0 JUMPDEST DUP4 DUP2 LT ISZERO PUSH2 0x1134 JUMPI DUP2 DUP2 ADD MLOAD DUP4 DUP3 ADD MSTORE PUSH1 0x20 ADD PUSH2 0x111C JUMP JUMPDEST POP POP POP POP SWAP1 POP SWAP1 DUP2 ADD SWAP1 PUSH1 0x1F AND DUP1 ISZERO PUSH2 0x1161 JUMPI DUP1 DUP3 SUB DUP1 MLOAD PUSH1 0x1 DUP4 PUSH1 0x20 SUB PUSH2 0x100 EXP SUB NOT AND DUP2 MSTORE PUSH1 0x20 ADD SWAP2 POP JUMPDEST POP SWAP3 POP POP POP PUSH1 0x40 MLOAD DUP1 SWAP2 SUB SWAP1 REVERT JUMPDEST POP POP POP SWAP1 SUB SWAP1 JUMP JUMPDEST PUSH1 0x0 DUP2 DUP2 MSTORE PUSH1 0x4 DUP4 ADD PUSH1 0x20 MSTORE PUSH1 0x40 DUP2 KECCAK256 DUP1 SLOAD SWAP1 SWAP2 SWAP1 DUP3 SWAP1 PUSH1 0x0 NOT DUP2 ADD SWAP1 DUP2 LT PUSH2 0x119C JUMPI INVALID JUMPDEST SWAP1 PUSH1 0x0 MSTORE PUSH1 0x20 PUSH1 0x0 KECCAK256 SWAP1 PUSH1 0x3 MUL ADD SWAP1 POP PUSH1 0x0 PUSH2 0x11B7 DUP6 PUSH2 0x1096 JUMP JUMPDEST SWAP1 POP PUSH2 0x11C2 DUP6 PUSH2 0x143E JUMP JUMPDEST DUP3 SSTORE PUSH2 0x11CC PUSH2 0x14B7 JUMP JUMPDEST POP PUSH1 0x40 DUP1 MLOAD PUSH1 0x60 DUP1 DUP3 ADD DUP4 MSTORE PUSH1 0x0 DUP1 DUP4 MSTORE PUSH1 0x20 DUP1 DUP5 ADD DUP3 DUP2 MSTORE DUP5 DUP7 ADD DUP8 DUP2 MSTORE DUP10 SLOAD PUSH1 0x1 DUP2 DUP2 ADD DUP13 SSTORE DUP12 DUP7 MSTORE SWAP5 DUP5 SWAP1 KECCAK256 DUP8 MLOAD PUSH1 0x3 SWAP1 SWAP3 MUL ADD SWAP1 DUP2 SSTORE SWAP2 MLOAD DUP3 DUP6 ADD SSTORE MLOAD PUSH1 0x2 SWAP2 DUP3 ADD SSTORE SWAP2 DUP8 ADD SLOAD DUP8 SLOAD SWAP3 DUP9 ADD SLOAD DUP7 MLOAD CALLER DUP2 MSTORE SWAP3 DUP4 ADD DUP12 SWAP1 MSTORE DUP3 DUP8 ADD SWAP2 SWAP1 SWAP2 MSTORE SWAP3 DUP2 ADD SWAP2 SWAP1 SWAP2 MSTORE PUSH1 0x80 DUP2 ADD SWAP2 SWAP1 SWAP2 MSTORE PUSH1 0xA0 DUP2 ADD DUP5 SWAP1 MSTORE SWAP2 MLOAD SWAP1 SWAP2 PUSH32 0xD4B8133B244CFEC82D848130189D3C9787263ECBCF6D4432F2D167642547D90 SWAP2 SWAP1 DUP2 SWAP1 SUB PUSH1 0xC0 ADD SWAP1 LOG1 POP POP POP POP POP POP JUMP JUMPDEST DUP2 SLOAD PUSH1 0x0 SWAP1 PUSH1 0x1 DUP4 ADD LT ISZERO PUSH2 0x12B6 JUMPI DUP3 PUSH1 0x0 ADD DUP3 PUSH1 0x1 ADD DUP2 SLOAD DUP2 LT PUSH2 0x129D JUMPI INVALID JUMPDEST SWAP1 PUSH1 0x0 MSTORE PUSH1 0x20 PUSH1 0x0 KECCAK256 SWAP1 PUSH1 0x3 MUL ADD PUSH1 0x2 ADD SLOAD SWAP1 POP PUSH2 0x491 JUMP JUMPDEST POP PUSH8 0xDE0B6B3A7640000 SWAP3 SWAP2 POP POP JUMP JUMPDEST PUSH1 0x3 DUP3 ADD SLOAD PUSH1 0x0 SWAP1 DUP2 MSTORE PUSH1 0x4 DUP4 ADD PUSH1 0x20 MSTORE PUSH1 0x40 DUP2 KECCAK256 DUP1 SLOAD PUSH1 0x1 DUP5 ADD LT ISZERO PUSH2 0x1312 JUMPI DUP1 PUSH1 0x0 ADD DUP4 PUSH1 0x1 ADD DUP2 SLOAD DUP2 LT PUSH2 0x12F9 JUMPI INVALID JUMPDEST SWAP1 PUSH1 0x0 MSTORE PUSH1 0x20 PUSH1 0x0 KECCAK256 SWAP1 PUSH1 0x3 MUL ADD PUSH1 0x2 ADD SLOAD SWAP2 POP PUSH2 0x131E JUMP JUMPDEST PUSH8 0xDE0B6B3A763FFFF SWAP2 POP JUMPDEST POP SWAP3 SWAP2 POP POP JUMP JUMPDEST PUSH1 0x3 DUP5 ADD SLOAD PUSH1 0x0 SWAP1 DUP2 MSTORE PUSH1 0x4 DUP6 ADD PUSH1 0x20 MSTORE PUSH1 0x40 SWAP1 KECCAK256 SLOAD DUP2 LT ISZERO PUSH2 0x58B JUMPI PUSH1 0x0 DUP4 DUP2 MSTORE PUSH1 0x4 DUP6 ADD PUSH1 0x20 SWAP1 DUP2 MSTORE PUSH1 0x40 DUP1 DUP4 KECCAK256 PUSH1 0x1 PUSH1 0x1 PUSH1 0xA0 SHL SUB DUP7 AND DUP5 MSTORE PUSH1 0x1 SWAP1 DUP2 ADD SWAP1 SWAP3 MSTORE SWAP1 SWAP2 KECCAK256 DUP2 DUP4 ADD SWAP2 ADD SSTORE POP POP POP POP JUMP JUMPDEST PUSH1 0x3 DUP5 ADD SLOAD PUSH1 0x0 SWAP1 DUP2 MSTORE PUSH1 0x4 DUP6 ADD PUSH1 0x20 SWAP1 DUP2 MSTORE PUSH1 0x40 DUP1 DUP4 KECCAK256 PUSH1 0x1 PUSH1 0x1 PUSH1 0xA0 SHL SUB DUP7 AND DUP5 MSTORE PUSH1 0x1 ADD SWAP1 SWAP2 MSTORE SWAP1 KECCAK256 SLOAD DUP2 LT ISZERO PUSH2 0x58B JUMPI PUSH1 0x0 SWAP3 DUP4 MSTORE PUSH1 0x4 SWAP4 SWAP1 SWAP4 ADD PUSH1 0x20 SWAP1 DUP2 MSTORE PUSH1 0x40 DUP1 DUP5 KECCAK256 PUSH1 0x1 PUSH1 0x1 PUSH1 0xA0 SHL SUB SWAP4 SWAP1 SWAP4 AND DUP5 MSTORE PUSH1 0x1 SWAP3 DUP4 ADD SWAP1 SWAP2 MSTORE SWAP1 SWAP2 KECCAK256 SWAP2 ADD PUSH1 0x2 SWAP1 SWAP2 ADD SSTORE JUMP JUMPDEST PUSH1 0x0 DUP3 DUP3 ADD DUP4 DUP2 LT ISZERO PUSH2 0x4AA JUMPI PUSH1 0x40 DUP1 MLOAD PUSH3 0x461BCD PUSH1 0xE5 SHL DUP2 MSTORE PUSH1 0x20 PUSH1 0x4 DUP3 ADD MSTORE PUSH1 0x1B PUSH1 0x24 DUP3 ADD MSTORE PUSH32 0x536166654D6174683A206164646974696F6E206F766572666C6F770000000000 PUSH1 0x44 DUP3 ADD MSTORE SWAP1 MLOAD SWAP1 DUP2 SWAP1 SUB PUSH1 0x64 ADD SWAP1 REVERT JUMPDEST PUSH1 0x2 DUP2 ADD SLOAD PUSH1 0x40 DUP1 MLOAD PUSH4 0x9358928B PUSH1 0xE0 SHL DUP2 MSTORE SWAP1 MLOAD PUSH1 0x0 SWAP3 PUSH1 0x1 PUSH1 0x1 PUSH1 0xA0 SHL SUB AND SWAP2 PUSH4 0x9358928B SWAP2 PUSH1 0x4 DUP1 DUP4 ADD SWAP3 PUSH1 0x20 SWAP3 SWAP2 SWAP1 DUP3 SWAP1 SUB ADD DUP2 DUP7 DUP1 EXTCODESIZE ISZERO DUP1 ISZERO PUSH2 0x1485 JUMPI PUSH1 0x0 DUP1 REVERT JUMPDEST POP GAS STATICCALL ISZERO DUP1 ISZERO PUSH2 0x1499 JUMPI RETURNDATASIZE PUSH1 0x0 DUP1 RETURNDATACOPY RETURNDATASIZE PUSH1 0x0 REVERT JUMPDEST POP POP POP POP PUSH1 0x40 MLOAD RETURNDATASIZE PUSH1 0x20 DUP2 LT ISZERO PUSH2 0x14AF JUMPI PUSH1 0x0 DUP1 REVERT JUMPDEST POP MLOAD SWAP3 SWAP2 POP POP JUMP JUMPDEST PUSH1 0x40 MLOAD DUP1 PUSH1 0x60 ADD PUSH1 0x40 MSTORE DUP1 PUSH1 0x0 DUP2 MSTORE PUSH1 0x20 ADD PUSH1 0x0 DUP2 MSTORE PUSH1 0x20 ADD PUSH1 0x0 DUP2 MSTORE POP SWAP1 JUMP JUMPDEST PUSH2 0x14E0 PUSH2 0x14B7 JUMP JUMPDEST POP PUSH1 0x40 DUP1 MLOAD PUSH1 0x60 DUP2 ADD DUP3 MSTORE PUSH1 0x0 DUP1 DUP3 MSTORE PUSH1 0x20 DUP3 ADD DUP2 SWAP1 MSTORE SWAP2 DUP2 ADD DUP3 SWAP1 MSTORE PUSH1 0x3 DUP9 ADD DUP7 SWAP1 SSTORE DUP5 DUP9 SSTORE PUSH1 0x1 DUP9 ADD DUP5 SWAP1 SSTORE PUSH1 0x2 DUP9 ADD DUP1 SLOAD PUSH1 0x1 PUSH1 0x1 PUSH1 0xA0 SHL SUB NOT AND PUSH1 0x1 PUSH1 0x1 PUSH1 0xA0 SHL SUB DUP6 AND OR SWAP1 SSTORE SWAP1 JUMPDEST DUP7 SLOAD DUP2 LT ISZERO PUSH2 0x15A0 JUMPI PUSH1 0x0 DUP9 PUSH1 0x4 ADD PUSH1 0x0 DUP10 DUP5 DUP2 SLOAD DUP2 LT PUSH2 0x154A JUMPI INVALID JUMPDEST PUSH1 0x0 SWAP2 DUP3 MSTORE PUSH1 0x20 DUP1 DUP4 KECCAK256 SWAP1 SWAP2 ADD SLOAD DUP4 MSTORE DUP3 DUP2 ADD SWAP4 SWAP1 SWAP4 MSTORE PUSH1 0x40 SWAP2 DUP3 ADD DUP2 KECCAK256 DUP1 SLOAD PUSH1 0x1 DUP2 DUP2 ADD DUP4 SSTORE SWAP2 DUP4 MSTORE SWAP2 DUP5 SWAP1 KECCAK256 DUP8 MLOAD PUSH1 0x3 SWAP1 SWAP4 MUL ADD SWAP2 DUP3 SSTORE SWAP3 DUP7 ADD MLOAD DUP2 DUP5 ADD SSTORE SWAP1 DUP6 ADD MLOAD PUSH1 0x2 SWAP1 SWAP2 ADD SSTORE SWAP2 SWAP1 SWAP2 ADD SWAP1 POP PUSH2 0x152D JUMP JUMPDEST POP POP POP POP POP POP POP POP JUMP INVALID LOG2 PUSH5 0x6970667358 0x22 SLT KECCAK256 0xB3 0x2B 0x2F RETURNDATASIZE 0xC5 0xAB PUSH12 0xDE9CC58B41C612874DD5515E 0x5C MSTORE8 0xDA SELFDESTRUCT SELFBALANCE PUSH28 0x9B5C2152D8B1C564736F6C6343000606003300000000000000000000 "
		},
		"gasEstimates": {
			"creation": {
				"codeDepositCost": "1120000",
				"executionCost": "infinite",
				"totalCost": "infinite"
			},
			"external": {
				"ETH_ASSET()": "372",
				"HODL_ASSET()": "393",
				"add(bytes32,address,uint256,uint256)": "infinite",
				"additionalControlled(bytes32,address)": "infinite",
				"balanceOf(bytes32,address)": "infinite",
				"circulatingSupply()": "1087",
				"configuration()": "3655",
				"distributionAtIndex(bytes32,uint256)": "infinite",
				"distributionCount(bytes32)": "infinite",
				"increaseDistribution(bytes32,uint256)": "infinite",
				"inspectCirculatingSupply()": "infinite",
				"nextUserDistributionDetails(bytes32,address)": "infinite",
				"period()": "infinite",
				"poke(bytes32)": "infinite",
				"processNextUserDistribution(bytes32,address)": "infinite",
				"sub(bytes32,address,uint256,uint256)": "infinite",
				"userBalanceAtIndex(bytes32,address,uint256)": "infinite",
				"userBalanceCount(bytes32,address)": "infinite",
				"userLatestBalanceUpdate(bytes32,address)": "infinite"
			}
		},
		"methodIdentifiers": {
			"ETH_ASSET()": "284fef4b",
			"HODL_ASSET()": "4f8c4a45",
			"add(bytes32,address,uint256,uint256)": "91ed8c58",
			"additionalControlled(bytes32,address)": "df14566e",
			"balanceOf(bytes32,address)": "c2038236",
			"circulatingSupply()": "9358928b",
			"configuration()": "6c70bee9",
			"distributionAtIndex(bytes32,uint256)": "1d8f8f4b",
			"distributionCount(bytes32)": "2b0eec97",
			"increaseDistribution(bytes32,uint256)": "c68d21cd",
			"inspectCirculatingSupply()": "40a31958",
			"nextUserDistributionDetails(bytes32,address)": "02207eaa",
			"period()": "ef78d4fd",
			"poke(bytes32)": "1504460f",
			"processNextUserDistribution(bytes32,address)": "bae7be4f",
			"sub(bytes32,address,uint256,uint256)": "62a1cdd5",
			"userBalanceAtIndex(bytes32,address,uint256)": "46debf31",
			"userBalanceCount(bytes32,address)": "363ecbc0",
			"userLatestBalanceUpdate(bytes32,address)": "d169aec1"
		}
	},
	"abi": [
		{
			"inputs": [],
			"stateMutability": "nonpayable",
			"type": "constructor"
		},
		{
			"inputs": [],
			"name": "ETH_ASSET",
			"outputs": [
				{
					"internalType": "bytes32",
					"name": "",
					"type": "bytes32"
				}
			],
			"stateMutability": "view",
			"type": "function"
		},
		{
			"inputs": [],
			"name": "HODL_ASSET",
			"outputs": [
				{
					"internalType": "bytes32",
					"name": "",
					"type": "bytes32"
				}
			],
			"stateMutability": "view",
			"type": "function"
		},
		{
			"inputs": [
				{
					"internalType": "bytes32",
					"name": "assetId",
					"type": "bytes32"
				},
				{
					"internalType": "address",
					"name": "user",
					"type": "address"
				},
				{
					"internalType": "uint256",
					"name": "toBalance",
					"type": "uint256"
				},
				{
					"internalType": "uint256",
					"name": "toControlled",
					"type": "uint256"
				}
			],
			"name": "add",
			"outputs": [],
			"stateMutability": "nonpayable",
			"type": "function"
		},
		{
			"inputs": [
				{
					"internalType": "bytes32",
					"name": "assetId",
					"type": "bytes32"
				},
				{
					"internalType": "address",
					"name": "user",
					"type": "address"
				}
			],
			"name": "additionalControlled",
			"outputs": [
				{
					"internalType": "uint256",
					"name": "controlled",
					"type": "uint256"
				}
			],
			"stateMutability": "view",
			"type": "function"
		},
		{
			"inputs": [
				{
					"internalType": "bytes32",
					"name": "assetId",
					"type": "bytes32"
				},
				{
					"internalType": "address",
					"name": "user",
					"type": "address"
				}
			],
			"name": "balanceOf",
			"outputs": [
				{
					"internalType": "uint256",
					"name": "_balance",
					"type": "uint256"
				}
			],
			"stateMutability": "view",
			"type": "function"
		},
		{
			"inputs": [],
			"name": "circulatingSupply",
			"outputs": [
				{
					"internalType": "uint256",
					"name": "supply",
					"type": "uint256"
				}
			],
			"stateMutability": "view",
			"type": "function"
		},
		{
			"inputs": [],
			"name": "configuration",
			"outputs": [
				{
					"internalType": "uint256",
					"name": "birthday",
					"type": "uint256"
				},
				{
					"internalType": "uint256",
					"name": "periodicity",
					"type": "uint256"
				},
				{
					"internalType": "address",
					"name": "source",
					"type": "address"
				},
				{
					"internalType": "bytes32",
					"name": "shareAsset",
					"type": "bytes32"
				}
			],
			"stateMutability": "view",
			"type": "function"
		},
		{
			"inputs": [
				{
					"internalType": "bytes32",
					"name": "assetId",
					"type": "bytes32"
				},
				{
					"internalType": "uint256",
					"name": "index",
					"type": "uint256"
				}
			],
			"name": "distributionAtIndex",
			"outputs": [
				{
					"internalType": "uint256",
					"name": "denominator",
					"type": "uint256"
				},
				{
					"internalType": "uint256",
					"name": "_balance",
					"type": "uint256"
				},
				{
					"internalType": "uint256",
					"name": "_period",
					"type": "uint256"
				}
			],
			"stateMutability": "view",
			"type": "function"
		},
		{
			"inputs": [
				{
					"internalType": "bytes32",
					"name": "assetId",
					"type": "bytes32"
				}
			],
			"name": "distributionCount",
			"outputs": [
				{
					"internalType": "uint256",
					"name": "count",
					"type": "uint256"
				}
			],
			"stateMutability": "view",
			"type": "function"
		},
		{
			"inputs": [
				{
					"internalType": "bytes32",
					"name": "assetId",
					"type": "bytes32"
				},
				{
					"internalType": "uint256",
					"name": "amount",
					"type": "uint256"
				}
			],
			"name": "increaseDistribution",
			"outputs": [],
			"stateMutability": "nonpayable",
			"type": "function"
		},
		{
			"inputs": [],
			"name": "inspectCirculatingSupply",
			"outputs": [
				{
					"internalType": "uint256",
					"name": "supply",
					"type": "uint256"
				}
			],
			"stateMutability": "view",
			"type": "function"
		},
		{
			"inputs": [
				{
					"internalType": "bytes32",
					"name": "assetId",
					"type": "bytes32"
				},
				{
					"internalType": "address",
					"name": "user",
					"type": "address"
				}
			],
			"name": "nextUserDistributionDetails",
			"outputs": [
				{
					"internalType": "uint256",
					"name": "amount",
					"type": "uint256"
				},
				{
					"internalType": "uint256",
					"name": "balanceIndex",
					"type": "uint256"
				},
				{
					"internalType": "uint256",
					"name": "distributionIndex",
					"type": "uint256"
				},
				{
					"internalType": "bool",
					"name": "closed",
					"type": "bool"
				}
			],
			"stateMutability": "view",
			"type": "function"
		},
		{
			"inputs": [],
			"name": "period",
			"outputs": [
				{
					"internalType": "uint256",
					"name": "periodNumber",
					"type": "uint256"
				}
			],
			"stateMutability": "view",
			"type": "function"
		},
		{
			"inputs": [
				{
					"internalType": "bytes32",
					"name": "assetId",
					"type": "bytes32"
				}
			],
			"name": "poke",
			"outputs": [],
			"stateMutability": "nonpayable",
			"type": "function"
		},
		{
			"inputs": [
				{
					"internalType": "bytes32",
					"name": "assetId",
					"type": "bytes32"
				},
				{
					"internalType": "address",
					"name": "user",
					"type": "address"
				}
			],
			"name": "processNextUserDistribution",
			"outputs": [
				{
					"internalType": "uint256",
					"name": "amount",
					"type": "uint256"
				}
			],
			"stateMutability": "nonpayable",
			"type": "function"
		},
		{
			"inputs": [
				{
					"internalType": "bytes32",
					"name": "assetId",
					"type": "bytes32"
				},
				{
					"internalType": "address",
					"name": "user",
					"type": "address"
				},
				{
					"internalType": "uint256",
					"name": "fromBalance",
					"type": "uint256"
				},
				{
					"internalType": "uint256",
					"name": "fromControlled",
					"type": "uint256"
				}
			],
			"name": "sub",
			"outputs": [],
			"stateMutability": "nonpayable",
			"type": "function"
		},
		{
			"inputs": [
				{
					"internalType": "bytes32",
					"name": "assetId",
					"type": "bytes32"
				},
				{
					"internalType": "address",
					"name": "user",
					"type": "address"
				},
				{
					"internalType": "uint256",
					"name": "index",
					"type": "uint256"
				}
			],
			"name": "userBalanceAtIndex",
			"outputs": [
				{
					"internalType": "uint256",
					"name": "_balance",
					"type": "uint256"
				},
				{
					"internalType": "uint256",
					"name": "controlled",
					"type": "uint256"
				},
				{
					"internalType": "uint256",
					"name": "_period",
					"type": "uint256"
				}
			],
			"stateMutability": "view",
			"type": "function"
		},
		{
			"inputs": [
				{
					"internalType": "bytes32",
					"name": "assetId",
					"type": "bytes32"
				},
				{
					"internalType": "address",
					"name": "user",
					"type": "address"
				}
			],
			"name": "userBalanceCount",
			"outputs": [
				{
					"internalType": "uint256",
					"name": "count",
					"type": "uint256"
				}
			],
			"stateMutability": "view",
			"type": "function"
		},
		{
			"inputs": [
				{
					"internalType": "bytes32",
					"name": "assetId",
					"type": "bytes32"
				},
				{
					"internalType": "address",
					"name": "user",
					"type": "address"
				}
			],
			"name": "userLatestBalanceUpdate",
			"outputs": [
				{
					"internalType": "uint256",
					"name": "_balance",
					"type": "uint256"
				},
				{
					"internalType": "uint256",
					"name": "_period",
					"type": "uint256"
				},
				{
					"internalType": "uint256",
					"name": "controlled",
					"type": "uint256"
				}
			],
			"stateMutability": "view",
			"type": "function"
		}
	]
}